{"abi":[{"type":"function","name":"getFullReservesIncentiveData","inputs":[{"name":"provider","type":"address","internalType":"contract IPoolAddressesProvider"},{"name":"user","type":"address","internalType":"address"}],"outputs":[{"name":"","type":"tuple[]","internalType":"struct IUiIncentiveDataProviderV3.AggregatedReserveIncentiveData[]","components":[{"name":"underlyingAsset","type":"address","internalType":"address"},{"name":"aIncentiveData","type":"tuple","internalType":"struct IUiIncentiveDataProviderV3.IncentiveData","components":[{"name":"tokenAddress","type":"address","internalType":"address"},{"name":"incentiveControllerAddress","type":"address","internalType":"address"},{"name":"rewardsTokenInformation","type":"tuple[]","internalType":"struct IUiIncentiveDataProviderV3.RewardInfo[]","components":[{"name":"rewardTokenSymbol","type":"string","internalType":"string"},{"name":"rewardTokenAddress","type":"address","internalType":"address"},{"name":"rewardOracleAddress","type":"address","internalType":"address"},{"name":"emissionPerSecond","type":"uint256","internalType":"uint256"},{"name":"incentivesLastUpdateTimestamp","type":"uint256","internalType":"uint256"},{"name":"tokenIncentivesIndex","type":"uint256","internalType":"uint256"},{"name":"emissionEndTimestamp","type":"uint256","internalType":"uint256"},{"name":"rewardPriceFeed","type":"int256","internalType":"int256"},{"name":"rewardTokenDecimals","type":"uint8","internalType":"uint8"},{"name":"precision","type":"uint8","internalType":"uint8"},{"name":"priceFeedDecimals","type":"uint8","internalType":"uint8"}]}]},{"name":"vIncentiveData","type":"tuple","internalType":"struct IUiIncentiveDataProviderV3.IncentiveData","components":[{"name":"tokenAddress","type":"address","internalType":"address"},{"name":"incentiveControllerAddress","type":"address","internalType":"address"},{"name":"rewardsTokenInformation","type":"tuple[]","internalType":"struct IUiIncentiveDataProviderV3.RewardInfo[]","components":[{"name":"rewardTokenSymbol","type":"string","internalType":"string"},{"name":"rewardTokenAddress","type":"address","internalType":"address"},{"name":"rewardOracleAddress","type":"address","internalType":"address"},{"name":"emissionPerSecond","type":"uint256","internalType":"uint256"},{"name":"incentivesLastUpdateTimestamp","type":"uint256","internalType":"uint256"},{"name":"tokenIncentivesIndex","type":"uint256","internalType":"uint256"},{"name":"emissionEndTimestamp","type":"uint256","internalType":"uint256"},{"name":"rewardPriceFeed","type":"int256","internalType":"int256"},{"name":"rewardTokenDecimals","type":"uint8","internalType":"uint8"},{"name":"precision","type":"uint8","internalType":"uint8"},{"name":"priceFeedDecimals","type":"uint8","internalType":"uint8"}]}]},{"name":"sIncentiveData","type":"tuple","internalType":"struct IUiIncentiveDataProviderV3.IncentiveData","components":[{"name":"tokenAddress","type":"address","internalType":"address"},{"name":"incentiveControllerAddress","type":"address","internalType":"address"},{"name":"rewardsTokenInformation","type":"tuple[]","internalType":"struct IUiIncentiveDataProviderV3.RewardInfo[]","components":[{"name":"rewardTokenSymbol","type":"string","internalType":"string"},{"name":"rewardTokenAddress","type":"address","internalType":"address"},{"name":"rewardOracleAddress","type":"address","internalType":"address"},{"name":"emissionPerSecond","type":"uint256","internalType":"uint256"},{"name":"incentivesLastUpdateTimestamp","type":"uint256","internalType":"uint256"},{"name":"tokenIncentivesIndex","type":"uint256","internalType":"uint256"},{"name":"emissionEndTimestamp","type":"uint256","internalType":"uint256"},{"name":"rewardPriceFeed","type":"int256","internalType":"int256"},{"name":"rewardTokenDecimals","type":"uint8","internalType":"uint8"},{"name":"precision","type":"uint8","internalType":"uint8"},{"name":"priceFeedDecimals","type":"uint8","internalType":"uint8"}]}]}]},{"name":"","type":"tuple[]","internalType":"struct IUiIncentiveDataProviderV3.UserReserveIncentiveData[]","components":[{"name":"underlyingAsset","type":"address","internalType":"address"},{"name":"aTokenIncentivesUserData","type":"tuple","internalType":"struct IUiIncentiveDataProviderV3.UserIncentiveData","components":[{"name":"tokenAddress","type":"address","internalType":"address"},{"name":"incentiveControllerAddress","type":"address","internalType":"address"},{"name":"userRewardsInformation","type":"tuple[]","internalType":"struct IUiIncentiveDataProviderV3.UserRewardInfo[]","components":[{"name":"rewardTokenSymbol","type":"string","internalType":"string"},{"name":"rewardOracleAddress","type":"address","internalType":"address"},{"name":"rewardTokenAddress","type":"address","internalType":"address"},{"name":"userUnclaimedRewards","type":"uint256","internalType":"uint256"},{"name":"tokenIncentivesUserIndex","type":"uint256","internalType":"uint256"},{"name":"rewardPriceFeed","type":"int256","internalType":"int256"},{"name":"priceFeedDecimals","type":"uint8","internalType":"uint8"},{"name":"rewardTokenDecimals","type":"uint8","internalType":"uint8"}]}]},{"name":"vTokenIncentivesUserData","type":"tuple","internalType":"struct IUiIncentiveDataProviderV3.UserIncentiveData","components":[{"name":"tokenAddress","type":"address","internalType":"address"},{"name":"incentiveControllerAddress","type":"address","internalType":"address"},{"name":"userRewardsInformation","type":"tuple[]","internalType":"struct IUiIncentiveDataProviderV3.UserRewardInfo[]","components":[{"name":"rewardTokenSymbol","type":"string","internalType":"string"},{"name":"rewardOracleAddress","type":"address","internalType":"address"},{"name":"rewardTokenAddress","type":"address","internalType":"address"},{"name":"userUnclaimedRewards","type":"uint256","internalType":"uint256"},{"name":"tokenIncentivesUserIndex","type":"uint256","internalType":"uint256"},{"name":"rewardPriceFeed","type":"int256","internalType":"int256"},{"name":"priceFeedDecimals","type":"uint8","internalType":"uint8"},{"name":"rewardTokenDecimals","type":"uint8","internalType":"uint8"}]}]},{"name":"sTokenIncentivesUserData","type":"tuple","internalType":"struct IUiIncentiveDataProviderV3.UserIncentiveData","components":[{"name":"tokenAddress","type":"address","internalType":"address"},{"name":"incentiveControllerAddress","type":"address","internalType":"address"},{"name":"userRewardsInformation","type":"tuple[]","internalType":"struct IUiIncentiveDataProviderV3.UserRewardInfo[]","components":[{"name":"rewardTokenSymbol","type":"string","internalType":"string"},{"name":"rewardOracleAddress","type":"address","internalType":"address"},{"name":"rewardTokenAddress","type":"address","internalType":"address"},{"name":"userUnclaimedRewards","type":"uint256","internalType":"uint256"},{"name":"tokenIncentivesUserIndex","type":"uint256","internalType":"uint256"},{"name":"rewardPriceFeed","type":"int256","internalType":"int256"},{"name":"priceFeedDecimals","type":"uint8","internalType":"uint8"},{"name":"rewardTokenDecimals","type":"uint8","internalType":"uint8"}]}]}]}],"stateMutability":"view"},{"type":"function","name":"getReservesIncentivesData","inputs":[{"name":"provider","type":"address","internalType":"contract IPoolAddressesProvider"}],"outputs":[{"name":"","type":"tuple[]","internalType":"struct IUiIncentiveDataProviderV3.AggregatedReserveIncentiveData[]","components":[{"name":"underlyingAsset","type":"address","internalType":"address"},{"name":"aIncentiveData","type":"tuple","internalType":"struct IUiIncentiveDataProviderV3.IncentiveData","components":[{"name":"tokenAddress","type":"address","internalType":"address"},{"name":"incentiveControllerAddress","type":"address","internalType":"address"},{"name":"rewardsTokenInformation","type":"tuple[]","internalType":"struct IUiIncentiveDataProviderV3.RewardInfo[]","components":[{"name":"rewardTokenSymbol","type":"string","internalType":"string"},{"name":"rewardTokenAddress","type":"address","internalType":"address"},{"name":"rewardOracleAddress","type":"address","internalType":"address"},{"name":"emissionPerSecond","type":"uint256","internalType":"uint256"},{"name":"incentivesLastUpdateTimestamp","type":"uint256","internalType":"uint256"},{"name":"tokenIncentivesIndex","type":"uint256","internalType":"uint256"},{"name":"emissionEndTimestamp","type":"uint256","internalType":"uint256"},{"name":"rewardPriceFeed","type":"int256","internalType":"int256"},{"name":"rewardTokenDecimals","type":"uint8","internalType":"uint8"},{"name":"precision","type":"uint8","internalType":"uint8"},{"name":"priceFeedDecimals","type":"uint8","internalType":"uint8"}]}]},{"name":"vIncentiveData","type":"tuple","internalType":"struct IUiIncentiveDataProviderV3.IncentiveData","components":[{"name":"tokenAddress","type":"address","internalType":"address"},{"name":"incentiveControllerAddress","type":"address","internalType":"address"},{"name":"rewardsTokenInformation","type":"tuple[]","internalType":"struct IUiIncentiveDataProviderV3.RewardInfo[]","components":[{"name":"rewardTokenSymbol","type":"string","internalType":"string"},{"name":"rewardTokenAddress","type":"address","internalType":"address"},{"name":"rewardOracleAddress","type":"address","internalType":"address"},{"name":"emissionPerSecond","type":"uint256","internalType":"uint256"},{"name":"incentivesLastUpdateTimestamp","type":"uint256","internalType":"uint256"},{"name":"tokenIncentivesIndex","type":"uint256","internalType":"uint256"},{"name":"emissionEndTimestamp","type":"uint256","internalType":"uint256"},{"name":"rewardPriceFeed","type":"int256","internalType":"int256"},{"name":"rewardTokenDecimals","type":"uint8","internalType":"uint8"},{"name":"precision","type":"uint8","internalType":"uint8"},{"name":"priceFeedDecimals","type":"uint8","internalType":"uint8"}]}]},{"name":"sIncentiveData","type":"tuple","internalType":"struct IUiIncentiveDataProviderV3.IncentiveData","components":[{"name":"tokenAddress","type":"address","internalType":"address"},{"name":"incentiveControllerAddress","type":"address","internalType":"address"},{"name":"rewardsTokenInformation","type":"tuple[]","internalType":"struct IUiIncentiveDataProviderV3.RewardInfo[]","components":[{"name":"rewardTokenSymbol","type":"string","internalType":"string"},{"name":"rewardTokenAddress","type":"address","internalType":"address"},{"name":"rewardOracleAddress","type":"address","internalType":"address"},{"name":"emissionPerSecond","type":"uint256","internalType":"uint256"},{"name":"incentivesLastUpdateTimestamp","type":"uint256","internalType":"uint256"},{"name":"tokenIncentivesIndex","type":"uint256","internalType":"uint256"},{"name":"emissionEndTimestamp","type":"uint256","internalType":"uint256"},{"name":"rewardPriceFeed","type":"int256","internalType":"int256"},{"name":"rewardTokenDecimals","type":"uint8","internalType":"uint8"},{"name":"precision","type":"uint8","internalType":"uint8"},{"name":"priceFeedDecimals","type":"uint8","internalType":"uint8"}]}]}]}],"stateMutability":"view"},{"type":"function","name":"getUserReservesIncentivesData","inputs":[{"name":"provider","type":"address","internalType":"contract IPoolAddressesProvider"},{"name":"user","type":"address","internalType":"address"}],"outputs":[{"name":"","type":"tuple[]","internalType":"struct IUiIncentiveDataProviderV3.UserReserveIncentiveData[]","components":[{"name":"underlyingAsset","type":"address","internalType":"address"},{"name":"aTokenIncentivesUserData","type":"tuple","internalType":"struct IUiIncentiveDataProviderV3.UserIncentiveData","components":[{"name":"tokenAddress","type":"address","internalType":"address"},{"name":"incentiveControllerAddress","type":"address","internalType":"address"},{"name":"userRewardsInformation","type":"tuple[]","internalType":"struct IUiIncentiveDataProviderV3.UserRewardInfo[]","components":[{"name":"rewardTokenSymbol","type":"string","internalType":"string"},{"name":"rewardOracleAddress","type":"address","internalType":"address"},{"name":"rewardTokenAddress","type":"address","internalType":"address"},{"name":"userUnclaimedRewards","type":"uint256","internalType":"uint256"},{"name":"tokenIncentivesUserIndex","type":"uint256","internalType":"uint256"},{"name":"rewardPriceFeed","type":"int256","internalType":"int256"},{"name":"priceFeedDecimals","type":"uint8","internalType":"uint8"},{"name":"rewardTokenDecimals","type":"uint8","internalType":"uint8"}]}]},{"name":"vTokenIncentivesUserData","type":"tuple","internalType":"struct IUiIncentiveDataProviderV3.UserIncentiveData","components":[{"name":"tokenAddress","type":"address","internalType":"address"},{"name":"incentiveControllerAddress","type":"address","internalType":"address"},{"name":"userRewardsInformation","type":"tuple[]","internalType":"struct IUiIncentiveDataProviderV3.UserRewardInfo[]","components":[{"name":"rewardTokenSymbol","type":"string","internalType":"string"},{"name":"rewardOracleAddress","type":"address","internalType":"address"},{"name":"rewardTokenAddress","type":"address","internalType":"address"},{"name":"userUnclaimedRewards","type":"uint256","internalType":"uint256"},{"name":"tokenIncentivesUserIndex","type":"uint256","internalType":"uint256"},{"name":"rewardPriceFeed","type":"int256","internalType":"int256"},{"name":"priceFeedDecimals","type":"uint8","internalType":"uint8"},{"name":"rewardTokenDecimals","type":"uint8","internalType":"uint8"}]}]},{"name":"sTokenIncentivesUserData","type":"tuple","internalType":"struct IUiIncentiveDataProviderV3.UserIncentiveData","components":[{"name":"tokenAddress","type":"address","internalType":"address"},{"name":"incentiveControllerAddress","type":"address","internalType":"address"},{"name":"userRewardsInformation","type":"tuple[]","internalType":"struct IUiIncentiveDataProviderV3.UserRewardInfo[]","components":[{"name":"rewardTokenSymbol","type":"string","internalType":"string"},{"name":"rewardOracleAddress","type":"address","internalType":"address"},{"name":"rewardTokenAddress","type":"address","internalType":"address"},{"name":"userUnclaimedRewards","type":"uint256","internalType":"uint256"},{"name":"tokenIncentivesUserIndex","type":"uint256","internalType":"uint256"},{"name":"rewardPriceFeed","type":"int256","internalType":"int256"},{"name":"priceFeedDecimals","type":"uint8","internalType":"uint8"},{"name":"rewardTokenDecimals","type":"uint8","internalType":"uint8"}]}]}]}],"stateMutability":"view"}],"bytecode":{"object":"0x6080604052348015600e575f5ffd5b50613e528061001c5f395ff3fe608060405234801561000f575f5ffd5b506004361061003f575f3560e01c80634763753614610043578063799bdcf514610074578063976fafc5146100a4575b5f5ffd5b61005d60048036038101906100589190612ed0565b6100d4565b60405161006b9291906135d3565b60405180910390f35b61008e60048036038101906100899190612ed0565b6100f5565b60405161009b9190613608565b60405180910390f35b6100be60048036038101906100b99190613628565b610109565b6040516100cb9190613653565b60405180910390f35b6060806100e08461011b565b6100ea8585611682565b915091509250929050565b60606101018383611682565b905092915050565b60606101148261011b565b9050919050565b60605f8273ffffffffffffffffffffffffffffffffffffffff1663026b1d5f6040518163ffffffff1660e01b8152600401602060405180830381865afa158015610167573d5f5f3e3d5ffd5b505050506040513d601f19601f8201168201806040525081019061018b9190613687565b90505f8173ffffffffffffffffffffffffffffffffffffffff1663d1946dbc6040518163ffffffff1660e01b81526004015f60405180830381865afa1580156101d6573d5f5f3e3d5ffd5b505050506040513d5f823e3d601f19601f820116820180604052508101906101fe91906137f2565b90505f815167ffffffffffffffff81111561021c5761021b6136b6565b5b60405190808252806020026020018201604052801561025557816020015b610242612c01565b81526020019060019003908161023a5790505b5090505f5f90505b8251811015611676575f82828151811061027a57610279613839565b5b6020026020010151905083828151811061029757610296613839565b5b6020026020010151815f019073ffffffffffffffffffffffffffffffffffffffff16908173ffffffffffffffffffffffffffffffffffffffff16815250505f8573ffffffffffffffffffffffffffffffffffffffff166335ea6a7586858151811061030557610304613839565b5b60200260200101516040518263ffffffff1660e01b81526004016103299190613875565b6101e060405180830381865afa158015610345573d5f5f3e3d5ffd5b505050506040513d601f19601f820116820180604052508101906103699190613b0c565b90505f81610100015173ffffffffffffffffffffffffffffffffffffffff166375d264136040518163ffffffff1660e01b8152600401602060405180830381865afa1580156103ba573d5f5f3e3d5ffd5b505050506040513d601f19601f820116820180604052508101906103de9190613b73565b905060605f73ffffffffffffffffffffffffffffffffffffffff168273ffffffffffffffffffffffffffffffffffffffff1614610969575f8273ffffffffffffffffffffffffffffffffffffffff16636657732f8561010001516040518263ffffffff1660e01b81526004016104549190613875565b5f60405180830381865afa15801561046e573d5f5f3e3d5ffd5b505050506040513d5f823e3d601f19601f8201168201806040525081019061049691906137f2565b9050805167ffffffffffffffff8111156104b3576104b26136b6565b5b6040519080825280602002602001820160405280156104ec57816020015b6104d9612c50565b8152602001906001900390816104d15790505b5091505f5f90505b815181101561096657610505612c50565b82828151811061051857610517613839565b5b6020026020010151816020019073ffffffffffffffffffffffffffffffffffffffff16908173ffffffffffffffffffffffffffffffffffffffff16815250508473ffffffffffffffffffffffffffffffffffffffff16637eff4ba887610100015183602001516040518363ffffffff1660e01b815260040161059b929190613b9e565b608060405180830381865afa1580156105b6573d5f5f3e3d5ffd5b505050506040513d601f19601f820116820180604052508101906105da9190613bc5565b8460a00185606001866080018760c00184815250848152508481525084815250505050508473ffffffffffffffffffffffffffffffffffffffff16639efd6f728761010001516040518263ffffffff1660e01b815260040161063c9190613875565b602060405180830381865afa158015610657573d5f5f3e3d5ffd5b505050506040513d601f19601f8201168201806040525081019061067b9190613c53565b81610120019060ff16908160ff1681525050806020015173ffffffffffffffffffffffffffffffffffffffff1663313ce5676040518163ffffffff1660e01b8152600401602060405180830381865afa1580156106da573d5f5f3e3d5ffd5b505050506040513d601f19601f820116820180604052508101906106fe9190613c53565b81610100019060ff16908160ff1681525050806020015173ffffffffffffffffffffffffffffffffffffffff166395d89b416040518163ffffffff1660e01b81526004015f60405180830381865afa15801561075c573d5f5f3e3d5ffd5b505050506040513d5f823e3d601f19601f820116820180604052508101906107849190613d20565b815f01819052508473ffffffffffffffffffffffffffffffffffffffff16632a17bf6082602001516040518263ffffffff1660e01b81526004016107c89190613875565b602060405180830381865afa1580156107e3573d5f5f3e3d5ffd5b505050506040513d601f19601f820116820180604052508101906108079190613687565b816040019073ffffffffffffffffffffffffffffffffffffffff16908173ffffffffffffffffffffffffffffffffffffffff1681525050806040015173ffffffffffffffffffffffffffffffffffffffff1663313ce5676040518163ffffffff1660e01b8152600401602060405180830381865afa15801561088b573d5f5f3e3d5ffd5b505050506040513d601f19601f820116820180604052508101906108af9190613c53565b81610140019060ff16908160ff1681525050806040015173ffffffffffffffffffffffffffffffffffffffff166350d25bcd6040518163ffffffff1660e01b8152600401602060405180830381865afa15801561090e573d5f5f3e3d5ffd5b505050506040513d601f19601f820116820180604052508101906109329190613d91565b8160e00181815250508084838151811061094f5761094e613839565b5b6020026020010181905250508060010190506104f4565b50505b604051806060016040528084610100015173ffffffffffffffffffffffffffffffffffffffff1681526020018373ffffffffffffffffffffffffffffffffffffffff1681526020018281525084602001819052505f83610140015173ffffffffffffffffffffffffffffffffffffffff166375d264136040518163ffffffff1660e01b8152600401602060405180830381865afa158015610a0c573d5f5f3e3d5ffd5b505050506040513d601f19601f82011682018060405250810190610a309190613b73565b905060605f73ffffffffffffffffffffffffffffffffffffffff168273ffffffffffffffffffffffffffffffffffffffff1614610fbb575f8273ffffffffffffffffffffffffffffffffffffffff16636657732f8761014001516040518263ffffffff1660e01b8152600401610aa69190613875565b5f60405180830381865afa158015610ac0573d5f5f3e3d5ffd5b505050506040513d5f823e3d601f19601f82011682018060405250810190610ae891906137f2565b9050805167ffffffffffffffff811115610b0557610b046136b6565b5b604051908082528060200260200182016040528015610b3e57816020015b610b2b612c50565b815260200190600190039081610b235790505b5091505f5f90505b8151811015610fb857610b57612c50565b828281518110610b6a57610b69613839565b5b6020026020010151816020019073ffffffffffffffffffffffffffffffffffffffff16908173ffffffffffffffffffffffffffffffffffffffff16815250508473ffffffffffffffffffffffffffffffffffffffff16637eff4ba889610140015183602001516040518363ffffffff1660e01b8152600401610bed929190613b9e565b608060405180830381865afa158015610c08573d5f5f3e3d5ffd5b505050506040513d601f19601f82011682018060405250810190610c2c9190613bc5565b8460a00185606001866080018760c00184815250848152508481525084815250505050508473ffffffffffffffffffffffffffffffffffffffff16639efd6f728961014001516040518263ffffffff1660e01b8152600401610c8e9190613875565b602060405180830381865afa158015610ca9573d5f5f3e3d5ffd5b505050506040513d601f19601f82011682018060405250810190610ccd9190613c53565b81610120019060ff16908160ff1681525050806020015173ffffffffffffffffffffffffffffffffffffffff1663313ce5676040518163ffffffff1660e01b8152600401602060405180830381865afa158015610d2c573d5f5f3e3d5ffd5b505050506040513d601f19601f82011682018060405250810190610d509190613c53565b81610100019060ff16908160ff1681525050806020015173ffffffffffffffffffffffffffffffffffffffff166395d89b416040518163ffffffff1660e01b81526004015f60405180830381865afa158015610dae573d5f5f3e3d5ffd5b505050506040513d5f823e3d601f19601f82011682018060405250810190610dd69190613d20565b815f01819052508473ffffffffffffffffffffffffffffffffffffffff16632a17bf6082602001516040518263ffffffff1660e01b8152600401610e1a9190613875565b602060405180830381865afa158015610e35573d5f5f3e3d5ffd5b505050506040513d601f19601f82011682018060405250810190610e599190613687565b816040019073ffffffffffffffffffffffffffffffffffffffff16908173ffffffffffffffffffffffffffffffffffffffff1681525050806040015173ffffffffffffffffffffffffffffffffffffffff1663313ce5676040518163ffffffff1660e01b8152600401602060405180830381865afa158015610edd573d5f5f3e3d5ffd5b505050506040513d601f19601f82011682018060405250810190610f019190613c53565b81610140019060ff16908160ff1681525050806040015173ffffffffffffffffffffffffffffffffffffffff166350d25bcd6040518163ffffffff1660e01b8152600401602060405180830381865afa158015610f60573d5f5f3e3d5ffd5b505050506040513d601f19601f82011682018060405250810190610f849190613d91565b8160e001818152505080848381518110610fa157610fa0613839565b5b602002602001018190525050806001019050610b46565b50505b604051806060016040528086610140015173ffffffffffffffffffffffffffffffffffffffff1681526020018373ffffffffffffffffffffffffffffffffffffffff1681526020018281525086604001819052505f85610120015173ffffffffffffffffffffffffffffffffffffffff166375d264136040518163ffffffff1660e01b8152600401602060405180830381865afa15801561105e573d5f5f3e3d5ffd5b505050506040513d601f19601f820116820180604052508101906110829190613b73565b905060605f73ffffffffffffffffffffffffffffffffffffffff168273ffffffffffffffffffffffffffffffffffffffff161461160d575f8273ffffffffffffffffffffffffffffffffffffffff16636657732f8961012001516040518263ffffffff1660e01b81526004016110f89190613875565b5f60405180830381865afa158015611112573d5f5f3e3d5ffd5b505050506040513d5f823e3d601f19601f8201168201806040525081019061113a91906137f2565b9050805167ffffffffffffffff811115611157576111566136b6565b5b60405190808252806020026020018201604052801561119057816020015b61117d612c50565b8152602001906001900390816111755790505b5091505f5f90505b815181101561160a576111a9612c50565b8282815181106111bc576111bb613839565b5b6020026020010151816020019073ffffffffffffffffffffffffffffffffffffffff16908173ffffffffffffffffffffffffffffffffffffffff16815250508473ffffffffffffffffffffffffffffffffffffffff16637eff4ba88b610120015183602001516040518363ffffffff1660e01b815260040161123f929190613b9e565b608060405180830381865afa15801561125a573d5f5f3e3d5ffd5b505050506040513d601f19601f8201168201806040525081019061127e9190613bc5565b8460a00185606001866080018760c00184815250848152508481525084815250505050508473ffffffffffffffffffffffffffffffffffffffff16639efd6f728b61012001516040518263ffffffff1660e01b81526004016112e09190613875565b602060405180830381865afa1580156112fb573d5f5f3e3d5ffd5b505050506040513d601f19601f8201168201806040525081019061131f9190613c53565b81610120019060ff16908160ff1681525050806020015173ffffffffffffffffffffffffffffffffffffffff1663313ce5676040518163ffffffff1660e01b8152600401602060405180830381865afa15801561137e573d5f5f3e3d5ffd5b505050506040513d601f19601f820116820180604052508101906113a29190613c53565b81610100019060ff16908160ff1681525050806020015173ffffffffffffffffffffffffffffffffffffffff166395d89b416040518163ffffffff1660e01b81526004015f60405180830381865afa158015611400573d5f5f3e3d5ffd5b505050506040513d5f823e3d601f19601f820116820180604052508101906114289190613d20565b815f01819052508473ffffffffffffffffffffffffffffffffffffffff16632a17bf6082602001516040518263ffffffff1660e01b815260040161146c9190613875565b602060405180830381865afa158015611487573d5f5f3e3d5ffd5b505050506040513d601f19601f820116820180604052508101906114ab9190613687565b816040019073ffffffffffffffffffffffffffffffffffffffff16908173ffffffffffffffffffffffffffffffffffffffff1681525050806040015173ffffffffffffffffffffffffffffffffffffffff1663313ce5676040518163ffffffff1660e01b8152600401602060405180830381865afa15801561152f573d5f5f3e3d5ffd5b505050506040513d601f19601f820116820180604052508101906115539190613c53565b81610140019060ff16908160ff1681525050806040015173ffffffffffffffffffffffffffffffffffffffff166350d25bcd6040518163ffffffff1660e01b8152600401602060405180830381865afa1580156115b2573d5f5f3e3d5ffd5b505050506040513d601f19601f820116820180604052508101906115d69190613d91565b8160e0018181525050808483815181106115f3576115f2613839565b5b602002602001018190525050806001019050611198565b50505b604051806060016040528088610120015173ffffffffffffffffffffffffffffffffffffffff1681526020018373ffffffffffffffffffffffffffffffffffffffff1681526020018281525088606001819052505050505050505050808060010191505061025d565b50809350505050919050565b60605f8373ffffffffffffffffffffffffffffffffffffffff1663026b1d5f6040518163ffffffff1660e01b8152600401602060405180830381865afa1580156116ce573d5f5f3e3d5ffd5b505050506040513d601f19601f820116820180604052508101906116f29190613687565b90505f8173ffffffffffffffffffffffffffffffffffffffff1663d1946dbc6040518163ffffffff1660e01b81526004015f60405180830381865afa15801561173d573d5f5f3e3d5ffd5b505050506040513d5f823e3d601f19601f8201168201806040525081019061176591906137f2565b90505f5f73ffffffffffffffffffffffffffffffffffffffff168573ffffffffffffffffffffffffffffffffffffffff16036117a1575f6117a4565b81515b67ffffffffffffffff8111156117bd576117bc6136b6565b5b6040519080825280602002602001820160405280156117f657816020015b6117e3612cd5565b8152602001906001900390816117db5790505b5090505f5f90505b8251811015612bf4575f8473ffffffffffffffffffffffffffffffffffffffff166335ea6a7585848151811061183757611836613839565b5b60200260200101516040518263ffffffff1660e01b815260040161185b9190613875565b6101e060405180830381865afa158015611877573d5f5f3e3d5ffd5b505050506040513d601f19601f8201168201806040525081019061189b9190613b0c565b90508382815181106118b0576118af613839565b5b60200260200101518383815181106118cb576118ca613839565b5b60200260200101515f019073ffffffffffffffffffffffffffffffffffffffff16908173ffffffffffffffffffffffffffffffffffffffff16815250505f81610100015173ffffffffffffffffffffffffffffffffffffffff166375d264136040518163ffffffff1660e01b8152600401602060405180830381865afa158015611957573d5f5f3e3d5ffd5b505050506040513d601f19601f8201168201806040525081019061197b9190613b73565b90505f73ffffffffffffffffffffffffffffffffffffffff168173ffffffffffffffffffffffffffffffffffffffff1614611f51575f8173ffffffffffffffffffffffffffffffffffffffff16636657732f8461010001516040518263ffffffff1660e01b81526004016119ef9190613875565b5f60405180830381865afa158015611a09573d5f5f3e3d5ffd5b505050506040513d5f823e3d601f19601f82011682018060405250810190611a3191906137f2565b90505f815167ffffffffffffffff811115611a4f57611a4e6136b6565b5b604051908082528060200260200182016040528015611a8857816020015b611a75612d24565b815260200190600190039081611a6d5790505b5090505f5f90505b8251811015611edf57611aa1612d24565b838281518110611ab457611ab3613839565b5b6020026020010151816040019073ffffffffffffffffffffffffffffffffffffffff16908173ffffffffffffffffffffffffffffffffffffffff16815250508473ffffffffffffffffffffffffffffffffffffffff1663533f542a8d88610100015184604001516040518463ffffffff1660e01b8152600401611b3993929190613dbc565b602060405180830381865afa158015611b54573d5f5f3e3d5ffd5b505050506040513d601f19601f82011682018060405250810190611b789190613df1565b8160800181815250508473ffffffffffffffffffffffffffffffffffffffff1663b022418c8d83604001516040518363ffffffff1660e01b8152600401611bc0929190613b9e565b602060405180830381865afa158015611bdb573d5f5f3e3d5ffd5b505050506040513d601f19601f82011682018060405250810190611bff9190613df1565b816060018181525050806040015173ffffffffffffffffffffffffffffffffffffffff1663313ce5676040518163ffffffff1660e01b8152600401602060405180830381865afa158015611c55573d5f5f3e3d5ffd5b505050506040513d601f19601f82011682018060405250810190611c799190613c53565b8160e0019060ff16908160ff1681525050806040015173ffffffffffffffffffffffffffffffffffffffff166395d89b416040518163ffffffff1660e01b81526004015f60405180830381865afa158015611cd6573d5f5f3e3d5ffd5b505050506040513d5f823e3d601f19601f82011682018060405250810190611cfe9190613d20565b815f01819052508473ffffffffffffffffffffffffffffffffffffffff16632a17bf6082604001516040518263ffffffff1660e01b8152600401611d429190613875565b602060405180830381865afa158015611d5d573d5f5f3e3d5ffd5b505050506040513d601f19601f82011682018060405250810190611d819190613687565b816020019073ffffffffffffffffffffffffffffffffffffffff16908173ffffffffffffffffffffffffffffffffffffffff1681525050806020015173ffffffffffffffffffffffffffffffffffffffff1663313ce5676040518163ffffffff1660e01b8152600401602060405180830381865afa158015611e05573d5f5f3e3d5ffd5b505050506040513d601f19601f82011682018060405250810190611e299190613c53565b8160c0019060ff16908160ff1681525050806020015173ffffffffffffffffffffffffffffffffffffffff166350d25bcd6040518163ffffffff1660e01b8152600401602060405180830381865afa158015611e87573d5f5f3e3d5ffd5b505050506040513d601f19601f82011682018060405250810190611eab9190613d91565b8160a001818152505080838381518110611ec857611ec7613839565b5b602002602001018190525050806001019050611a90565b50604051806060016040528085610100015173ffffffffffffffffffffffffffffffffffffffff1681526020018473ffffffffffffffffffffffffffffffffffffffff16815260200182815250868681518110611f3f57611f3e613839565b5b60200260200101516020018190525050505b5f82610140015173ffffffffffffffffffffffffffffffffffffffff166375d264136040518163ffffffff1660e01b8152600401602060405180830381865afa158015611fa0573d5f5f3e3d5ffd5b505050506040513d601f19601f82011682018060405250810190611fc49190613b73565b90505f73ffffffffffffffffffffffffffffffffffffffff168173ffffffffffffffffffffffffffffffffffffffff161461259a575f8173ffffffffffffffffffffffffffffffffffffffff16636657732f8561014001516040518263ffffffff1660e01b81526004016120389190613875565b5f60405180830381865afa158015612052573d5f5f3e3d5ffd5b505050506040513d5f823e3d601f19601f8201168201806040525081019061207a91906137f2565b90505f815167ffffffffffffffff811115612098576120976136b6565b5b6040519080825280602002602001820160405280156120d157816020015b6120be612d24565b8152602001906001900390816120b65790505b5090505f5f90505b8251811015612528576120ea612d24565b8382815181106120fd576120fc613839565b5b6020026020010151816040019073ffffffffffffffffffffffffffffffffffffffff16908173ffffffffffffffffffffffffffffffffffffffff16815250508473ffffffffffffffffffffffffffffffffffffffff1663533f542a8e89610140015184604001516040518463ffffffff1660e01b815260040161218293929190613dbc565b602060405180830381865afa15801561219d573d5f5f3e3d5ffd5b505050506040513d601f19601f820116820180604052508101906121c19190613df1565b8160800181815250508473ffffffffffffffffffffffffffffffffffffffff1663b022418c8e83604001516040518363ffffffff1660e01b8152600401612209929190613b9e565b602060405180830381865afa158015612224573d5f5f3e3d5ffd5b505050506040513d601f19601f820116820180604052508101906122489190613df1565b816060018181525050806040015173ffffffffffffffffffffffffffffffffffffffff1663313ce5676040518163ffffffff1660e01b8152600401602060405180830381865afa15801561229e573d5f5f3e3d5ffd5b505050506040513d601f19601f820116820180604052508101906122c29190613c53565b8160e0019060ff16908160ff1681525050806040015173ffffffffffffffffffffffffffffffffffffffff166395d89b416040518163ffffffff1660e01b81526004015f60405180830381865afa15801561231f573d5f5f3e3d5ffd5b505050506040513d5f823e3d601f19601f820116820180604052508101906123479190613d20565b815f01819052508473ffffffffffffffffffffffffffffffffffffffff16632a17bf6082604001516040518263ffffffff1660e01b815260040161238b9190613875565b602060405180830381865afa1580156123a6573d5f5f3e3d5ffd5b505050506040513d601f19601f820116820180604052508101906123ca9190613687565b816020019073ffffffffffffffffffffffffffffffffffffffff16908173ffffffffffffffffffffffffffffffffffffffff1681525050806020015173ffffffffffffffffffffffffffffffffffffffff1663313ce5676040518163ffffffff1660e01b8152600401602060405180830381865afa15801561244e573d5f5f3e3d5ffd5b505050506040513d601f19601f820116820180604052508101906124729190613c53565b8160c0019060ff16908160ff1681525050806020015173ffffffffffffffffffffffffffffffffffffffff166350d25bcd6040518163ffffffff1660e01b8152600401602060405180830381865afa1580156124d0573d5f5f3e3d5ffd5b505050506040513d601f19601f820116820180604052508101906124f49190613d91565b8160a00181815250508083838151811061251157612510613839565b5b6020026020010181905250508060010190506120d9565b50604051806060016040528086610140015173ffffffffffffffffffffffffffffffffffffffff1681526020018573ffffffffffffffffffffffffffffffffffffffff1681526020018281525087878151811061258857612587613839565b5b60200260200101516040018190525050505b5f83610120015173ffffffffffffffffffffffffffffffffffffffff166375d264136040518163ffffffff1660e01b8152600401602060405180830381865afa1580156125e9573d5f5f3e3d5ffd5b505050506040513d601f19601f8201168201806040525081019061260d9190613b73565b90505f73ffffffffffffffffffffffffffffffffffffffff168173ffffffffffffffffffffffffffffffffffffffff1614612be3575f8173ffffffffffffffffffffffffffffffffffffffff16636657732f8661012001516040518263ffffffff1660e01b81526004016126819190613875565b5f60405180830381865afa15801561269b573d5f5f3e3d5ffd5b505050506040513d5f823e3d601f19601f820116820180604052508101906126c391906137f2565b90505f815167ffffffffffffffff8111156126e1576126e06136b6565b5b60405190808252806020026020018201604052801561271a57816020015b612707612d24565b8152602001906001900390816126ff5790505b5090505f5f90505b8251811015612b7157612733612d24565b83828151811061274657612745613839565b5b6020026020010151816040019073ffffffffffffffffffffffffffffffffffffffff16908173ffffffffffffffffffffffffffffffffffffffff16815250508473ffffffffffffffffffffffffffffffffffffffff1663533f542a8f8a610120015184604001516040518463ffffffff1660e01b81526004016127cb93929190613dbc565b602060405180830381865afa1580156127e6573d5f5f3e3d5ffd5b505050506040513d601f19601f8201168201806040525081019061280a9190613df1565b8160800181815250508473ffffffffffffffffffffffffffffffffffffffff1663b022418c8f83604001516040518363ffffffff1660e01b8152600401612852929190613b9e565b602060405180830381865afa15801561286d573d5f5f3e3d5ffd5b505050506040513d601f19601f820116820180604052508101906128919190613df1565b816060018181525050806040015173ffffffffffffffffffffffffffffffffffffffff1663313ce5676040518163ffffffff1660e01b8152600401602060405180830381865afa1580156128e7573d5f5f3e3d5ffd5b505050506040513d601f19601f8201168201806040525081019061290b9190613c53565b8160e0019060ff16908160ff1681525050806040015173ffffffffffffffffffffffffffffffffffffffff166395d89b416040518163ffffffff1660e01b81526004015f60405180830381865afa158015612968573d5f5f3e3d5ffd5b505050506040513d5f823e3d601f19601f820116820180604052508101906129909190613d20565b815f01819052508473ffffffffffffffffffffffffffffffffffffffff16632a17bf6082604001516040518263ffffffff1660e01b81526004016129d49190613875565b602060405180830381865afa1580156129ef573d5f5f3e3d5ffd5b505050506040513d601f19601f82011682018060405250810190612a139190613687565b816020019073ffffffffffffffffffffffffffffffffffffffff16908173ffffffffffffffffffffffffffffffffffffffff1681525050806020015173ffffffffffffffffffffffffffffffffffffffff1663313ce5676040518163ffffffff1660e01b8152600401602060405180830381865afa158015612a97573d5f5f3e3d5ffd5b505050506040513d601f19601f82011682018060405250810190612abb9190613c53565b8160c0019060ff16908160ff1681525050806020015173ffffffffffffffffffffffffffffffffffffffff166350d25bcd6040518163ffffffff1660e01b8152600401602060405180830381865afa158015612b19573d5f5f3e3d5ffd5b505050506040513d601f19601f82011682018060405250810190612b3d9190613d91565b8160a001818152505080838381518110612b5a57612b59613839565b5b602002602001018190525050806001019050612722565b50604051806060016040528087610120015173ffffffffffffffffffffffffffffffffffffffff1681526020018673ffffffffffffffffffffffffffffffffffffffff16815260200182815250888881518110612bd157612bd0613839565b5b60200260200101516060018190525050505b5050505080806001019150506117fe565b5080935050505092915050565b60405180608001604052805f73ffffffffffffffffffffffffffffffffffffffff168152602001612c30612d94565b8152602001612c3d612d94565b8152602001612c4a612d94565b81525090565b604051806101600160405280606081526020015f73ffffffffffffffffffffffffffffffffffffffff1681526020015f73ffffffffffffffffffffffffffffffffffffffff1681526020015f81526020015f81526020015f81526020015f81526020015f81526020015f60ff1681526020015f60ff1681526020015f60ff1681525090565b60405180608001604052805f73ffffffffffffffffffffffffffffffffffffffff168152602001612d04612ddf565b8152602001612d11612ddf565b8152602001612d1e612ddf565b81525090565b604051806101000160405280606081526020015f73ffffffffffffffffffffffffffffffffffffffff1681526020015f73ffffffffffffffffffffffffffffffffffffffff1681526020015f81526020015f81526020015f81526020015f60ff1681526020015f60ff1681525090565b60405180606001604052805f73ffffffffffffffffffffffffffffffffffffffff1681526020015f73ffffffffffffffffffffffffffffffffffffffff168152602001606081525090565b60405180606001604052805f73ffffffffffffffffffffffffffffffffffffffff1681526020015f73ffffffffffffffffffffffffffffffffffffffff168152602001606081525090565b5f604051905090565b5f5ffd5b5f5ffd5b5f73ffffffffffffffffffffffffffffffffffffffff82169050919050565b5f612e6482612e3b565b9050919050565b5f612e7582612e5a565b9050919050565b612e8581612e6b565b8114612e8f575f5ffd5b50565b5f81359050612ea081612e7c565b92915050565b612eaf81612e5a565b8114612eb9575f5ffd5b50565b5f81359050612eca81612ea6565b92915050565b5f5f60408385031215612ee657612ee5612e33565b5b5f612ef385828601612e92565b9250506020612f0485828601612ebc565b9150509250929050565b5f81519050919050565b5f82825260208201905092915050565b5f819050602082019050919050565b612f4081612e5a565b82525050565b5f81519050919050565b5f82825260208201905092915050565b5f819050602082019050919050565b5f81519050919050565b5f82825260208201905092915050565b8281835e5f83830152505050565b5f601f19601f8301169050919050565b5f612fb182612f6f565b612fbb8185612f79565b9350612fcb818560208601612f89565b612fd481612f97565b840191505092915050565b5f819050919050565b612ff181612fdf565b82525050565b5f819050919050565b61300981612ff7565b82525050565b5f60ff82169050919050565b6130248161300f565b82525050565b5f61016083015f8301518482035f8601526130458282612fa7565b915050602083015161305a6020860182612f37565b50604083015161306d6040860182612f37565b5060608301516130806060860182612fe8565b5060808301516130936080860182612fe8565b5060a08301516130a660a0860182612fe8565b5060c08301516130b960c0860182612fe8565b5060e08301516130cc60e0860182613000565b506101008301516130e161010086018261301b565b506101208301516130f661012086018261301b565b5061014083015161310b61014086018261301b565b508091505092915050565b5f613121838361302a565b905092915050565b5f602082019050919050565b5f61313f82612f46565b6131498185612f50565b93508360208202850161315b85612f60565b805f5b8581101561319657848403895281516131778582613116565b945061318283613129565b925060208a0199505060018101905061315e565b50829750879550505050505092915050565b5f606083015f8301516131bd5f860182612f37565b5060208301516131d06020860182612f37565b50604083015184820360408601526131e88282613135565b9150508091505092915050565b5f608083015f83015161320a5f860182612f37565b506020830151848203602086015261322282826131a8565b9150506040830151848203604086015261323c82826131a8565b9150506060830151848203606086015261325682826131a8565b9150508091505092915050565b5f61326e83836131f5565b905092915050565b5f602082019050919050565b5f61328c82612f0e565b6132968185612f18565b9350836020820285016132a885612f28565b805f5b858110156132e357848403895281516132c48582613263565b94506132cf83613276565b925060208a019950506001810190506132ab565b50829750879550505050505092915050565b5f81519050919050565b5f82825260208201905092915050565b5f819050602082019050919050565b5f81519050919050565b5f82825260208201905092915050565b5f819050602082019050919050565b5f61010083015f8301518482035f8601526133628282612fa7565b91505060208301516133776020860182612f37565b50604083015161338a6040860182612f37565b50606083015161339d6060860182612fe8565b5060808301516133b06080860182612fe8565b5060a08301516133c360a0860182613000565b5060c08301516133d660c086018261301b565b5060e08301516133e960e086018261301b565b508091505092915050565b5f6133ff8383613347565b905092915050565b5f602082019050919050565b5f61341d8261331e565b6134278185613328565b93508360208202850161343985613338565b805f5b85811015613474578484038952815161345585826133f4565b945061346083613407565b925060208a0199505060018101905061343c565b50829750879550505050505092915050565b5f606083015f83015161349b5f860182612f37565b5060208301516134ae6020860182612f37565b50604083015184820360408601526134c68282613413565b9150508091505092915050565b5f608083015f8301516134e85f860182612f37565b50602083015184820360208601526135008282613486565b9150506040830151848203604086015261351a8282613486565b915050606083015184820360608601526135348282613486565b9150508091505092915050565b5f61354c83836134d3565b905092915050565b5f602082019050919050565b5f61356a826132f5565b61357481856132ff565b9350836020820285016135868561330f565b805f5b858110156135c157848403895281516135a28582613541565b94506135ad83613554565b925060208a01995050600181019050613589565b50829750879550505050505092915050565b5f6040820190508181035f8301526135eb8185613282565b905081810360208301526135ff8184613560565b90509392505050565b5f6020820190508181035f8301526136208184613560565b905092915050565b5f6020828403121561363d5761363c612e33565b5b5f61364a84828501612e92565b91505092915050565b5f6020820190508181035f83015261366b8184613282565b905092915050565b5f8151905061368181612ea6565b92915050565b5f6020828403121561369c5761369b612e33565b5b5f6136a984828501613673565b91505092915050565b5f5ffd5b7f4e487b71000000000000000000000000000000000000000000000000000000005f52604160045260245ffd5b6136ec82612f97565b810181811067ffffffffffffffff8211171561370b5761370a6136b6565b5b80604052505050565b5f61371d612e2a565b905061372982826136e3565b919050565b5f67ffffffffffffffff821115613748576137476136b6565b5b602082029050602081019050919050565b5f5ffd5b5f61376f61376a8461372e565b613714565b9050808382526020820190506020840283018581111561379257613791613759565b5b835b818110156137bb57806137a78882613673565b845260208401935050602081019050613794565b5050509392505050565b5f82601f8301126137d9576137d86136b2565b5b81516137e984826020860161375d565b91505092915050565b5f6020828403121561380757613806612e33565b5b5f82015167ffffffffffffffff81111561382457613823612e37565b5b613830848285016137c5565b91505092915050565b7f4e487b71000000000000000000000000000000000000000000000000000000005f52603260045260245ffd5b61386f81612e5a565b82525050565b5f6020820190506138885f830184613866565b92915050565b5f5ffd5b61389b81612fdf565b81146138a5575f5ffd5b50565b5f815190506138b681613892565b92915050565b5f602082840312156138d1576138d061388e565b5b6138db6020613714565b90505f6138ea848285016138a8565b5f8301525092915050565b5f6fffffffffffffffffffffffffffffffff82169050919050565b613919816138f5565b8114613923575f5ffd5b50565b5f8151905061393481613910565b92915050565b5f64ffffffffff82169050919050565b6139538161393a565b811461395d575f5ffd5b50565b5f8151905061396e8161394a565b92915050565b5f61ffff82169050919050565b61398a81613974565b8114613994575f5ffd5b50565b5f815190506139a581613981565b92915050565b5f6101e082840312156139c1576139c061388e565b5b6139cc6101e0613714565b90505f6139db848285016138bc565b5f8301525060206139ee84828501613926565b6020830152506040613a0284828501613926565b6040830152506060613a1684828501613926565b6060830152506080613a2a84828501613926565b60808301525060a0613a3e84828501613926565b60a08301525060c0613a5284828501613960565b60c08301525060e0613a6684828501613997565b60e083015250610100613a7b84828501613673565b61010083015250610120613a9184828501613673565b61012083015250610140613aa784828501613673565b61014083015250610160613abd84828501613673565b61016083015250610180613ad384828501613926565b610180830152506101a0613ae984828501613926565b6101a0830152506101c0613aff84828501613926565b6101c08301525092915050565b5f6101e08284031215613b2257613b21612e33565b5b5f613b2f848285016139ab565b91505092915050565b5f613b4282612e5a565b9050919050565b613b5281613b38565b8114613b5c575f5ffd5b50565b5f81519050613b6d81613b49565b92915050565b5f60208284031215613b8857613b87612e33565b5b5f613b9584828501613b5f565b91505092915050565b5f604082019050613bb15f830185613866565b613bbe6020830184613866565b9392505050565b5f5f5f5f60808587031215613bdd57613bdc612e33565b5b5f613bea878288016138a8565b9450506020613bfb878288016138a8565b9350506040613c0c878288016138a8565b9250506060613c1d878288016138a8565b91505092959194509250565b613c328161300f565b8114613c3c575f5ffd5b50565b5f81519050613c4d81613c29565b92915050565b5f60208284031215613c6857613c67612e33565b5b5f613c7584828501613c3f565b91505092915050565b5f5ffd5b5f67ffffffffffffffff821115613c9c57613c9b6136b6565b5b613ca582612f97565b9050602081019050919050565b5f613cc4613cbf84613c82565b613714565b905082815260208101848484011115613ce057613cdf613c7e565b5b613ceb848285612f89565b509392505050565b5f82601f830112613d0757613d066136b2565b5b8151613d17848260208601613cb2565b91505092915050565b5f60208284031215613d3557613d34612e33565b5b5f82015167ffffffffffffffff811115613d5257613d51612e37565b5b613d5e84828501613cf3565b91505092915050565b613d7081612ff7565b8114613d7a575f5ffd5b50565b5f81519050613d8b81613d67565b92915050565b5f60208284031215613da657613da5612e33565b5b5f613db384828501613d7d565b91505092915050565b5f606082019050613dcf5f830186613866565b613ddc6020830185613866565b613de96040830184613866565b949350505050565b5f60208284031215613e0657613e05612e33565b5b5f613e13848285016138a8565b9150509291505056fea26469706673582212204773d994f63b2bca48b035b183d50b4d61c77e987ecb97abb6650e1b0249b94b64736f6c634300081c0033","linkReferences":{}},"methodIdentifiers":{"getFullReservesIncentiveData(address,address)":"47637536","getReservesIncentivesData(address)":"976fafc5","getUserReservesIncentivesData(address,address)":"799bdcf5"},"id":10}