{"abi":[{"type":"constructor","inputs":[{"name":"incentivesController","type":"address","internalType":"address"},{"name":"rewardsAdmin","type":"address","internalType":"address"},{"name":"rewardsVault","type":"address","internalType":"address"}],"stateMutability":"nonpayable"},{"type":"function","name":"emergencyWithdrawal","inputs":[{"name":"token","type":"address","internalType":"address"},{"name":"to","type":"address","internalType":"address"},{"name":"amount","type":"uint256","internalType":"uint256"}],"outputs":[],"stateMutability":"nonpayable"},{"type":"function","name":"getIncentivesController","inputs":[],"outputs":[{"name":"","type":"address","internalType":"address"}],"stateMutability":"view"},{"type":"function","name":"getRewardsAdmin","inputs":[],"outputs":[{"name":"","type":"address","internalType":"address"}],"stateMutability":"view"},{"type":"function","name":"getRewardsVault","inputs":[],"outputs":[{"name":"","type":"address","internalType":"address"}],"stateMutability":"view"},{"type":"function","name":"performTransfer","inputs":[{"name":"to","type":"address","internalType":"address"},{"name":"reward","type":"address","internalType":"address"},{"name":"amount","type":"uint256","internalType":"uint256"}],"outputs":[{"name":"","type":"bool","internalType":"bool"}],"stateMutability":"nonpayable"},{"type":"event","name":"EmergencyWithdrawal","inputs":[{"name":"caller","type":"address","indexed":true,"internalType":"address"},{"name":"token","type":"address","indexed":true,"internalType":"address"},{"name":"to","type":"address","indexed":true,"internalType":"address"},{"name":"amount","type":"uint256","indexed":false,"internalType":"uint256"}],"anonymous":false}],"bytecode":{"object":"0x60e060405234801561000f575f5ffd5b50604051610ab7380380610ab783398181016040528101906100319190610137565b82828173ffffffffffffffffffffffffffffffffffffffff1660808173ffffffffffffffffffffffffffffffffffffffff16815250508073ffffffffffffffffffffffffffffffffffffffff1660a08173ffffffffffffffffffffffffffffffffffffffff168152505050508073ffffffffffffffffffffffffffffffffffffffff1660c08173ffffffffffffffffffffffffffffffffffffffff1681525050505050610187565b5f5ffd5b5f73ffffffffffffffffffffffffffffffffffffffff82169050919050565b5f610106826100dd565b9050919050565b610116816100fc565b8114610120575f5ffd5b50565b5f815190506101318161010d565b92915050565b5f5f5f6060848603121561014e5761014d6100d9565b5b5f61015b86828701610123565b935050602061016c86828701610123565b925050604061017d86828701610123565b9150509250925092565b60805160a05160c0516108f16101c65f395f8181610193015261037101525f818161020f015261034a01525f818161011901526101e901526108f15ff3fe608060405234801561000f575f5ffd5b5060043610610055575f3560e01c806316beb9821461005957806375d26413146100895780638d8e5da7146100a7578063c6255443146100c3578063e23ddec5146100e1575b5f5ffd5b610073600480360381019061006e9190610638565b6100ff565b60405161008091906106a2565b60405180910390f35b6100916101e6565b60405161009e91906106ca565b60405180910390f35b6100c160048036038101906100bc9190610638565b61020d565b005b6100cb610347565b6040516100d891906106ca565b60405180910390f35b6100e961036e565b6040516100f691906106ca565b60405180910390f35b5f3373ffffffffffffffffffffffffffffffffffffffff167f000000000000000000000000000000000000000000000000000000000000000073ffffffffffffffffffffffffffffffffffffffff161461018e576040517f08c379a00000000000000000000000000000000000000000000000000000000081526004016101859061073d565b60405180910390fd5b6101db7f000000000000000000000000000000000000000000000000000000000000000085848673ffffffffffffffffffffffffffffffffffffffff16610395909392919063ffffffff16565b600190509392505050565b5f7f0000000000000000000000000000000000000000000000000000000000000000905090565b7f000000000000000000000000000000000000000000000000000000000000000073ffffffffffffffffffffffffffffffffffffffff163373ffffffffffffffffffffffffffffffffffffffff161461029b576040517f08c379a0000000000000000000000000000000000000000000000000000000008152600401610292906107a5565b60405180910390fd5b6102c682828573ffffffffffffffffffffffffffffffffffffffff166104499092919063ffffffff16565b8173ffffffffffffffffffffffffffffffffffffffff168373ffffffffffffffffffffffffffffffffffffffff163373ffffffffffffffffffffffffffffffffffffffff167f7dc4ea712e6400e67a5abca1a983e5c420c386c19936dc120cd860b50b8e25798460405161033a91906107d2565b60405180910390a4505050565b5f7f0000000000000000000000000000000000000000000000000000000000000000905090565b5f7f0000000000000000000000000000000000000000000000000000000000000000905090565b5f6323b872dd60e01b905060405181815273ffffffffffffffffffffffffffffffffffffffff8516600482015273ffffffffffffffffffffffffffffffffffffffff841660248201528260448201525f5f6064835f8a5af16103f9573d5f5f3e3d5ffd5b50610403856104e0565b610442576040517f08c379a000000000000000000000000000000000000000000000000000000000815260040161043990610835565b60405180910390fd5b5050505050565b5f63a9059cbb60e01b905060405181815273ffffffffffffffffffffffffffffffffffffffff841660048201528260248201525f5f6044835f895af1610491573d5f5f3e3d5ffd5b5061049b846104e0565b6104da576040517f08c379a00000000000000000000000000000000000000000000000000000000081526004016104d19061089d565b60405180910390fd5b50505050565b5f61051b565b7f08c379a0000000000000000000000000000000000000000000000000000000005f526020600452806024528160445260645ffd5b3d5f811461055b5760208114610596576105567f475076323a206d616c666f726d6564207472616e7366657220726573756c7400601f6104e6565b6105a1565b823b61058d5761058c7f475076323a206e6f74206120636f6e747261637400000000000000000000000060146104e6565b5b600191506105a1565b3d5f5f3e5f51151591505b50919050565b5f5ffd5b5f73ffffffffffffffffffffffffffffffffffffffff82169050919050565b5f6105d4826105ab565b9050919050565b6105e4816105ca565b81146105ee575f5ffd5b50565b5f813590506105ff816105db565b92915050565b5f819050919050565b61061781610605565b8114610621575f5ffd5b50565b5f813590506106328161060e565b92915050565b5f5f5f6060848603121561064f5761064e6105a7565b5b5f61065c868287016105f1565b935050602061066d868287016105f1565b925050604061067e86828701610624565b9150509250925092565b5f8115159050919050565b61069c81610688565b82525050565b5f6020820190506106b55f830184610693565b92915050565b6106c4816105ca565b82525050565b5f6020820190506106dd5f8301846106bb565b92915050565b5f82825260208201905092915050565b7f43414c4c45525f4e4f545f494e43454e54495645535f434f4e54524f4c4c45525f82015250565b5f6107276020836106e3565b9150610732826106f3565b602082019050919050565b5f6020820190508181035f8301526107548161071b565b9050919050565b7f4f4e4c595f524557415244535f41444d494e00000000000000000000000000005f82015250565b5f61078f6012836106e3565b915061079a8261075b565b602082019050919050565b5f6020820190508181035f8301526107bc81610783565b9050919050565b6107cc81610605565b82525050565b5f6020820190506107e55f8301846107c3565b92915050565b7f475076323a206661696c6564207472616e7366657246726f6d000000000000005f82015250565b5f61081f6019836106e3565b915061082a826107eb565b602082019050919050565b5f6020820190508181035f83015261084c81610813565b9050919050565b7f475076323a206661696c6564207472616e7366657200000000000000000000005f82015250565b5f6108876015836106e3565b915061089282610853565b602082019050919050565b5f6020820190508181035f8301526108b48161087b565b905091905056fea2646970667358221220bddfec23c32e1edcd681dfd0eea82ab006f14db60e8d71a0e5c1809c577cd53e64736f6c634300081c0033","linkReferences":{}},"methodIdentifiers":{"emergencyWithdrawal(address,address,uint256)":"8d8e5da7","getIncentivesController()":"75d26413","getRewardsAdmin()":"c6255443","getRewardsVault()":"e23ddec5","performTransfer(address,address,uint256)":"16beb982"},"id":41}