{"abi":[{"type":"function","name":"REVISION","inputs":[],"outputs":[{"name":"","type":"uint256","internalType":"uint256"}],"stateMutability":"view"},{"type":"function","name":"approve","inputs":[{"name":"token","type":"address","internalType":"contract IERC20"},{"name":"recipient","type":"address","internalType":"address"},{"name":"amount","type":"uint256","internalType":"uint256"}],"outputs":[],"stateMutability":"nonpayable"},{"type":"function","name":"getFundsAdmin","inputs":[],"outputs":[{"name":"","type":"address","internalType":"address"}],"stateMutability":"view"},{"type":"function","name":"initialize","inputs":[{"name":"reserveController","type":"address","internalType":"address"}],"outputs":[],"stateMutability":"nonpayable"},{"type":"function","name":"setFundsAdmin","inputs":[{"name":"admin","type":"address","internalType":"address"}],"outputs":[],"stateMutability":"nonpayable"},{"type":"function","name":"transfer","inputs":[{"name":"token","type":"address","internalType":"contract IERC20"},{"name":"recipient","type":"address","internalType":"address"},{"name":"amount","type":"uint256","internalType":"uint256"}],"outputs":[],"stateMutability":"nonpayable"},{"type":"event","name":"NewFundsAdmin","inputs":[{"name":"fundsAdmin","type":"address","indexed":true,"internalType":"address"}],"anonymous":false}],"bytecode":{"object":"0x60806040525f5f553480156011575f5ffd5b506108c98061001f5f395ff3fe608060405234801561000f575f5ffd5b5060043610610060575f3560e01c806306bc2ee014610064578063beabacc814610082578063c4d66de81461009e578063dde43cba146100ba578063e1f21c67146100d8578063ed0d2371146100f4575b5f5ffd5b61006c610110565b60405161007991906105ae565b60405180910390f35b61009c60048036038101906100979190610663565b610138565b005b6100b860048036038101906100b391906106b3565b610248565b005b6100c2610322565b6040516100cf91906106ed565b60405180910390f35b6100f260048036038101906100ed9190610663565b610327565b005b61010e600480360381019061010991906106b3565b610437565b005b5f60345f9054906101000a900473ffffffffffffffffffffffffffffffffffffffff16905090565b60345f9054906101000a900473ffffffffffffffffffffffffffffffffffffffff1673ffffffffffffffffffffffffffffffffffffffff163373ffffffffffffffffffffffffffffffffffffffff16146101c7576040517f08c379a00000000000000000000000000000000000000000000000000000000081526004016101be90610760565b60405180910390fd5b8273ffffffffffffffffffffffffffffffffffffffff1663a9059cbb83836040518363ffffffff1660e01b815260040161020292919061077e565b6020604051808303815f875af115801561021e573d5f5f3e3d5ffd5b505050506040513d601f19601f8201168201806040525081019061024291906107da565b50505050565b5f6102516104d2565b905060015f9054906101000a900460ff168061027157506102706104da565b5b8061027c57505f5481115b6102bb576040517f08c379a00000000000000000000000000000000000000000000000000000000081526004016102b290610875565b60405180910390fd5b5f60015f9054906101000a900460ff1615905080156102f4576001805f6101000a81548160ff021916908315150217905550815f819055505b6102fd836104e9565b801561031d575f60015f6101000a81548160ff0219169083151502179055505b505050565b600181565b60345f9054906101000a900473ffffffffffffffffffffffffffffffffffffffff1673ffffffffffffffffffffffffffffffffffffffff163373ffffffffffffffffffffffffffffffffffffffff16146103b6576040517f08c379a00000000000000000000000000000000000000000000000000000000081526004016103ad90610760565b60405180910390fd5b8273ffffffffffffffffffffffffffffffffffffffff1663095ea7b383836040518363ffffffff1660e01b81526004016103f192919061077e565b6020604051808303815f875af115801561040d573d5f5f3e3d5ffd5b505050506040513d601f19601f8201168201806040525081019061043191906107da565b50505050565b60345f9054906101000a900473ffffffffffffffffffffffffffffffffffffffff1673ffffffffffffffffffffffffffffffffffffffff163373ffffffffffffffffffffffffffffffffffffffff16146104c6576040517f08c379a00000000000000000000000000000000000000000000000000000000081526004016104bd90610760565b60405180910390fd5b6104cf816104e9565b50565b5f6001905090565b5f5f303b90505f811491505090565b8060345f6101000a81548173ffffffffffffffffffffffffffffffffffffffff021916908373ffffffffffffffffffffffffffffffffffffffff1602179055508073ffffffffffffffffffffffffffffffffffffffff167f1ab77a654795da4cfe37c33188e862203ade9a5c7f1a9d4957669b3ccbec9e1160405160405180910390a250565b5f73ffffffffffffffffffffffffffffffffffffffff82169050919050565b5f6105988261056f565b9050919050565b6105a88161058e565b82525050565b5f6020820190506105c15f83018461059f565b92915050565b5f5ffd5b5f6105d58261058e565b9050919050565b6105e5816105cb565b81146105ef575f5ffd5b50565b5f81359050610600816105dc565b92915050565b61060f8161058e565b8114610619575f5ffd5b50565b5f8135905061062a81610606565b92915050565b5f819050919050565b61064281610630565b811461064c575f5ffd5b50565b5f8135905061065d81610639565b92915050565b5f5f5f6060848603121561067a576106796105c7565b5b5f610687868287016105f2565b93505060206106988682870161061c565b92505060406106a98682870161064f565b9150509250925092565b5f602082840312156106c8576106c76105c7565b5b5f6106d58482850161061c565b91505092915050565b6106e781610630565b82525050565b5f6020820190506107005f8301846106de565b92915050565b5f82825260208201905092915050565b7f4f4e4c595f42595f46554e44535f41444d494e000000000000000000000000005f82015250565b5f61074a601383610706565b915061075582610716565b602082019050919050565b5f6020820190508181035f8301526107778161073e565b9050919050565b5f6040820190506107915f83018561059f565b61079e60208301846106de565b9392505050565b5f8115159050919050565b6107b9816107a5565b81146107c3575f5ffd5b50565b5f815190506107d4816107b0565b92915050565b5f602082840312156107ef576107ee6105c7565b5b5f6107fc848285016107c6565b91505092915050565b7f436f6e747261637420696e7374616e63652068617320616c72656164792062655f8201527f656e20696e697469616c697a6564000000000000000000000000000000000000602082015250565b5f61085f602e83610706565b915061086a82610805565b604082019050919050565b5f6020820190508181035f83015261088c81610853565b905091905056fea264697066735822122079df8df0819cf3954e0dbae9b924f0ef0794cc4adc03da16920b40e6d4b9b68764736f6c634300081c0033","linkReferences":{}},"methodIdentifiers":{"REVISION()":"dde43cba","approve(address,address,uint256)":"e1f21c67","getFundsAdmin()":"06bc2ee0","initialize(address)":"c4d66de8","setFundsAdmin(address)":"ed0d2371","transfer(address,address,uint256)":"beabacc8"},"id":47}