{"abi":[{"type":"constructor","inputs":[{"name":"augustus","type":"address","internalType":"address"}],"stateMutability":"nonpayable"},{"type":"function","name":"isValidAugustus","inputs":[{"name":"augustus","type":"address","internalType":"address"}],"outputs":[{"name":"","type":"bool","internalType":"bool"}],"stateMutability":"view"}],"bytecode":{"object":"0x60a060405234801561000f575f5ffd5b506040516102b13803806102b1833981810160405281019061003191906100c9565b8073ffffffffffffffffffffffffffffffffffffffff1660808173ffffffffffffffffffffffffffffffffffffffff1681525050506100f4565b5f5ffd5b5f73ffffffffffffffffffffffffffffffffffffffff82169050919050565b5f6100988261006f565b9050919050565b6100a88161008e565b81146100b2575f5ffd5b50565b5f815190506100c38161009f565b92915050565b5f602082840312156100de576100dd61006b565b5b5f6100eb848285016100b5565b91505092915050565b6080516101a661010b5f395f606001526101a65ff3fe608060405234801561000f575f5ffd5b5060043610610029575f3560e01c8063fb04e17b1461002d575b5f5ffd5b61004760048036038101906100429190610112565b61005d565b6040516100549190610157565b60405180910390f35b5f7f000000000000000000000000000000000000000000000000000000000000000073ffffffffffffffffffffffffffffffffffffffff168273ffffffffffffffffffffffffffffffffffffffff16149050919050565b5f5ffd5b5f73ffffffffffffffffffffffffffffffffffffffff82169050919050565b5f6100e1826100b8565b9050919050565b6100f1816100d7565b81146100fb575f5ffd5b50565b5f8135905061010c816100e8565b92915050565b5f60208284031215610127576101266100b4565b5b5f610134848285016100fe565b91505092915050565b5f8115159050919050565b6101518161013d565b82525050565b5f60208201905061016a5f830184610148565b9291505056fea26469706673582212201baa7809865330f36410852961a618a21363b364287a57973a25d5c89ea64d5164736f6c634300081c0033","linkReferences":{}},"methodIdentifiers":{"isValidAugustus(address)":"fb04e17b"},"id":25}