{"abi":[{"type":"constructor","inputs":[{"name":"owner","type":"address","internalType":"address"}],"stateMutability":"nonpayable"},{"type":"function","name":"approve","inputs":[{"name":"collector","type":"address","internalType":"address"},{"name":"token","type":"address","internalType":"contract IERC20"},{"name":"recipient","type":"address","internalType":"address"},{"name":"amount","type":"uint256","internalType":"uint256"}],"outputs":[],"stateMutability":"nonpayable"},{"type":"function","name":"owner","inputs":[],"outputs":[{"name":"","type":"address","internalType":"address"}],"stateMutability":"view"},{"type":"function","name":"renounceOwnership","inputs":[],"outputs":[],"stateMutability":"nonpayable"},{"type":"function","name":"transfer","inputs":[{"name":"collector","type":"address","internalType":"address"},{"name":"token","type":"address","internalType":"contract IERC20"},{"name":"recipient","type":"address","internalType":"address"},{"name":"amount","type":"uint256","internalType":"uint256"}],"outputs":[],"stateMutability":"nonpayable"},{"type":"function","name":"transferOwnership","inputs":[{"name":"newOwner","type":"address","internalType":"address"}],"outputs":[],"stateMutability":"nonpayable"},{"type":"event","name":"OwnershipTransferred","inputs":[{"name":"previousOwner","type":"address","indexed":true,"internalType":"address"},{"name":"newOwner","type":"address","indexed":true,"internalType":"address"}],"anonymous":false}],"bytecode":{"object":"0x608060405234801561000f575f5ffd5b50604051610dd3380380610dd38339818101604052810190610031919061031b565b5f6100406100f160201b60201c565b9050805f5f6101000a81548173ffffffffffffffffffffffffffffffffffffffff021916908373ffffffffffffffffffffffffffffffffffffffff1602179055508073ffffffffffffffffffffffffffffffffffffffff165f73ffffffffffffffffffffffffffffffffffffffff167f8be0079c531659141344cd1fd0a4f28419497f9722a3daafe3b4186f6b6457e060405160405180910390a3506100eb816100f860201b60201c565b5061044c565b5f33905090565b6101066100f160201b60201c565b73ffffffffffffffffffffffffffffffffffffffff165f5f9054906101000a900473ffffffffffffffffffffffffffffffffffffffff1673ffffffffffffffffffffffffffffffffffffffff1614610193576040517f08c379a000000000000000000000000000000000000000000000000000000000815260040161018a906103a0565b60405180910390fd5b5f73ffffffffffffffffffffffffffffffffffffffff168173ffffffffffffffffffffffffffffffffffffffff1603610201576040517f08c379a00000000000000000000000000000000000000000000000000000000081526004016101f89061042e565b60405180910390fd5b8073ffffffffffffffffffffffffffffffffffffffff165f5f9054906101000a900473ffffffffffffffffffffffffffffffffffffffff1673ffffffffffffffffffffffffffffffffffffffff167f8be0079c531659141344cd1fd0a4f28419497f9722a3daafe3b4186f6b6457e060405160405180910390a3805f5f6101000a81548173ffffffffffffffffffffffffffffffffffffffff021916908373ffffffffffffffffffffffffffffffffffffffff16021790555050565b5f5ffd5b5f73ffffffffffffffffffffffffffffffffffffffff82169050919050565b5f6102ea826102c1565b9050919050565b6102fa816102e0565b8114610304575f5ffd5b50565b5f81519050610315816102f1565b92915050565b5f602082840312156103305761032f6102bd565b5b5f61033d84828501610307565b91505092915050565b5f82825260208201905092915050565b7f4f776e61626c653a2063616c6c6572206973206e6f7420746865206f776e65725f82015250565b5f61038a602083610346565b915061039582610356565b602082019050919050565b5f6020820190508181035f8301526103b78161037e565b9050919050565b7f4f776e61626c653a206e6577206f776e657220697320746865207a65726f20615f8201527f6464726573730000000000000000000000000000000000000000000000000000602082015250565b5f610418602683610346565b9150610423826103be565b604082019050919050565b5f6020820190508181035f8301526104458161040c565b9050919050565b61097a806104595f395ff3fe608060405234801561000f575f5ffd5b5060043610610055575f3560e01c806359eba45414610059578063715018a6146100755780638da5cb5b1461007f578063f18d03cc1461009d578063f2fde38b146100b9575b5f5ffd5b610073600480360381019061006e91906106e8565b6100d5565b005b61007d6101da565b005b61008761032a565b604051610094919061075b565b60405180910390f35b6100b760048036038101906100b291906106e8565b610351565b005b6100d360048036038101906100ce9190610774565b610456565b005b6100dd610615565b73ffffffffffffffffffffffffffffffffffffffff165f5f9054906101000a900473ffffffffffffffffffffffffffffffffffffffff1673ffffffffffffffffffffffffffffffffffffffff161461016a576040517f08c379a0000000000000000000000000000000000000000000000000000000008152600401610161906107f9565b60405180910390fd5b8373ffffffffffffffffffffffffffffffffffffffff1663e1f21c678484846040518463ffffffff1660e01b81526004016101a793929190610881565b5f604051808303815f87803b1580156101be575f5ffd5b505af11580156101d0573d5f5f3e3d5ffd5b5050505050505050565b6101e2610615565b73ffffffffffffffffffffffffffffffffffffffff165f5f9054906101000a900473ffffffffffffffffffffffffffffffffffffffff1673ffffffffffffffffffffffffffffffffffffffff161461026f576040517f08c379a0000000000000000000000000000000000000000000000000000000008152600401610266906107f9565b60405180910390fd5b5f73ffffffffffffffffffffffffffffffffffffffff165f5f9054906101000a900473ffffffffffffffffffffffffffffffffffffffff1673ffffffffffffffffffffffffffffffffffffffff167f8be0079c531659141344cd1fd0a4f28419497f9722a3daafe3b4186f6b6457e060405160405180910390a35f5f5f6101000a81548173ffffffffffffffffffffffffffffffffffffffff021916908373ffffffffffffffffffffffffffffffffffffffff160217905550565b5f5f5f9054906101000a900473ffffffffffffffffffffffffffffffffffffffff16905090565b610359610615565b73ffffffffffffffffffffffffffffffffffffffff165f5f9054906101000a900473ffffffffffffffffffffffffffffffffffffffff1673ffffffffffffffffffffffffffffffffffffffff16146103e6576040517f08c379a00000000000000000000000000000000000000000000000000000000081526004016103dd906107f9565b60405180910390fd5b8373ffffffffffffffffffffffffffffffffffffffff1663beabacc88484846040518463ffffffff1660e01b815260040161042393929190610881565b5f604051808303815f87803b15801561043a575f5ffd5b505af115801561044c573d5f5f3e3d5ffd5b5050505050505050565b61045e610615565b73ffffffffffffffffffffffffffffffffffffffff165f5f9054906101000a900473ffffffffffffffffffffffffffffffffffffffff1673ffffffffffffffffffffffffffffffffffffffff16146104eb576040517f08c379a00000000000000000000000000000000000000000000000000000000081526004016104e2906107f9565b60405180910390fd5b5f73ffffffffffffffffffffffffffffffffffffffff168173ffffffffffffffffffffffffffffffffffffffff1603610559576040517f08c379a000000000000000000000000000000000000000000000000000000000815260040161055090610926565b60405180910390fd5b8073ffffffffffffffffffffffffffffffffffffffff165f5f9054906101000a900473ffffffffffffffffffffffffffffffffffffffff1673ffffffffffffffffffffffffffffffffffffffff167f8be0079c531659141344cd1fd0a4f28419497f9722a3daafe3b4186f6b6457e060405160405180910390a3805f5f6101000a81548173ffffffffffffffffffffffffffffffffffffffff021916908373ffffffffffffffffffffffffffffffffffffffff16021790555050565b5f33905090565b5f5ffd5b5f73ffffffffffffffffffffffffffffffffffffffff82169050919050565b5f61064982610620565b9050919050565b6106598161063f565b8114610663575f5ffd5b50565b5f8135905061067481610650565b92915050565b5f6106848261063f565b9050919050565b6106948161067a565b811461069e575f5ffd5b50565b5f813590506106af8161068b565b92915050565b5f819050919050565b6106c7816106b5565b81146106d1575f5ffd5b50565b5f813590506106e2816106be565b92915050565b5f5f5f5f60808587031215610700576106ff61061c565b5b5f61070d87828801610666565b945050602061071e878288016106a1565b935050604061072f87828801610666565b9250506060610740878288016106d4565b91505092959194509250565b6107558161063f565b82525050565b5f60208201905061076e5f83018461074c565b92915050565b5f602082840312156107895761078861061c565b5b5f61079684828501610666565b91505092915050565b5f82825260208201905092915050565b7f4f776e61626c653a2063616c6c6572206973206e6f7420746865206f776e65725f82015250565b5f6107e360208361079f565b91506107ee826107af565b602082019050919050565b5f6020820190508181035f830152610810816107d7565b9050919050565b5f819050919050565b5f61083a61083561083084610620565b610817565b610620565b9050919050565b5f61084b82610820565b9050919050565b5f61085c82610841565b9050919050565b61086c81610852565b82525050565b61087b816106b5565b82525050565b5f6060820190506108945f830186610863565b6108a1602083018561074c565b6108ae6040830184610872565b949350505050565b7f4f776e61626c653a206e6577206f776e657220697320746865207a65726f20615f8201527f6464726573730000000000000000000000000000000000000000000000000000602082015250565b5f61091060268361079f565b915061091b826108b6565b604082019050919050565b5f6020820190508181035f83015261093d81610904565b905091905056fea2646970667358221220a8e75340e8b70e8234235540f73e63fa6ca8fa6d9963bff58c6447b8c332ea3b64736f6c634300081c0033","linkReferences":{}},"methodIdentifiers":{"approve(address,address,address,uint256)":"59eba454","owner()":"8da5cb5b","renounceOwnership()":"715018a6","transfer(address,address,address,uint256)":"f18d03cc","transferOwnership(address)":"f2fde38b"},"id":48}