{"abi":[{"type":"receive","stateMutability":"payable"},{"type":"function","name":"balanceOf","inputs":[{"name":"user","type":"address","internalType":"address"},{"name":"token","type":"address","internalType":"address"}],"outputs":[{"name":"","type":"uint256","internalType":"uint256"}],"stateMutability":"view"},{"type":"function","name":"batchBalanceOf","inputs":[{"name":"users","type":"address[]","internalType":"address[]"},{"name":"tokens","type":"address[]","internalType":"address[]"}],"outputs":[{"name":"","type":"uint256[]","internalType":"uint256[]"}],"stateMutability":"view"},{"type":"function","name":"getUserWalletBalances","inputs":[{"name":"provider","type":"address","internalType":"address"},{"name":"user","type":"address","internalType":"address"}],"outputs":[{"name":"","type":"address[]","internalType":"address[]"},{"name":"","type":"uint256[]","internalType":"uint256[]"}],"stateMutability":"view"}],"bytecode":{"object":"0x6080604052348015600e575f5ffd5b506110fe8061001c5f395ff3fe608060405260043610610037575f3560e01c806302405343146100a0578063b59b28ef146100dd578063f7888aec146101195761009c565b3661009c5761005b3373ffffffffffffffffffffffffffffffffffffffff16610155565b61009a576040517f08c379a00000000000000000000000000000000000000000000000000000000081526004016100919061091a565b60405180910390fd5b005b5f5ffd5b3480156100ab575f5ffd5b506100c660048036038101906100c191906109a3565b610166565b6040516100d4929190610b58565b60405180910390f35b3480156100e8575f5ffd5b5061010360048036038101906100fe9190610bee565b61055b565b6040516101109190610c6c565b60405180910390f35b348015610124575f5ffd5b5061013f600480360381019061013a91906109a3565b610692565b60405161014c9190610c9b565b60405180910390f35b5f5f823b90505f8111915050919050565b6060805f8473ffffffffffffffffffffffffffffffffffffffff1663026b1d5f6040518163ffffffff1660e01b8152600401602060405180830381865afa1580156101b3573d5f5f3e3d5ffd5b505050506040513d601f19601f820116820180604052508101906101d79190610cc8565b90505f8173ffffffffffffffffffffffffffffffffffffffff1663d1946dbc6040518163ffffffff1660e01b81526004015f60405180830381865afa158015610222573d5f5f3e3d5ffd5b505050506040513d5f823e3d601f19601f8201168201806040525081019061024a9190610e3b565b90505f6001825161025b9190610eaf565b67ffffffffffffffff81111561027457610273610d03565b5b6040519080825280602002602001820160405280156102a25781602001602082028036833780820191505090505b5090505f5f90505b8251811015610328578281815181106102c6576102c5610ee2565b5b60200260200101518282815181106102e1576102e0610ee2565b5b602002602001019073ffffffffffffffffffffffffffffffffffffffff16908173ffffffffffffffffffffffffffffffffffffffff168152505080806001019150506102aa565b5073eeeeeeeeeeeeeeeeeeeeeeeeeeeeeeeeeeeeeeee8183518151811061035257610351610ee2565b5b602002602001019073ffffffffffffffffffffffffffffffffffffffff16908173ffffffffffffffffffffffffffffffffffffffff16815250505f815167ffffffffffffffff8111156103a8576103a7610d03565b5b6040519080825280602002602001820160405280156103d65781602001602082028036833780820191505090505b5090505f5f90505b835181101561050b575f8573ffffffffffffffffffffffffffffffffffffffff1663c44b11f785848151811061041757610416610ee2565b5b60200260200101516040518263ffffffff1660e01b815260040161043b9190610f1e565b602060405180830381865afa158015610456573d5f5f3e3d5ffd5b505050506040513d601f19601f8201168201806040525081019061047a9190610f9e565b90505f610486826107dd565b505050509050806104b8575f8484815181106104a5576104a4610ee2565b5b60200260200101818152505050506104fe565b6104dc8a8685815181106104cf576104ce610ee2565b5b6020026020010151610692565b8484815181106104ef576104ee610ee2565b5b60200260200101818152505050505b80806001019150506103de565b5061052a8773eeeeeeeeeeeeeeeeeeeeeeeeeeeeeeeeeeeeeeee610692565b8184518151811061053e5761053d610ee2565b5b602002602001018181525050818195509550505050509250929050565b60605f83839050868690506105709190610fc9565b67ffffffffffffffff81111561058957610588610d03565b5b6040519080825280602002602001820160405280156105b75781602001602082028036833780820191505090505b5090505f5f90505b86869050811015610685575f5f90505b85859050811015610677576106328888848181106105f0576105ef610ee2565b5b9050602002016020810190610605919061100a565b87878481811061061857610617610ee2565b5b905060200201602081019061062d919061100a565b610692565b838288889050856106439190610fc9565b61064d9190610eaf565b8151811061065e5761065d610ee2565b5b60200260200101818152505080806001019150506105cf565b5080806001019150506105bf565b5080915050949350505050565b5f73eeeeeeeeeeeeeeeeeeeeeeeeeeeeeeeeeeeeeeee73ffffffffffffffffffffffffffffffffffffffff168273ffffffffffffffffffffffffffffffffffffffff16036106f9578273ffffffffffffffffffffffffffffffffffffffff163190506107d7565b6107188273ffffffffffffffffffffffffffffffffffffffff16610155565b1561079c578173ffffffffffffffffffffffffffffffffffffffff166370a08231846040518263ffffffff1660e01b81526004016107569190610f1e565b602060405180830381865afa158015610771573d5f5f3e3d5ffd5b505050506040513d601f19601f820116820180604052508101906107959190611035565b90506107d7565b6040517f08c379a00000000000000000000000000000000000000000000000000000000081526004016107ce906110aa565b60405180910390fd5b92915050565b5f5f5f5f5f5f865f015190505f7ffffffffffffffffffffffffffffffffffffffffffffffffffeffffffffffffff19821614155f7ffffffffffffffffffffffffffffffffffffffffffffffffffdffffffffffffff19831614155f7ffffffffffffffffffffffffffffffffffffffffffffffffffbffffffffffffff19841614155f7ffffffffffffffffffffffffffffffffffffffffffffffffff7ffffffffffffff19851614155f7fffffffffffffffffffffffffffffffffffffffffffffffffefffffffffffffff1986161415955095509550955095505091939590929450565b5f82825260208201905092915050565b7f32320000000000000000000000000000000000000000000000000000000000005f82015250565b5f6109046002836108c0565b915061090f826108d0565b602082019050919050565b5f6020820190508181035f830152610931816108f8565b9050919050565b5f604051905090565b5f5ffd5b5f5ffd5b5f73ffffffffffffffffffffffffffffffffffffffff82169050919050565b5f61097282610949565b9050919050565b61098281610968565b811461098c575f5ffd5b50565b5f8135905061099d81610979565b92915050565b5f5f604083850312156109b9576109b8610941565b5b5f6109c68582860161098f565b92505060206109d78582860161098f565b9150509250929050565b5f81519050919050565b5f82825260208201905092915050565b5f819050602082019050919050565b610a1381610968565b82525050565b5f610a248383610a0a565b60208301905092915050565b5f602082019050919050565b5f610a46826109e1565b610a5081856109eb565b9350610a5b836109fb565b805f5b83811015610a8b578151610a728882610a19565b9750610a7d83610a30565b925050600181019050610a5e565b5085935050505092915050565b5f81519050919050565b5f82825260208201905092915050565b5f819050602082019050919050565b5f819050919050565b610ad381610ac1565b82525050565b5f610ae48383610aca565b60208301905092915050565b5f602082019050919050565b5f610b0682610a98565b610b108185610aa2565b9350610b1b83610ab2565b805f5b83811015610b4b578151610b328882610ad9565b9750610b3d83610af0565b925050600181019050610b1e565b5085935050505092915050565b5f6040820190508181035f830152610b708185610a3c565b90508181036020830152610b848184610afc565b90509392505050565b5f5ffd5b5f5ffd5b5f5ffd5b5f5f83601f840112610bae57610bad610b8d565b5b8235905067ffffffffffffffff811115610bcb57610bca610b91565b5b602083019150836020820283011115610be757610be6610b95565b5b9250929050565b5f5f5f5f60408587031215610c0657610c05610941565b5b5f85013567ffffffffffffffff811115610c2357610c22610945565b5b610c2f87828801610b99565b9450945050602085013567ffffffffffffffff811115610c5257610c51610945565b5b610c5e87828801610b99565b925092505092959194509250565b5f6020820190508181035f830152610c848184610afc565b905092915050565b610c9581610ac1565b82525050565b5f602082019050610cae5f830184610c8c565b92915050565b5f81519050610cc281610979565b92915050565b5f60208284031215610cdd57610cdc610941565b5b5f610cea84828501610cb4565b91505092915050565b5f601f19601f8301169050919050565b7f4e487b71000000000000000000000000000000000000000000000000000000005f52604160045260245ffd5b610d3982610cf3565b810181811067ffffffffffffffff82111715610d5857610d57610d03565b5b80604052505050565b5f610d6a610938565b9050610d768282610d30565b919050565b5f67ffffffffffffffff821115610d9557610d94610d03565b5b602082029050602081019050919050565b5f610db8610db384610d7b565b610d61565b90508083825260208201905060208402830185811115610ddb57610dda610b95565b5b835b81811015610e045780610df08882610cb4565b845260208401935050602081019050610ddd565b5050509392505050565b5f82601f830112610e2257610e21610b8d565b5b8151610e32848260208601610da6565b91505092915050565b5f60208284031215610e5057610e4f610941565b5b5f82015167ffffffffffffffff811115610e6d57610e6c610945565b5b610e7984828501610e0e565b91505092915050565b7f4e487b71000000000000000000000000000000000000000000000000000000005f52601160045260245ffd5b5f610eb982610ac1565b9150610ec483610ac1565b9250828201905080821115610edc57610edb610e82565b5b92915050565b7f4e487b71000000000000000000000000000000000000000000000000000000005f52603260045260245ffd5b610f1881610968565b82525050565b5f602082019050610f315f830184610f0f565b92915050565b5f5ffd5b610f4481610ac1565b8114610f4e575f5ffd5b50565b5f81519050610f5f81610f3b565b92915050565b5f60208284031215610f7a57610f79610f37565b5b610f846020610d61565b90505f610f9384828501610f51565b5f8301525092915050565b5f60208284031215610fb357610fb2610941565b5b5f610fc084828501610f65565b91505092915050565b5f610fd382610ac1565b9150610fde83610ac1565b9250828202610fec81610ac1565b9150828204841483151761100357611002610e82565b5b5092915050565b5f6020828403121561101f5761101e610941565b5b5f61102c8482850161098f565b91505092915050565b5f6020828403121561104a57611049610941565b5b5f61105784828501610f51565b91505092915050565b7f494e56414c49445f544f4b454e000000000000000000000000000000000000005f82015250565b5f611094600d836108c0565b915061109f82611060565b602082019050919050565b5f6020820190508181035f8301526110c181611088565b905091905056fea2646970667358221220be95b9c2dc3ad0274676ecfa35050529671dbf98d3966d6eecb76b224b0de78e64736f6c634300081c0033","linkReferences":{}},"methodIdentifiers":{"balanceOf(address,address)":"f7888aec","batchBalanceOf(address[],address[])":"b59b28ef","getUserWalletBalances(address,address)":"02405343"},"id":12}