{"abi":[{"type":"constructor","inputs":[],"stateMutability":"nonpayable"},{"type":"function","name":"buy","inputs":[{"name":"fromToken","type":"address","internalType":"address"},{"name":"toToken","type":"address","internalType":"address"},{"name":"fromAmount","type":"uint256","internalType":"uint256"},{"name":"toAmount","type":"uint256","internalType":"uint256"}],"outputs":[{"name":"","type":"uint256","internalType":"uint256"}],"stateMutability":"nonpayable"},{"type":"function","name":"expectBuy","inputs":[{"name":"fromToken","type":"address","internalType":"address"},{"name":"toToken","type":"address","internalType":"address"},{"name":"fromAmount","type":"uint256","internalType":"uint256"},{"name":"toAmountMin","type":"uint256","internalType":"uint256"},{"name":"toAmountMax","type":"uint256","internalType":"uint256"}],"outputs":[],"stateMutability":"nonpayable"},{"type":"function","name":"expectSwap","inputs":[{"name":"fromToken","type":"address","internalType":"address"},{"name":"toToken","type":"address","internalType":"address"},{"name":"fromAmountMin","type":"uint256","internalType":"uint256"},{"name":"fromAmountMax","type":"uint256","internalType":"uint256"},{"name":"receivedAmount","type":"uint256","internalType":"uint256"}],"outputs":[],"stateMutability":"nonpayable"},{"type":"function","name":"getTokenTransferProxy","inputs":[],"outputs":[{"name":"","type":"address","internalType":"address"}],"stateMutability":"view"},{"type":"function","name":"swap","inputs":[{"name":"fromToken","type":"address","internalType":"address"},{"name":"toToken","type":"address","internalType":"address"},{"name":"fromAmount","type":"uint256","internalType":"uint256"},{"name":"toAmount","type":"uint256","internalType":"uint256"}],"outputs":[{"name":"","type":"uint256","internalType":"uint256"}],"stateMutability":"nonpayable"}],"bytecode":{"object":"0x60a060405234801561000f575f5ffd5b5060405161001c9061006e565b604051809103905ff080158015610035573d5f5f3e3d5ffd5b5073ffffffffffffffffffffffffffffffffffffffff1660808173ffffffffffffffffffffffffffffffffffffffff168152505061007b565b6108fc8061108b83390190565b608051610fea6100a15f395f81816103ca0152818161062701526108510152610fea5ff3fe608060405234801561000f575f5ffd5b5060043610610055575f3560e01c80638507eae814610059578063a9d424e214610075578063b166d5f0146100a5578063d2c4b598146100c1578063fe029156146100df575b5f5ffd5b610073600480360381019061006e9190610a8b565b61010f565b005b61008f600480360381019061008a9190610b02565b6101c4565b60405161009c9190610b75565b60405180910390f35b6100bf60048036038101906100ba9190610a8b565b61056f565b005b6100c9610624565b6040516100d69190610b9d565b60405180910390f35b6100f960048036038101906100f49190610b02565b61064b565b6040516101069190610b75565b60405180910390f35b60015f5f6101000a81548160ff021916908315150217905550845f60016101000a81548173ffffffffffffffffffffffffffffffffffffffff021916908373ffffffffffffffffffffffffffffffffffffffff1602179055508360015f6101000a81548173ffffffffffffffffffffffffffffffffffffffff021916908373ffffffffffffffffffffffffffffffffffffffff1602179055508260058190555081600781905550806006819055505050505050565b5f5f5f9054906101000a900460ff16610212576040517f08c379a000000000000000000000000000000000000000000000000000000000815260040161020990610c10565b60405180910390fd5b5f60019054906101000a900473ffffffffffffffffffffffffffffffffffffffff1673ffffffffffffffffffffffffffffffffffffffff168573ffffffffffffffffffffffffffffffffffffffff16146102a1576040517f08c379a000000000000000000000000000000000000000000000000000000000815260040161029890610c78565b60405180910390fd5b60015f9054906101000a900473ffffffffffffffffffffffffffffffffffffffff1673ffffffffffffffffffffffffffffffffffffffff168473ffffffffffffffffffffffffffffffffffffffff1614610330576040517f08c379a000000000000000000000000000000000000000000000000000000000815260040161032790610ce0565b60405180910390fd5b600754821015801561034457506006548211155b610383576040517f08c379a000000000000000000000000000000000000000000000000000000000815260040161037a90610d48565b60405180910390fd5b8260055411156103c8576040517f08c379a00000000000000000000000000000000000000000000000000000000081526004016103bf90610dd6565b60405180910390fd5b7f000000000000000000000000000000000000000000000000000000000000000073ffffffffffffffffffffffffffffffffffffffff166315dacbea8633306005546040518563ffffffff1660e01b81526004016104299493929190610df4565b5f604051808303815f87803b158015610440575f5ffd5b505af1158015610452573d5f5f3e3d5ffd5b505050508373ffffffffffffffffffffffffffffffffffffffff1663a0712d68836040518263ffffffff1660e01b815260040161048f9190610b75565b6020604051808303815f875af11580156104ab573d5f5f3e3d5ffd5b505050506040513d601f19601f820116820180604052508101906104cf9190610e6c565b508373ffffffffffffffffffffffffffffffffffffffff1663a9059cbb33846040518363ffffffff1660e01b815260040161050b929190610e97565b6020604051808303815f875af1158015610527573d5f5f3e3d5ffd5b505050506040513d601f19601f8201168201806040525081019061054b9190610e6c565b505f5f5f6101000a81548160ff021916908315150217905550829050949350505050565b60015f5f6101000a81548160ff021916908315150217905550845f60016101000a81548173ffffffffffffffffffffffffffffffffffffffff021916908373ffffffffffffffffffffffffffffffffffffffff1602179055508360015f6101000a81548173ffffffffffffffffffffffffffffffffffffffff021916908373ffffffffffffffffffffffffffffffffffffffff1602179055508260028190555081600381905550806004819055505050505050565b5f7f0000000000000000000000000000000000000000000000000000000000000000905090565b5f5f5f9054906101000a900460ff16610699576040517f08c379a000000000000000000000000000000000000000000000000000000000815260040161069090610c10565b60405180910390fd5b5f60019054906101000a900473ffffffffffffffffffffffffffffffffffffffff1673ffffffffffffffffffffffffffffffffffffffff168573ffffffffffffffffffffffffffffffffffffffff1614610728576040517f08c379a000000000000000000000000000000000000000000000000000000000815260040161071f90610c78565b60405180910390fd5b60015f9054906101000a900473ffffffffffffffffffffffffffffffffffffffff1673ffffffffffffffffffffffffffffffffffffffff168473ffffffffffffffffffffffffffffffffffffffff16146107b7576040517f08c379a00000000000000000000000000000000000000000000000000000000081526004016107ae90610ce0565b60405180910390fd5b60025483101580156107cb57506003548311155b61080a576040517f08c379a000000000000000000000000000000000000000000000000000000000815260040161080190610f08565b60405180910390fd5b81600454101561084f576040517f08c379a000000000000000000000000000000000000000000000000000000000815260040161084690610f96565b60405180910390fd5b7f000000000000000000000000000000000000000000000000000000000000000073ffffffffffffffffffffffffffffffffffffffff166315dacbea863330876040518563ffffffff1660e01b81526004016108ae9493929190610df4565b5f604051808303815f87803b1580156108c5575f5ffd5b505af11580156108d7573d5f5f3e3d5ffd5b505050508373ffffffffffffffffffffffffffffffffffffffff1663a0712d686004546040518263ffffffff1660e01b81526004016109169190610b75565b6020604051808303815f875af1158015610932573d5f5f3e3d5ffd5b505050506040513d601f19601f820116820180604052508101906109569190610e6c565b508373ffffffffffffffffffffffffffffffffffffffff1663a9059cbb336004546040518363ffffffff1660e01b8152600401610994929190610e97565b6020604051808303815f875af11580156109b0573d5f5f3e3d5ffd5b505050506040513d601f19601f820116820180604052508101906109d49190610e6c565b505f5f5f6101000a81548160ff0219169083151502179055506004549050949350505050565b5f5ffd5b5f73ffffffffffffffffffffffffffffffffffffffff82169050919050565b5f610a27826109fe565b9050919050565b610a3781610a1d565b8114610a41575f5ffd5b50565b5f81359050610a5281610a2e565b92915050565b5f819050919050565b610a6a81610a58565b8114610a74575f5ffd5b50565b5f81359050610a8581610a61565b92915050565b5f5f5f5f5f60a08688031215610aa457610aa36109fa565b5b5f610ab188828901610a44565b9550506020610ac288828901610a44565b9450506040610ad388828901610a77565b9350506060610ae488828901610a77565b9250506080610af588828901610a77565b9150509295509295909350565b5f5f5f5f60808587031215610b1a57610b196109fa565b5b5f610b2787828801610a44565b9450506020610b3887828801610a44565b9350506040610b4987828801610a77565b9250506060610b5a87828801610a77565b91505092959194509250565b610b6f81610a58565b82525050565b5f602082019050610b885f830184610b66565b92915050565b610b9781610a1d565b82525050565b5f602082019050610bb05f830184610b8e565b92915050565b5f82825260208201905092915050565b7f4e6f7420657870656374696e67207377617000000000000000000000000000005f82015250565b5f610bfa601283610bb6565b9150610c0582610bc6565b602082019050919050565b5f6020820190508181035f830152610c2781610bee565b9050919050565b7f556e65787065637465642066726f6d20746f6b656e00000000000000000000005f82015250565b5f610c62601583610bb6565b9150610c6d82610c2e565b602082019050919050565b5f6020820190508181035f830152610c8f81610c56565b9050919050565b7f556e657870656374656420746f20746f6b656e000000000000000000000000005f82015250565b5f610cca601383610bb6565b9150610cd582610c96565b602082019050919050565b5f6020820190508181035f830152610cf781610cbe565b9050919050565b7f546f20616d6f756e74206f7574206f662072616e6765000000000000000000005f82015250565b5f610d32601683610bb6565b9150610d3d82610cfe565b602082019050919050565b5f6020820190508181035f830152610d5f81610d26565b9050919050565b7f46726f6d20616d6f756e74206f6620746f6b656e7320617265206869676865725f8201527f207468616e206578706563746564000000000000000000000000000000000000602082015250565b5f610dc0602e83610bb6565b9150610dcb82610d66565b604082019050919050565b5f6020820190508181035f830152610ded81610db4565b9050919050565b5f608082019050610e075f830187610b8e565b610e146020830186610b8e565b610e216040830185610b8e565b610e2e6060830184610b66565b95945050505050565b5f8115159050919050565b610e4b81610e37565b8114610e55575f5ffd5b50565b5f81519050610e6681610e42565b92915050565b5f60208284031215610e8157610e806109fa565b5b5f610e8e84828501610e58565b91505092915050565b5f604082019050610eaa5f830185610b8e565b610eb76020830184610b66565b9392505050565b7f46726f6d20616d6f756e74206f7574206f662072616e676500000000000000005f82015250565b5f610ef2601883610bb6565b9150610efd82610ebe565b602082019050919050565b5f6020820190508181035f830152610f1f81610ee6565b9050919050565b7f526563656976656420616d6f756e74206f6620746f6b656e7320617265206c655f8201527f7373207468616e20657870656374656400000000000000000000000000000000602082015250565b5f610f80603083610bb6565b9150610f8b82610f26565b604082019050919050565b5f6020820190508181035f830152610fad81610f74565b905091905056fea26469706673582212204d503d131d1a9c88ce910298cee05dddd8ad31cd4fb070c9c24a1182be2d9c3b64736f6c634300081c00336080604052348015600e575f5ffd5b505f601c60bc60201b60201c565b9050805f5f6101000a81548173ffffffffffffffffffffffffffffffffffffffff021916908373ffffffffffffffffffffffffffffffffffffffff1602179055508073ffffffffffffffffffffffffffffffffffffffff165f73ffffffffffffffffffffffffffffffffffffffff167f8be0079c531659141344cd1fd0a4f28419497f9722a3daafe3b4186f6b6457e060405160405180910390a35060c3565b5f33905090565b61082c806100d05f395ff3fe608060405234801561000f575f5ffd5b506004361061004a575f3560e01c806315dacbea1461004e578063715018a61461006a5780638da5cb5b14610074578063f2fde38b14610092575b5f5ffd5b61006860048036038101906100639190610595565b6100ae565b005b6100726101c7565b005b61007c610317565b6040516100899190610608565b60405180910390f35b6100ac60048036038101906100a79190610621565b61033e565b005b6100b66104fd565b73ffffffffffffffffffffffffffffffffffffffff165f5f9054906101000a900473ffffffffffffffffffffffffffffffffffffffff1673ffffffffffffffffffffffffffffffffffffffff1614610143576040517f08c379a000000000000000000000000000000000000000000000000000000000815260040161013a906106a6565b60405180910390fd5b8373ffffffffffffffffffffffffffffffffffffffff166323b872dd8484846040518463ffffffff1660e01b8152600401610180939291906106d3565b6020604051808303815f875af115801561019c573d5f5f3e3d5ffd5b505050506040513d601f19601f820116820180604052508101906101c0919061073d565b5050505050565b6101cf6104fd565b73ffffffffffffffffffffffffffffffffffffffff165f5f9054906101000a900473ffffffffffffffffffffffffffffffffffffffff1673ffffffffffffffffffffffffffffffffffffffff161461025c576040517f08c379a0000000000000000000000000000000000000000000000000000000008152600401610253906106a6565b60405180910390fd5b5f73ffffffffffffffffffffffffffffffffffffffff165f5f9054906101000a900473ffffffffffffffffffffffffffffffffffffffff1673ffffffffffffffffffffffffffffffffffffffff167f8be0079c531659141344cd1fd0a4f28419497f9722a3daafe3b4186f6b6457e060405160405180910390a35f5f5f6101000a81548173ffffffffffffffffffffffffffffffffffffffff021916908373ffffffffffffffffffffffffffffffffffffffff160217905550565b5f5f5f9054906101000a900473ffffffffffffffffffffffffffffffffffffffff16905090565b6103466104fd565b73ffffffffffffffffffffffffffffffffffffffff165f5f9054906101000a900473ffffffffffffffffffffffffffffffffffffffff1673ffffffffffffffffffffffffffffffffffffffff16146103d3576040517f08c379a00000000000000000000000000000000000000000000000000000000081526004016103ca906106a6565b60405180910390fd5b5f73ffffffffffffffffffffffffffffffffffffffff168173ffffffffffffffffffffffffffffffffffffffff1603610441576040517f08c379a0000000000000000000000000000000000000000000000000000000008152600401610438906107d8565b60405180910390fd5b8073ffffffffffffffffffffffffffffffffffffffff165f5f9054906101000a900473ffffffffffffffffffffffffffffffffffffffff1673ffffffffffffffffffffffffffffffffffffffff167f8be0079c531659141344cd1fd0a4f28419497f9722a3daafe3b4186f6b6457e060405160405180910390a3805f5f6101000a81548173ffffffffffffffffffffffffffffffffffffffff021916908373ffffffffffffffffffffffffffffffffffffffff16021790555050565b5f33905090565b5f5ffd5b5f73ffffffffffffffffffffffffffffffffffffffff82169050919050565b5f61053182610508565b9050919050565b61054181610527565b811461054b575f5ffd5b50565b5f8135905061055c81610538565b92915050565b5f819050919050565b61057481610562565b811461057e575f5ffd5b50565b5f8135905061058f8161056b565b92915050565b5f5f5f5f608085870312156105ad576105ac610504565b5b5f6105ba8782880161054e565b94505060206105cb8782880161054e565b93505060406105dc8782880161054e565b92505060606105ed87828801610581565b91505092959194509250565b61060281610527565b82525050565b5f60208201905061061b5f8301846105f9565b92915050565b5f6020828403121561063657610635610504565b5b5f6106438482850161054e565b91505092915050565b5f82825260208201905092915050565b7f4f776e61626c653a2063616c6c6572206973206e6f7420746865206f776e65725f82015250565b5f61069060208361064c565b915061069b8261065c565b602082019050919050565b5f6020820190508181035f8301526106bd81610684565b9050919050565b6106cd81610562565b82525050565b5f6060820190506106e65f8301866105f9565b6106f360208301856105f9565b61070060408301846106c4565b949350505050565b5f8115159050919050565b61071c81610708565b8114610726575f5ffd5b50565b5f8151905061073781610713565b92915050565b5f6020828403121561075257610751610504565b5b5f61075f84828501610729565b91505092915050565b7f4f776e61626c653a206e6577206f776e657220697320746865207a65726f20615f8201527f6464726573730000000000000000000000000000000000000000000000000000602082015250565b5f6107c260268361064c565b91506107cd82610768565b604082019050919050565b5f6020820190508181035f8301526107ef816107b6565b905091905056fea26469706673582212202debb8ecd397241b06545c80dc45e03df5d4f15690dd5e2e91de3f9347db036664736f6c634300081c0033","linkReferences":{}},"methodIdentifiers":{"buy(address,address,uint256,uint256)":"a9d424e2","expectBuy(address,address,uint256,uint256,uint256)":"8507eae8","expectSwap(address,address,uint256,uint256,uint256)":"b166d5f0","getTokenTransferProxy()":"d2c4b598","swap(address,address,uint256,uint256)":"fe029156"},"id":24}