{"abi":[{"type":"constructor","inputs":[{"name":"name","type":"string","internalType":"string"},{"name":"symbol","type":"string","internalType":"string"},{"name":"decimals","type":"uint8","internalType":"uint8"},{"name":"owner","type":"address","internalType":"address"}],"stateMutability":"nonpayable"},{"type":"function","name":"DOMAIN_SEPARATOR","inputs":[],"outputs":[{"name":"","type":"bytes32","internalType":"bytes32"}],"stateMutability":"view"},{"type":"function","name":"EIP712_REVISION","inputs":[],"outputs":[{"name":"","type":"bytes","internalType":"bytes"}],"stateMutability":"view"},{"type":"function","name":"PERMIT_TYPEHASH","inputs":[],"outputs":[{"name":"","type":"bytes32","internalType":"bytes32"}],"stateMutability":"view"},{"type":"function","name":"allowance","inputs":[{"name":"owner","type":"address","internalType":"address"},{"name":"spender","type":"address","internalType":"address"}],"outputs":[{"name":"","type":"uint256","internalType":"uint256"}],"stateMutability":"view"},{"type":"function","name":"approve","inputs":[{"name":"spender","type":"address","internalType":"address"},{"name":"amount","type":"uint256","internalType":"uint256"}],"outputs":[{"name":"","type":"bool","internalType":"bool"}],"stateMutability":"nonpayable"},{"type":"function","name":"balanceOf","inputs":[{"name":"account","type":"address","internalType":"address"}],"outputs":[{"name":"","type":"uint256","internalType":"uint256"}],"stateMutability":"view"},{"type":"function","name":"decimals","inputs":[],"outputs":[{"name":"","type":"uint8","internalType":"uint8"}],"stateMutability":"view"},{"type":"function","name":"decreaseAllowance","inputs":[{"name":"spender","type":"address","internalType":"address"},{"name":"subtractedValue","type":"uint256","internalType":"uint256"}],"outputs":[{"name":"","type":"bool","internalType":"bool"}],"stateMutability":"nonpayable"},{"type":"function","name":"increaseAllowance","inputs":[{"name":"spender","type":"address","internalType":"address"},{"name":"addedValue","type":"uint256","internalType":"uint256"}],"outputs":[{"name":"","type":"bool","internalType":"bool"}],"stateMutability":"nonpayable"},{"type":"function","name":"isProtected","inputs":[],"outputs":[{"name":"","type":"bool","internalType":"bool"}],"stateMutability":"view"},{"type":"function","name":"mint","inputs":[{"name":"account","type":"address","internalType":"address"},{"name":"value","type":"uint256","internalType":"uint256"}],"outputs":[{"name":"","type":"bool","internalType":"bool"}],"stateMutability":"nonpayable"},{"type":"function","name":"mint","inputs":[{"name":"value","type":"uint256","internalType":"uint256"}],"outputs":[{"name":"","type":"bool","internalType":"bool"}],"stateMutability":"nonpayable"},{"type":"function","name":"name","inputs":[],"outputs":[{"name":"","type":"string","internalType":"string"}],"stateMutability":"view"},{"type":"function","name":"nonces","inputs":[{"name":"owner","type":"address","internalType":"address"}],"outputs":[{"name":"","type":"uint256","internalType":"uint256"}],"stateMutability":"view"},{"type":"function","name":"owner","inputs":[],"outputs":[{"name":"","type":"address","internalType":"address"}],"stateMutability":"view"},{"type":"function","name":"permit","inputs":[{"name":"owner","type":"address","internalType":"address"},{"name":"spender","type":"address","internalType":"address"},{"name":"value","type":"uint256","internalType":"uint256"},{"name":"deadline","type":"uint256","internalType":"uint256"},{"name":"v","type":"uint8","internalType":"uint8"},{"name":"r","type":"bytes32","internalType":"bytes32"},{"name":"s","type":"bytes32","internalType":"bytes32"}],"outputs":[],"stateMutability":"nonpayable"},{"type":"function","name":"renounceOwnership","inputs":[],"outputs":[],"stateMutability":"nonpayable"},{"type":"function","name":"setProtected","inputs":[{"name":"state","type":"bool","internalType":"bool"}],"outputs":[],"stateMutability":"nonpayable"},{"type":"function","name":"symbol","inputs":[],"outputs":[{"name":"","type":"string","internalType":"string"}],"stateMutability":"view"},{"type":"function","name":"totalSupply","inputs":[],"outputs":[{"name":"","type":"uint256","internalType":"uint256"}],"stateMutability":"view"},{"type":"function","name":"transfer","inputs":[{"name":"recipient","type":"address","internalType":"address"},{"name":"amount","type":"uint256","internalType":"uint256"}],"outputs":[{"name":"","type":"bool","internalType":"bool"}],"stateMutability":"nonpayable"},{"type":"function","name":"transferFrom","inputs":[{"name":"sender","type":"address","internalType":"address"},{"name":"recipient","type":"address","internalType":"address"},{"name":"amount","type":"uint256","internalType":"uint256"}],"outputs":[{"name":"","type":"bool","internalType":"bool"}],"stateMutability":"nonpayable"},{"type":"function","name":"transferOwnership","inputs":[{"name":"newOwner","type":"address","internalType":"address"}],"outputs":[],"stateMutability":"nonpayable"},{"type":"event","name":"Approval","inputs":[{"name":"owner","type":"address","indexed":true,"internalType":"address"},{"name":"spender","type":"address","indexed":true,"internalType":"address"},{"name":"value","type":"uint256","indexed":false,"internalType":"uint256"}],"anonymous":false},{"type":"event","name":"OwnershipTransferred","inputs":[{"name":"previousOwner","type":"address","indexed":true,"internalType":"address"},{"name":"newOwner","type":"address","indexed":true,"internalType":"address"}],"anonymous":false},{"type":"event","name":"Transfer","inputs":[{"name":"from","type":"address","indexed":true,"internalType":"address"},{"name":"to","type":"address","indexed":true,"internalType":"address"},{"name":"value","type":"uint256","indexed":false,"internalType":"uint256"}],"anonymous":false}],"bytecode":{"object":"0x608060405234801561000f575f5ffd5b50604051612f8a380380612f8a833981810160405281019061003191906105fe565b8383816003908161004291906108aa565b50806004908161005291906108aa565b50601260055f6101000a81548160ff021916908360ff16021790555050505f61007f61023260201b60201c565b905080600560016101000a81548173ffffffffffffffffffffffffffffffffffffffff021916908373ffffffffffffffffffffffffffffffffffffffff1602179055508073ffffffffffffffffffffffffffffffffffffffff165f73ffffffffffffffffffffffffffffffffffffffff167f8be0079c531659141344cd1fd0a4f28419497f9722a3daafe3b4186f6b6457e060405160405180910390a3505f4690507f8b73c3c69bb8fe3d512ecc4cf759cc79239f7b179b0ffacaa9a75d522b39400f85805190602001206040518060400160405280600181526020017f310000000000000000000000000000000000000000000000000000000000000081525080519060200120833060405160200161019d9594939291906109af565b604051602081830303815290604052805190602001206007819055506101c88361023960201b60201c565b5f73ffffffffffffffffffffffffffffffffffffffff168273ffffffffffffffffffffffffffffffffffffffff16036101ff575f5ffd5b61020e8261025660201b60201c565b600160085f6101000a81548160ff0219169083151502179055505050505050610b06565b5f33905090565b8060055f6101000a81548160ff021916908360ff16021790555050565b61026461023260201b60201c565b73ffffffffffffffffffffffffffffffffffffffff16600560019054906101000a900473ffffffffffffffffffffffffffffffffffffffff1673ffffffffffffffffffffffffffffffffffffffff16146102f3576040517f08c379a00000000000000000000000000000000000000000000000000000000081526004016102ea90610a5a565b60405180910390fd5b5f73ffffffffffffffffffffffffffffffffffffffff168173ffffffffffffffffffffffffffffffffffffffff1603610361576040517f08c379a000000000000000000000000000000000000000000000000000000000815260040161035890610ae8565b60405180910390fd5b8073ffffffffffffffffffffffffffffffffffffffff16600560019054906101000a900473ffffffffffffffffffffffffffffffffffffffff1673ffffffffffffffffffffffffffffffffffffffff167f8be0079c531659141344cd1fd0a4f28419497f9722a3daafe3b4186f6b6457e060405160405180910390a380600560016101000a81548173ffffffffffffffffffffffffffffffffffffffff021916908373ffffffffffffffffffffffffffffffffffffffff16021790555050565b5f604051905090565b5f5ffd5b5f5ffd5b5f5ffd5b5f5ffd5b5f601f19601f8301169050919050565b7f4e487b71000000000000000000000000000000000000000000000000000000005f52604160045260245ffd5b6104808261043a565b810181811067ffffffffffffffff8211171561049f5761049e61044a565b5b80604052505050565b5f6104b1610421565b90506104bd8282610477565b919050565b5f67ffffffffffffffff8211156104dc576104db61044a565b5b6104e58261043a565b9050602081019050919050565b8281835e5f83830152505050565b5f61051261050d846104c2565b6104a8565b90508281526020810184848401111561052e5761052d610436565b5b6105398482856104f2565b509392505050565b5f82601f83011261055557610554610432565b5b8151610565848260208601610500565b91505092915050565b5f60ff82169050919050565b6105838161056e565b811461058d575f5ffd5b50565b5f8151905061059e8161057a565b92915050565b5f73ffffffffffffffffffffffffffffffffffffffff82169050919050565b5f6105cd826105a4565b9050919050565b6105dd816105c3565b81146105e7575f5ffd5b50565b5f815190506105f8816105d4565b92915050565b5f5f5f5f608085870312156106165761061561042a565b5b5f85015167ffffffffffffffff8111156106335761063261042e565b5b61063f87828801610541565b945050602085015167ffffffffffffffff8111156106605761065f61042e565b5b61066c87828801610541565b935050604061067d87828801610590565b925050606061068e878288016105ea565b91505092959194509250565b5f81519050919050565b7f4e487b71000000000000000000000000000000000000000000000000000000005f52602260045260245ffd5b5f60028204905060018216806106e857607f821691505b6020821081036106fb576106fa6106a4565b5b50919050565b5f819050815f5260205f209050919050565b5f6020601f8301049050919050565b5f82821b905092915050565b5f6008830261075d7fffffffffffffffffffffffffffffffffffffffffffffffffffffffffffffffff82610722565b6107678683610722565b95508019841693508086168417925050509392505050565b5f819050919050565b5f819050919050565b5f6107ab6107a66107a18461077f565b610788565b61077f565b9050919050565b5f819050919050565b6107c483610791565b6107d86107d0826107b2565b84845461072e565b825550505050565b5f5f905090565b6107ef6107e0565b6107fa8184846107bb565b505050565b5b8181101561081d576108125f826107e7565b600181019050610800565b5050565b601f8211156108625761083381610701565b61083c84610713565b8101602085101561084b578190505b61085f61085785610713565b8301826107ff565b50505b505050565b5f82821c905092915050565b5f6108825f1984600802610867565b1980831691505092915050565b5f61089a8383610873565b9150826002028217905092915050565b6108b38261069a565b67ffffffffffffffff8111156108cc576108cb61044a565b5b6108d682546106d1565b6108e1828285610821565b5f60209050601f831160018114610912575f8415610900578287015190505b61090a858261088f565b865550610971565b601f19841661092086610701565b5f5b8281101561094757848901518255600182019150602085019450602081019050610922565b868310156109645784890151610960601f891682610873565b8355505b6001600288020188555050505b505050505050565b5f819050919050565b61098b81610979565b82525050565b61099a8161077f565b82525050565b6109a9816105c3565b82525050565b5f60a0820190506109c25f830188610982565b6109cf6020830187610982565b6109dc6040830186610982565b6109e96060830185610991565b6109f660808301846109a0565b9695505050505050565b5f82825260208201905092915050565b7f4f776e61626c653a2063616c6c6572206973206e6f7420746865206f776e65725f82015250565b5f610a44602083610a00565b9150610a4f82610a10565b602082019050919050565b5f6020820190508181035f830152610a7181610a38565b9050919050565b7f4f776e61626c653a206e6577206f776e657220697320746865207a65726f20615f8201527f6464726573730000000000000000000000000000000000000000000000000000602082015250565b5f610ad2602683610a00565b9150610add82610a78565b604082019050919050565b5f6020820190508181035f830152610aff81610ac6565b9050919050565b61247780610b135f395ff3fe608060405234801561000f575f5ffd5b506004361061014b575f3560e01c806370a08231116100c1578063a0712d681161007a578063a0712d68146103a3578063a457c2d7146103d3578063a9059cbb14610403578063d505accf14610433578063dd62ed3e1461044f578063f2fde38b1461047f5761014b565b806370a08231146102df578063715018a61461030f57806378160376146103195780637ecebe00146103375780638da5cb5b1461036757806395d89b41146103855761014b565b806330adf81f1161011357806330adf81f14610207578063313ce567146102255780633644e51514610243578063395093511461026157806340c10f19146102915780635300f82b146102c15761014b565b806306fdde031461014f578063095ea7b31461016d57806318160ddd1461019d5780631c02bc31146101bb57806323b872dd146101d7575b5f5ffd5b61015761049b565b6040516101649190611884565b60405180910390f35b61018760048036038101906101829190611935565b61052b565b604051610194919061198d565b60405180910390f35b6101a5610548565b6040516101b291906119b5565b60405180910390f35b6101d560048036038101906101d091906119f8565b610551565b005b6101f160048036038101906101ec9190611a23565b610604565b6040516101fe919061198d565b60405180910390f35b61020f6106d8565b60405161021c9190611a8b565b60405180910390f35b61022d6106fc565b60405161023a9190611abf565b60405180910390f35b61024b610711565b6040516102589190611a8b565b60405180910390f35b61027b60048036038101906102769190611935565b610717565b604051610288919061198d565b60405180910390f35b6102ab60048036038101906102a69190611935565b6107c5565b6040516102b8919061198d565b60405180910390f35b6102c9610871565b6040516102d6919061198d565b60405180910390f35b6102f960048036038101906102f49190611ad8565b610886565b60405161030691906119b5565b60405180910390f35b6103176108cb565b005b610321610a21565b60405161032e9190611b55565b60405180910390f35b610351600480360381019061034c9190611ad8565b610a5a565b60405161035e91906119b5565b60405180910390f35b61036f610aa0565b60405161037c9190611b84565b60405180910390f35b61038d610ac9565b60405161039a9190611884565b60405180910390f35b6103bd60048036038101906103b89190611b9d565b610b59565b6040516103ca919061198d565b60405180910390f35b6103ed60048036038101906103e89190611935565b610c0b565b6040516103fa919061198d565b60405180910390f35b61041d60048036038101906104189190611935565b610cd3565b60405161042a919061198d565b60405180910390f35b61044d60048036038101906104489190611c1c565b610cf0565b005b61046960048036038101906104649190611cb9565b610f7d565b60405161047691906119b5565b60405180910390f35b61049960048036038101906104949190611ad8565b610fff565b005b6060600380546104aa90611d24565b80601f01602080910402602001604051908101604052809291908181526020018280546104d690611d24565b80156105215780601f106104f857610100808354040283529160200191610521565b820191905f5260205f20905b81548152906001019060200180831161050457829003601f168201915b5050505050905090565b5f61053e6105376111c4565b84846111cb565b6001905092915050565b5f600254905090565b6105596111c4565b73ffffffffffffffffffffffffffffffffffffffff16600560019054906101000a900473ffffffffffffffffffffffffffffffffffffffff1673ffffffffffffffffffffffffffffffffffffffff16146105e8576040517f08c379a00000000000000000000000000000000000000000000000000000000081526004016105df90611d9e565b60405180910390fd5b8060085f6101000a81548160ff02191690831515021790555050565b5f61061084848461138e565b6106cd8461061c6111c4565b6106c8856040518060600160405280602881526020016123f56028913960015f8b73ffffffffffffffffffffffffffffffffffffffff1673ffffffffffffffffffffffffffffffffffffffff1681526020019081526020015f205f61067f6111c4565b73ffffffffffffffffffffffffffffffffffffffff1673ffffffffffffffffffffffffffffffffffffffff1681526020019081526020015f20546116179092919063ffffffff16565b6111cb565b600190509392505050565b7f6e71edae12b1b97f4d1f60370fef10105fa2faae0126114a169c64845d6126c981565b5f60055f9054906101000a900460ff16905090565b60075481565b5f6107bb6107236111c4565b846107b68560015f6107336111c4565b73ffffffffffffffffffffffffffffffffffffffff1673ffffffffffffffffffffffffffffffffffffffff1681526020019081526020015f205f8973ffffffffffffffffffffffffffffffffffffffff1673ffffffffffffffffffffffffffffffffffffffff1681526020019081526020015f205461166b90919063ffffffff16565b6111cb565b6001905092915050565b5f6001151560085f9054906101000a900460ff1615150361085d576107e86111c4565b73ffffffffffffffffffffffffffffffffffffffff16610806610aa0565b73ffffffffffffffffffffffffffffffffffffffff161461085c576040517f08c379a000000000000000000000000000000000000000000000000000000000815260040161085390611d9e565b60405180910390fd5b5b6108678383611683565b6001905092915050565b5f60085f9054906101000a900460ff16905090565b5f5f5f8373ffffffffffffffffffffffffffffffffffffffff1673ffffffffffffffffffffffffffffffffffffffff1681526020019081526020015f20549050919050565b6108d36111c4565b73ffffffffffffffffffffffffffffffffffffffff16600560019054906101000a900473ffffffffffffffffffffffffffffffffffffffff1673ffffffffffffffffffffffffffffffffffffffff1614610962576040517f08c379a000000000000000000000000000000000000000000000000000000000815260040161095990611d9e565b60405180910390fd5b5f73ffffffffffffffffffffffffffffffffffffffff16600560019054906101000a900473ffffffffffffffffffffffffffffffffffffffff1673ffffffffffffffffffffffffffffffffffffffff167f8be0079c531659141344cd1fd0a4f28419497f9722a3daafe3b4186f6b6457e060405160405180910390a35f600560016101000a81548173ffffffffffffffffffffffffffffffffffffffff021916908373ffffffffffffffffffffffffffffffffffffffff160217905550565b6040518060400160405280600181526020017f310000000000000000000000000000000000000000000000000000000000000081525081565b5f60065f8373ffffffffffffffffffffffffffffffffffffffff1673ffffffffffffffffffffffffffffffffffffffff1681526020019081526020015f20549050919050565b5f600560019054906101000a900473ffffffffffffffffffffffffffffffffffffffff16905090565b606060048054610ad890611d24565b80601f0160208091040260200160405190810160405280929190818152602001828054610b0490611d24565b8015610b4f5780601f10610b2657610100808354040283529160200191610b4f565b820191905f5260205f20905b815481529060010190602001808311610b3257829003601f168201915b5050505050905090565b5f6001151560085f9054906101000a900460ff16151503610bf157610b7c6111c4565b73ffffffffffffffffffffffffffffffffffffffff16610b9a610aa0565b73ffffffffffffffffffffffffffffffffffffffff1614610bf0576040517f08c379a0000000000000000000000000000000000000000000000000000000008152600401610be790611d9e565b60405180910390fd5b5b610c02610bfc6111c4565b83611683565b60019050919050565b5f610cc9610c176111c4565b84610cc48560405180606001604052806025815260200161241d6025913960015f610c406111c4565b73ffffffffffffffffffffffffffffffffffffffff1673ffffffffffffffffffffffffffffffffffffffff1681526020019081526020015f205f8a73ffffffffffffffffffffffffffffffffffffffff1673ffffffffffffffffffffffffffffffffffffffff1681526020019081526020015f20546116179092919063ffffffff16565b6111cb565b6001905092915050565b5f610ce6610cdf6111c4565b848461138e565b6001905092915050565b5f73ffffffffffffffffffffffffffffffffffffffff168773ffffffffffffffffffffffffffffffffffffffff1603610d5e576040517f08c379a0000000000000000000000000000000000000000000000000000000008152600401610d5590611e06565b60405180910390fd5b83421115610da1576040517f08c379a0000000000000000000000000000000000000000000000000000000008152600401610d9890611e6e565b60405180910390fd5b5f60065f8973ffffffffffffffffffffffffffffffffffffffff1673ffffffffffffffffffffffffffffffffffffffff1681526020019081526020015f205490505f6007547f6e71edae12b1b97f4d1f60370fef10105fa2faae0126114a169c64845d6126c98a8a8a868b604051602001610e2196959493929190611e8c565b60405160208183030381529060405280519060200120604051602001610e48929190611f5f565b6040516020818303038152906040528051906020012090506001818686866040515f8152602001604052604051610e829493929190611f95565b6020604051602081039080840390855afa158015610ea2573d5f5f3e3d5ffd5b5050506020604051035173ffffffffffffffffffffffffffffffffffffffff168973ffffffffffffffffffffffffffffffffffffffff1614610f19576040517f08c379a0000000000000000000000000000000000000000000000000000000008152600401610f1090612022565b60405180910390fd5b600182610f26919061206d565b60065f8b73ffffffffffffffffffffffffffffffffffffffff1673ffffffffffffffffffffffffffffffffffffffff1681526020019081526020015f2081905550610f728989896111cb565b505050505050505050565b5f60015f8473ffffffffffffffffffffffffffffffffffffffff1673ffffffffffffffffffffffffffffffffffffffff1681526020019081526020015f205f8373ffffffffffffffffffffffffffffffffffffffff1673ffffffffffffffffffffffffffffffffffffffff1681526020019081526020015f2054905092915050565b6110076111c4565b73ffffffffffffffffffffffffffffffffffffffff16600560019054906101000a900473ffffffffffffffffffffffffffffffffffffffff1673ffffffffffffffffffffffffffffffffffffffff1614611096576040517f08c379a000000000000000000000000000000000000000000000000000000000815260040161108d90611d9e565b60405180910390fd5b5f73ffffffffffffffffffffffffffffffffffffffff168173ffffffffffffffffffffffffffffffffffffffff1603611104576040517f08c379a00000000000000000000000000000000000000000000000000000000081526004016110fb90612110565b60405180910390fd5b8073ffffffffffffffffffffffffffffffffffffffff16600560019054906101000a900473ffffffffffffffffffffffffffffffffffffffff1673ffffffffffffffffffffffffffffffffffffffff167f8be0079c531659141344cd1fd0a4f28419497f9722a3daafe3b4186f6b6457e060405160405180910390a380600560016101000a81548173ffffffffffffffffffffffffffffffffffffffff021916908373ffffffffffffffffffffffffffffffffffffffff16021790555050565b5f33905090565b5f73ffffffffffffffffffffffffffffffffffffffff168373ffffffffffffffffffffffffffffffffffffffff1603611239576040517f08c379a00000000000000000000000000000000000000000000000000000000081526004016112309061219e565b60405180910390fd5b5f73ffffffffffffffffffffffffffffffffffffffff168273ffffffffffffffffffffffffffffffffffffffff16036112a7576040517f08c379a000000000000000000000000000000000000000000000000000000000815260040161129e9061222c565b60405180910390fd5b8060015f8573ffffffffffffffffffffffffffffffffffffffff1673ffffffffffffffffffffffffffffffffffffffff1681526020019081526020015f205f8473ffffffffffffffffffffffffffffffffffffffff1673ffffffffffffffffffffffffffffffffffffffff1681526020019081526020015f20819055508173ffffffffffffffffffffffffffffffffffffffff168373ffffffffffffffffffffffffffffffffffffffff167f8c5be1e5ebec7d5bd14f71427d1e84f3dd0314c0f7b2291e5b200ac8c7c3b9258360405161138191906119b5565b60405180910390a3505050565b5f73ffffffffffffffffffffffffffffffffffffffff168373ffffffffffffffffffffffffffffffffffffffff16036113fc576040517f08c379a00000000000000000000000000000000000000000000000000000000081526004016113f3906122ba565b60405180910390fd5b5f73ffffffffffffffffffffffffffffffffffffffff168273ffffffffffffffffffffffffffffffffffffffff160361146a576040517f08c379a000000000000000000000000000000000000000000000000000000000815260040161146190612348565b60405180910390fd5b61147583838361180f565b6114de816040518060600160405280602681526020016123cf602691395f5f8773ffffffffffffffffffffffffffffffffffffffff1673ffffffffffffffffffffffffffffffffffffffff1681526020019081526020015f20546116179092919063ffffffff16565b5f5f8573ffffffffffffffffffffffffffffffffffffffff1673ffffffffffffffffffffffffffffffffffffffff1681526020019081526020015f208190555061156d815f5f8573ffffffffffffffffffffffffffffffffffffffff1673ffffffffffffffffffffffffffffffffffffffff1681526020019081526020015f205461166b90919063ffffffff16565b5f5f8473ffffffffffffffffffffffffffffffffffffffff1673ffffffffffffffffffffffffffffffffffffffff1681526020019081526020015f20819055508173ffffffffffffffffffffffffffffffffffffffff168373ffffffffffffffffffffffffffffffffffffffff167fddf252ad1be2c89b69c2b068fc378daa952ba7f163c4a11628f55a4df523b3ef8360405161160a91906119b5565b60405180910390a3505050565b5f8383850391508111158290611663576040517f08c379a000000000000000000000000000000000000000000000000000000000815260040161165a9190611884565b60405180910390fd5b509392505050565b5f82828401915081101561167d575f5ffd5b92915050565b5f73ffffffffffffffffffffffffffffffffffffffff168273ffffffffffffffffffffffffffffffffffffffff16036116f1576040517f08c379a00000000000000000000000000000000000000000000000000000000081526004016116e8906123b0565b60405180910390fd5b6116fc5f838361180f565b6117118160025461166b90919063ffffffff16565b600281905550611766815f5f8573ffffffffffffffffffffffffffffffffffffffff1673ffffffffffffffffffffffffffffffffffffffff1681526020019081526020015f205461166b90919063ffffffff16565b5f5f8473ffffffffffffffffffffffffffffffffffffffff1673ffffffffffffffffffffffffffffffffffffffff1681526020019081526020015f20819055508173ffffffffffffffffffffffffffffffffffffffff165f73ffffffffffffffffffffffffffffffffffffffff167fddf252ad1be2c89b69c2b068fc378daa952ba7f163c4a11628f55a4df523b3ef8360405161180391906119b5565b60405180910390a35050565b505050565b5f81519050919050565b5f82825260208201905092915050565b8281835e5f83830152505050565b5f601f19601f8301169050919050565b5f61185682611814565b611860818561181e565b935061187081856020860161182e565b6118798161183c565b840191505092915050565b5f6020820190508181035f83015261189c818461184c565b905092915050565b5f5ffd5b5f73ffffffffffffffffffffffffffffffffffffffff82169050919050565b5f6118d1826118a8565b9050919050565b6118e1816118c7565b81146118eb575f5ffd5b50565b5f813590506118fc816118d8565b92915050565b5f819050919050565b61191481611902565b811461191e575f5ffd5b50565b5f8135905061192f8161190b565b92915050565b5f5f6040838503121561194b5761194a6118a4565b5b5f611958858286016118ee565b925050602061196985828601611921565b9150509250929050565b5f8115159050919050565b61198781611973565b82525050565b5f6020820190506119a05f83018461197e565b92915050565b6119af81611902565b82525050565b5f6020820190506119c85f8301846119a6565b92915050565b6119d781611973565b81146119e1575f5ffd5b50565b5f813590506119f2816119ce565b92915050565b5f60208284031215611a0d57611a0c6118a4565b5b5f611a1a848285016119e4565b91505092915050565b5f5f5f60608486031215611a3a57611a396118a4565b5b5f611a47868287016118ee565b9350506020611a58868287016118ee565b9250506040611a6986828701611921565b9150509250925092565b5f819050919050565b611a8581611a73565b82525050565b5f602082019050611a9e5f830184611a7c565b92915050565b5f60ff82169050919050565b611ab981611aa4565b82525050565b5f602082019050611ad25f830184611ab0565b92915050565b5f60208284031215611aed57611aec6118a4565b5b5f611afa848285016118ee565b91505092915050565b5f81519050919050565b5f82825260208201905092915050565b5f611b2782611b03565b611b318185611b0d565b9350611b4181856020860161182e565b611b4a8161183c565b840191505092915050565b5f6020820190508181035f830152611b6d8184611b1d565b905092915050565b611b7e816118c7565b82525050565b5f602082019050611b975f830184611b75565b92915050565b5f60208284031215611bb257611bb16118a4565b5b5f611bbf84828501611921565b91505092915050565b611bd181611aa4565b8114611bdb575f5ffd5b50565b5f81359050611bec81611bc8565b92915050565b611bfb81611a73565b8114611c05575f5ffd5b50565b5f81359050611c1681611bf2565b92915050565b5f5f5f5f5f5f5f60e0888a031215611c3757611c366118a4565b5b5f611c448a828b016118ee565b9750506020611c558a828b016118ee565b9650506040611c668a828b01611921565b9550506060611c778a828b01611921565b9450506080611c888a828b01611bde565b93505060a0611c998a828b01611c08565b92505060c0611caa8a828b01611c08565b91505092959891949750929550565b5f5f60408385031215611ccf57611cce6118a4565b5b5f611cdc858286016118ee565b9250506020611ced858286016118ee565b9150509250929050565b7f4e487b71000000000000000000000000000000000000000000000000000000005f52602260045260245ffd5b5f6002820490506001821680611d3b57607f821691505b602082108103611d4e57611d4d611cf7565b5b50919050565b7f4f776e61626c653a2063616c6c6572206973206e6f7420746865206f776e65725f82015250565b5f611d8860208361181e565b9150611d9382611d54565b602082019050919050565b5f6020820190508181035f830152611db581611d7c565b9050919050565b7f494e56414c49445f4f574e4552000000000000000000000000000000000000005f82015250565b5f611df0600d8361181e565b9150611dfb82611dbc565b602082019050919050565b5f6020820190508181035f830152611e1d81611de4565b9050919050565b7f494e56414c49445f45585049524154494f4e00000000000000000000000000005f82015250565b5f611e5860128361181e565b9150611e6382611e24565b602082019050919050565b5f6020820190508181035f830152611e8581611e4c565b9050919050565b5f60c082019050611e9f5f830189611a7c565b611eac6020830188611b75565b611eb96040830187611b75565b611ec660608301866119a6565b611ed360808301856119a6565b611ee060a08301846119a6565b979650505050505050565b5f81905092915050565b7f19010000000000000000000000000000000000000000000000000000000000005f82015250565b5f611f29600283611eeb565b9150611f3482611ef5565b600282019050919050565b5f819050919050565b611f59611f5482611a73565b611f3f565b82525050565b5f611f6982611f1d565b9150611f758285611f48565b602082019150611f858284611f48565b6020820191508190509392505050565b5f608082019050611fa85f830187611a7c565b611fb56020830186611ab0565b611fc26040830185611a7c565b611fcf6060830184611a7c565b95945050505050565b7f494e56414c49445f5349474e41545552450000000000000000000000000000005f82015250565b5f61200c60118361181e565b915061201782611fd8565b602082019050919050565b5f6020820190508181035f83015261203981612000565b9050919050565b7f4e487b71000000000000000000000000000000000000000000000000000000005f52601160045260245ffd5b5f61207782611902565b915061208283611902565b925082820190508082111561209a57612099612040565b5b92915050565b7f4f776e61626c653a206e6577206f776e657220697320746865207a65726f20615f8201527f6464726573730000000000000000000000000000000000000000000000000000602082015250565b5f6120fa60268361181e565b9150612105826120a0565b604082019050919050565b5f6020820190508181035f830152612127816120ee565b9050919050565b7f45524332303a20617070726f76652066726f6d20746865207a65726f206164645f8201527f7265737300000000000000000000000000000000000000000000000000000000602082015250565b5f61218860248361181e565b91506121938261212e565b604082019050919050565b5f6020820190508181035f8301526121b58161217c565b9050919050565b7f45524332303a20617070726f766520746f20746865207a65726f2061646472655f8201527f7373000000000000000000000000000000000000000000000000000000000000602082015250565b5f61221660228361181e565b9150612221826121bc565b604082019050919050565b5f6020820190508181035f8301526122438161220a565b9050919050565b7f45524332303a207472616e736665722066726f6d20746865207a65726f2061645f8201527f6472657373000000000000000000000000000000000000000000000000000000602082015250565b5f6122a460258361181e565b91506122af8261224a565b604082019050919050565b5f6020820190508181035f8301526122d181612298565b9050919050565b7f45524332303a207472616e7366657220746f20746865207a65726f20616464725f8201527f6573730000000000000000000000000000000000000000000000000000000000602082015250565b5f61233260238361181e565b915061233d826122d8565b604082019050919050565b5f6020820190508181035f83015261235f81612326565b9050919050565b7f45524332303a206d696e7420746f20746865207a65726f2061646472657373005f82015250565b5f61239a601f8361181e565b91506123a582612366565b602082019050919050565b5f6020820190508181035f8301526123c78161238e565b905091905056fe45524332303a207472616e7366657220616d6f756e7420657863656564732062616c616e636545524332303a207472616e7366657220616d6f756e74206578636565647320616c6c6f77616e636545524332303a2064656372656173656420616c6c6f77616e63652062656c6f77207a65726fa264697066735822122086c94201f206493ac767bf568c1d39d8b499ed40d81f0f4b942c436a4506e55c64736f6c634300081c0033","linkReferences":{}},"methodIdentifiers":{"DOMAIN_SEPARATOR()":"3644e515","EIP712_REVISION()":"78160376","PERMIT_TYPEHASH()":"30adf81f","allowance(address,address)":"dd62ed3e","approve(address,uint256)":"095ea7b3","balanceOf(address)":"70a08231","decimals()":"313ce567","decreaseAllowance(address,uint256)":"a457c2d7","increaseAllowance(address,uint256)":"39509351","isProtected()":"5300f82b","mint(address,uint256)":"40c10f19","mint(uint256)":"a0712d68","name()":"06fdde03","nonces(address)":"7ecebe00","owner()":"8da5cb5b","permit(address,address,uint256,uint256,uint8,bytes32,bytes32)":"d505accf","renounceOwnership()":"715018a6","setProtected(bool)":"1c02bc31","symbol()":"95d89b41","totalSupply()":"18160ddd","transfer(address,uint256)":"a9059cbb","transferFrom(address,address,uint256)":"23b872dd","transferOwnership(address)":"f2fde38b"},"id":29}