{"abi":[{"type":"constructor","inputs":[{"name":"addressesProvider","type":"address","internalType":"contract IPoolAddressesProvider"},{"name":"augustusRegistry","type":"address","internalType":"contract IParaSwapAugustusRegistry"},{"name":"owner","type":"address","internalType":"address"}],"stateMutability":"nonpayable"},{"type":"function","name":"ADDRESSES_PROVIDER","inputs":[],"outputs":[{"name":"","type":"address","internalType":"contract IPoolAddressesProvider"}],"stateMutability":"view"},{"type":"function","name":"AUGUSTUS_REGISTRY","inputs":[],"outputs":[{"name":"","type":"address","internalType":"contract IParaSwapAugustusRegistry"}],"stateMutability":"view"},{"type":"function","name":"MAX_SLIPPAGE_PERCENT","inputs":[],"outputs":[{"name":"","type":"uint256","internalType":"uint256"}],"stateMutability":"view"},{"type":"function","name":"ORACLE","inputs":[],"outputs":[{"name":"","type":"address","internalType":"contract IPriceOracleGetter"}],"stateMutability":"view"},{"type":"function","name":"POOL","inputs":[],"outputs":[{"name":"","type":"address","internalType":"contract IPool"}],"stateMutability":"view"},{"type":"function","name":"executeOperation","inputs":[{"name":"","type":"address","internalType":"address"},{"name":"","type":"uint256","internalType":"uint256"},{"name":"","type":"uint256","internalType":"uint256"},{"name":"","type":"address","internalType":"address"},{"name":"","type":"bytes","internalType":"bytes"}],"outputs":[{"name":"","type":"bool","internalType":"bool"}],"stateMutability":"nonpayable"},{"type":"function","name":"owner","inputs":[],"outputs":[{"name":"","type":"address","internalType":"address"}],"stateMutability":"view"},{"type":"function","name":"renounceOwnership","inputs":[],"outputs":[],"stateMutability":"nonpayable"},{"type":"function","name":"rescueTokens","inputs":[{"name":"token","type":"address","internalType":"contract IERC20"}],"outputs":[],"stateMutability":"nonpayable"},{"type":"function","name":"transferOwnership","inputs":[{"name":"newOwner","type":"address","internalType":"address"}],"outputs":[],"stateMutability":"nonpayable"},{"type":"function","name":"withdrawAndSwap","inputs":[{"name":"assetToSwapFrom","type":"address","internalType":"contract IERC20Detailed"},{"name":"assetToSwapTo","type":"address","internalType":"contract IERC20Detailed"},{"name":"amountToSwap","type":"uint256","internalType":"uint256"},{"name":"minAmountToReceive","type":"uint256","internalType":"uint256"},{"name":"swapAllBalanceOffset","type":"uint256","internalType":"uint256"},{"name":"swapCalldata","type":"bytes","internalType":"bytes"},{"name":"augustus","type":"address","internalType":"contract IParaSwapAugustus"},{"name":"permitParams","type":"tuple","internalType":"struct BaseParaSwapAdapter.PermitSignature","components":[{"name":"amount","type":"uint256","internalType":"uint256"},{"name":"deadline","type":"uint256","internalType":"uint256"},{"name":"v","type":"uint8","internalType":"uint8"},{"name":"r","type":"bytes32","internalType":"bytes32"},{"name":"s","type":"bytes32","internalType":"bytes32"}]}],"outputs":[],"stateMutability":"nonpayable"},{"type":"event","name":"Bought","inputs":[{"name":"fromAsset","type":"address","indexed":true,"internalType":"address"},{"name":"toAsset","type":"address","indexed":true,"internalType":"address"},{"name":"amountSold","type":"uint256","indexed":false,"internalType":"uint256"},{"name":"receivedAmount","type":"uint256","indexed":false,"internalType":"uint256"}],"anonymous":false},{"type":"event","name":"OwnershipTransferred","inputs":[{"name":"previousOwner","type":"address","indexed":true,"internalType":"address"},{"name":"newOwner","type":"address","indexed":true,"internalType":"address"}],"anonymous":false},{"type":"event","name":"Swapped","inputs":[{"name":"fromAsset","type":"address","indexed":true,"internalType":"address"},{"name":"toAsset","type":"address","indexed":true,"internalType":"address"},{"name":"fromAmount","type":"uint256","indexed":false,"internalType":"uint256"},{"name":"receivedAmount","type":"uint256","indexed":false,"internalType":"uint256"}],"anonymous":false}],"bytecode":{"object":"0x610100604052348015610010575f5ffd5b50604051613b71380380613b71833981810160405281019061003291906105cc565b828281808073ffffffffffffffffffffffffffffffffffffffff1660808173ffffffffffffffffffffffffffffffffffffffff16815250508073ffffffffffffffffffffffffffffffffffffffff1663026b1d5f6040518163ffffffff1660e01b8152600401602060405180830381865afa1580156100b3573d5f5f3e3d5ffd5b505050506040513d601f19601f820116820180604052508101906100d7919061061c565b73ffffffffffffffffffffffffffffffffffffffff1660a08173ffffffffffffffffffffffffffffffffffffffff1681525050505f61011a61032c60201b60201c565b9050805f5f6101000a81548173ffffffffffffffffffffffffffffffffffffffff021916908373ffffffffffffffffffffffffffffffffffffffff1602179055508073ffffffffffffffffffffffffffffffffffffffff165f73ffffffffffffffffffffffffffffffffffffffff167f8be0079c531659141344cd1fd0a4f28419497f9722a3daafe3b4186f6b6457e060405160405180910390a3508073ffffffffffffffffffffffffffffffffffffffff1663fca513a86040518163ffffffff1660e01b8152600401602060405180830381865afa1580156101ff573d5f5f3e3d5ffd5b505050506040513d601f19601f82011682018060405250810190610223919061061c565b73ffffffffffffffffffffffffffffffffffffffff1660c08173ffffffffffffffffffffffffffffffffffffffff1681525050508073ffffffffffffffffffffffffffffffffffffffff1663fb04e17b5f6040518263ffffffff1660e01b81526004016102909190610656565b602060405180830381865afa1580156102ab573d5f5f3e3d5ffd5b505050506040513d601f19601f820116820180604052508101906102cf91906106a4565b156102d8575f5ffd5b8073ffffffffffffffffffffffffffffffffffffffff1660e08173ffffffffffffffffffffffffffffffffffffffff16815250505050600180819055506103248161033360201b60201c565b5050506107d5565b5f33905090565b61034161032c60201b60201c565b73ffffffffffffffffffffffffffffffffffffffff165f5f9054906101000a900473ffffffffffffffffffffffffffffffffffffffff1673ffffffffffffffffffffffffffffffffffffffff16146103ce576040517f08c379a00000000000000000000000000000000000000000000000000000000081526004016103c590610729565b60405180910390fd5b5f73ffffffffffffffffffffffffffffffffffffffff168173ffffffffffffffffffffffffffffffffffffffff160361043c576040517f08c379a0000000000000000000000000000000000000000000000000000000008152600401610433906107b7565b60405180910390fd5b8073ffffffffffffffffffffffffffffffffffffffff165f5f9054906101000a900473ffffffffffffffffffffffffffffffffffffffff1673ffffffffffffffffffffffffffffffffffffffff167f8be0079c531659141344cd1fd0a4f28419497f9722a3daafe3b4186f6b6457e060405160405180910390a3805f5f6101000a81548173ffffffffffffffffffffffffffffffffffffffff021916908373ffffffffffffffffffffffffffffffffffffffff16021790555050565b5f5ffd5b5f73ffffffffffffffffffffffffffffffffffffffff82169050919050565b5f610525826104fc565b9050919050565b5f6105368261051b565b9050919050565b6105468161052c565b8114610550575f5ffd5b50565b5f815190506105618161053d565b92915050565b5f6105718261051b565b9050919050565b61058181610567565b811461058b575f5ffd5b50565b5f8151905061059c81610578565b92915050565b6105ab8161051b565b81146105b5575f5ffd5b50565b5f815190506105c6816105a2565b92915050565b5f5f5f606084860312156105e3576105e26104f8565b5b5f6105f086828701610553565b93505060206106018682870161058e565b9250506040610612868287016105b8565b9150509250925092565b5f60208284031215610631576106306104f8565b5b5f61063e848285016105b8565b91505092915050565b6106508161051b565b82525050565b5f6020820190506106695f830184610647565b92915050565b5f8115159050919050565b6106838161066f565b811461068d575f5ffd5b50565b5f8151905061069e8161067a565b92915050565b5f602082840312156106b9576106b86104f8565b5b5f6106c684828501610690565b91505092915050565b5f82825260208201905092915050565b7f4f776e61626c653a2063616c6c6572206973206e6f7420746865206f776e65725f82015250565b5f6107136020836106cf565b915061071e826106df565b602082019050919050565b5f6020820190508181035f83015261074081610707565b9050919050565b7f4f776e61626c653a206e6577206f776e657220697320746865207a65726f20615f8201527f6464726573730000000000000000000000000000000000000000000000000000602082015250565b5f6107a16026836106cf565b91506107ac82610747565b604082019050919050565b5f6020820190508181035f8301526107ce81610795565b9050919050565b60805160a05160c05160e05161334d6108245f395f81816104060152610c4701525f81816103e201526115d501525f818161075301528181610a030152610b6201525f61032f015261334d5ff3fe608060405234801561000f575f5ffd5b50600436106100a6575f3560e01c80633a8298671161006f5780633a829867146101505780635fd73e071461016e578063715018a61461018a5780637535d246146101945780638da5cb5b146101b2578063f2fde38b146101d0576100a6565b8062ae3bf8146100aa5780630542975c146100c65780631b11d0ff146100e457806332e4b2861461011457806338013f0214610132575b5f5ffd5b6100c460048036038101906100bf9190611c97565b6101ec565b005b6100ce61032d565b6040516100db9190611d1d565b60405180910390f35b6100fe60048036038101906100f99190611df4565b610351565b60405161010b9190611ea4565b60405180910390f35b61011c6103da565b6040516101299190611ecc565b60405180910390f35b61013a6103e0565b6040516101479190611f05565b60405180910390f35b610158610404565b6040516101659190611f3e565b60405180910390f35b61018860048036038101906101839190611fef565b610428565b005b610192610601565b005b61019c610751565b6040516101a991906120df565b60405180910390f35b6101ba610775565b6040516101c79190612107565b60405180910390f35b6101ea60048036038101906101e59190612120565b61079c565b005b6101f461095b565b73ffffffffffffffffffffffffffffffffffffffff165f5f9054906101000a900473ffffffffffffffffffffffffffffffffffffffff1673ffffffffffffffffffffffffffffffffffffffff1614610281576040517f08c379a0000000000000000000000000000000000000000000000000000000008152600401610278906121a5565b60405180910390fd5b61032a61028c610775565b8273ffffffffffffffffffffffffffffffffffffffff166370a08231306040518263ffffffff1660e01b81526004016102c59190612107565b602060405180830381865afa1580156102e0573d5f5f3e3d5ffd5b505050506040513d601f19601f8201168201806040525081019061030491906121d7565b8373ffffffffffffffffffffffffffffffffffffffff166109629092919063ffffffff16565b50565b7f000000000000000000000000000000000000000000000000000000000000000081565b5f600260015403610397576040517f08c379a000000000000000000000000000000000000000000000000000000000815260040161038e9061224c565b60405180910390fd5b60026001819055506040517f08c379a00000000000000000000000000000000000000000000000000000000081526004016103d1906122b4565b60405180910390fd5b610bb881565b7f000000000000000000000000000000000000000000000000000000000000000081565b7f000000000000000000000000000000000000000000000000000000000000000081565b60026001540361046d576040517f08c379a00000000000000000000000000000000000000000000000000000000081526004016104649061224c565b60405180910390fd5b60026001819055505f61047f8a6109f9565b610100015190505f8614610550575f8173ffffffffffffffffffffffffffffffffffffffff166370a08231336040518263ffffffff1660e01b81526004016104c79190612107565b602060405180830381865afa1580156104e2573d5f5f3e3d5ffd5b505050506040513d601f19601f8201168201806040525081019061050691906121d7565b90508881111561054b576040517f08c379a00000000000000000000000000000000000000000000000000000000081526004016105429061231c565b60405180910390fd5b809850505b61056d8a82338b8680360381019061056891906124b8565b610aa1565b5f6105c08787878080601f0160208091040260200160405190810160405280939291908181526020018383808284375f81840152601f19601f82011690508083019250505050505050868e8e8e8e610c44565b90506105ed33828c73ffffffffffffffffffffffffffffffffffffffff166113109092919063ffffffff16565b505060018081905550505050505050505050565b61060961095b565b73ffffffffffffffffffffffffffffffffffffffff165f5f9054906101000a900473ffffffffffffffffffffffffffffffffffffffff1673ffffffffffffffffffffffffffffffffffffffff1614610696576040517f08c379a000000000000000000000000000000000000000000000000000000000815260040161068d906121a5565b60405180910390fd5b5f73ffffffffffffffffffffffffffffffffffffffff165f5f9054906101000a900473ffffffffffffffffffffffffffffffffffffffff1673ffffffffffffffffffffffffffffffffffffffff167f8be0079c531659141344cd1fd0a4f28419497f9722a3daafe3b4186f6b6457e060405160405180910390a35f5f5f6101000a81548173ffffffffffffffffffffffffffffffffffffffff021916908373ffffffffffffffffffffffffffffffffffffffff160217905550565b7f000000000000000000000000000000000000000000000000000000000000000081565b5f5f5f9054906101000a900473ffffffffffffffffffffffffffffffffffffffff16905090565b6107a461095b565b73ffffffffffffffffffffffffffffffffffffffff165f5f9054906101000a900473ffffffffffffffffffffffffffffffffffffffff1673ffffffffffffffffffffffffffffffffffffffff1614610831576040517f08c379a0000000000000000000000000000000000000000000000000000000008152600401610828906121a5565b60405180910390fd5b5f73ffffffffffffffffffffffffffffffffffffffff168173ffffffffffffffffffffffffffffffffffffffff160361089f576040517f08c379a000000000000000000000000000000000000000000000000000000000815260040161089690612553565b60405180910390fd5b8073ffffffffffffffffffffffffffffffffffffffff165f5f9054906101000a900473ffffffffffffffffffffffffffffffffffffffff1673ffffffffffffffffffffffffffffffffffffffff167f8be0079c531659141344cd1fd0a4f28419497f9722a3daafe3b4186f6b6457e060405160405180910390a3805f5f6101000a81548173ffffffffffffffffffffffffffffffffffffffff021916908373ffffffffffffffffffffffffffffffffffffffff16021790555050565b5f33905090565b5f63a9059cbb60e01b905060405181815273ffffffffffffffffffffffffffffffffffffffff841660048201528260248201525f5f6044835f895af16109aa573d5f5f3e3d5ffd5b506109b484611396565b6109f3576040517f08c379a00000000000000000000000000000000000000000000000000000000081526004016109ea906125bb565b60405180910390fd5b50505050565b610a01611aa8565b7f000000000000000000000000000000000000000000000000000000000000000073ffffffffffffffffffffffffffffffffffffffff166335ea6a75836040518263ffffffff1660e01b8152600401610a5a9190612107565b6101e060405180830381865afa158015610a76573d5f5f3e3d5ffd5b505050506040513d601f19601f82011682018060405250810190610a9a919061283d565b9050919050565b5f816020015114610b32578373ffffffffffffffffffffffffffffffffffffffff1663d505accf8430845f015185602001518660400151876060015188608001516040518863ffffffff1660e01b8152600401610b049796959493929190612887565b5f604051808303815f87803b158015610b1b575f5ffd5b505af1158015610b2d573d5f5f3e3d5ffd5b505050505b610b5f8330848773ffffffffffffffffffffffffffffffffffffffff1661145d909392919063ffffffff16565b817f000000000000000000000000000000000000000000000000000000000000000073ffffffffffffffffffffffffffffffffffffffff166369328dec8785306040518463ffffffff1660e01b8152600401610bbd939291906128f4565b6020604051808303815f875af1158015610bd9573d5f5f3e3d5ffd5b505050506040513d601f19601f82011682018060405250810190610bfd91906121d7565b14610c3d576040517f08c379a0000000000000000000000000000000000000000000000000000000008152600401610c3490612973565b60405180910390fd5b5050505050565b5f7f000000000000000000000000000000000000000000000000000000000000000073ffffffffffffffffffffffffffffffffffffffff1663fb04e17b876040518263ffffffff1660e01b8152600401610c9e9190612107565b602060405180830381865afa158015610cb9573d5f5f3e3d5ffd5b505050506040513d601f19601f82011682018060405250810190610cdd91906129bb565b610d1c576040517f08c379a0000000000000000000000000000000000000000000000000000000008152600401610d1390612a30565b60405180910390fd5b5f610d2686611511565b60ff1690505f610d3586611511565b60ff1690505f610d44886115d2565b90505f610d50886115d2565b90505f610dd5610bb8612710610d669190612a7b565b610dc7610d8888600a610d799190612bdd565b8661167290919063ffffffff16565b610db9610daa89600a610d9b9190612bdd565b8961167290919063ffffffff16565b8d61167290919063ffffffff16565b6116a390919063ffffffff16565b6116b890919063ffffffff16565b905086811115610e1a576040517f08c379a0000000000000000000000000000000000000000000000000000000008152600401610e1190612c71565b60405180910390fd5b50505050505f8573ffffffffffffffffffffffffffffffffffffffff166370a08231306040518263ffffffff1660e01b8152600401610e599190612107565b602060405180830381865afa158015610e74573d5f5f3e3d5ffd5b505050506040513d601f19601f82011682018060405250810190610e9891906121d7565b905083811015610edd576040517f08c379a0000000000000000000000000000000000000000000000000000000008152600401610ed490612cd9565b60405180910390fd5b5f8573ffffffffffffffffffffffffffffffffffffffff166370a08231306040518263ffffffff1660e01b8152600401610f179190612107565b602060405180830381865afa158015610f32573d5f5f3e3d5ffd5b505050506040513d601f19601f82011682018060405250810190610f5691906121d7565b90505f8873ffffffffffffffffffffffffffffffffffffffff1663d2c4b5986040518163ffffffff1660e01b8152600401602060405180830381865afa158015610fa2573d5f5f3e3d5ffd5b505050506040513d601f19601f82011682018060405250810190610fc69190612cf7565b9050610ff3815f8a73ffffffffffffffffffffffffffffffffffffffff166116e29092919063ffffffff16565b61101e81878a73ffffffffffffffffffffffffffffffffffffffff166116e29092919063ffffffff16565b5f8b146110925760048b1015801561104a575061104660208b5161182d90919063ffffffff16565b8b11155b611089576040517f08c379a000000000000000000000000000000000000000000000000000000000815260040161108090612d6c565b60405180910390fd5b8560208c018b01525b5f8973ffffffffffffffffffffffffffffffffffffffff168b6040516110b89190612ddc565b5f604051808303815f865af19150503d805f81146110f1576040519150601f19603f3d011682016040523d82523d5f602084013e6110f6565b606091505b5050905080611107573d5f5f3e3d5ffd5b86846111139190612a7b565b8973ffffffffffffffffffffffffffffffffffffffff166370a08231306040518263ffffffff1660e01b815260040161114c9190612107565b602060405180830381865afa158015611167573d5f5f3e3d5ffd5b505050506040513d601f19601f8201168201806040525081019061118b91906121d7565b146111cb576040517f08c379a00000000000000000000000000000000000000000000000000000000081526004016111c290612e3c565b60405180910390fd5b611255838973ffffffffffffffffffffffffffffffffffffffff166370a08231306040518263ffffffff1660e01b81526004016112089190612107565b602060405180830381865afa158015611223573d5f5f3e3d5ffd5b505050506040513d601f19601f8201168201806040525081019061124791906121d7565b61182d90919063ffffffff16565b94508585101561129a576040517f08c379a000000000000000000000000000000000000000000000000000000000815260040161129190612ea4565b60405180910390fd5b8773ffffffffffffffffffffffffffffffffffffffff168973ffffffffffffffffffffffffffffffffffffffff167fa078c4190abe07940190effc1846be0ccf03ad6007bc9e93f9697d0b460befbb89886040516112f9929190612ec2565b60405180910390a350505050979650505050505050565b6113918363a9059cbb60e01b848460405160240161132f929190612ee9565b604051602081830303815290604052907bffffffffffffffffffffffffffffffffffffffffffffffffffffffff19166020820180517bffffffffffffffffffffffffffffffffffffffffffffffffffffffff8381831617835250505050611845565b505050565b5f6113d1565b7f08c379a0000000000000000000000000000000000000000000000000000000005f526020600452806024528160445260645ffd5b3d5f8114611411576020811461144c5761140c7f475076323a206d616c666f726d6564207472616e7366657220726573756c7400601f61139c565b611457565b823b611443576114427f475076323a206e6f74206120636f6e7472616374000000000000000000000000601461139c565b5b60019150611457565b3d5f5f3e5f51151591505b50919050565b5f6323b872dd60e01b905060405181815273ffffffffffffffffffffffffffffffffffffffff8516600482015273ffffffffffffffffffffffffffffffffffffffff841660248201528260448201525f5f6064835f8a5af16114c1573d5f5f3e3d5ffd5b506114cb85611396565b61150a576040517f08c379a000000000000000000000000000000000000000000000000000000000815260040161150190612f5a565b60405180910390fd5b5050505050565b5f5f8273ffffffffffffffffffffffffffffffffffffffff1663313ce5676040518163ffffffff1660e01b8152600401602060405180830381865afa15801561155c573d5f5f3e3d5ffd5b505050506040513d601f19601f820116820180604052508101906115809190612f8c565b9050604d8160ff1611156115c9576040517f08c379a00000000000000000000000000000000000000000000000000000000081526004016115c090613001565b60405180910390fd5b80915050919050565b5f7f000000000000000000000000000000000000000000000000000000000000000073ffffffffffffffffffffffffffffffffffffffff1663b3596f07836040518263ffffffff1660e01b815260040161162c9190612107565b602060405180830381865afa158015611647573d5f5f3e3d5ffd5b505050506040513d601f19601f8201168201806040525081019061166b91906121d7565b9050919050565b5f5f83148061169557508183838502925082816116925761169161301f565b5b04145b61169d575f5ffd5b92915050565b5f81836116b0919061304c565b905092915050565b5f816113885f1903048311158215176116cf575f5ffd5b6127106113888385020104905092915050565b5f81148061176857505f8373ffffffffffffffffffffffffffffffffffffffff1663dd62ed3e30856040518363ffffffff1660e01b815260040161172792919061307c565b602060405180830381865afa158015611742573d5f5f3e3d5ffd5b505050506040513d601f19601f8201168201806040525081019061176691906121d7565b145b6117a7576040517f08c379a000000000000000000000000000000000000000000000000000000000815260040161179e90613113565b60405180910390fd5b6118288363095ea7b360e01b84846040516024016117c6929190612ee9565b604051602081830303815290604052907bffffffffffffffffffffffffffffffffffffffffffffffffffffffff19166020820180517bffffffffffffffffffffffffffffffffffffffffffffffffffffffff8381831617835250505050611845565b505050565b5f82828403915081111561183f575f5ffd5b92915050565b5f6118a6826040518060400160405280602081526020017f5361666545524332303a206c6f772d6c6576656c2063616c6c206661696c65648152508573ffffffffffffffffffffffffffffffffffffffff1661190a9092919063ffffffff16565b90505f8151111561190557808060200190518101906118c591906129bb565b611904576040517f08c379a00000000000000000000000000000000000000000000000000000000081526004016118fb906131a1565b60405180910390fd5b5b505050565b606061191884845f85611921565b90509392505050565b606082471015611966576040517f08c379a000000000000000000000000000000000000000000000000000000000815260040161195d9061322f565b60405180910390fd5b61196f85611a31565b6119ae576040517f08c379a00000000000000000000000000000000000000000000000000000000081526004016119a590613297565b60405180910390fd5b5f5f8673ffffffffffffffffffffffffffffffffffffffff1685876040516119d69190612ddc565b5f6040518083038185875af1925050503d805f8114611a10576040519150601f19603f3d011682016040523d82523d5f602084013e611a15565b606091505b5091509150611a25828286611a42565b92505050949350505050565b5f5f823b90505f8111915050919050565b60608315611a5257829050611aa1565b5f83511115611a645782518084602001fd5b816040517f08c379a0000000000000000000000000000000000000000000000000000000008152600401611a9891906132f7565b60405180910390fd5b9392505050565b604051806101e00160405280611abc611c09565b81526020015f6fffffffffffffffffffffffffffffffff1681526020015f6fffffffffffffffffffffffffffffffff1681526020015f6fffffffffffffffffffffffffffffffff1681526020015f6fffffffffffffffffffffffffffffffff1681526020015f6fffffffffffffffffffffffffffffffff1681526020015f64ffffffffff1681526020015f61ffff1681526020015f73ffffffffffffffffffffffffffffffffffffffff1681526020015f73ffffffffffffffffffffffffffffffffffffffff1681526020015f73ffffffffffffffffffffffffffffffffffffffff1681526020015f73ffffffffffffffffffffffffffffffffffffffff1681526020015f6fffffffffffffffffffffffffffffffff1681526020015f6fffffffffffffffffffffffffffffffff1681526020015f6fffffffffffffffffffffffffffffffff1681525090565b60405180602001604052805f81525090565b5f604051905090565b5f5ffd5b5f5ffd5b5f73ffffffffffffffffffffffffffffffffffffffff82169050919050565b5f611c5582611c2c565b9050919050565b5f611c6682611c4b565b9050919050565b611c7681611c5c565b8114611c80575f5ffd5b50565b5f81359050611c9181611c6d565b92915050565b5f60208284031215611cac57611cab611c24565b5b5f611cb984828501611c83565b91505092915050565b5f819050919050565b5f611ce5611ce0611cdb84611c2c565b611cc2565b611c2c565b9050919050565b5f611cf682611ccb565b9050919050565b5f611d0782611cec565b9050919050565b611d1781611cfd565b82525050565b5f602082019050611d305f830184611d0e565b92915050565b611d3f81611c4b565b8114611d49575f5ffd5b50565b5f81359050611d5a81611d36565b92915050565b5f819050919050565b611d7281611d60565b8114611d7c575f5ffd5b50565b5f81359050611d8d81611d69565b92915050565b5f5ffd5b5f5ffd5b5f5ffd5b5f5f83601f840112611db457611db3611d93565b5b8235905067ffffffffffffffff811115611dd157611dd0611d97565b5b602083019150836001820283011115611ded57611dec611d9b565b5b9250929050565b5f5f5f5f5f5f60a08789031215611e0e57611e0d611c24565b5b5f611e1b89828a01611d4c565b9650506020611e2c89828a01611d7f565b9550506040611e3d89828a01611d7f565b9450506060611e4e89828a01611d4c565b935050608087013567ffffffffffffffff811115611e6f57611e6e611c28565b5b611e7b89828a01611d9f565b92509250509295509295509295565b5f8115159050919050565b611e9e81611e8a565b82525050565b5f602082019050611eb75f830184611e95565b92915050565b611ec681611d60565b82525050565b5f602082019050611edf5f830184611ebd565b92915050565b5f611eef82611cec565b9050919050565b611eff81611ee5565b82525050565b5f602082019050611f185f830184611ef6565b92915050565b5f611f2882611cec565b9050919050565b611f3881611f1e565b82525050565b5f602082019050611f515f830184611f2f565b92915050565b5f611f6182611c4b565b9050919050565b611f7181611f57565b8114611f7b575f5ffd5b50565b5f81359050611f8c81611f68565b92915050565b5f611f9c82611c4b565b9050919050565b611fac81611f92565b8114611fb6575f5ffd5b50565b5f81359050611fc781611fa3565b92915050565b5f5ffd5b5f60a08284031215611fe657611fe5611fcd565b5b81905092915050565b5f5f5f5f5f5f5f5f5f6101808a8c03121561200d5761200c611c24565b5b5f61201a8c828d01611f7e565b995050602061202b8c828d01611f7e565b985050604061203c8c828d01611d7f565b975050606061204d8c828d01611d7f565b965050608061205e8c828d01611d7f565b95505060a08a013567ffffffffffffffff81111561207f5761207e611c28565b5b61208b8c828d01611d9f565b945094505060c061209e8c828d01611fb9565b92505060e06120af8c828d01611fd1565b9150509295985092959850929598565b5f6120c982611cec565b9050919050565b6120d9816120bf565b82525050565b5f6020820190506120f25f8301846120d0565b92915050565b61210181611c4b565b82525050565b5f60208201905061211a5f8301846120f8565b92915050565b5f6020828403121561213557612134611c24565b5b5f61214284828501611d4c565b91505092915050565b5f82825260208201905092915050565b7f4f776e61626c653a2063616c6c6572206973206e6f7420746865206f776e65725f82015250565b5f61218f60208361214b565b915061219a8261215b565b602082019050919050565b5f6020820190508181035f8301526121bc81612183565b9050919050565b5f815190506121d181611d69565b92915050565b5f602082840312156121ec576121eb611c24565b5b5f6121f9848285016121c3565b91505092915050565b7f5265656e7472616e637947756172643a207265656e7472616e742063616c6c005f82015250565b5f612236601f8361214b565b915061224182612202565b602082019050919050565b5f6020820190508181035f8301526122638161222a565b9050919050565b7f4e4f545f535550504f52544544000000000000000000000000000000000000005f82015250565b5f61229e600d8361214b565b91506122a98261226a565b602082019050919050565b5f6020820190508181035f8301526122cb81612292565b9050919050565b7f494e53554646494349454e545f414d4f554e545f544f5f5357415000000000005f82015250565b5f612306601b8361214b565b9150612311826122d2565b602082019050919050565b5f6020820190508181035f830152612333816122fa565b9050919050565b5f5ffd5b5f601f19601f8301169050919050565b7f4e487b71000000000000000000000000000000000000000000000000000000005f52604160045260245ffd5b6123848261233e565b810181811067ffffffffffffffff821117156123a3576123a261234e565b5b80604052505050565b5f6123b5611c1b565b90506123c1828261237b565b919050565b5f60ff82169050919050565b6123db816123c6565b81146123e5575f5ffd5b50565b5f813590506123f6816123d2565b92915050565b5f819050919050565b61240e816123fc565b8114612418575f5ffd5b50565b5f8135905061242981612405565b92915050565b5f60a082840312156124445761244361233a565b5b61244e60a06123ac565b90505f61245d84828501611d7f565b5f83015250602061247084828501611d7f565b6020830152506040612484848285016123e8565b60408301525060606124988482850161241b565b60608301525060806124ac8482850161241b565b60808301525092915050565b5f60a082840312156124cd576124cc611c24565b5b5f6124da8482850161242f565b91505092915050565b7f4f776e61626c653a206e6577206f776e657220697320746865207a65726f20615f8201527f6464726573730000000000000000000000000000000000000000000000000000602082015250565b5f61253d60268361214b565b9150612548826124e3565b604082019050919050565b5f6020820190508181035f83015261256a81612531565b9050919050565b7f475076323a206661696c6564207472616e7366657200000000000000000000005f82015250565b5f6125a560158361214b565b91506125b082612571565b602082019050919050565b5f6020820190508181035f8301526125d281612599565b9050919050565b5f602082840312156125ee576125ed61233a565b5b6125f860206123ac565b90505f612607848285016121c3565b5f8301525092915050565b5f6fffffffffffffffffffffffffffffffff82169050919050565b61263681612612565b8114612640575f5ffd5b50565b5f815190506126518161262d565b92915050565b5f64ffffffffff82169050919050565b61267081612657565b811461267a575f5ffd5b50565b5f8151905061268b81612667565b92915050565b5f61ffff82169050919050565b6126a781612691565b81146126b1575f5ffd5b50565b5f815190506126c28161269e565b92915050565b5f815190506126d681611d36565b92915050565b5f6101e082840312156126f2576126f161233a565b5b6126fd6101e06123ac565b90505f61270c848285016125d9565b5f83015250602061271f84828501612643565b602083015250604061273384828501612643565b604083015250606061274784828501612643565b606083015250608061275b84828501612643565b60808301525060a061276f84828501612643565b60a08301525060c06127838482850161267d565b60c08301525060e0612797848285016126b4565b60e0830152506101006127ac848285016126c8565b610100830152506101206127c2848285016126c8565b610120830152506101406127d8848285016126c8565b610140830152506101606127ee848285016126c8565b6101608301525061018061280484828501612643565b610180830152506101a061281a84828501612643565b6101a0830152506101c061283084828501612643565b6101c08301525092915050565b5f6101e0828403121561285357612852611c24565b5b5f612860848285016126dc565b91505092915050565b612872816123c6565b82525050565b612881816123fc565b82525050565b5f60e08201905061289a5f83018a6120f8565b6128a760208301896120f8565b6128b46040830188611ebd565b6128c16060830187611ebd565b6128ce6080830186612869565b6128db60a0830185612878565b6128e860c0830184612878565b98975050505050505050565b5f6060820190506129075f8301866120f8565b6129146020830185611ebd565b61292160408301846120f8565b949350505050565b7f554e45585045435445445f414d4f554e545f57495448445241574e00000000005f82015250565b5f61295d601b8361214b565b915061296882612929565b602082019050919050565b5f6020820190508181035f83015261298a81612951565b9050919050565b61299a81611e8a565b81146129a4575f5ffd5b50565b5f815190506129b581612991565b92915050565b5f602082840312156129d0576129cf611c24565b5b5f6129dd848285016129a7565b91505092915050565b7f494e56414c49445f4155475553545553000000000000000000000000000000005f82015250565b5f612a1a60108361214b565b9150612a25826129e6565b602082019050919050565b5f6020820190508181035f830152612a4781612a0e565b9050919050565b7f4e487b71000000000000000000000000000000000000000000000000000000005f52601160045260245ffd5b5f612a8582611d60565b9150612a9083611d60565b9250828203905081811115612aa857612aa7612a4e565b5b92915050565b5f8160011c9050919050565b5f5f8291508390505b6001851115612b0357808604811115612adf57612ade612a4e565b5b6001851615612aee5780820291505b8081029050612afc85612aae565b9450612ac3565b94509492505050565b5f82612b1b5760019050612bd6565b81612b28575f9050612bd6565b8160018114612b3e5760028114612b4857612b77565b6001915050612bd6565b60ff841115612b5a57612b59612a4e565b5b8360020a915084821115612b7157612b70612a4e565b5b50612bd6565b5060208310610133831016604e8410600b8410161715612bac5782820a905083811115612ba757612ba6612a4e565b5b612bd6565b612bb98484846001612aba565b92509050818404811115612bd057612bcf612a4e565b5b81810290505b9392505050565b5f612be782611d60565b9150612bf283611d60565b9250612c1f7fffffffffffffffffffffffffffffffffffffffffffffffffffffffffffffffff8484612b0c565b905092915050565b7f4d494e5f414d4f554e545f455843454544535f4d41585f534c495050414745005f82015250565b5f612c5b601f8361214b565b9150612c6682612c27565b602082019050919050565b5f6020820190508181035f830152612c8881612c4f565b9050919050565b7f494e53554646494349454e545f42414c414e43455f4245464f52455f535741505f82015250565b5f612cc360208361214b565b9150612cce82612c8f565b602082019050919050565b5f6020820190508181035f830152612cf081612cb7565b9050919050565b5f60208284031215612d0c57612d0b611c24565b5b5f612d19848285016126c8565b91505092915050565b7f46524f4d5f414d4f554e545f4f46465345545f4f55545f4f465f52414e4745005f82015250565b5f612d56601f8361214b565b9150612d6182612d22565b602082019050919050565b5f6020820190508181035f830152612d8381612d4a565b9050919050565b5f81519050919050565b5f81905092915050565b8281835e5f83830152505050565b5f612db682612d8a565b612dc08185612d94565b9350612dd0818560208601612d9e565b80840191505092915050565b5f612de78284612dac565b915081905092915050565b7f57524f4e475f42414c414e43455f41465445525f5357415000000000000000005f82015250565b5f612e2660188361214b565b9150612e3182612df2565b602082019050919050565b5f6020820190508181035f830152612e5381612e1a565b9050919050565b7f494e53554646494349454e545f414d4f554e545f5245434549564544000000005f82015250565b5f612e8e601c8361214b565b9150612e9982612e5a565b602082019050919050565b5f6020820190508181035f830152612ebb81612e82565b9050919050565b5f604082019050612ed55f830185611ebd565b612ee26020830184611ebd565b9392505050565b5f604082019050612efc5f8301856120f8565b612f096020830184611ebd565b9392505050565b7f475076323a206661696c6564207472616e7366657246726f6d000000000000005f82015250565b5f612f4460198361214b565b9150612f4f82612f10565b602082019050919050565b5f6020820190508181035f830152612f7181612f38565b9050919050565b5f81519050612f86816123d2565b92915050565b5f60208284031215612fa157612fa0611c24565b5b5f612fae84828501612f78565b91505092915050565b7f544f4f5f4d414e595f444543494d414c535f4f4e5f544f4b454e0000000000005f82015250565b5f612feb601a8361214b565b9150612ff682612fb7565b602082019050919050565b5f6020820190508181035f83015261301881612fdf565b9050919050565b7f4e487b71000000000000000000000000000000000000000000000000000000005f52601260045260245ffd5b5f61305682611d60565b915061306183611d60565b9250826130715761307061301f565b5b828204905092915050565b5f60408201905061308f5f8301856120f8565b61309c60208301846120f8565b9392505050565b7f5361666545524332303a20617070726f76652066726f6d206e6f6e2d7a65726f5f8201527f20746f206e6f6e2d7a65726f20616c6c6f77616e636500000000000000000000602082015250565b5f6130fd60368361214b565b9150613108826130a3565b604082019050919050565b5f6020820190508181035f83015261312a816130f1565b9050919050565b7f5361666545524332303a204552433230206f7065726174696f6e20646964206e5f8201527f6f74207375636365656400000000000000000000000000000000000000000000602082015250565b5f61318b602a8361214b565b915061319682613131565b604082019050919050565b5f6020820190508181035f8301526131b88161317f565b9050919050565b7f416464726573733a20696e73756666696369656e742062616c616e636520666f5f8201527f722063616c6c0000000000000000000000000000000000000000000000000000602082015250565b5f61321960268361214b565b9150613224826131bf565b604082019050919050565b5f6020820190508181035f8301526132468161320d565b9050919050565b7f416464726573733a2063616c6c20746f206e6f6e2d636f6e74726163740000005f82015250565b5f613281601d8361214b565b915061328c8261324d565b602082019050919050565b5f6020820190508181035f8301526132ae81613275565b9050919050565b5f81519050919050565b5f6132c9826132b5565b6132d3818561214b565b93506132e3818560208601612d9e565b6132ec8161233e565b840191505092915050565b5f6020820190508181035f83015261330f81846132bf565b90509291505056fea26469706673582212205d1b80d7fea48057ffa3e6fb581807e4dd9946afac813bfa1ab8ffda836c61f164736f6c634300081c0033","linkReferences":{}},"methodIdentifiers":{"ADDRESSES_PROVIDER()":"0542975c","AUGUSTUS_REGISTRY()":"3a829867","MAX_SLIPPAGE_PERCENT()":"32e4b286","ORACLE()":"38013f02","POOL()":"7535d246","executeOperation(address,uint256,uint256,address,bytes)":"1b11d0ff","owner()":"8da5cb5b","renounceOwnership()":"715018a6","rescueTokens(address)":"00ae3bf8","transferOwnership(address)":"f2fde38b","withdrawAndSwap(address,address,uint256,uint256,uint256,bytes,address,(uint256,uint256,uint8,bytes32,bytes32))":"5fd73e07"},"id":5}