{"abi":[{"type":"constructor","inputs":[{"name":"addressesProvider","type":"address","internalType":"contract IPoolAddressesProvider"},{"name":"augustusRegistry","type":"address","internalType":"contract IParaSwapAugustusRegistry"},{"name":"owner","type":"address","internalType":"address"}],"stateMutability":"nonpayable"},{"type":"function","name":"ADDRESSES_PROVIDER","inputs":[],"outputs":[{"name":"","type":"address","internalType":"contract IPoolAddressesProvider"}],"stateMutability":"view"},{"type":"function","name":"AUGUSTUS_REGISTRY","inputs":[],"outputs":[{"name":"","type":"address","internalType":"contract IParaSwapAugustusRegistry"}],"stateMutability":"view"},{"type":"function","name":"MAX_SLIPPAGE_PERCENT","inputs":[],"outputs":[{"name":"","type":"uint256","internalType":"uint256"}],"stateMutability":"view"},{"type":"function","name":"ORACLE","inputs":[],"outputs":[{"name":"","type":"address","internalType":"contract IPriceOracleGetter"}],"stateMutability":"view"},{"type":"function","name":"POOL","inputs":[],"outputs":[{"name":"","type":"address","internalType":"contract IPool"}],"stateMutability":"view"},{"type":"function","name":"executeOperation","inputs":[{"name":"asset","type":"address","internalType":"address"},{"name":"amount","type":"uint256","internalType":"uint256"},{"name":"premium","type":"uint256","internalType":"uint256"},{"name":"initiator","type":"address","internalType":"address"},{"name":"params","type":"bytes","internalType":"bytes"}],"outputs":[{"name":"","type":"bool","internalType":"bool"}],"stateMutability":"nonpayable"},{"type":"function","name":"owner","inputs":[],"outputs":[{"name":"","type":"address","internalType":"address"}],"stateMutability":"view"},{"type":"function","name":"renounceOwnership","inputs":[],"outputs":[],"stateMutability":"nonpayable"},{"type":"function","name":"rescueTokens","inputs":[{"name":"token","type":"address","internalType":"contract IERC20"}],"outputs":[],"stateMutability":"nonpayable"},{"type":"function","name":"swapAndRepay","inputs":[{"name":"collateralAsset","type":"address","internalType":"contract IERC20Detailed"},{"name":"debtAsset","type":"address","internalType":"contract IERC20Detailed"},{"name":"collateralAmount","type":"uint256","internalType":"uint256"},{"name":"debtRepayAmount","type":"uint256","internalType":"uint256"},{"name":"debtRateMode","type":"uint256","internalType":"uint256"},{"name":"buyAllBalanceOffset","type":"uint256","internalType":"uint256"},{"name":"paraswapData","type":"bytes","internalType":"bytes"},{"name":"permitSignature","type":"tuple","internalType":"struct BaseParaSwapAdapter.PermitSignature","components":[{"name":"amount","type":"uint256","internalType":"uint256"},{"name":"deadline","type":"uint256","internalType":"uint256"},{"name":"v","type":"uint8","internalType":"uint8"},{"name":"r","type":"bytes32","internalType":"bytes32"},{"name":"s","type":"bytes32","internalType":"bytes32"}]}],"outputs":[],"stateMutability":"nonpayable"},{"type":"function","name":"transferOwnership","inputs":[{"name":"newOwner","type":"address","internalType":"address"}],"outputs":[],"stateMutability":"nonpayable"},{"type":"event","name":"Bought","inputs":[{"name":"fromAsset","type":"address","indexed":true,"internalType":"address"},{"name":"toAsset","type":"address","indexed":true,"internalType":"address"},{"name":"amountSold","type":"uint256","indexed":false,"internalType":"uint256"},{"name":"receivedAmount","type":"uint256","indexed":false,"internalType":"uint256"}],"anonymous":false},{"type":"event","name":"OwnershipTransferred","inputs":[{"name":"previousOwner","type":"address","indexed":true,"internalType":"address"},{"name":"newOwner","type":"address","indexed":true,"internalType":"address"}],"anonymous":false},{"type":"event","name":"Swapped","inputs":[{"name":"fromAsset","type":"address","indexed":true,"internalType":"address"},{"name":"toAsset","type":"address","indexed":true,"internalType":"address"},{"name":"fromAmount","type":"uint256","indexed":false,"internalType":"uint256"},{"name":"receivedAmount","type":"uint256","indexed":false,"internalType":"uint256"}],"anonymous":false}],"bytecode":{"object":"0x610100604052348015610010575f5ffd5b506040516145ad3803806145ad83398181016040528101906100329190610603565b828281808073ffffffffffffffffffffffffffffffffffffffff1660808173ffffffffffffffffffffffffffffffffffffffff16815250508073ffffffffffffffffffffffffffffffffffffffff1663026b1d5f6040518163ffffffff1660e01b8152600401602060405180830381865afa1580156100b3573d5f5f3e3d5ffd5b505050506040513d601f19601f820116820180604052508101906100d79190610653565b73ffffffffffffffffffffffffffffffffffffffff1660a08173ffffffffffffffffffffffffffffffffffffffff1681525050505f61011a61036360201b60201c565b9050805f5f6101000a81548173ffffffffffffffffffffffffffffffffffffffff021916908373ffffffffffffffffffffffffffffffffffffffff1602179055508073ffffffffffffffffffffffffffffffffffffffff165f73ffffffffffffffffffffffffffffffffffffffff167f8be0079c531659141344cd1fd0a4f28419497f9722a3daafe3b4186f6b6457e060405160405180910390a3508073ffffffffffffffffffffffffffffffffffffffff1663fca513a86040518163ffffffff1660e01b8152600401602060405180830381865afa1580156101ff573d5f5f3e3d5ffd5b505050506040513d601f19601f820116820180604052508101906102239190610653565b73ffffffffffffffffffffffffffffffffffffffff1660c08173ffffffffffffffffffffffffffffffffffffffff1681525050508073ffffffffffffffffffffffffffffffffffffffff1663fb04e17b5f6040518263ffffffff1660e01b8152600401610290919061068d565b602060405180830381865afa1580156102ab573d5f5f3e3d5ffd5b505050506040513d601f19601f820116820180604052508101906102cf91906106db565b1561030f576040517f08c379a000000000000000000000000000000000000000000000000000000000815260040161030690610760565b60405180910390fd5b8073ffffffffffffffffffffffffffffffffffffffff1660e08173ffffffffffffffffffffffffffffffffffffffff168152505050506001808190555061035b8161036a60201b60201c565b505050610874565b5f33905090565b61037861036360201b60201c565b73ffffffffffffffffffffffffffffffffffffffff165f5f9054906101000a900473ffffffffffffffffffffffffffffffffffffffff1673ffffffffffffffffffffffffffffffffffffffff1614610405576040517f08c379a00000000000000000000000000000000000000000000000000000000081526004016103fc906107c8565b60405180910390fd5b5f73ffffffffffffffffffffffffffffffffffffffff168173ffffffffffffffffffffffffffffffffffffffff1603610473576040517f08c379a000000000000000000000000000000000000000000000000000000000815260040161046a90610856565b60405180910390fd5b8073ffffffffffffffffffffffffffffffffffffffff165f5f9054906101000a900473ffffffffffffffffffffffffffffffffffffffff1673ffffffffffffffffffffffffffffffffffffffff167f8be0079c531659141344cd1fd0a4f28419497f9722a3daafe3b4186f6b6457e060405160405180910390a3805f5f6101000a81548173ffffffffffffffffffffffffffffffffffffffff021916908373ffffffffffffffffffffffffffffffffffffffff16021790555050565b5f5ffd5b5f73ffffffffffffffffffffffffffffffffffffffff82169050919050565b5f61055c82610533565b9050919050565b5f61056d82610552565b9050919050565b61057d81610563565b8114610587575f5ffd5b50565b5f8151905061059881610574565b92915050565b5f6105a882610552565b9050919050565b6105b88161059e565b81146105c2575f5ffd5b50565b5f815190506105d3816105af565b92915050565b6105e281610552565b81146105ec575f5ffd5b50565b5f815190506105fd816105d9565b92915050565b5f5f5f6060848603121561061a5761061961052f565b5b5f6106278682870161058a565b9350506020610638868287016105c5565b9250506040610649868287016105ef565b9150509250925092565b5f602082840312156106685761066761052f565b5b5f610675848285016105ef565b91505092915050565b61068781610552565b82525050565b5f6020820190506106a05f83018461067e565b92915050565b5f8115159050919050565b6106ba816106a6565b81146106c4575f5ffd5b50565b5f815190506106d5816106b1565b92915050565b5f602082840312156106f0576106ef61052f565b5b5f6106fd848285016106c7565b91505092915050565b5f82825260208201905092915050565b7f4e6f7420612076616c69642041756775737475732061646472657373000000005f82015250565b5f61074a601c83610706565b915061075582610716565b602082019050919050565b5f6020820190508181035f8301526107778161073e565b9050919050565b7f4f776e61626c653a2063616c6c6572206973206e6f7420746865206f776e65725f82015250565b5f6107b2602083610706565b91506107bd8261077e565b602082019050919050565b5f6020820190508181035f8301526107df816107a6565b9050919050565b7f4f776e61626c653a206e6577206f776e657220697320746865207a65726f20615f8201527f6464726573730000000000000000000000000000000000000000000000000000602082015250565b5f610840602683610706565b915061084b826107e6565b604082019050919050565b5f6020820190508181035f83015261086d81610834565b9050919050565b60805160a05160c05160e051613c966109175f395f818161048b015261100801525f81816104670152611c1d01525f81816103a101528181610595015281816105e001528181610628015281816106b8015281816107030152818161074b0152818161094f01528181610c3b01528181610c8601528181610cce01528181610d9301528181610dde015281816119180152611a7701525f61032f0152613c965ff3fe608060405234801561000f575f5ffd5b50600436106100a6575f3560e01c80633a8298671161006f5780633a829867146101505780634db9dc971461016e578063715018a61461018a5780637535d246146101945780638da5cb5b146101b2578063f2fde38b146101d0576100a6565b8062ae3bf8146100aa5780630542975c146100c65780631b11d0ff146100e457806332e4b2861461011457806338013f0214610132575b5f5ffd5b6100c460048036038101906100bf9190612248565b6101ec565b005b6100ce61032d565b6040516100db91906122ce565b60405180910390f35b6100fe60048036038101906100f991906123a5565b610351565b60405161010b9190612455565b60405180910390f35b61011c61045f565b604051610129919061247d565b60405180910390f35b61013a610465565b60405161014791906124b6565b60405180910390f35b610158610489565b60405161016591906124ef565b60405180910390f35b61018860048036038101906101839190612565565b6104ad565b005b6101926107fd565b005b61019c61094d565b6040516101a99190612655565b60405180910390f35b6101ba610971565b6040516101c7919061267d565b60405180910390f35b6101ea60048036038101906101e59190612696565b610998565b005b6101f4610b57565b73ffffffffffffffffffffffffffffffffffffffff165f5f9054906101000a900473ffffffffffffffffffffffffffffffffffffffff1673ffffffffffffffffffffffffffffffffffffffff1614610281576040517f08c379a00000000000000000000000000000000000000000000000000000000081526004016102789061271b565b60405180910390fd5b61032a61028c610971565b8273ffffffffffffffffffffffffffffffffffffffff166370a08231306040518263ffffffff1660e01b81526004016102c5919061267d565b602060405180830381865afa1580156102e0573d5f5f3e3d5ffd5b505050506040513d601f19601f82011682018060405250810190610304919061274d565b8373ffffffffffffffffffffffffffffffffffffffff16610b5e9092919063ffffffff16565b50565b7f000000000000000000000000000000000000000000000000000000000000000081565b5f600260015403610397576040517f08c379a000000000000000000000000000000000000000000000000000000000815260040161038e906127c2565b60405180910390fd5b60026001819055507f000000000000000000000000000000000000000000000000000000000000000073ffffffffffffffffffffffffffffffffffffffff163373ffffffffffffffffffffffffffffffffffffffff161461042d576040517f08c379a00000000000000000000000000000000000000000000000000000000081526004016104249061282a565b60405180910390fd5b5f8690505f8590505f89905061044786868a858588610bf5565b60019350505050600180819055509695505050505050565b610bb881565b7f000000000000000000000000000000000000000000000000000000000000000081565b7f000000000000000000000000000000000000000000000000000000000000000081565b6002600154036104f2576040517f08c379a00000000000000000000000000000000000000000000000000000000081526004016104e9906127c2565b60405180910390fd5b60026001819055506105078886868933610e46565b95506105258933898480360381019061052091906129c6565b610fc6565b5f6105778585858080601f0160208091040260200160405190810160405280939291908181526020018383808284375f81840152601f19601f820116905080830192505050505050508c8c8c8c610feb565b90505f81896105869190612a1e565b90505f8111156106b3576105db7f00000000000000000000000000000000000000000000000000000000000000005f8d73ffffffffffffffffffffffffffffffffffffffff166116e49092919063ffffffff16565b6106267f0000000000000000000000000000000000000000000000000000000000000000828d73ffffffffffffffffffffffffffffffffffffffff166116e49092919063ffffffff16565b7f000000000000000000000000000000000000000000000000000000000000000073ffffffffffffffffffffffffffffffffffffffff1663e8eda9df8c83335f6040518563ffffffff1660e01b81526004016106859493929190612a97565b5f604051808303815f87803b15801561069c575f5ffd5b505af11580156106ae573d5f5f3e3d5ffd5b505050505b6106fe7f00000000000000000000000000000000000000000000000000000000000000005f8c73ffffffffffffffffffffffffffffffffffffffff166116e49092919063ffffffff16565b6107497f0000000000000000000000000000000000000000000000000000000000000000898c73ffffffffffffffffffffffffffffffffffffffff166116e49092919063ffffffff16565b7f000000000000000000000000000000000000000000000000000000000000000073ffffffffffffffffffffffffffffffffffffffff1663573ade818b8a8a336040518563ffffffff1660e01b81526004016107a89493929190612ada565b6020604051808303815f875af11580156107c4573d5f5f3e3d5ffd5b505050506040513d601f19601f820116820180604052508101906107e8919061274d565b50505060018081905550505050505050505050565b610805610b57565b73ffffffffffffffffffffffffffffffffffffffff165f5f9054906101000a900473ffffffffffffffffffffffffffffffffffffffff1673ffffffffffffffffffffffffffffffffffffffff1614610892576040517f08c379a00000000000000000000000000000000000000000000000000000000081526004016108899061271b565b60405180910390fd5b5f73ffffffffffffffffffffffffffffffffffffffff165f5f9054906101000a900473ffffffffffffffffffffffffffffffffffffffff1673ffffffffffffffffffffffffffffffffffffffff167f8be0079c531659141344cd1fd0a4f28419497f9722a3daafe3b4186f6b6457e060405160405180910390a35f5f5f6101000a81548173ffffffffffffffffffffffffffffffffffffffff021916908373ffffffffffffffffffffffffffffffffffffffff160217905550565b7f000000000000000000000000000000000000000000000000000000000000000081565b5f5f5f9054906101000a900473ffffffffffffffffffffffffffffffffffffffff16905090565b6109a0610b57565b73ffffffffffffffffffffffffffffffffffffffff165f5f9054906101000a900473ffffffffffffffffffffffffffffffffffffffff1673ffffffffffffffffffffffffffffffffffffffff1614610a2d576040517f08c379a0000000000000000000000000000000000000000000000000000000008152600401610a249061271b565b60405180910390fd5b5f73ffffffffffffffffffffffffffffffffffffffff168173ffffffffffffffffffffffffffffffffffffffff1603610a9b576040517f08c379a0000000000000000000000000000000000000000000000000000000008152600401610a9290612b8d565b60405180910390fd5b8073ffffffffffffffffffffffffffffffffffffffff165f5f9054906101000a900473ffffffffffffffffffffffffffffffffffffffff1673ffffffffffffffffffffffffffffffffffffffff167f8be0079c531659141344cd1fd0a4f28419497f9722a3daafe3b4186f6b6457e060405160405180910390a3805f5f6101000a81548173ffffffffffffffffffffffffffffffffffffffff021916908373ffffffffffffffffffffffffffffffffffffffff16021790555050565b5f33905090565b5f63a9059cbb60e01b905060405181815273ffffffffffffffffffffffffffffffffffffffff841660048201528260248201525f5f6044835f895af1610ba6573d5f5f3e3d5ffd5b50610bb08461182f565b610bef576040517f08c379a0000000000000000000000000000000000000000000000000000000008152600401610be690612bf5565b60405180910390fd5b50505050565b5f5f5f5f5f5f8b8b810190610c0a9190612cc3565b955095509550955095509550610c23868486888d610e46565b94505f610c3485848b8a8c8b610feb565b9050610c817f00000000000000000000000000000000000000000000000000000000000000005f8973ffffffffffffffffffffffffffffffffffffffff166116e49092919063ffffffff16565b610ccc7f0000000000000000000000000000000000000000000000000000000000000000878973ffffffffffffffffffffffffffffffffffffffff166116e49092919063ffffffff16565b7f000000000000000000000000000000000000000000000000000000000000000073ffffffffffffffffffffffffffffffffffffffff1663573ade818888878e6040518563ffffffff1660e01b8152600401610d2b9493929190612ada565b6020604051808303815f875af1158015610d47573d5f5f3e3d5ffd5b505050506040513d601f19601f82011682018060405250810190610d6b919061274d565b505f610d808c836118f690919063ffffffff16565b9050610d8e8a8c8386610fc6565b610dd97f00000000000000000000000000000000000000000000000000000000000000005f8c73ffffffffffffffffffffffffffffffffffffffff166116e49092919063ffffffff16565b610e367f0000000000000000000000000000000000000000000000000000000000000000610e108e8c6118f690919063ffffffff16565b8c73ffffffffffffffffffffffffffffffffffffffff166116e49092919063ffffffff16565b5050505050505050505050505050565b5f5f610e518761190e565b90505f60016002811115610e6857610e67612d69565b5b876002811115610e7b57610e7a612d69565b5b6002811115610e8d57610e8c612d69565b5b14610e9d57816101400151610ea4565b8161012001515b90505f8173ffffffffffffffffffffffffffffffffffffffff166370a08231866040518263ffffffff1660e01b8152600401610ee0919061267d565b602060405180830381865afa158015610efb573d5f5f3e3d5ffd5b505050506040513d601f19601f82011682018060405250810190610f1f919061274d565b90505f8714610f735785811115610f6b576040517f08c379a0000000000000000000000000000000000000000000000000000000008152600401610f6290612de0565b60405180910390fd5b809550610fb7565b80861115610fb6576040517f08c379a0000000000000000000000000000000000000000000000000000000008152600401610fad90612e48565b60405180910390fd5b5b85935050505095945050505050565b5f610fd08561190e565b61010001519050610fe485828686866119b6565b5050505050565b5f5f5f878060200190518101906110029190612f1d565b915091507f000000000000000000000000000000000000000000000000000000000000000073ffffffffffffffffffffffffffffffffffffffff1663fb04e17b826040518263ffffffff1660e01b815260040161105f919061267d565b602060405180830381865afa15801561107a573d5f5f3e3d5ffd5b505050506040513d601f19601f8201168201806040525081019061109e9190612fa1565b6110dd576040517f08c379a00000000000000000000000000000000000000000000000000000000081526004016110d490613016565b60405180910390fd5b5f6110e788611b59565b60ff1690505f6110f688611b59565b60ff1690505f6111058a611c1a565b90505f6111118a611c1a565b90505f61119d61112e610bb86127106118f690919063ffffffff16565b61118f61115087600a6111419190613163565b87611cba90919063ffffffff16565b6111816111728a600a6111639190613163565b88611cba90919063ffffffff16565b8e611cba90919063ffffffff16565b611ceb90919063ffffffff16565b611d0090919063ffffffff16565b9050808a11156111e2576040517f08c379a00000000000000000000000000000000000000000000000000000000081526004016111d99061321d565b60405180910390fd5b50505050505f8773ffffffffffffffffffffffffffffffffffffffff166370a08231306040518263ffffffff1660e01b8152600401611221919061267d565b602060405180830381865afa15801561123c573d5f5f3e3d5ffd5b505050506040513d601f19601f82011682018060405250810190611260919061274d565b9050858110156112a5576040517f08c379a000000000000000000000000000000000000000000000000000000000815260040161129c90613285565b60405180910390fd5b5f8773ffffffffffffffffffffffffffffffffffffffff166370a08231306040518263ffffffff1660e01b81526004016112df919061267d565b602060405180830381865afa1580156112fa573d5f5f3e3d5ffd5b505050506040513d601f19601f8201168201806040525081019061131e919061274d565b90505f8373ffffffffffffffffffffffffffffffffffffffff1663d2c4b5986040518163ffffffff1660e01b8152600401602060405180830381865afa15801561136a573d5f5f3e3d5ffd5b505050506040513d601f19601f8201168201806040525081019061138e91906132b7565b90506113bb815f8c73ffffffffffffffffffffffffffffffffffffffff166116e49092919063ffffffff16565b6113e681898c73ffffffffffffffffffffffffffffffffffffffff166116e49092919063ffffffff16565b5f8c1461145a5760048c10158015611412575061140e60208651611d2a90919063ffffffff16565b8c11155b611451576040517f08c379a00000000000000000000000000000000000000000000000000000000081526004016114489061332c565b60405180910390fd5b8660208d018601525b5f8473ffffffffffffffffffffffffffffffffffffffff1686604051611480919061338e565b5f604051808303815f865af19150503d805f81146114b9576040519150601f19603f3d011682016040523d82523d5f602084013e6114be565b606091505b50509050806114cf573d5f5f3e3d5ffd5b5f8b73ffffffffffffffffffffffffffffffffffffffff166370a08231306040518263ffffffff1660e01b8152600401611509919061267d565b602060405180830381865afa158015611524573d5f5f3e3d5ffd5b505050506040513d601f19601f82011682018060405250810190611548919061274d565b905080856115569190612a1e565b97508988111561159b576040517f08c379a0000000000000000000000000000000000000000000000000000000008152600401611592906133ee565b60405180910390fd5b5f611626858d73ffffffffffffffffffffffffffffffffffffffff166370a08231306040518263ffffffff1660e01b81526004016115d9919061267d565b602060405180830381865afa1580156115f4573d5f5f3e3d5ffd5b505050506040513d601f19601f82011682018060405250810190611618919061274d565b611d2a90919063ffffffff16565b90508981101561166b576040517f08c379a000000000000000000000000000000000000000000000000000000000815260040161166290613456565b60405180910390fd5b8b73ffffffffffffffffffffffffffffffffffffffff168d73ffffffffffffffffffffffffffffffffffffffff167fbf77fd13a39d14dc0da779342c14105c38d9a5d0c60f2caa22f5fd1d5525416d8b846040516116ca929190613474565b60405180910390a350505050505050509695505050505050565b5f81148061176a57505f8373ffffffffffffffffffffffffffffffffffffffff1663dd62ed3e30856040518363ffffffff1660e01b815260040161172992919061349b565b602060405180830381865afa158015611744573d5f5f3e3d5ffd5b505050506040513d601f19601f82011682018060405250810190611768919061274d565b145b6117a9576040517f08c379a00000000000000000000000000000000000000000000000000000000081526004016117a090613532565b60405180910390fd5b61182a8363095ea7b360e01b84846040516024016117c8929190613550565b604051602081830303815290604052907bffffffffffffffffffffffffffffffffffffffffffffffffffffffff19166020820180517bffffffffffffffffffffffffffffffffffffffffffffffffffffffff8381831617835250505050611d42565b505050565b5f61186a565b7f08c379a0000000000000000000000000000000000000000000000000000000005f526020600452806024528160445260645ffd5b3d5f81146118aa57602081146118e5576118a57f475076323a206d616c666f726d6564207472616e7366657220726573756c7400601f611835565b6118f0565b823b6118dc576118db7f475076323a206e6f74206120636f6e74726163740000000000000000000000006014611835565b5b600191506118f0565b3d5f5f3e5f51151591505b50919050565b5f828284019150811015611908575f5ffd5b92915050565b611916612059565b7f000000000000000000000000000000000000000000000000000000000000000073ffffffffffffffffffffffffffffffffffffffff166335ea6a75836040518263ffffffff1660e01b815260040161196f919061267d565b6101e060405180830381865afa15801561198b573d5f5f3e3d5ffd5b505050506040513d601f19601f820116820180604052508101906119af91906137ba565b9050919050565b5f816020015114611a47578373ffffffffffffffffffffffffffffffffffffffff1663d505accf8430845f015185602001518660400151876060015188608001516040518863ffffffff1660e01b8152600401611a199796959493929190613804565b5f604051808303815f87803b158015611a30575f5ffd5b505af1158015611a42573d5f5f3e3d5ffd5b505050505b611a748330848773ffffffffffffffffffffffffffffffffffffffff16611e07909392919063ffffffff16565b817f000000000000000000000000000000000000000000000000000000000000000073ffffffffffffffffffffffffffffffffffffffff166369328dec8785306040518463ffffffff1660e01b8152600401611ad293929190613871565b6020604051808303815f875af1158015611aee573d5f5f3e3d5ffd5b505050506040513d601f19601f82011682018060405250810190611b12919061274d565b14611b52576040517f08c379a0000000000000000000000000000000000000000000000000000000008152600401611b49906138f0565b60405180910390fd5b5050505050565b5f5f8273ffffffffffffffffffffffffffffffffffffffff1663313ce5676040518163ffffffff1660e01b8152600401602060405180830381865afa158015611ba4573d5f5f3e3d5ffd5b505050506040513d601f19601f82011682018060405250810190611bc89190613922565b9050604d8160ff161115611c11576040517f08c379a0000000000000000000000000000000000000000000000000000000008152600401611c0890613997565b60405180910390fd5b80915050919050565b5f7f000000000000000000000000000000000000000000000000000000000000000073ffffffffffffffffffffffffffffffffffffffff1663b3596f07836040518263ffffffff1660e01b8152600401611c74919061267d565b602060405180830381865afa158015611c8f573d5f5f3e3d5ffd5b505050506040513d601f19601f82011682018060405250810190611cb3919061274d565b9050919050565b5f5f831480611cdd5750818383850292508281611cda57611cd96139b5565b5b04145b611ce5575f5ffd5b92915050565b5f8183611cf891906139e2565b905092915050565b5f816113885f190304831115821517611d17575f5ffd5b6127106113888385020104905092915050565b5f828284039150811115611d3c575f5ffd5b92915050565b5f611da3826040518060400160405280602081526020017f5361666545524332303a206c6f772d6c6576656c2063616c6c206661696c65648152508573ffffffffffffffffffffffffffffffffffffffff16611ebb9092919063ffffffff16565b90505f81511115611e025780806020019051810190611dc29190612fa1565b611e01576040517f08c379a0000000000000000000000000000000000000000000000000000000008152600401611df890613a82565b60405180910390fd5b5b505050565b5f6323b872dd60e01b905060405181815273ffffffffffffffffffffffffffffffffffffffff8516600482015273ffffffffffffffffffffffffffffffffffffffff841660248201528260448201525f5f6064835f8a5af1611e6b573d5f5f3e3d5ffd5b50611e758561182f565b611eb4576040517f08c379a0000000000000000000000000000000000000000000000000000000008152600401611eab90613aea565b60405180910390fd5b5050505050565b6060611ec984845f85611ed2565b90509392505050565b606082471015611f17576040517f08c379a0000000000000000000000000000000000000000000000000000000008152600401611f0e90613b78565b60405180910390fd5b611f2085611fe2565b611f5f576040517f08c379a0000000000000000000000000000000000000000000000000000000008152600401611f5690613be0565b60405180910390fd5b5f5f8673ffffffffffffffffffffffffffffffffffffffff168587604051611f87919061338e565b5f6040518083038185875af1925050503d805f8114611fc1576040519150601f19603f3d011682016040523d82523d5f602084013e611fc6565b606091505b5091509150611fd6828286611ff3565b92505050949350505050565b5f5f823b90505f8111915050919050565b6060831561200357829050612052565b5f835111156120155782518084602001fd5b816040517f08c379a00000000000000000000000000000000000000000000000000000000081526004016120499190613c40565b60405180910390fd5b9392505050565b604051806101e0016040528061206d6121ba565b81526020015f6fffffffffffffffffffffffffffffffff1681526020015f6fffffffffffffffffffffffffffffffff1681526020015f6fffffffffffffffffffffffffffffffff1681526020015f6fffffffffffffffffffffffffffffffff1681526020015f6fffffffffffffffffffffffffffffffff1681526020015f64ffffffffff1681526020015f61ffff1681526020015f73ffffffffffffffffffffffffffffffffffffffff1681526020015f73ffffffffffffffffffffffffffffffffffffffff1681526020015f73ffffffffffffffffffffffffffffffffffffffff1681526020015f73ffffffffffffffffffffffffffffffffffffffff1681526020015f6fffffffffffffffffffffffffffffffff1681526020015f6fffffffffffffffffffffffffffffffff1681526020015f6fffffffffffffffffffffffffffffffff1681525090565b60405180602001604052805f81525090565b5f604051905090565b5f5ffd5b5f5ffd5b5f73ffffffffffffffffffffffffffffffffffffffff82169050919050565b5f612206826121dd565b9050919050565b5f612217826121fc565b9050919050565b6122278161220d565b8114612231575f5ffd5b50565b5f813590506122428161221e565b92915050565b5f6020828403121561225d5761225c6121d5565b5b5f61226a84828501612234565b91505092915050565b5f819050919050565b5f61229661229161228c846121dd565b612273565b6121dd565b9050919050565b5f6122a78261227c565b9050919050565b5f6122b88261229d565b9050919050565b6122c8816122ae565b82525050565b5f6020820190506122e15f8301846122bf565b92915050565b6122f0816121fc565b81146122fa575f5ffd5b50565b5f8135905061230b816122e7565b92915050565b5f819050919050565b61232381612311565b811461232d575f5ffd5b50565b5f8135905061233e8161231a565b92915050565b5f5ffd5b5f5ffd5b5f5ffd5b5f5f83601f84011261236557612364612344565b5b8235905067ffffffffffffffff81111561238257612381612348565b5b60208301915083600182028301111561239e5761239d61234c565b5b9250929050565b5f5f5f5f5f5f60a087890312156123bf576123be6121d5565b5b5f6123cc89828a016122fd565b96505060206123dd89828a01612330565b95505060406123ee89828a01612330565b94505060606123ff89828a016122fd565b935050608087013567ffffffffffffffff8111156124205761241f6121d9565b5b61242c89828a01612350565b92509250509295509295509295565b5f8115159050919050565b61244f8161243b565b82525050565b5f6020820190506124685f830184612446565b92915050565b61247781612311565b82525050565b5f6020820190506124905f83018461246e565b92915050565b5f6124a08261229d565b9050919050565b6124b081612496565b82525050565b5f6020820190506124c95f8301846124a7565b92915050565b5f6124d98261229d565b9050919050565b6124e9816124cf565b82525050565b5f6020820190506125025f8301846124e0565b92915050565b5f612512826121fc565b9050919050565b61252281612508565b811461252c575f5ffd5b50565b5f8135905061253d81612519565b92915050565b5f5ffd5b5f60a0828403121561255c5761255b612543565b5b81905092915050565b5f5f5f5f5f5f5f5f5f6101808a8c031215612583576125826121d5565b5b5f6125908c828d0161252f565b99505060206125a18c828d0161252f565b98505060406125b28c828d01612330565b97505060606125c38c828d01612330565b96505060806125d48c828d01612330565b95505060a06125e58c828d01612330565b94505060c08a013567ffffffffffffffff811115612606576126056121d9565b5b6126128c828d01612350565b935093505060e06126258c828d01612547565b9150509295985092959850929598565b5f61263f8261229d565b9050919050565b61264f81612635565b82525050565b5f6020820190506126685f830184612646565b92915050565b612677816121fc565b82525050565b5f6020820190506126905f83018461266e565b92915050565b5f602082840312156126ab576126aa6121d5565b5b5f6126b8848285016122fd565b91505092915050565b5f82825260208201905092915050565b7f4f776e61626c653a2063616c6c6572206973206e6f7420746865206f776e65725f82015250565b5f6127056020836126c1565b9150612710826126d1565b602082019050919050565b5f6020820190508181035f830152612732816126f9565b9050919050565b5f815190506127478161231a565b92915050565b5f60208284031215612762576127616121d5565b5b5f61276f84828501612739565b91505092915050565b7f5265656e7472616e637947756172643a207265656e7472616e742063616c6c005f82015250565b5f6127ac601f836126c1565b91506127b782612778565b602082019050919050565b5f6020820190508181035f8301526127d9816127a0565b9050919050565b7f43414c4c45525f4d5553545f42455f504f4f4c000000000000000000000000005f82015250565b5f6128146013836126c1565b915061281f826127e0565b602082019050919050565b5f6020820190508181035f83015261284181612808565b9050919050565b5f5ffd5b5f601f19601f8301169050919050565b7f4e487b71000000000000000000000000000000000000000000000000000000005f52604160045260245ffd5b6128928261284c565b810181811067ffffffffffffffff821117156128b1576128b061285c565b5b80604052505050565b5f6128c36121cc565b90506128cf8282612889565b919050565b5f60ff82169050919050565b6128e9816128d4565b81146128f3575f5ffd5b50565b5f81359050612904816128e0565b92915050565b5f819050919050565b61291c8161290a565b8114612926575f5ffd5b50565b5f8135905061293781612913565b92915050565b5f60a0828403121561295257612951612848565b5b61295c60a06128ba565b90505f61296b84828501612330565b5f83015250602061297e84828501612330565b6020830152506040612992848285016128f6565b60408301525060606129a684828501612929565b60608301525060806129ba84828501612929565b60808301525092915050565b5f60a082840312156129db576129da6121d5565b5b5f6129e88482850161293d565b91505092915050565b7f4e487b71000000000000000000000000000000000000000000000000000000005f52601160045260245ffd5b5f612a2882612311565b9150612a3383612311565b9250828203905081811115612a4b57612a4a6129f1565b5b92915050565b5f819050919050565b5f61ffff82169050919050565b5f612a81612a7c612a7784612a51565b612273565b612a5a565b9050919050565b612a9181612a67565b82525050565b5f608082019050612aaa5f83018761266e565b612ab7602083018661246e565b612ac4604083018561266e565b612ad16060830184612a88565b95945050505050565b5f608082019050612aed5f83018761266e565b612afa602083018661246e565b612b07604083018561246e565b612b14606083018461266e565b95945050505050565b7f4f776e61626c653a206e6577206f776e657220697320746865207a65726f20615f8201527f6464726573730000000000000000000000000000000000000000000000000000602082015250565b5f612b776026836126c1565b9150612b8282612b1d565b604082019050919050565b5f6020820190508181035f830152612ba481612b6b565b9050919050565b7f475076323a206661696c6564207472616e7366657200000000000000000000005f82015250565b5f612bdf6015836126c1565b9150612bea82612bab565b602082019050919050565b5f6020820190508181035f830152612c0c81612bd3565b9050919050565b5f5ffd5b5f67ffffffffffffffff821115612c3157612c3061285c565b5b612c3a8261284c565b9050602081019050919050565b828183375f83830152505050565b5f612c67612c6284612c17565b6128ba565b905082815260208101848484011115612c8357612c82612c13565b5b612c8e848285612c47565b509392505050565b5f82601f830112612caa57612ca9612344565b5b8135612cba848260208601612c55565b91505092915050565b5f5f5f5f5f5f6101408789031215612cde57612cdd6121d5565b5b5f612ceb89828a0161252f565b9650506020612cfc89828a01612330565b9550506040612d0d89828a01612330565b9450506060612d1e89828a01612330565b935050608087013567ffffffffffffffff811115612d3f57612d3e6121d9565b5b612d4b89828a01612c96565b92505060a0612d5c89828a0161293d565b9150509295509295509295565b7f4e487b71000000000000000000000000000000000000000000000000000000005f52602160045260245ffd5b7f494e53554646494349454e545f414d4f554e545f544f5f5245504159000000005f82015250565b5f612dca601c836126c1565b9150612dd582612d96565b602082019050919050565b5f6020820190508181035f830152612df781612dbe565b9050919050565b7f494e56414c49445f444542545f52455041595f414d4f554e54000000000000005f82015250565b5f612e326019836126c1565b9150612e3d82612dfe565b602082019050919050565b5f6020820190508181035f830152612e5f81612e26565b9050919050565b8281835e5f83830152505050565b5f612e86612e8184612c17565b6128ba565b905082815260208101848484011115612ea257612ea1612c13565b5b612ead848285612e66565b509392505050565b5f82601f830112612ec957612ec8612344565b5b8151612ed9848260208601612e74565b91505092915050565b5f612eec826121fc565b9050919050565b612efc81612ee2565b8114612f06575f5ffd5b50565b5f81519050612f1781612ef3565b92915050565b5f5f60408385031215612f3357612f326121d5565b5b5f83015167ffffffffffffffff811115612f5057612f4f6121d9565b5b612f5c85828601612eb5565b9250506020612f6d85828601612f09565b9150509250929050565b612f808161243b565b8114612f8a575f5ffd5b50565b5f81519050612f9b81612f77565b92915050565b5f60208284031215612fb657612fb56121d5565b5b5f612fc384828501612f8d565b91505092915050565b7f494e56414c49445f4155475553545553000000000000000000000000000000005f82015250565b5f6130006010836126c1565b915061300b82612fcc565b602082019050919050565b5f6020820190508181035f83015261302d81612ff4565b9050919050565b5f8160011c9050919050565b5f5f8291508390505b600185111561308957808604811115613065576130646129f1565b5b60018516156130745780820291505b808102905061308285613034565b9450613049565b94509492505050565b5f826130a1576001905061315c565b816130ae575f905061315c565b81600181146130c457600281146130ce576130fd565b600191505061315c565b60ff8411156130e0576130df6129f1565b5b8360020a9150848211156130f7576130f66129f1565b5b5061315c565b5060208310610133831016604e8410600b84101617156131325782820a90508381111561312d5761312c6129f1565b5b61315c565b61313f8484846001613040565b92509050818404811115613156576131556129f1565b5b81810290505b9392505050565b5f61316d82612311565b915061317883612311565b92506131a57fffffffffffffffffffffffffffffffffffffffffffffffffffffffffffffffff8484613092565b905092915050565b7f6d6178416d6f756e74546f5377617020657863656564206d617820736c6970705f8201527f6167650000000000000000000000000000000000000000000000000000000000602082015250565b5f6132076023836126c1565b9150613212826131ad565b604082019050919050565b5f6020820190508181035f830152613234816131fb565b9050919050565b7f494e53554646494349454e545f42414c414e43455f4245464f52455f535741505f82015250565b5f61326f6020836126c1565b915061327a8261323b565b602082019050919050565b5f6020820190508181035f83015261329c81613263565b9050919050565b5f815190506132b1816122e7565b92915050565b5f602082840312156132cc576132cb6121d5565b5b5f6132d9848285016132a3565b91505092915050565b7f544f5f414d4f554e545f4f46465345545f4f55545f4f465f52414e47450000005f82015250565b5f613316601d836126c1565b9150613321826132e2565b602082019050919050565b5f6020820190508181035f8301526133438161330a565b9050919050565b5f81519050919050565b5f81905092915050565b5f6133688261334a565b6133728185613354565b9350613382818560208601612e66565b80840191505092915050565b5f613399828461335e565b915081905092915050565b7f57524f4e475f42414c414e43455f41465445525f5357415000000000000000005f82015250565b5f6133d86018836126c1565b91506133e3826133a4565b602082019050919050565b5f6020820190508181035f830152613405816133cc565b9050919050565b7f494e53554646494349454e545f414d4f554e545f5245434549564544000000005f82015250565b5f613440601c836126c1565b915061344b8261340c565b602082019050919050565b5f6020820190508181035f83015261346d81613434565b9050919050565b5f6040820190506134875f83018561246e565b613494602083018461246e565b9392505050565b5f6040820190506134ae5f83018561266e565b6134bb602083018461266e565b9392505050565b7f5361666545524332303a20617070726f76652066726f6d206e6f6e2d7a65726f5f8201527f20746f206e6f6e2d7a65726f20616c6c6f77616e636500000000000000000000602082015250565b5f61351c6036836126c1565b9150613527826134c2565b604082019050919050565b5f6020820190508181035f83015261354981613510565b9050919050565b5f6040820190506135635f83018561266e565b613570602083018461246e565b9392505050565b5f6020828403121561358c5761358b612848565b5b61359660206128ba565b90505f6135a584828501612739565b5f8301525092915050565b5f6fffffffffffffffffffffffffffffffff82169050919050565b6135d4816135b0565b81146135de575f5ffd5b50565b5f815190506135ef816135cb565b92915050565b5f64ffffffffff82169050919050565b61360e816135f5565b8114613618575f5ffd5b50565b5f8151905061362981613605565b92915050565b61363881612a5a565b8114613642575f5ffd5b50565b5f815190506136538161362f565b92915050565b5f6101e0828403121561366f5761366e612848565b5b61367a6101e06128ba565b90505f61368984828501613577565b5f83015250602061369c848285016135e1565b60208301525060406136b0848285016135e1565b60408301525060606136c4848285016135e1565b60608301525060806136d8848285016135e1565b60808301525060a06136ec848285016135e1565b60a08301525060c06137008482850161361b565b60c08301525060e061371484828501613645565b60e083015250610100613729848285016132a3565b6101008301525061012061373f848285016132a3565b61012083015250610140613755848285016132a3565b6101408301525061016061376b848285016132a3565b61016083015250610180613781848285016135e1565b610180830152506101a0613797848285016135e1565b6101a0830152506101c06137ad848285016135e1565b6101c08301525092915050565b5f6101e082840312156137d0576137cf6121d5565b5b5f6137dd84828501613659565b91505092915050565b6137ef816128d4565b82525050565b6137fe8161290a565b82525050565b5f60e0820190506138175f83018a61266e565b613824602083018961266e565b613831604083018861246e565b61383e606083018761246e565b61384b60808301866137e6565b61385860a08301856137f5565b61386560c08301846137f5565b98975050505050505050565b5f6060820190506138845f83018661266e565b613891602083018561246e565b61389e604083018461266e565b949350505050565b7f554e45585045435445445f414d4f554e545f57495448445241574e00000000005f82015250565b5f6138da601b836126c1565b91506138e5826138a6565b602082019050919050565b5f6020820190508181035f830152613907816138ce565b9050919050565b5f8151905061391c816128e0565b92915050565b5f60208284031215613937576139366121d5565b5b5f6139448482850161390e565b91505092915050565b7f544f4f5f4d414e595f444543494d414c535f4f4e5f544f4b454e0000000000005f82015250565b5f613981601a836126c1565b915061398c8261394d565b602082019050919050565b5f6020820190508181035f8301526139ae81613975565b9050919050565b7f4e487b71000000000000000000000000000000000000000000000000000000005f52601260045260245ffd5b5f6139ec82612311565b91506139f783612311565b925082613a0757613a066139b5565b5b828204905092915050565b7f5361666545524332303a204552433230206f7065726174696f6e20646964206e5f8201527f6f74207375636365656400000000000000000000000000000000000000000000602082015250565b5f613a6c602a836126c1565b9150613a7782613a12565b604082019050919050565b5f6020820190508181035f830152613a9981613a60565b9050919050565b7f475076323a206661696c6564207472616e7366657246726f6d000000000000005f82015250565b5f613ad46019836126c1565b9150613adf82613aa0565b602082019050919050565b5f6020820190508181035f830152613b0181613ac8565b9050919050565b7f416464726573733a20696e73756666696369656e742062616c616e636520666f5f8201527f722063616c6c0000000000000000000000000000000000000000000000000000602082015250565b5f613b626026836126c1565b9150613b6d82613b08565b604082019050919050565b5f6020820190508181035f830152613b8f81613b56565b9050919050565b7f416464726573733a2063616c6c20746f206e6f6e2d636f6e74726163740000005f82015250565b5f613bca601d836126c1565b9150613bd582613b96565b602082019050919050565b5f6020820190508181035f830152613bf781613bbe565b9050919050565b5f81519050919050565b5f613c1282613bfe565b613c1c81856126c1565b9350613c2c818560208601612e66565b613c358161284c565b840191505092915050565b5f6020820190508181035f830152613c588184613c08565b90509291505056fea2646970667358221220149a09dc9237ae2606aa7a9ab7507fa73193e4fa88ffdc201b178e222bb7773064736f6c634300081c0033","linkReferences":{}},"methodIdentifiers":{"ADDRESSES_PROVIDER()":"0542975c","AUGUSTUS_REGISTRY()":"3a829867","MAX_SLIPPAGE_PERCENT()":"32e4b286","ORACLE()":"38013f02","POOL()":"7535d246","executeOperation(address,uint256,uint256,address,bytes)":"1b11d0ff","owner()":"8da5cb5b","renounceOwnership()":"715018a6","rescueTokens(address)":"00ae3bf8","swapAndRepay(address,address,uint256,uint256,uint256,uint256,bytes,(uint256,uint256,uint8,bytes32,bytes32))":"4db9dc97","transferOwnership(address)":"f2fde38b"},"id":4}