{"abi":[{"type":"constructor","inputs":[{"name":"owner","type":"address","internalType":"address"}],"stateMutability":"nonpayable"},{"type":"function","name":"configureAssets","inputs":[{"name":"config","type":"tuple[]","internalType":"struct RewardsDataTypes.RewardsConfigInput[]","components":[{"name":"emissionPerSecond","type":"uint88","internalType":"uint88"},{"name":"totalSupply","type":"uint256","internalType":"uint256"},{"name":"distributionEnd","type":"uint32","internalType":"uint32"},{"name":"asset","type":"address","internalType":"address"},{"name":"reward","type":"address","internalType":"address"},{"name":"transferStrategy","type":"address","internalType":"contract ITransferStrategyBase"},{"name":"rewardOracle","type":"address","internalType":"contract IEACAggregatorProxy"}]}],"outputs":[],"stateMutability":"nonpayable"},{"type":"function","name":"getEmissionAdmin","inputs":[{"name":"reward","type":"address","internalType":"address"}],"outputs":[{"name":"","type":"address","internalType":"address"}],"stateMutability":"view"},{"type":"function","name":"getRewardsController","inputs":[],"outputs":[{"name":"","type":"address","internalType":"contract IRewardsController"}],"stateMutability":"view"},{"type":"function","name":"owner","inputs":[],"outputs":[{"name":"","type":"address","internalType":"address"}],"stateMutability":"view"},{"type":"function","name":"renounceOwnership","inputs":[],"outputs":[],"stateMutability":"nonpayable"},{"type":"function","name":"setClaimer","inputs":[{"name":"user","type":"address","internalType":"address"},{"name":"claimer","type":"address","internalType":"address"}],"outputs":[],"stateMutability":"nonpayable"},{"type":"function","name":"setDistributionEnd","inputs":[{"name":"asset","type":"address","internalType":"address"},{"name":"reward","type":"address","internalType":"address"},{"name":"newDistributionEnd","type":"uint32","internalType":"uint32"}],"outputs":[],"stateMutability":"nonpayable"},{"type":"function","name":"setEmissionAdmin","inputs":[{"name":"reward","type":"address","internalType":"address"},{"name":"admin","type":"address","internalType":"address"}],"outputs":[],"stateMutability":"nonpayable"},{"type":"function","name":"setEmissionPerSecond","inputs":[{"name":"asset","type":"address","internalType":"address"},{"name":"rewards","type":"address[]","internalType":"address[]"},{"name":"newEmissionsPerSecond","type":"uint88[]","internalType":"uint88[]"}],"outputs":[],"stateMutability":"nonpayable"},{"type":"function","name":"setRewardOracle","inputs":[{"name":"reward","type":"address","internalType":"address"},{"name":"rewardOracle","type":"address","internalType":"contract IEACAggregatorProxy"}],"outputs":[],"stateMutability":"nonpayable"},{"type":"function","name":"setRewardsController","inputs":[{"name":"controller","type":"address","internalType":"address"}],"outputs":[],"stateMutability":"nonpayable"},{"type":"function","name":"setTransferStrategy","inputs":[{"name":"reward","type":"address","internalType":"address"},{"name":"transferStrategy","type":"address","internalType":"contract ITransferStrategyBase"}],"outputs":[],"stateMutability":"nonpayable"},{"type":"function","name":"transferOwnership","inputs":[{"name":"newOwner","type":"address","internalType":"address"}],"outputs":[],"stateMutability":"nonpayable"},{"type":"event","name":"EmissionAdminUpdated","inputs":[{"name":"reward","type":"address","indexed":true,"internalType":"address"},{"name":"oldAdmin","type":"address","indexed":true,"internalType":"address"},{"name":"newAdmin","type":"address","indexed":true,"internalType":"address"}],"anonymous":false},{"type":"event","name":"OwnershipTransferred","inputs":[{"name":"previousOwner","type":"address","indexed":true,"internalType":"address"},{"name":"newOwner","type":"address","indexed":true,"internalType":"address"}],"anonymous":false}],"bytecode":{"object":"0x608060405234801561000f575f5ffd5b506040516122893803806122898339818101604052810190610031919061031b565b5f6100406100f160201b60201c565b9050805f5f6101000a81548173ffffffffffffffffffffffffffffffffffffffff021916908373ffffffffffffffffffffffffffffffffffffffff1602179055508073ffffffffffffffffffffffffffffffffffffffff165f73ffffffffffffffffffffffffffffffffffffffff167f8be0079c531659141344cd1fd0a4f28419497f9722a3daafe3b4186f6b6457e060405160405180910390a3506100eb816100f860201b60201c565b5061044c565b5f33905090565b6101066100f160201b60201c565b73ffffffffffffffffffffffffffffffffffffffff165f5f9054906101000a900473ffffffffffffffffffffffffffffffffffffffff1673ffffffffffffffffffffffffffffffffffffffff1614610193576040517f08c379a000000000000000000000000000000000000000000000000000000000815260040161018a906103a0565b60405180910390fd5b5f73ffffffffffffffffffffffffffffffffffffffff168173ffffffffffffffffffffffffffffffffffffffff1603610201576040517f08c379a00000000000000000000000000000000000000000000000000000000081526004016101f89061042e565b60405180910390fd5b8073ffffffffffffffffffffffffffffffffffffffff165f5f9054906101000a900473ffffffffffffffffffffffffffffffffffffffff1673ffffffffffffffffffffffffffffffffffffffff167f8be0079c531659141344cd1fd0a4f28419497f9722a3daafe3b4186f6b6457e060405160405180910390a3805f5f6101000a81548173ffffffffffffffffffffffffffffffffffffffff021916908373ffffffffffffffffffffffffffffffffffffffff16021790555050565b5f5ffd5b5f73ffffffffffffffffffffffffffffffffffffffff82169050919050565b5f6102ea826102c1565b9050919050565b6102fa816102e0565b8114610304575f5ffd5b50565b5f81519050610315816102f1565b92915050565b5f602082840312156103305761032f6102bd565b5b5f61033d84828501610307565b91505092915050565b5f82825260208201905092915050565b7f4f776e61626c653a2063616c6c6572206973206e6f7420746865206f776e65725f82015250565b5f61038a602083610346565b915061039582610356565b602082019050919050565b5f6020820190508181035f8301526103b78161037e565b9050919050565b7f4f776e61626c653a206e6577206f776e657220697320746865207a65726f20615f8201527f6464726573730000000000000000000000000000000000000000000000000000602082015250565b5f610418602683610346565b9150610423826103be565b604082019050919050565b5f6020820190508181035f8301526104458161040c565b9050919050565b611e30806104595f395ff3fe608060405234801561000f575f5ffd5b50600436106100cd575f3560e01c8063bee36bb31161008a578063e15ac62311610064578063e15ac623146101d3578063f2fde38b146101ef578063f5cf673b1461020b578063f996868b14610227576100cd565b8063bee36bb31461017d578063c5a7b53814610199578063de262738146101b5576100cd565b8063529b1e87146100d15780635453ba1014610101578063715018a61461011d5780638da5cb5b14610127578063955c2ad714610145578063a286c6b414610161575b5f5ffd5b6100eb60048036038101906100e69190611199565b610243565b6040516100f891906111d3565b60405180910390f35b61011b60048036038101906101169190611227565b6102a8565b005b610125610401565b005b61012f610551565b60405161013c91906111d3565b60405180910390f35b61015f600480360381019061015a9190611551565b610578565b005b61017b60048036038101906101769190611598565b610706565b005b61019760048036038101906101929190611199565b6108ec565b005b6101b360048036038101906101ae91906115d6565b6109c4565b005b6101bd610b20565b6040516101ca9190611681565b60405180910390f35b6101ed60048036038101906101e8919061169a565b610b48565b005b61020960048036038101906102049190611199565b610ca1565b005b61022560048036038101906102209190611598565b610e60565b005b610241600480360381019061023c9190611786565b610f82565b005b5f60015f8373ffffffffffffffffffffffffffffffffffffffff1673ffffffffffffffffffffffffffffffffffffffff1681526020019081526020015f205f9054906101000a900473ffffffffffffffffffffffffffffffffffffffff169050919050565b8160015f8273ffffffffffffffffffffffffffffffffffffffff1673ffffffffffffffffffffffffffffffffffffffff1681526020019081526020015f205f9054906101000a900473ffffffffffffffffffffffffffffffffffffffff1673ffffffffffffffffffffffffffffffffffffffff163373ffffffffffffffffffffffffffffffffffffffff1614610373576040517f08c379a000000000000000000000000000000000000000000000000000000000815260040161036a90611871565b60405180910390fd5b60025f9054906101000a900473ffffffffffffffffffffffffffffffffffffffff1673ffffffffffffffffffffffffffffffffffffffff16635453ba1084846040518363ffffffff1660e01b81526004016103cf9291906118af565b5f604051808303815f87803b1580156103e6575f5ffd5b505af11580156103f8573d5f5f3e3d5ffd5b50505050505050565b610409611127565b73ffffffffffffffffffffffffffffffffffffffff165f5f9054906101000a900473ffffffffffffffffffffffffffffffffffffffff1673ffffffffffffffffffffffffffffffffffffffff1614610496576040517f08c379a000000000000000000000000000000000000000000000000000000000815260040161048d90611920565b60405180910390fd5b5f73ffffffffffffffffffffffffffffffffffffffff165f5f9054906101000a900473ffffffffffffffffffffffffffffffffffffffff1673ffffffffffffffffffffffffffffffffffffffff167f8be0079c531659141344cd1fd0a4f28419497f9722a3daafe3b4186f6b6457e060405160405180910390a35f5f5f6101000a81548173ffffffffffffffffffffffffffffffffffffffff021916908373ffffffffffffffffffffffffffffffffffffffff160217905550565b5f5f5f9054906101000a900473ffffffffffffffffffffffffffffffffffffffff16905090565b5f5f90505b815181101561067b573373ffffffffffffffffffffffffffffffffffffffff1660015f8484815181106105b3576105b261193e565b5b60200260200101516080015173ffffffffffffffffffffffffffffffffffffffff1673ffffffffffffffffffffffffffffffffffffffff1681526020019081526020015f205f9054906101000a900473ffffffffffffffffffffffffffffffffffffffff1673ffffffffffffffffffffffffffffffffffffffff161461066e576040517f08c379a000000000000000000000000000000000000000000000000000000000815260040161066590611871565b60405180910390fd5b808060010191505061057d565b5060025f9054906101000a900473ffffffffffffffffffffffffffffffffffffffff1673ffffffffffffffffffffffffffffffffffffffff1663955c2ad7826040518263ffffffff1660e01b81526004016106d69190611b0a565b5f604051808303815f87803b1580156106ed575f5ffd5b505af11580156106ff573d5f5f3e3d5ffd5b5050505050565b61070e611127565b73ffffffffffffffffffffffffffffffffffffffff165f5f9054906101000a900473ffffffffffffffffffffffffffffffffffffffff1673ffffffffffffffffffffffffffffffffffffffff161461079b576040517f08c379a000000000000000000000000000000000000000000000000000000000815260040161079290611920565b60405180910390fd5b5f60015f8473ffffffffffffffffffffffffffffffffffffffff1673ffffffffffffffffffffffffffffffffffffffff1681526020019081526020015f205f9054906101000a900473ffffffffffffffffffffffffffffffffffffffff1690508160015f8573ffffffffffffffffffffffffffffffffffffffff1673ffffffffffffffffffffffffffffffffffffffff1681526020019081526020015f205f6101000a81548173ffffffffffffffffffffffffffffffffffffffff021916908373ffffffffffffffffffffffffffffffffffffffff1602179055508173ffffffffffffffffffffffffffffffffffffffff168173ffffffffffffffffffffffffffffffffffffffff168473ffffffffffffffffffffffffffffffffffffffff167fda40ea421dd7e42cf8be71255facac4fdc12a3f70f4d5fd373cb16cec4cb538460405160405180910390a4505050565b6108f4611127565b73ffffffffffffffffffffffffffffffffffffffff165f5f9054906101000a900473ffffffffffffffffffffffffffffffffffffffff1673ffffffffffffffffffffffffffffffffffffffff1614610981576040517f08c379a000000000000000000000000000000000000000000000000000000000815260040161097890611920565b60405180910390fd5b8060025f6101000a81548173ffffffffffffffffffffffffffffffffffffffff021916908373ffffffffffffffffffffffffffffffffffffffff16021790555050565b8160015f8273ffffffffffffffffffffffffffffffffffffffff1673ffffffffffffffffffffffffffffffffffffffff1681526020019081526020015f205f9054906101000a900473ffffffffffffffffffffffffffffffffffffffff1673ffffffffffffffffffffffffffffffffffffffff163373ffffffffffffffffffffffffffffffffffffffff1614610a8f576040517f08c379a0000000000000000000000000000000000000000000000000000000008152600401610a8690611871565b60405180910390fd5b60025f9054906101000a900473ffffffffffffffffffffffffffffffffffffffff1673ffffffffffffffffffffffffffffffffffffffff1663c5a7b5388585856040518463ffffffff1660e01b8152600401610aed93929190611b39565b5f604051808303815f87803b158015610b04575f5ffd5b505af1158015610b16573d5f5f3e3d5ffd5b5050505050505050565b5f60025f9054906101000a900473ffffffffffffffffffffffffffffffffffffffff16905090565b8160015f8273ffffffffffffffffffffffffffffffffffffffff1673ffffffffffffffffffffffffffffffffffffffff1681526020019081526020015f205f9054906101000a900473ffffffffffffffffffffffffffffffffffffffff1673ffffffffffffffffffffffffffffffffffffffff163373ffffffffffffffffffffffffffffffffffffffff1614610c13576040517f08c379a0000000000000000000000000000000000000000000000000000000008152600401610c0a90611871565b60405180910390fd5b60025f9054906101000a900473ffffffffffffffffffffffffffffffffffffffff1673ffffffffffffffffffffffffffffffffffffffff1663e15ac62384846040518363ffffffff1660e01b8152600401610c6f929190611b7d565b5f604051808303815f87803b158015610c86575f5ffd5b505af1158015610c98573d5f5f3e3d5ffd5b50505050505050565b610ca9611127565b73ffffffffffffffffffffffffffffffffffffffff165f5f9054906101000a900473ffffffffffffffffffffffffffffffffffffffff1673ffffffffffffffffffffffffffffffffffffffff1614610d36576040517f08c379a0000000000000000000000000000000000000000000000000000000008152600401610d2d90611920565b60405180910390fd5b5f73ffffffffffffffffffffffffffffffffffffffff168173ffffffffffffffffffffffffffffffffffffffff1603610da4576040517f08c379a0000000000000000000000000000000000000000000000000000000008152600401610d9b90611c14565b60405180910390fd5b8073ffffffffffffffffffffffffffffffffffffffff165f5f9054906101000a900473ffffffffffffffffffffffffffffffffffffffff1673ffffffffffffffffffffffffffffffffffffffff167f8be0079c531659141344cd1fd0a4f28419497f9722a3daafe3b4186f6b6457e060405160405180910390a3805f5f6101000a81548173ffffffffffffffffffffffffffffffffffffffff021916908373ffffffffffffffffffffffffffffffffffffffff16021790555050565b610e68611127565b73ffffffffffffffffffffffffffffffffffffffff165f5f9054906101000a900473ffffffffffffffffffffffffffffffffffffffff1673ffffffffffffffffffffffffffffffffffffffff1614610ef5576040517f08c379a0000000000000000000000000000000000000000000000000000000008152600401610eec90611920565b60405180910390fd5b60025f9054906101000a900473ffffffffffffffffffffffffffffffffffffffff1673ffffffffffffffffffffffffffffffffffffffff1663f5cf673b83836040518363ffffffff1660e01b8152600401610f51929190611c32565b5f604051808303815f87803b158015610f68575f5ffd5b505af1158015610f7a573d5f5f3e3d5ffd5b505050505050565b5f5f90505b84849050811015611090573373ffffffffffffffffffffffffffffffffffffffff1660015f878785818110610fbf57610fbe61193e565b5b9050602002016020810190610fd49190611199565b73ffffffffffffffffffffffffffffffffffffffff1673ffffffffffffffffffffffffffffffffffffffff1681526020019081526020015f205f9054906101000a900473ffffffffffffffffffffffffffffffffffffffff1673ffffffffffffffffffffffffffffffffffffffff1614611083576040517f08c379a000000000000000000000000000000000000000000000000000000000815260040161107a90611871565b60405180910390fd5b8080600101915050610f87565b5060025f9054906101000a900473ffffffffffffffffffffffffffffffffffffffff1673ffffffffffffffffffffffffffffffffffffffff1663f996868b86868686866040518663ffffffff1660e01b81526004016110f3959493929190611db3565b5f604051808303815f87803b15801561110a575f5ffd5b505af115801561111c573d5f5f3e3d5ffd5b505050505050505050565b5f33905090565b5f604051905090565b5f5ffd5b5f5ffd5b5f73ffffffffffffffffffffffffffffffffffffffff82169050919050565b5f6111688261113f565b9050919050565b6111788161115e565b8114611182575f5ffd5b50565b5f813590506111938161116f565b92915050565b5f602082840312156111ae576111ad611137565b5b5f6111bb84828501611185565b91505092915050565b6111cd8161115e565b82525050565b5f6020820190506111e65f8301846111c4565b92915050565b5f6111f68261115e565b9050919050565b611206816111ec565b8114611210575f5ffd5b50565b5f81359050611221816111fd565b92915050565b5f5f6040838503121561123d5761123c611137565b5b5f61124a85828601611185565b925050602061125b85828601611213565b9150509250929050565b5f5ffd5b5f601f19601f8301169050919050565b7f4e487b71000000000000000000000000000000000000000000000000000000005f52604160045260245ffd5b6112af82611269565b810181811067ffffffffffffffff821117156112ce576112cd611279565b5b80604052505050565b5f6112e061112e565b90506112ec82826112a6565b919050565b5f67ffffffffffffffff82111561130b5761130a611279565b5b602082029050602081019050919050565b5f5ffd5b5f5ffd5b5f6affffffffffffffffffffff82169050919050565b61134381611324565b811461134d575f5ffd5b50565b5f8135905061135e8161133a565b92915050565b5f819050919050565b61137681611364565b8114611380575f5ffd5b50565b5f813590506113918161136d565b92915050565b5f63ffffffff82169050919050565b6113af81611397565b81146113b9575f5ffd5b50565b5f813590506113ca816113a6565b92915050565b5f6113da8261115e565b9050919050565b6113ea816113d0565b81146113f4575f5ffd5b50565b5f81359050611405816113e1565b92915050565b5f60e082840312156114205761141f611320565b5b61142a60e06112d7565b90505f61143984828501611350565b5f83015250602061144c84828501611383565b6020830152506040611460848285016113bc565b604083015250606061147484828501611185565b606083015250608061148884828501611185565b60808301525060a061149c848285016113f7565b60a08301525060c06114b084828501611213565b60c08301525092915050565b5f6114ce6114c9846112f1565b6112d7565b90508083825260208201905060e084028301858111156114f1576114f061131c565b5b835b8181101561151a5780611506888261140b565b84526020840193505060e0810190506114f3565b5050509392505050565b5f82601f83011261153857611537611265565b5b81356115488482602086016114bc565b91505092915050565b5f6020828403121561156657611565611137565b5b5f82013567ffffffffffffffff8111156115835761158261113b565b5b61158f84828501611524565b91505092915050565b5f5f604083850312156115ae576115ad611137565b5b5f6115bb85828601611185565b92505060206115cc85828601611185565b9150509250929050565b5f5f5f606084860312156115ed576115ec611137565b5b5f6115fa86828701611185565b935050602061160b86828701611185565b925050604061161c868287016113bc565b9150509250925092565b5f819050919050565b5f61164961164461163f8461113f565b611626565b61113f565b9050919050565b5f61165a8261162f565b9050919050565b5f61166b82611650565b9050919050565b61167b81611661565b82525050565b5f6020820190506116945f830184611672565b92915050565b5f5f604083850312156116b0576116af611137565b5b5f6116bd85828601611185565b92505060206116ce858286016113f7565b9150509250929050565b5f5ffd5b5f5f83601f8401126116f1576116f0611265565b5b8235905067ffffffffffffffff81111561170e5761170d6116d8565b5b60208301915083602082028301111561172a5761172961131c565b5b9250929050565b5f5f83601f84011261174657611745611265565b5b8235905067ffffffffffffffff811115611763576117626116d8565b5b60208301915083602082028301111561177f5761177e61131c565b5b9250929050565b5f5f5f5f5f6060868803121561179f5761179e611137565b5b5f6117ac88828901611185565b955050602086013567ffffffffffffffff8111156117cd576117cc61113b565b5b6117d9888289016116dc565b9450945050604086013567ffffffffffffffff8111156117fc576117fb61113b565b5b61180888828901611731565b92509250509295509295909350565b5f82825260208201905092915050565b7f4f4e4c595f454d495353494f4e5f41444d494e000000000000000000000000005f82015250565b5f61185b601383611817565b915061186682611827565b602082019050919050565b5f6020820190508181035f8301526118888161184f565b9050919050565b5f61189982611650565b9050919050565b6118a98161188f565b82525050565b5f6040820190506118c25f8301856111c4565b6118cf60208301846118a0565b9392505050565b7f4f776e61626c653a2063616c6c6572206973206e6f7420746865206f776e65725f82015250565b5f61190a602083611817565b9150611915826118d6565b602082019050919050565b5f6020820190508181035f830152611937816118fe565b9050919050565b7f4e487b71000000000000000000000000000000000000000000000000000000005f52603260045260245ffd5b5f81519050919050565b5f82825260208201905092915050565b5f819050602082019050919050565b61199d81611324565b82525050565b6119ac81611364565b82525050565b6119bb81611397565b82525050565b6119ca8161115e565b82525050565b5f6119da82611650565b9050919050565b6119ea816119d0565b82525050565b6119f98161188f565b82525050565b60e082015f820151611a135f850182611994565b506020820151611a2660208501826119a3565b506040820151611a3960408501826119b2565b506060820151611a4c60608501826119c1565b506080820151611a5f60808501826119c1565b5060a0820151611a7260a08501826119e1565b5060c0820151611a8560c08501826119f0565b50505050565b5f611a9683836119ff565b60e08301905092915050565b5f602082019050919050565b5f611ab88261196b565b611ac28185611975565b9350611acd83611985565b805f5b83811015611afd578151611ae48882611a8b565b9750611aef83611aa2565b925050600181019050611ad0565b5085935050505092915050565b5f6020820190508181035f830152611b228184611aae565b905092915050565b611b3381611397565b82525050565b5f606082019050611b4c5f8301866111c4565b611b5960208301856111c4565b611b666040830184611b2a565b949350505050565b611b77816119d0565b82525050565b5f604082019050611b905f8301856111c4565b611b9d6020830184611b6e565b9392505050565b7f4f776e61626c653a206e6577206f776e657220697320746865207a65726f20615f8201527f6464726573730000000000000000000000000000000000000000000000000000602082015250565b5f611bfe602683611817565b9150611c0982611ba4565b604082019050919050565b5f6020820190508181035f830152611c2b81611bf2565b9050919050565b5f604082019050611c455f8301856111c4565b611c5260208301846111c4565b9392505050565b5f82825260208201905092915050565b5f819050919050565b5f611c7d83836119c1565b60208301905092915050565b5f611c976020840184611185565b905092915050565b5f602082019050919050565b5f611cb68385611c59565b9350611cc182611c69565b805f5b85811015611cf957611cd68284611c89565b611ce08882611c72565b9750611ceb83611c9f565b925050600181019050611cc4565b5085925050509392505050565b5f82825260208201905092915050565b5f819050919050565b5f611d2a8383611994565b60208301905092915050565b5f611d446020840184611350565b905092915050565b5f602082019050919050565b5f611d638385611d06565b9350611d6e82611d16565b805f5b85811015611da657611d838284611d36565b611d8d8882611d1f565b9750611d9883611d4c565b925050600181019050611d71565b5085925050509392505050565b5f606082019050611dc65f8301886111c4565b8181036020830152611dd9818688611cab565b90508181036040830152611dee818486611d58565b9050969550505050505056fea2646970667358221220e0954e35bcdc7c4e219abf987a0620f7394c8bba2fbb85da6157592c4f2551c464736f6c634300081c0033","linkReferences":{}},"methodIdentifiers":{"configureAssets((uint88,uint256,uint32,address,address,address,address)[])":"955c2ad7","getEmissionAdmin(address)":"529b1e87","getRewardsController()":"de262738","owner()":"8da5cb5b","renounceOwnership()":"715018a6","setClaimer(address,address)":"f5cf673b","setDistributionEnd(address,address,uint32)":"c5a7b538","setEmissionAdmin(address,address)":"a286c6b4","setEmissionPerSecond(address,address[],uint88[])":"f996868b","setRewardOracle(address,address)":"5453ba10","setRewardsController(address)":"bee36bb3","setTransferStrategy(address,address)":"e15ac623","transferOwnership(address)":"f2fde38b"},"id":30}