{"abi":[{"type":"constructor","inputs":[{"name":"incentivesController","type":"address","internalType":"address"},{"name":"rewardsAdmin","type":"address","internalType":"address"},{"name":"stakeToken","type":"address","internalType":"contract IStakedToken"}],"stateMutability":"nonpayable"},{"type":"function","name":"dropApproval","inputs":[],"outputs":[],"stateMutability":"nonpayable"},{"type":"function","name":"emergencyWithdrawal","inputs":[{"name":"token","type":"address","internalType":"address"},{"name":"to","type":"address","internalType":"address"},{"name":"amount","type":"uint256","internalType":"uint256"}],"outputs":[],"stateMutability":"nonpayable"},{"type":"function","name":"getIncentivesController","inputs":[],"outputs":[{"name":"","type":"address","internalType":"address"}],"stateMutability":"view"},{"type":"function","name":"getRewardsAdmin","inputs":[],"outputs":[{"name":"","type":"address","internalType":"address"}],"stateMutability":"view"},{"type":"function","name":"getStakeContract","inputs":[],"outputs":[{"name":"","type":"address","internalType":"address"}],"stateMutability":"view"},{"type":"function","name":"getUnderlyingToken","inputs":[],"outputs":[{"name":"","type":"address","internalType":"address"}],"stateMutability":"view"},{"type":"function","name":"performTransfer","inputs":[{"name":"to","type":"address","internalType":"address"},{"name":"reward","type":"address","internalType":"address"},{"name":"amount","type":"uint256","internalType":"uint256"}],"outputs":[{"name":"","type":"bool","internalType":"bool"}],"stateMutability":"nonpayable"},{"type":"function","name":"renewApproval","inputs":[],"outputs":[],"stateMutability":"nonpayable"},{"type":"event","name":"EmergencyWithdrawal","inputs":[{"name":"caller","type":"address","indexed":true,"internalType":"address"},{"name":"token","type":"address","indexed":true,"internalType":"address"},{"name":"to","type":"address","indexed":true,"internalType":"address"},{"name":"amount","type":"uint256","indexed":false,"internalType":"uint256"}],"anonymous":false}],"bytecode":{"object":"0x610100604052348015610010575f5ffd5b5060405161133738038061133783398181016040528101906100329190610335565b82828173ffffffffffffffffffffffffffffffffffffffff1660808173ffffffffffffffffffffffffffffffffffffffff16815250508073ffffffffffffffffffffffffffffffffffffffff1660a08173ffffffffffffffffffffffffffffffffffffffff168152505050508073ffffffffffffffffffffffffffffffffffffffff1660c08173ffffffffffffffffffffffffffffffffffffffff168152505060c05173ffffffffffffffffffffffffffffffffffffffff1663312f6b836040518163ffffffff1660e01b8152600401602060405180830381865afa15801561011d573d5f5f3e3d5ffd5b505050506040513d601f19601f820116820180604052508101906101419190610385565b73ffffffffffffffffffffffffffffffffffffffff1660e08173ffffffffffffffffffffffffffffffffffffffff168152505060e05173ffffffffffffffffffffffffffffffffffffffff1663095ea7b360c0515f6040518363ffffffff1660e01b81526004016101b392919061040a565b6020604051808303815f875af11580156101cf573d5f5f3e3d5ffd5b505050506040513d601f19601f820116820180604052508101906101f39190610466565b5060e05173ffffffffffffffffffffffffffffffffffffffff1663095ea7b360c0517fffffffffffffffffffffffffffffffffffffffffffffffffffffffffffffffff6040518363ffffffff1660e01b81526004016102539291906104a0565b6020604051808303815f875af115801561026f573d5f5f3e3d5ffd5b505050506040513d601f19601f820116820180604052508101906102939190610466565b505050506104c7565b5f5ffd5b5f73ffffffffffffffffffffffffffffffffffffffff82169050919050565b5f6102c9826102a0565b9050919050565b6102d9816102bf565b81146102e3575f5ffd5b50565b5f815190506102f4816102d0565b92915050565b5f610304826102bf565b9050919050565b610314816102fa565b811461031e575f5ffd5b50565b5f8151905061032f8161030b565b92915050565b5f5f5f6060848603121561034c5761034b61029c565b5b5f610359868287016102e6565b935050602061036a868287016102e6565b925050604061037b86828701610321565b9150509250925092565b5f6020828403121561039a5761039961029c565b5b5f6103a7848285016102e6565b91505092915050565b6103b9816102bf565b82525050565b5f819050919050565b5f819050919050565b5f819050919050565b5f6103f46103ef6103ea846103bf565b6103d1565b6103c8565b9050919050565b610404816103da565b82525050565b5f60408201905061041d5f8301856103b0565b61042a60208301846103fb565b9392505050565b5f8115159050919050565b61044581610431565b811461044f575f5ffd5b50565b5f815190506104608161043c565b92915050565b5f6020828403121561047b5761047a61029c565b5b5f61048884828501610452565b91505092915050565b61049a816103c8565b82525050565b5f6040820190506104b35f8301856103b0565b6104c06020830184610491565b9392505050565b60805160a05160c05160e051610de961054e5f395f81816103a20152818161064f0152818161070b015261083801525f81816101f301528181610281015281816103de0152818161068b01528181610747015261081101525f818161031401528181610487015281816105c101526107ea01525f818161017c01526104610152610de95ff3fe608060405234801561000f575f5ffd5b5060043610610086575f3560e01c8063a340625111610059578063a3406251146100fe578063c625544314610108578063dfd29d9e14610126578063ee719bc81461014457610086565b806316beb9821461008a5780633a342acc146100ba57806375d26413146100c45780638d8e5da7146100e2575b5f5ffd5b6100a4600480360381019061009f9190610a4b565b610162565b6040516100b19190610ab5565b60405180910390f35b6100c2610312565b005b6100cc61045e565b6040516100d99190610add565b60405180910390f35b6100fc60048036038101906100f79190610a4b565b610485565b005b6101066105bf565b005b6101106107e7565b60405161011d9190610add565b60405180910390f35b61012e61080e565b60405161013b9190610add565b60405180910390f35b61014c610835565b6040516101599190610add565b60405180910390f35b5f3373ffffffffffffffffffffffffffffffffffffffff167f000000000000000000000000000000000000000000000000000000000000000073ffffffffffffffffffffffffffffffffffffffff16146101f1576040517f08c379a00000000000000000000000000000000000000000000000000000000081526004016101e890610b50565b60405180910390fd5b7f000000000000000000000000000000000000000000000000000000000000000073ffffffffffffffffffffffffffffffffffffffff168373ffffffffffffffffffffffffffffffffffffffff161461027f576040517f08c379a000000000000000000000000000000000000000000000000000000000815260040161027690610bb8565b60405180910390fd5b7f000000000000000000000000000000000000000000000000000000000000000073ffffffffffffffffffffffffffffffffffffffff1663adc9772e85846040518363ffffffff1660e01b81526004016102da929190610be5565b5f604051808303815f87803b1580156102f1575f5ffd5b505af1158015610303573d5f5f3e3d5ffd5b50505050600190509392505050565b7f000000000000000000000000000000000000000000000000000000000000000073ffffffffffffffffffffffffffffffffffffffff163373ffffffffffffffffffffffffffffffffffffffff16146103a0576040517f08c379a000000000000000000000000000000000000000000000000000000000815260040161039790610c56565b60405180910390fd5b7f000000000000000000000000000000000000000000000000000000000000000073ffffffffffffffffffffffffffffffffffffffff1663095ea7b37f00000000000000000000000000000000000000000000000000000000000000005f6040518363ffffffff1660e01b815260040161041b929190610cb6565b6020604051808303815f875af1158015610437573d5f5f3e3d5ffd5b505050506040513d601f19601f8201168201806040525081019061045b9190610d07565b50565b5f7f0000000000000000000000000000000000000000000000000000000000000000905090565b7f000000000000000000000000000000000000000000000000000000000000000073ffffffffffffffffffffffffffffffffffffffff163373ffffffffffffffffffffffffffffffffffffffff1614610513576040517f08c379a000000000000000000000000000000000000000000000000000000000815260040161050a90610c56565b60405180910390fd5b61053e82828573ffffffffffffffffffffffffffffffffffffffff1661085c9092919063ffffffff16565b8173ffffffffffffffffffffffffffffffffffffffff168373ffffffffffffffffffffffffffffffffffffffff163373ffffffffffffffffffffffffffffffffffffffff167f7dc4ea712e6400e67a5abca1a983e5c420c386c19936dc120cd860b50b8e2579846040516105b29190610d32565b60405180910390a4505050565b7f000000000000000000000000000000000000000000000000000000000000000073ffffffffffffffffffffffffffffffffffffffff163373ffffffffffffffffffffffffffffffffffffffff161461064d576040517f08c379a000000000000000000000000000000000000000000000000000000000815260040161064490610c56565b60405180910390fd5b7f000000000000000000000000000000000000000000000000000000000000000073ffffffffffffffffffffffffffffffffffffffff1663095ea7b37f00000000000000000000000000000000000000000000000000000000000000005f6040518363ffffffff1660e01b81526004016106c8929190610cb6565b6020604051808303815f875af11580156106e4573d5f5f3e3d5ffd5b505050506040513d601f19601f820116820180604052508101906107089190610d07565b507f000000000000000000000000000000000000000000000000000000000000000073ffffffffffffffffffffffffffffffffffffffff1663095ea7b37f00000000000000000000000000000000000000000000000000000000000000007fffffffffffffffffffffffffffffffffffffffffffffffffffffffffffffffff6040518363ffffffff1660e01b81526004016107a4929190610be5565b6020604051808303815f875af11580156107c0573d5f5f3e3d5ffd5b505050506040513d601f19601f820116820180604052508101906107e49190610d07565b50565b5f7f0000000000000000000000000000000000000000000000000000000000000000905090565b5f7f0000000000000000000000000000000000000000000000000000000000000000905090565b5f7f0000000000000000000000000000000000000000000000000000000000000000905090565b5f63a9059cbb60e01b905060405181815273ffffffffffffffffffffffffffffffffffffffff841660048201528260248201525f5f6044835f895af16108a4573d5f5f3e3d5ffd5b506108ae846108f3565b6108ed576040517f08c379a00000000000000000000000000000000000000000000000000000000081526004016108e490610d95565b60405180910390fd5b50505050565b5f61092e565b7f08c379a0000000000000000000000000000000000000000000000000000000005f526020600452806024528160445260645ffd5b3d5f811461096e57602081146109a9576109697f475076323a206d616c666f726d6564207472616e7366657220726573756c7400601f6108f9565b6109b4565b823b6109a05761099f7f475076323a206e6f74206120636f6e747261637400000000000000000000000060146108f9565b5b600191506109b4565b3d5f5f3e5f51151591505b50919050565b5f5ffd5b5f73ffffffffffffffffffffffffffffffffffffffff82169050919050565b5f6109e7826109be565b9050919050565b6109f7816109dd565b8114610a01575f5ffd5b50565b5f81359050610a12816109ee565b92915050565b5f819050919050565b610a2a81610a18565b8114610a34575f5ffd5b50565b5f81359050610a4581610a21565b92915050565b5f5f5f60608486031215610a6257610a616109ba565b5b5f610a6f86828701610a04565b9350506020610a8086828701610a04565b9250506040610a9186828701610a37565b9150509250925092565b5f8115159050919050565b610aaf81610a9b565b82525050565b5f602082019050610ac85f830184610aa6565b92915050565b610ad7816109dd565b82525050565b5f602082019050610af05f830184610ace565b92915050565b5f82825260208201905092915050565b7f43414c4c45525f4e4f545f494e43454e54495645535f434f4e54524f4c4c45525f82015250565b5f610b3a602083610af6565b9150610b4582610b06565b602082019050919050565b5f6020820190508181035f830152610b6781610b2e565b9050919050565b7f5245574152445f544f4b454e5f4e4f545f5354414b455f434f4e5452414354005f82015250565b5f610ba2601f83610af6565b9150610bad82610b6e565b602082019050919050565b5f6020820190508181035f830152610bcf81610b96565b9050919050565b610bdf81610a18565b82525050565b5f604082019050610bf85f830185610ace565b610c056020830184610bd6565b9392505050565b7f4f4e4c595f524557415244535f41444d494e00000000000000000000000000005f82015250565b5f610c40601283610af6565b9150610c4b82610c0c565b602082019050919050565b5f6020820190508181035f830152610c6d81610c34565b9050919050565b5f819050919050565b5f819050919050565b5f610ca0610c9b610c9684610c74565b610c7d565b610a18565b9050919050565b610cb081610c86565b82525050565b5f604082019050610cc95f830185610ace565b610cd66020830184610ca7565b9392505050565b610ce681610a9b565b8114610cf0575f5ffd5b50565b5f81519050610d0181610cdd565b92915050565b5f60208284031215610d1c57610d1b6109ba565b5b5f610d2984828501610cf3565b91505092915050565b5f602082019050610d455f830184610bd6565b92915050565b7f475076323a206661696c6564207472616e7366657200000000000000000000005f82015250565b5f610d7f601583610af6565b9150610d8a82610d4b565b602082019050919050565b5f6020820190508181035f830152610dac81610d73565b905091905056fea264697066735822122072295ade212b538eada43b609214ae3f567f6d431b7edb65584f19fea84a9d3264736f6c634300081c0033","linkReferences":{}},"methodIdentifiers":{"dropApproval()":"3a342acc","emergencyWithdrawal(address,address,uint256)":"8d8e5da7","getIncentivesController()":"75d26413","getRewardsAdmin()":"c6255443","getStakeContract()":"dfd29d9e","getUnderlyingToken()":"ee719bc8","performTransfer(address,address,uint256)":"16beb982","renewApproval()":"a3406251"},"id":42}