{"abi":[{"type":"constructor","inputs":[{"name":"incentivesController","type":"address","internalType":"address"},{"name":"rewardsAdmin","type":"address","internalType":"address"}],"stateMutability":"nonpayable"},{"type":"function","name":"emergencyWithdrawal","inputs":[{"name":"token","type":"address","internalType":"address"},{"name":"to","type":"address","internalType":"address"},{"name":"amount","type":"uint256","internalType":"uint256"}],"outputs":[],"stateMutability":"nonpayable"},{"type":"function","name":"getIncentivesController","inputs":[],"outputs":[{"name":"","type":"address","internalType":"address"}],"stateMutability":"view"},{"type":"function","name":"getRewardsAdmin","inputs":[],"outputs":[{"name":"","type":"address","internalType":"address"}],"stateMutability":"view"},{"type":"function","name":"performTransfer","inputs":[{"name":"","type":"address","internalType":"address"},{"name":"","type":"address","internalType":"address"},{"name":"","type":"uint256","internalType":"uint256"}],"outputs":[{"name":"","type":"bool","internalType":"bool"}],"stateMutability":"nonpayable"},{"type":"event","name":"EmergencyWithdrawal","inputs":[{"name":"caller","type":"address","indexed":true,"internalType":"address"},{"name":"token","type":"address","indexed":true,"internalType":"address"},{"name":"to","type":"address","indexed":true,"internalType":"address"},{"name":"amount","type":"uint256","indexed":false,"internalType":"uint256"}],"anonymous":false}],"bytecode":{"object":"0x60c060405234801561000f575f5ffd5b506040516108ac3803806108ac83398181016040528101906100319190610102565b81818173ffffffffffffffffffffffffffffffffffffffff1660808173ffffffffffffffffffffffffffffffffffffffff16815250508073ffffffffffffffffffffffffffffffffffffffff1660a08173ffffffffffffffffffffffffffffffffffffffff168152505050505050610140565b5f5ffd5b5f73ffffffffffffffffffffffffffffffffffffffff82169050919050565b5f6100d1826100a8565b9050919050565b6100e1816100c7565b81146100eb575f5ffd5b50565b5f815190506100fc816100d8565b92915050565b5f5f60408385031215610118576101176100a4565b5b5f610125858286016100ee565b9250506020610136858286016100ee565b9150509250929050565b60805160a05161073e61016e5f395f818161019f01526102da01525f818160f00152610179015261073e5ff3fe608060405234801561000f575f5ffd5b506004361061004a575f3560e01c806316beb9821461004e57806375d264131461007e5780638d8e5da71461009c578063c6255443146100b8575b5f5ffd5b610068600480360381019061006391906104ed565b6100d6565b6040516100759190610557565b60405180910390f35b610086610176565b604051610093919061057f565b60405180910390f35b6100b660048036038101906100b191906104ed565b61019d565b005b6100c06102d7565b6040516100cd919061057f565b60405180910390f35b5f3373ffffffffffffffffffffffffffffffffffffffff167f000000000000000000000000000000000000000000000000000000000000000073ffffffffffffffffffffffffffffffffffffffff1614610165576040517f08c379a000000000000000000000000000000000000000000000000000000000815260040161015c906105f2565b60405180910390fd5b60015f819055505f90509392505050565b5f7f0000000000000000000000000000000000000000000000000000000000000000905090565b7f000000000000000000000000000000000000000000000000000000000000000073ffffffffffffffffffffffffffffffffffffffff163373ffffffffffffffffffffffffffffffffffffffff161461022b576040517f08c379a00000000000000000000000000000000000000000000000000000000081526004016102229061065a565b60405180910390fd5b61025682828573ffffffffffffffffffffffffffffffffffffffff166102fe9092919063ffffffff16565b8173ffffffffffffffffffffffffffffffffffffffff168373ffffffffffffffffffffffffffffffffffffffff163373ffffffffffffffffffffffffffffffffffffffff167f7dc4ea712e6400e67a5abca1a983e5c420c386c19936dc120cd860b50b8e2579846040516102ca9190610687565b60405180910390a4505050565b5f7f0000000000000000000000000000000000000000000000000000000000000000905090565b5f63a9059cbb60e01b905060405181815273ffffffffffffffffffffffffffffffffffffffff841660048201528260248201525f5f6044835f895af1610346573d5f5f3e3d5ffd5b5061035084610395565b61038f576040517f08c379a0000000000000000000000000000000000000000000000000000000008152600401610386906106ea565b60405180910390fd5b50505050565b5f6103d0565b7f08c379a0000000000000000000000000000000000000000000000000000000005f526020600452806024528160445260645ffd5b3d5f8114610410576020811461044b5761040b7f475076323a206d616c666f726d6564207472616e7366657220726573756c7400601f61039b565b610456565b823b610442576104417f475076323a206e6f74206120636f6e7472616374000000000000000000000000601461039b565b5b60019150610456565b3d5f5f3e5f51151591505b50919050565b5f5ffd5b5f73ffffffffffffffffffffffffffffffffffffffff82169050919050565b5f61048982610460565b9050919050565b6104998161047f565b81146104a3575f5ffd5b50565b5f813590506104b481610490565b92915050565b5f819050919050565b6104cc816104ba565b81146104d6575f5ffd5b50565b5f813590506104e7816104c3565b92915050565b5f5f5f606084860312156105045761050361045c565b5b5f610511868287016104a6565b9350506020610522868287016104a6565b9250506040610533868287016104d9565b9150509250925092565b5f8115159050919050565b6105518161053d565b82525050565b5f60208201905061056a5f830184610548565b92915050565b6105798161047f565b82525050565b5f6020820190506105925f830184610570565b92915050565b5f82825260208201905092915050565b7f43414c4c45525f4e4f545f494e43454e54495645535f434f4e54524f4c4c45525f82015250565b5f6105dc602083610598565b91506105e7826105a8565b602082019050919050565b5f6020820190508181035f830152610609816105d0565b9050919050565b7f4f4e4c595f524557415244535f41444d494e00000000000000000000000000005f82015250565b5f610644601283610598565b915061064f82610610565b602082019050919050565b5f6020820190508181035f83015261067181610638565b9050919050565b610681816104ba565b82525050565b5f60208201905061069a5f830184610678565b92915050565b7f475076323a206661696c6564207472616e7366657200000000000000000000005f82015250565b5f6106d4601583610598565b91506106df826106a0565b602082019050919050565b5f6020820190508181035f830152610701816106c8565b905091905056fea2646970667358221220172c44fff37ea479307026189e9d0f610fb44d9028ee73f56e9c85675a4e691e64736f6c634300081c0033","linkReferences":{}},"methodIdentifiers":{"emergencyWithdrawal(address,address,uint256)":"8d8e5da7","getIncentivesController()":"75d26413","getRewardsAdmin()":"c6255443","performTransfer(address,address,uint256)":"16beb982"},"id":21}