{"abi":[{"type":"constructor","inputs":[{"name":"emissionManager","type":"address","internalType":"address"}],"stateMutability":"nonpayable"},{"type":"function","name":"EMISSION_MANAGER","inputs":[],"outputs":[{"name":"","type":"address","internalType":"address"}],"stateMutability":"view"},{"type":"function","name":"REVISION","inputs":[],"outputs":[{"name":"","type":"uint256","internalType":"uint256"}],"stateMutability":"view"},{"type":"function","name":"claimAllRewards","inputs":[{"name":"assets","type":"address[]","internalType":"address[]"},{"name":"to","type":"address","internalType":"address"}],"outputs":[{"name":"rewardsList","type":"address[]","internalType":"address[]"},{"name":"claimedAmounts","type":"uint256[]","internalType":"uint256[]"}],"stateMutability":"nonpayable"},{"type":"function","name":"claimAllRewardsOnBehalf","inputs":[{"name":"assets","type":"address[]","internalType":"address[]"},{"name":"user","type":"address","internalType":"address"},{"name":"to","type":"address","internalType":"address"}],"outputs":[{"name":"rewardsList","type":"address[]","internalType":"address[]"},{"name":"claimedAmounts","type":"uint256[]","internalType":"uint256[]"}],"stateMutability":"nonpayable"},{"type":"function","name":"claimAllRewardsToSelf","inputs":[{"name":"assets","type":"address[]","internalType":"address[]"}],"outputs":[{"name":"rewardsList","type":"address[]","internalType":"address[]"},{"name":"claimedAmounts","type":"uint256[]","internalType":"uint256[]"}],"stateMutability":"nonpayable"},{"type":"function","name":"claimRewards","inputs":[{"name":"assets","type":"address[]","internalType":"address[]"},{"name":"amount","type":"uint256","internalType":"uint256"},{"name":"to","type":"address","internalType":"address"},{"name":"reward","type":"address","internalType":"address"}],"outputs":[{"name":"","type":"uint256","internalType":"uint256"}],"stateMutability":"nonpayable"},{"type":"function","name":"claimRewardsOnBehalf","inputs":[{"name":"assets","type":"address[]","internalType":"address[]"},{"name":"amount","type":"uint256","internalType":"uint256"},{"name":"user","type":"address","internalType":"address"},{"name":"to","type":"address","internalType":"address"},{"name":"reward","type":"address","internalType":"address"}],"outputs":[{"name":"","type":"uint256","internalType":"uint256"}],"stateMutability":"nonpayable"},{"type":"function","name":"claimRewardsToSelf","inputs":[{"name":"assets","type":"address[]","internalType":"address[]"},{"name":"amount","type":"uint256","internalType":"uint256"},{"name":"reward","type":"address","internalType":"address"}],"outputs":[{"name":"","type":"uint256","internalType":"uint256"}],"stateMutability":"nonpayable"},{"type":"function","name":"configureAssets","inputs":[{"name":"config","type":"tuple[]","internalType":"struct RewardsDataTypes.RewardsConfigInput[]","components":[{"name":"emissionPerSecond","type":"uint88","internalType":"uint88"},{"name":"totalSupply","type":"uint256","internalType":"uint256"},{"name":"distributionEnd","type":"uint32","internalType":"uint32"},{"name":"asset","type":"address","internalType":"address"},{"name":"reward","type":"address","internalType":"address"},{"name":"transferStrategy","type":"address","internalType":"contract ITransferStrategyBase"},{"name":"rewardOracle","type":"address","internalType":"contract IEACAggregatorProxy"}]}],"outputs":[],"stateMutability":"nonpayable"},{"type":"function","name":"getAllUserRewards","inputs":[{"name":"assets","type":"address[]","internalType":"address[]"},{"name":"user","type":"address","internalType":"address"}],"outputs":[{"name":"rewardsList","type":"address[]","internalType":"address[]"},{"name":"unclaimedAmounts","type":"uint256[]","internalType":"uint256[]"}],"stateMutability":"view"},{"type":"function","name":"getAssetDecimals","inputs":[{"name":"asset","type":"address","internalType":"address"}],"outputs":[{"name":"","type":"uint8","internalType":"uint8"}],"stateMutability":"view"},{"type":"function","name":"getAssetIndex","inputs":[{"name":"asset","type":"address","internalType":"address"},{"name":"reward","type":"address","internalType":"address"}],"outputs":[{"name":"","type":"uint256","internalType":"uint256"},{"name":"","type":"uint256","internalType":"uint256"}],"stateMutability":"view"},{"type":"function","name":"getClaimer","inputs":[{"name":"user","type":"address","internalType":"address"}],"outputs":[{"name":"","type":"address","internalType":"address"}],"stateMutability":"view"},{"type":"function","name":"getDistributionEnd","inputs":[{"name":"asset","type":"address","internalType":"address"},{"name":"reward","type":"address","internalType":"address"}],"outputs":[{"name":"","type":"uint256","internalType":"uint256"}],"stateMutability":"view"},{"type":"function","name":"getEmissionManager","inputs":[],"outputs":[{"name":"","type":"address","internalType":"address"}],"stateMutability":"view"},{"type":"function","name":"getRewardOracle","inputs":[{"name":"reward","type":"address","internalType":"address"}],"outputs":[{"name":"","type":"address","internalType":"address"}],"stateMutability":"view"},{"type":"function","name":"getRewardsByAsset","inputs":[{"name":"asset","type":"address","internalType":"address"}],"outputs":[{"name":"","type":"address[]","internalType":"address[]"}],"stateMutability":"view"},{"type":"function","name":"getRewardsData","inputs":[{"name":"asset","type":"address","internalType":"address"},{"name":"reward","type":"address","internalType":"address"}],"outputs":[{"name":"","type":"uint256","internalType":"uint256"},{"name":"","type":"uint256","internalType":"uint256"},{"name":"","type":"uint256","internalType":"uint256"},{"name":"","type":"uint256","internalType":"uint256"}],"stateMutability":"view"},{"type":"function","name":"getRewardsList","inputs":[],"outputs":[{"name":"","type":"address[]","internalType":"address[]"}],"stateMutability":"view"},{"type":"function","name":"getTransferStrategy","inputs":[{"name":"reward","type":"address","internalType":"address"}],"outputs":[{"name":"","type":"address","internalType":"address"}],"stateMutability":"view"},{"type":"function","name":"getUserAccruedRewards","inputs":[{"name":"user","type":"address","internalType":"address"},{"name":"reward","type":"address","internalType":"address"}],"outputs":[{"name":"","type":"uint256","internalType":"uint256"}],"stateMutability":"view"},{"type":"function","name":"getUserAssetIndex","inputs":[{"name":"user","type":"address","internalType":"address"},{"name":"asset","type":"address","internalType":"address"},{"name":"reward","type":"address","internalType":"address"}],"outputs":[{"name":"","type":"uint256","internalType":"uint256"}],"stateMutability":"view"},{"type":"function","name":"getUserRewards","inputs":[{"name":"assets","type":"address[]","internalType":"address[]"},{"name":"user","type":"address","internalType":"address"},{"name":"reward","type":"address","internalType":"address"}],"outputs":[{"name":"","type":"uint256","internalType":"uint256"}],"stateMutability":"view"},{"type":"function","name":"handleAction","inputs":[{"name":"user","type":"address","internalType":"address"},{"name":"totalSupply","type":"uint256","internalType":"uint256"},{"name":"userBalance","type":"uint256","internalType":"uint256"}],"outputs":[],"stateMutability":"nonpayable"},{"type":"function","name":"initialize","inputs":[{"name":"","type":"address","internalType":"address"}],"outputs":[],"stateMutability":"nonpayable"},{"type":"function","name":"setClaimer","inputs":[{"name":"user","type":"address","internalType":"address"},{"name":"caller","type":"address","internalType":"address"}],"outputs":[],"stateMutability":"nonpayable"},{"type":"function","name":"setDistributionEnd","inputs":[{"name":"asset","type":"address","internalType":"address"},{"name":"reward","type":"address","internalType":"address"},{"name":"newDistributionEnd","type":"uint32","internalType":"uint32"}],"outputs":[],"stateMutability":"nonpayable"},{"type":"function","name":"setEmissionPerSecond","inputs":[{"name":"asset","type":"address","internalType":"address"},{"name":"rewards","type":"address[]","internalType":"address[]"},{"name":"newEmissionsPerSecond","type":"uint88[]","internalType":"uint88[]"}],"outputs":[],"stateMutability":"nonpayable"},{"type":"function","name":"setRewardOracle","inputs":[{"name":"reward","type":"address","internalType":"address"},{"name":"rewardOracle","type":"address","internalType":"contract IEACAggregatorProxy"}],"outputs":[],"stateMutability":"nonpayable"},{"type":"function","name":"setTransferStrategy","inputs":[{"name":"reward","type":"address","internalType":"address"},{"name":"transferStrategy","type":"address","internalType":"contract ITransferStrategyBase"}],"outputs":[],"stateMutability":"nonpayable"},{"type":"event","name":"Accrued","inputs":[{"name":"asset","type":"address","indexed":true,"internalType":"address"},{"name":"reward","type":"address","indexed":true,"internalType":"address"},{"name":"user","type":"address","indexed":true,"internalType":"address"},{"name":"assetIndex","type":"uint256","indexed":false,"internalType":"uint256"},{"name":"userIndex","type":"uint256","indexed":false,"internalType":"uint256"},{"name":"rewardsAccrued","type":"uint256","indexed":false,"internalType":"uint256"}],"anonymous":false},{"type":"event","name":"AssetConfigUpdated","inputs":[{"name":"asset","type":"address","indexed":true,"internalType":"address"},{"name":"reward","type":"address","indexed":true,"internalType":"address"},{"name":"oldEmission","type":"uint256","indexed":false,"internalType":"uint256"},{"name":"newEmission","type":"uint256","indexed":false,"internalType":"uint256"},{"name":"oldDistributionEnd","type":"uint256","indexed":false,"internalType":"uint256"},{"name":"newDistributionEnd","type":"uint256","indexed":false,"internalType":"uint256"},{"name":"assetIndex","type":"uint256","indexed":false,"internalType":"uint256"}],"anonymous":false},{"type":"event","name":"ClaimerSet","inputs":[{"name":"user","type":"address","indexed":true,"internalType":"address"},{"name":"claimer","type":"address","indexed":true,"internalType":"address"}],"anonymous":false},{"type":"event","name":"RewardOracleUpdated","inputs":[{"name":"reward","type":"address","indexed":true,"internalType":"address"},{"name":"rewardOracle","type":"address","indexed":true,"internalType":"address"}],"anonymous":false},{"type":"event","name":"RewardsClaimed","inputs":[{"name":"user","type":"address","indexed":true,"internalType":"address"},{"name":"reward","type":"address","indexed":true,"internalType":"address"},{"name":"to","type":"address","indexed":true,"internalType":"address"},{"name":"claimer","type":"address","indexed":false,"internalType":"address"},{"name":"amount","type":"uint256","indexed":false,"internalType":"uint256"}],"anonymous":false},{"type":"event","name":"TransferStrategyInstalled","inputs":[{"name":"reward","type":"address","indexed":true,"internalType":"address"},{"name":"transferStrategy","type":"address","indexed":true,"internalType":"address"}],"anonymous":false}],"bytecode":{"object":"0x60a06040525f600555348015610013575f5ffd5b506040516167a33803806167a3833981810160405281019061003591906100cf565b808073ffffffffffffffffffffffffffffffffffffffff1660808173ffffffffffffffffffffffffffffffffffffffff168152505050506100fa565b5f5ffd5b5f73ffffffffffffffffffffffffffffffffffffffff82169050919050565b5f61009e82610075565b9050919050565b6100ae81610094565b81146100b8575f5ffd5b50565b5f815190506100c9816100a5565b92915050565b5f602082840312156100e4576100e3610071565b5b5f6100f1848285016100bb565b91505092915050565b6080516166606101435f395f8181610e44015281816115c6015281816115ec01528181611d5a015281816121460152818161216f0152818161220b015261237201526166605ff3fe608060405234801561000f575f5ffd5b50600436106101d8575f3560e01c806392074b0811610102578063bf90f63a116100a0578063dde43cba1161006f578063dde43cba1461062a578063e15ac62314610648578063f5cf673b14610664578063f996868b14610680576101d8565b8063bf90f63a146105a3578063c4d66de8146105d4578063c5a7b538146105f0578063cbcbb5071461060c576101d8565b80639ff55db9116100dc5780639ff55db9146104f3578063b022418c14610524578063b45ac1a914610554578063bb492bf514610572576101d8565b806392074b0814610489578063955c2ad7146104a75780639efd6f72146104c3576101d8565b80635453ba101161017a57806370674ab91161014957806370674ab9146103c557806374d945ec146103f55780637eff4ba814610425578063886fe70b14610458576101d8565b80635453ba101461031957806357b89883146103355780635f130b24146103655780636657732f14610395576101d8565b806331873e2e116101b657806331873e2e1461026c57806333028b99146102885780634c0369c3146102b8578063533f542a146102e9576101d8565b80631b839c77146101dc578063236300dc1461020c5780632a17bf601461023c575b5f5ffd5b6101f660048036038101906101f19190614cd8565b61069c565b6040516102039190614d2e565b60405180910390f35b61022660048036038101906102219190614dd2565b610738565b6040516102339190614d2e565b60405180910390f35b61025660048036038101906102519190614e56565b6107c1565b6040516102639190614e90565b60405180910390f35b61028660048036038101906102819190614ea9565b610826565b005b6102a2600480360381019061029d9190614ef9565b610837565b6040516102af9190614d2e565b60405180910390f35b6102d260048036038101906102cd9190614f8f565b6109fd565b6040516102e092919061515a565b60405180910390f35b61030360048036038101906102fe919061518f565b610d56565b6040516103109190614d2e565b60405180910390f35b610333600480360381019061032e919061521a565b610e42565b005b61034f600480360381019061034a9190615258565b610ede565b60405161035c9190614d2e565b60405180910390f35b61037f600480360381019061037a9190614e56565b610ef8565b60405161038c9190614e90565b60405180910390f35b6103af60048036038101906103aa9190614e56565b610f5d565b6040516103bc91906152c9565b60405180910390f35b6103df60048036038101906103da91906152e9565b611157565b6040516103ec9190614d2e565b60405180910390f35b61040f600480360381019061040a9190614e56565b611177565b60405161041c9190614e90565b60405180910390f35b61043f600480360381019061043a9190614cd8565b6111dc565b60405161044f949392919061535a565b60405180910390f35b610472600480360381019061046d9190614cd8565b611468565b60405161048092919061539d565b60405180910390f35b6104916115c3565b60405161049e9190614e90565b60405180910390f35b6104c160048036038101906104bc9190615675565b6115ea565b005b6104dd60048036038101906104d89190614e56565b6117da565b6040516104ea91906156d7565b60405180910390f35b61050d600480360381019061050891906152e9565b611830565b60405161051b92919061515a565b60405180910390f35b61053e60048036038101906105399190614cd8565b6119f7565b60405161054b9190614d2e565b60405180910390f35b61055c611b54565b60405161056991906152c9565b60405180910390f35b61058c60048036038101906105879190614f8f565b611bdf565b60405161059a92919061515a565b60405180910390f35b6105bd60048036038101906105b891906156f0565b611c69565b6040516105cb92919061515a565b60405180910390f35b6105ee60048036038101906105e99190614e56565b611c84565b005b61060a6004803603810190610605919061573b565b611d58565b005b610614612144565b6040516106219190614e90565b60405180910390f35b610632612168565b60405161063f9190614d2e565b60405180910390f35b610662600480360381019061065d919061578b565b61216d565b005b61067e60048036038101906106799190614cd8565b612209565b005b61069a6004803603810190610695919061581e565b612370565b005b5f60015f8473ffffffffffffffffffffffffffffffffffffffff1673ffffffffffffffffffffffffffffffffffffffff1681526020019081526020015f205f015f8373ffffffffffffffffffffffffffffffffffffffff1673ffffffffffffffffffffffffffffffffffffffff1681526020019081526020015f205f01601c9054906101000a900463ffffffff1663ffffffff16905092915050565b5f5f73ffffffffffffffffffffffffffffffffffffffff168373ffffffffffffffffffffffffffffffffffffffff16036107a7576040517f08c379a000000000000000000000000000000000000000000000000000000000815260040161079e90615909565b60405180910390fd5b6107b6868686333388886127be565b905095945050505050565b5f603b5f8373ffffffffffffffffffffffffffffffffffffffff1673ffffffffffffffffffffffffffffffffffffffff1681526020019081526020015f205f9054906101000a900473ffffffffffffffffffffffffffffffffffffffff169050919050565b61083233848385612be6565b505050565b5f33848173ffffffffffffffffffffffffffffffffffffffff1660395f8373ffffffffffffffffffffffffffffffffffffffff1673ffffffffffffffffffffffffffffffffffffffff1681526020019081526020015f205f9054906101000a900473ffffffffffffffffffffffffffffffffffffffff1673ffffffffffffffffffffffffffffffffffffffff1614610904576040517f08c379a00000000000000000000000000000000000000000000000000000000081526004016108fb90615971565b60405180910390fd5b5f73ffffffffffffffffffffffffffffffffffffffff168673ffffffffffffffffffffffffffffffffffffffff1603610972576040517f08c379a0000000000000000000000000000000000000000000000000000000008152600401610969906159d9565b60405180910390fd5b5f73ffffffffffffffffffffffffffffffffffffffff168573ffffffffffffffffffffffffffffffffffffffff16036109e0576040517f08c379a00000000000000000000000000000000000000000000000000000000081526004016109d790615909565b60405180910390fd5b6109ef898989338a8a8a6127be565b925050509695505050505050565b6060805f610a0c868686612ebe565b905060038054905067ffffffffffffffff811115610a2d57610a2c6153d4565b5b604051908082528060200260200182016040528015610a5b5781602001602082028036833780820191505090505b509250825167ffffffffffffffff811115610a7957610a786153d4565b5b604051908082528060200260200182016040528015610aa75781602001602082028036833780820191505090505b5091505f5f90505b8151811015610d4c575f5f90505b8451811015610d3e5760038181548110610ada57610ad96159f7565b5b905f5260205f20015f9054906101000a900473ffffffffffffffffffffffffffffffffffffffff16858281518110610b1557610b146159f7565b5b602002602001019073ffffffffffffffffffffffffffffffffffffffff16908173ffffffffffffffffffffffffffffffffffffffff168152505060015f848481518110610b6557610b646159f7565b5b60200260200101515f015173ffffffffffffffffffffffffffffffffffffffff1673ffffffffffffffffffffffffffffffffffffffff1681526020019081526020015f205f015f868381518110610bbf57610bbe6159f7565b5b602002602001015173ffffffffffffffffffffffffffffffffffffffff1673ffffffffffffffffffffffffffffffffffffffff1681526020019081526020015f206001015f8773ffffffffffffffffffffffffffffffffffffffff1673ffffffffffffffffffffffffffffffffffffffff1681526020019081526020015f205f01600d9054906101000a90046fffffffffffffffffffffffffffffffff166fffffffffffffffffffffffffffffffff16848281518110610c8257610c816159f7565b5b60200260200101818151610c969190615a51565b915081815250505f838381518110610cb157610cb06159f7565b5b6020026020010151602001510315610d3157610d0286868381518110610cda57610cd96159f7565b5b6020026020010151858581518110610cf557610cf46159f7565b5b602002602001015161309a565b848281518110610d1557610d146159f7565b5b60200260200101818151610d299190615a51565b915081815250505b8080600101915050610abd565b508080600101915050610aaf565b5050935093915050565b5f60015f8473ffffffffffffffffffffffffffffffffffffffff1673ffffffffffffffffffffffffffffffffffffffff1681526020019081526020015f205f015f8373ffffffffffffffffffffffffffffffffffffffff1673ffffffffffffffffffffffffffffffffffffffff1681526020019081526020015f206001015f8573ffffffffffffffffffffffffffffffffffffffff1673ffffffffffffffffffffffffffffffffffffffff1681526020019081526020015f205f015f9054906101000a90046cffffffffffffffffffffffffff166cffffffffffffffffffffffffff1690509392505050565b7f000000000000000000000000000000000000000000000000000000000000000073ffffffffffffffffffffffffffffffffffffffff163373ffffffffffffffffffffffffffffffffffffffff1614610ed0576040517f08c379a0000000000000000000000000000000000000000000000000000000008152600401610ec790615ace565b60405180910390fd5b610eda8282613212565b5050565b5f610eee858585333333886127be565b9050949350505050565b5f603a5f8373ffffffffffffffffffffffffffffffffffffffff1673ffffffffffffffffffffffffffffffffffffffff1681526020019081526020015f205f9054906101000a900473ffffffffffffffffffffffffffffffffffffffff169050919050565b60605f60015f8473ffffffffffffffffffffffffffffffffffffffff1673ffffffffffffffffffffffffffffffffffffffff1681526020019081526020015f206002015f9054906101000a90046fffffffffffffffffffffffffffffffff1690505f816fffffffffffffffffffffffffffffffff1667ffffffffffffffff811115610feb57610fea6153d4565b5b6040519080825280602002602001820160405280156110195781602001602082028036833780820191505090505b5090505f5f90505b826fffffffffffffffffffffffffffffffff16816fffffffffffffffffffffffffffffffff16101561114c5760015f8673ffffffffffffffffffffffffffffffffffffffff1673ffffffffffffffffffffffffffffffffffffffff1681526020019081526020015f206001015f826fffffffffffffffffffffffffffffffff166fffffffffffffffffffffffffffffffff1681526020019081526020015f205f9054906101000a900473ffffffffffffffffffffffffffffffffffffffff1682826fffffffffffffffffffffffffffffffff1681518110611105576111046159f7565b5b602002602001019073ffffffffffffffffffffffffffffffffffffffff16908173ffffffffffffffffffffffffffffffffffffffff16815250508080600101915050611021565b508092505050919050565b5f61116d8383611168888888612ebe565b613399565b9050949350505050565b5f60395f8373ffffffffffffffffffffffffffffffffffffffff1673ffffffffffffffffffffffffffffffffffffffff1681526020019081526020015f205f9054906101000a900473ffffffffffffffffffffffffffffffffffffffff169050919050565b5f5f5f5f60015f8773ffffffffffffffffffffffffffffffffffffffff1673ffffffffffffffffffffffffffffffffffffffff1681526020019081526020015f205f015f8673ffffffffffffffffffffffffffffffffffffffff1673ffffffffffffffffffffffffffffffffffffffff1681526020019081526020015f205f015f9054906101000a90046cffffffffffffffffffffffffff1660015f8873ffffffffffffffffffffffffffffffffffffffff1673ffffffffffffffffffffffffffffffffffffffff1681526020019081526020015f205f015f8773ffffffffffffffffffffffffffffffffffffffff1673ffffffffffffffffffffffffffffffffffffffff1681526020019081526020015f205f01600d9054906101000a90046affffffffffffffffffffff1660015f8973ffffffffffffffffffffffffffffffffffffffff1673ffffffffffffffffffffffffffffffffffffffff1681526020019081526020015f205f015f8873ffffffffffffffffffffffffffffffffffffffff1673ffffffffffffffffffffffffffffffffffffffff1681526020019081526020015f205f0160189054906101000a900463ffffffff1660015f8a73ffffffffffffffffffffffffffffffffffffffff1673ffffffffffffffffffffffffffffffffffffffff1681526020019081526020015f205f015f8973ffffffffffffffffffffffffffffffffffffffff1673ffffffffffffffffffffffffffffffffffffffff1681526020019081526020015f205f01601c9054906101000a900463ffffffff16836cffffffffffffffffffffffffff169350826affffffffffffffffffffff1692508163ffffffff1691508063ffffffff169050935093509350935092959194509250565b5f5f5f60015f8673ffffffffffffffffffffffffffffffffffffffff1673ffffffffffffffffffffffffffffffffffffffff1681526020019081526020015f205f015f8573ffffffffffffffffffffffffffffffffffffffff1673ffffffffffffffffffffffffffffffffffffffff1681526020019081526020015f2090506115b7818673ffffffffffffffffffffffffffffffffffffffff1663b1bf962d6040518163ffffffff1660e01b8152600401602060405180830381865afa158015611534573d5f5f3e3d5ffd5b505050506040513d601f19601f820116820180604052508101906115589190615b00565b60015f8973ffffffffffffffffffffffffffffffffffffffff1673ffffffffffffffffffffffffffffffffffffffff1681526020019081526020015f2060020160109054906101000a900460ff16600a6115b29190615c5a565b61363d565b92509250509250929050565b5f7f0000000000000000000000000000000000000000000000000000000000000000905090565b7f000000000000000000000000000000000000000000000000000000000000000073ffffffffffffffffffffffffffffffffffffffff163373ffffffffffffffffffffffffffffffffffffffff1614611678576040517f08c379a000000000000000000000000000000000000000000000000000000000815260040161166f90615ace565b60405180910390fd5b5f5f90505b81518110156117cd57818181518110611699576116986159f7565b5b60200260200101516060015173ffffffffffffffffffffffffffffffffffffffff1663b1bf962d6040518163ffffffff1660e01b8152600401602060405180830381865afa1580156116ed573d5f5f3e3d5ffd5b505050506040513d601f19601f820116820180604052508101906117119190615b00565b828281518110611724576117236159f7565b5b6020026020010151602001818152505061177a82828151811061174a576117496159f7565b5b602002602001015160800151838381518110611769576117686159f7565b5b602002602001015160a00151613769565b6117c08282815181106117905761178f6159f7565b5b6020026020010151608001518383815181106117af576117ae6159f7565b5b602002602001015160c00151613212565b808060010191505061167d565b506117d7816138ff565b50565b5f60015f8373ffffffffffffffffffffffffffffffffffffffff1673ffffffffffffffffffffffffffffffffffffffff1681526020019081526020015f2060020160109054906101000a900460ff169050919050565b60608033848173ffffffffffffffffffffffffffffffffffffffff1660395f8373ffffffffffffffffffffffffffffffffffffffff1673ffffffffffffffffffffffffffffffffffffffff1681526020019081526020015f205f9054906101000a900473ffffffffffffffffffffffffffffffffffffffff1673ffffffffffffffffffffffffffffffffffffffff16146118ff576040517f08c379a00000000000000000000000000000000000000000000000000000000081526004016118f690615971565b60405180910390fd5b5f73ffffffffffffffffffffffffffffffffffffffff168673ffffffffffffffffffffffffffffffffffffffff160361196d576040517f08c379a0000000000000000000000000000000000000000000000000000000008152600401611964906159d9565b60405180910390fd5b5f73ffffffffffffffffffffffffffffffffffffffff168573ffffffffffffffffffffffffffffffffffffffff16036119db576040517f08c379a00000000000000000000000000000000000000000000000000000000081526004016119d290615909565b60405180910390fd5b6119e88888338989614160565b93509350505094509492505050565b5f5f5f5f90505b600480549050811015611b495760015f60048381548110611a2257611a216159f7565b5b905f5260205f20015f9054906101000a900473ffffffffffffffffffffffffffffffffffffffff1673ffffffffffffffffffffffffffffffffffffffff1673ffffffffffffffffffffffffffffffffffffffff1681526020019081526020015f205f015f8573ffffffffffffffffffffffffffffffffffffffff1673ffffffffffffffffffffffffffffffffffffffff1681526020019081526020015f206001015f8673ffffffffffffffffffffffffffffffffffffffff1673ffffffffffffffffffffffffffffffffffffffff1681526020019081526020015f205f01600d9054906101000a90046fffffffffffffffffffffffffffffffff166fffffffffffffffffffffffffffffffff1682611b3a9190615a51565b915080806001019150506119fe565b508091505092915050565b60606003805480602002602001604051908101604052809291908181526020018280548015611bd557602002820191905f5260205f20905b815f9054906101000a900473ffffffffffffffffffffffffffffffffffffffff1673ffffffffffffffffffffffffffffffffffffffff1681526020019060010190808311611b8c575b5050505050905090565b6060805f73ffffffffffffffffffffffffffffffffffffffff168373ffffffffffffffffffffffffffffffffffffffff1603611c50576040517f08c379a0000000000000000000000000000000000000000000000000000000008152600401611c4790615909565b60405180910390fd5b611c5d8585333387614160565b91509150935093915050565b606080611c798484333333614160565b915091509250929050565b5f611c8d6146b2565b905060065f9054906101000a900460ff1680611cad5750611cac6146ba565b5b80611cb9575060055481115b611cf8576040517f08c379a0000000000000000000000000000000000000000000000000000000008152600401611cef90615d14565b60405180910390fd5b5f60065f9054906101000a900460ff161590508015611d3357600160065f6101000a81548160ff021916908315150217905550816005819055505b8015611d53575f60065f6101000a81548160ff0219169083151502179055505b505050565b7f000000000000000000000000000000000000000000000000000000000000000073ffffffffffffffffffffffffffffffffffffffff163373ffffffffffffffffffffffffffffffffffffffff1614611de6576040517f08c379a0000000000000000000000000000000000000000000000000000000008152600401611ddd90615ace565b60405180910390fd5b5f60015f8573ffffffffffffffffffffffffffffffffffffffff1673ffffffffffffffffffffffffffffffffffffffff1681526020019081526020015f205f015f8473ffffffffffffffffffffffffffffffffffffffff1673ffffffffffffffffffffffffffffffffffffffff1681526020019081526020015f205f01601c9054906101000a900463ffffffff1663ffffffff1690508160015f8673ffffffffffffffffffffffffffffffffffffffff1673ffffffffffffffffffffffffffffffffffffffff1681526020019081526020015f205f015f8573ffffffffffffffffffffffffffffffffffffffff1673ffffffffffffffffffffffffffffffffffffffff1681526020019081526020015f205f01601c6101000a81548163ffffffff021916908363ffffffff1602179055508273ffffffffffffffffffffffffffffffffffffffff168473ffffffffffffffffffffffffffffffffffffffff167fac1777479f07f3e7c34da8402139d54027a6a260caaae168bdee825ca5580dc560015f8873ffffffffffffffffffffffffffffffffffffffff1673ffffffffffffffffffffffffffffffffffffffff1681526020019081526020015f205f015f8773ffffffffffffffffffffffffffffffffffffffff1673ffffffffffffffffffffffffffffffffffffffff1681526020019081526020015f205f01600d9054906101000a90046affffffffffffffffffffff1660015f8973ffffffffffffffffffffffffffffffffffffffff1673ffffffffffffffffffffffffffffffffffffffff1681526020019081526020015f205f015f8873ffffffffffffffffffffffffffffffffffffffff1673ffffffffffffffffffffffffffffffffffffffff1681526020019081526020015f205f01600d9054906101000a90046affffffffffffffffffffff16858760015f8c73ffffffffffffffffffffffffffffffffffffffff1673ffffffffffffffffffffffffffffffffffffffff1681526020019081526020015f205f015f8b73ffffffffffffffffffffffffffffffffffffffff1673ffffffffffffffffffffffffffffffffffffffff1681526020019081526020015f205f015f9054906101000a90046cffffffffffffffffffffffffff16604051612136959493929190615de3565b60405180910390a350505050565b7f000000000000000000000000000000000000000000000000000000000000000081565b600181565b7f000000000000000000000000000000000000000000000000000000000000000073ffffffffffffffffffffffffffffffffffffffff163373ffffffffffffffffffffffffffffffffffffffff16146121fb576040517f08c379a00000000000000000000000000000000000000000000000000000000081526004016121f290615ace565b60405180910390fd5b6122058282613769565b5050565b7f000000000000000000000000000000000000000000000000000000000000000073ffffffffffffffffffffffffffffffffffffffff163373ffffffffffffffffffffffffffffffffffffffff1614612297576040517f08c379a000000000000000000000000000000000000000000000000000000000815260040161228e90615ace565b60405180910390fd5b8060395f8473ffffffffffffffffffffffffffffffffffffffff1673ffffffffffffffffffffffffffffffffffffffff1681526020019081526020015f205f6101000a81548173ffffffffffffffffffffffffffffffffffffffff021916908373ffffffffffffffffffffffffffffffffffffffff1602179055508073ffffffffffffffffffffffffffffffffffffffff168273ffffffffffffffffffffffffffffffffffffffff167f4925eafc82d0c4d67889898eeed64b18488ab19811e61620f387026dec126a2860405160405180910390a35050565b7f000000000000000000000000000000000000000000000000000000000000000073ffffffffffffffffffffffffffffffffffffffff163373ffffffffffffffffffffffffffffffffffffffff16146123fe576040517f08c379a00000000000000000000000000000000000000000000000000000000081526004016123f590615ace565b60405180910390fd5b818190508484905014612446576040517f08c379a000000000000000000000000000000000000000000000000000000000815260040161243d90615e7e565b60405180910390fd5b5f5f90505b848490508110156127b6575f60015f8873ffffffffffffffffffffffffffffffffffffffff1673ffffffffffffffffffffffffffffffffffffffff1681526020019081526020015f2090505f60015f8973ffffffffffffffffffffffffffffffffffffffff1673ffffffffffffffffffffffffffffffffffffffff1681526020019081526020015f205f015f8888868181106124ea576124e96159f7565b5b90506020020160208101906124ff9190614e56565b73ffffffffffffffffffffffffffffffffffffffff1673ffffffffffffffffffffffffffffffffffffffff1681526020019081526020015f2090505f8260020160109054906101000a900460ff1660ff1690505f811415801561257b57505f825f0160189054906101000a900463ffffffff1663ffffffff1614155b6125ba576040517f08c379a00000000000000000000000000000000000000000000000000000000081526004016125b190615ee6565b60405180910390fd5b5f61263e838b73ffffffffffffffffffffffffffffffffffffffff1663b1bf962d6040518163ffffffff1660e01b8152600401602060405180830381865afa158015612608573d5f5f3e3d5ffd5b505050506040513d601f19601f8201168201806040525081019061262c9190615b00565b84600a6126399190615f04565b6146c9565b5090505f835f01600d9054906101000a90046affffffffffffffffffffff166affffffffffffffffffffff16905087878781811061267f5761267e6159f7565b5b90506020020160208101906126949190615f4e565b845f01600d6101000a8154816affffffffffffffffffffff02191690836affffffffffffffffffffff1602179055508989878181106126d6576126d56159f7565b5b90506020020160208101906126eb9190614e56565b73ffffffffffffffffffffffffffffffffffffffff168b73ffffffffffffffffffffffffffffffffffffffff167fac1777479f07f3e7c34da8402139d54027a6a260caaae168bdee825ca5580dc5838b8b8b81811061274d5761274c6159f7565b5b90506020020160208101906127629190615f4e565b885f01601c9054906101000a900463ffffffff16895f01601c9054906101000a900463ffffffff168860405161279c959493929190615f79565b60405180910390a35050505050808060010191505061244b565b505050505050565b5f5f86036127ce575f9050612bdb565b5f6127e3856127de8b8b89612ebe565b6147d8565b5f5f90505b89899050811015612b3c575f8a8a83818110612807576128066159f7565b5b905060200201602081019061281c9190614e56565b905060015f8273ffffffffffffffffffffffffffffffffffffffff1673ffffffffffffffffffffffffffffffffffffffff1681526020019081526020015f205f015f8673ffffffffffffffffffffffffffffffffffffffff1673ffffffffffffffffffffffffffffffffffffffff1681526020019081526020015f206001015f8873ffffffffffffffffffffffffffffffffffffffff1673ffffffffffffffffffffffffffffffffffffffff1681526020019081526020015f205f01600d9054906101000a90046fffffffffffffffffffffffffffffffff166fffffffffffffffffffffffffffffffff16836129129190615a51565b9250888311612a11575f60015f8373ffffffffffffffffffffffffffffffffffffffff1673ffffffffffffffffffffffffffffffffffffffff1681526020019081526020015f205f015f8773ffffffffffffffffffffffffffffffffffffffff1673ffffffffffffffffffffffffffffffffffffffff1681526020019081526020015f206001015f8973ffffffffffffffffffffffffffffffffffffffff1673ffffffffffffffffffffffffffffffffffffffff1681526020019081526020015f205f01600d6101000a8154816fffffffffffffffffffffffffffffffff02191690836fffffffffffffffffffffffffffffffff160217905550612b2e565b5f8984612a1e9190615fca565b90508084612a2c9190615fca565b9350612a378161485d565b60015f8473ffffffffffffffffffffffffffffffffffffffff1673ffffffffffffffffffffffffffffffffffffffff1681526020019081526020015f205f015f8873ffffffffffffffffffffffffffffffffffffffff1673ffffffffffffffffffffffffffffffffffffffff1681526020019081526020015f206001015f8a73ffffffffffffffffffffffffffffffffffffffff1673ffffffffffffffffffffffffffffffffffffffff1681526020019081526020015f205f01600d6101000a8154816fffffffffffffffffffffffffffffffff02191690836fffffffffffffffffffffffffffffffff1602179055505050612b3c565b5080806001019150506127e8565b505f8103612b4d575f915050612bdb565b612b588484836148bb565b8373ffffffffffffffffffffffffffffffffffffffff168373ffffffffffffffffffffffffffffffffffffffff168673ffffffffffffffffffffffffffffffffffffffff167fc052130bc4ef84580db505783484b067ea8b71b3bca78a7e12db7aea8658f0048985604051612bce929190615ffd565b60405180910390a4809150505b979650505050505050565b5f5f60015f8773ffffffffffffffffffffffffffffffffffffffff1673ffffffffffffffffffffffffffffffffffffffff1681526020019081526020015f206002015f9054906101000a90046fffffffffffffffffffffffffffffffff166fffffffffffffffffffffffffffffffff16905060015f8773ffffffffffffffffffffffffffffffffffffffff1673ffffffffffffffffffffffffffffffffffffffff1681526020019081526020015f2060020160109054906101000a900460ff1660ff16600a0a91505f8103612cbc575050612eb8565b5f5f90505b81816fffffffffffffffffffffffffffffffff161015612eb4575f60015f8973ffffffffffffffffffffffffffffffffffffffff1673ffffffffffffffffffffffffffffffffffffffff1681526020019081526020015f206001015f836fffffffffffffffffffffffffffffffff166fffffffffffffffffffffffffffffffff1681526020019081526020015f205f9054906101000a900473ffffffffffffffffffffffffffffffffffffffff1690505f60015f8a73ffffffffffffffffffffffffffffffffffffffff1673ffffffffffffffffffffffffffffffffffffffff1681526020019081526020015f205f015f8373ffffffffffffffffffffffffffffffffffffffff1673ffffffffffffffffffffffffffffffffffffffff1681526020019081526020015f2090505f5f612dfb8389896146c9565b915091505f5f612e0e858d8d878d6149e9565b915091508280612e1b5750805b15612ea1578b73ffffffffffffffffffffffffffffffffffffffff168673ffffffffffffffffffffffffffffffffffffffff168e73ffffffffffffffffffffffffffffffffffffffff167f3303facd24627943a92e9dc87cfbb34b15c49b726eec3ad3487c16be9ab8efe8878887604051612e9893929190616024565b60405180910390a45b5050505050508080600101915050612cc1565b5050505b50505050565b60608383905067ffffffffffffffff811115612edd57612edc6153d4565b5b604051908082528060200260200182016040528015612f1657816020015b612f03614c39565b815260200190600190039081612efb5790505b5090505f5f90505b8484905081101561309257848482818110612f3c57612f3b6159f7565b5b9050602002016020810190612f519190614e56565b828281518110612f6457612f636159f7565b5b60200260200101515f019073ffffffffffffffffffffffffffffffffffffffff16908173ffffffffffffffffffffffffffffffffffffffff1681525050848482818110612fb457612fb36159f7565b5b9050602002016020810190612fc99190614e56565b73ffffffffffffffffffffffffffffffffffffffff16630afbcdc9846040518263ffffffff1660e01b81526004016130019190614e90565b6040805180830381865afa15801561301b573d5f5f3e3d5ffd5b505050506040513d601f19601f8201168201806040525081019061303f9190616059565b838381518110613052576130516159f7565b5b60200260200101516020018484815181106130705761306f6159f7565b5b6020026020010151604001828152508281525050508080600101915050612f1e565b509392505050565b5f5f60015f845f015173ffffffffffffffffffffffffffffffffffffffff1673ffffffffffffffffffffffffffffffffffffffff1681526020019081526020015f205f015f8573ffffffffffffffffffffffffffffffffffffffff1673ffffffffffffffffffffffffffffffffffffffff1681526020019081526020015f2090505f60015f855f015173ffffffffffffffffffffffffffffffffffffffff1673ffffffffffffffffffffffffffffffffffffffff1681526020019081526020015f2060020160109054906101000a900460ff16600a6131799190615c5a565b90505f61318b8386604001518461363d565b915050613206856020015182856001015f8b73ffffffffffffffffffffffffffffffffffffffff1673ffffffffffffffffffffffffffffffffffffffff1681526020019081526020015f205f015f9054906101000a90046cffffffffffffffffffffffffff166cffffffffffffffffffffffffff1685614baa565b93505050509392505050565b5f8173ffffffffffffffffffffffffffffffffffffffff166350d25bcd6040518163ffffffff1660e01b8152600401602060405180830381865afa15801561325c573d5f5f3e3d5ffd5b505050506040513d601f19601f8201168201806040525081019061328091906160ca565b136132c0576040517f08c379a00000000000000000000000000000000000000000000000000000000081526004016132b79061613f565b60405180910390fd5b80603b5f8473ffffffffffffffffffffffffffffffffffffffff1673ffffffffffffffffffffffffffffffffffffffff1681526020019081526020015f205f6101000a81548173ffffffffffffffffffffffffffffffffffffffff021916908373ffffffffffffffffffffffffffffffffffffffff1602179055508073ffffffffffffffffffffffffffffffffffffffff168273ffffffffffffffffffffffffffffffffffffffff167f1a1cd5483e52e60b9ff7f3b9d1db3bbd9e9d21c6324ad3a8c79dba9b75e62f4d60405160405180910390a35050565b5f5f5f90505b8251811015613635575f8382815181106133bc576133bb6159f7565b5b602002602001015160200151036134e55760015f8483815181106133e3576133e26159f7565b5b60200260200101515f015173ffffffffffffffffffffffffffffffffffffffff1673ffffffffffffffffffffffffffffffffffffffff1681526020019081526020015f205f015f8573ffffffffffffffffffffffffffffffffffffffff1673ffffffffffffffffffffffffffffffffffffffff1681526020019081526020015f206001015f8673ffffffffffffffffffffffffffffffffffffffff1673ffffffffffffffffffffffffffffffffffffffff1681526020019081526020015f205f01600d9054906101000a90046fffffffffffffffffffffffffffffffff166fffffffffffffffffffffffffffffffff16826134de9190615a51565b9150613628565b60015f8483815181106134fb576134fa6159f7565b5b60200260200101515f015173ffffffffffffffffffffffffffffffffffffffff1673ffffffffffffffffffffffffffffffffffffffff1681526020019081526020015f205f015f8573ffffffffffffffffffffffffffffffffffffffff1673ffffffffffffffffffffffffffffffffffffffff1681526020019081526020015f206001015f8673ffffffffffffffffffffffffffffffffffffffff1673ffffffffffffffffffffffffffffffffffffffff1681526020019081526020015f205f01600d9054906101000a90046fffffffffffffffffffffffffffffffff166fffffffffffffffffffffffffffffffff166136108686868581518110613603576136026159f7565b5b602002602001015161309a565b61361a9190615a51565b826136259190615a51565b91505b808060010191505061339f565b509392505050565b5f5f5f855f015f9054906101000a90046cffffffffffffffffffffffffff166cffffffffffffffffffffffffff1690505f865f01601c9054906101000a900463ffffffff1663ffffffff1690505f875f01600d9054906101000a90046affffffffffffffffffffff166affffffffffffffffffffff1690505f885f0160189054906101000a900463ffffffff1663ffffffff1690505f8214806136df57505f88145b806136e957504281145b806136f45750828110155b156137085783849550955050505050613761565b5f8342116137165742613718565b835b90505f82826137279190615fca565b90505f898286613737919061615d565b613741919061615d565b90508a810490508687826137559190615a51565b98509850505050505050505b935093915050565b5f73ffffffffffffffffffffffffffffffffffffffff168173ffffffffffffffffffffffffffffffffffffffff16036137d7576040517f08c379a00000000000000000000000000000000000000000000000000000000081526004016137ce906161e8565b60405180910390fd5b600115156137e482614bd6565b151514613826576040517f08c379a000000000000000000000000000000000000000000000000000000000815260040161381d90616250565b60405180910390fd5b80603a5f8473ffffffffffffffffffffffffffffffffffffffff1673ffffffffffffffffffffffffffffffffffffffff1681526020019081526020015f205f6101000a81548173ffffffffffffffffffffffffffffffffffffffff021916908373ffffffffffffffffffffffffffffffffffffffff1602179055508073ffffffffffffffffffffffffffffffffffffffff168273ffffffffffffffffffffffffffffffffffffffff167f8ca1d928f1d72493a6b78c4f74aabde976bc37ffe2570f2a1ce5a8abd3dde0aa60405160405180910390a35050565b5f5f90505b815181101561415c575f60015f848481518110613924576139236159f7565b5b60200260200101516060015173ffffffffffffffffffffffffffffffffffffffff1673ffffffffffffffffffffffffffffffffffffffff1681526020019081526020015f2060020160109054906101000a900460ff1660ff1603613a01576004828281518110613997576139966159f7565b5b602002602001015160600151908060018154018082558091505060019003905f5260205f20015f9091909190916101000a81548173ffffffffffffffffffffffffffffffffffffffff021916908373ffffffffffffffffffffffffffffffffffffffff1602179055505b5f828281518110613a1557613a146159f7565b5b60200260200101516060015173ffffffffffffffffffffffffffffffffffffffff1663313ce5676040518163ffffffff1660e01b8152600401602060405180830381865afa158015613a69573d5f5f3e3d5ffd5b505050506040513d601f19601f82011682018060405250810190613a8d9190616298565b60015f858581518110613aa357613aa26159f7565b5b60200260200101516060015173ffffffffffffffffffffffffffffffffffffffff1673ffffffffffffffffffffffffffffffffffffffff1681526020019081526020015f2060020160106101000a81548160ff021916908360ff160217905560ff1690505f60015f858581518110613b1e57613b1d6159f7565b5b60200260200101516060015173ffffffffffffffffffffffffffffffffffffffff1673ffffffffffffffffffffffffffffffffffffffff1681526020019081526020015f205f015f858581518110613b7957613b786159f7565b5b60200260200101516080015173ffffffffffffffffffffffffffffffffffffffff1673ffffffffffffffffffffffffffffffffffffffff1681526020019081526020015f2090505f815f0160189054906101000a900463ffffffff1663ffffffff1603613e0757838381518110613bf357613bf26159f7565b5b60200260200101516080015160015f868681518110613c1557613c146159f7565b5b60200260200101516060015173ffffffffffffffffffffffffffffffffffffffff1673ffffffffffffffffffffffffffffffffffffffff1681526020019081526020015f206001015f60015f888881518110613c7457613c736159f7565b5b60200260200101516060015173ffffffffffffffffffffffffffffffffffffffff1673ffffffffffffffffffffffffffffffffffffffff1681526020019081526020015f206002015f9054906101000a90046fffffffffffffffffffffffffffffffff166fffffffffffffffffffffffffffffffff166fffffffffffffffffffffffffffffffff1681526020019081526020015f205f6101000a81548173ffffffffffffffffffffffffffffffffffffffff021916908373ffffffffffffffffffffffffffffffffffffffff16021790555060015f858581518110613d5c57613d5b6159f7565b5b60200260200101516060015173ffffffffffffffffffffffffffffffffffffffff1673ffffffffffffffffffffffffffffffffffffffff1681526020019081526020015f206002015f81819054906101000a90046fffffffffffffffffffffffffffffffff1680929190613dcf906162de565b91906101000a8154816fffffffffffffffffffffffffffffffff02191690836fffffffffffffffffffffffffffffffff160217905550505b5f151560025f868681518110613e2057613e1f6159f7565b5b60200260200101516080015173ffffffffffffffffffffffffffffffffffffffff1673ffffffffffffffffffffffffffffffffffffffff1681526020019081526020015f205f9054906101000a900460ff16151503613f6b57600160025f868681518110613e9157613e906159f7565b5b60200260200101516080015173ffffffffffffffffffffffffffffffffffffffff1673ffffffffffffffffffffffffffffffffffffffff1681526020019081526020015f205f6101000a81548160ff0219169083151502179055506003848481518110613f0157613f006159f7565b5b602002602001015160800151908060018154018082558091505060019003905f5260205f20015f9091909190916101000a81548173ffffffffffffffffffffffffffffffffffffffff021916908373ffffffffffffffffffffffffffffffffffffffff1602179055505b5f613fa182868681518110613f8357613f826159f7565b5b60200260200101516020015185600a613f9c9190615f04565b6146c9565b5090505f825f01600d9054906101000a90046affffffffffffffffffffff1690505f835f01601c9054906101000a900463ffffffff169050868681518110613fec57613feb6159f7565b5b60200260200101515f0151845f01600d6101000a8154816affffffffffffffffffffff02191690836affffffffffffffffffffff160217905550868681518110614039576140386159f7565b5b602002602001015160400151845f01601c6101000a81548163ffffffff021916908363ffffffff160217905550868681518110614079576140786159f7565b5b60200260200101516080015173ffffffffffffffffffffffffffffffffffffffff168787815181106140ae576140ad6159f7565b5b60200260200101516060015173ffffffffffffffffffffffffffffffffffffffff167fac1777479f07f3e7c34da8402139d54027a6a260caaae168bdee825ca5580dc5848a8a81518110614105576141046159f7565b5b60200260200101515f0151858c8c81518110614124576141236159f7565b5b60200260200101516040015189604051614142959493929190616315565b60405180910390a350505050508080600101915050613904565b5050565b6060805f60038054905090508067ffffffffffffffff811115614186576141856153d4565b5b6040519080825280602002602001820160405280156141b45781602001602082028036833780820191505090505b5092508067ffffffffffffffff8111156141d1576141d06153d4565b5b6040519080825280602002602001820160405280156141ff5781602001602082028036833780820191505090505b509150614216856142118a8a89612ebe565b6147d8565b5f5f90505b8888905081101561459a575f89898381811061423a576142396159f7565b5b905060200201602081019061424f9190614e56565b90505f5f90505b8381101561458b575f73ffffffffffffffffffffffffffffffffffffffff16868281518110614288576142876159f7565b5b602002602001015173ffffffffffffffffffffffffffffffffffffffff160361433557600381815481106142bf576142be6159f7565b5b905f5260205f20015f9054906101000a900473ffffffffffffffffffffffffffffffffffffffff168682815181106142fa576142f96159f7565b5b602002602001019073ffffffffffffffffffffffffffffffffffffffff16908173ffffffffffffffffffffffffffffffffffffffff16815250505b5f60015f8473ffffffffffffffffffffffffffffffffffffffff1673ffffffffffffffffffffffffffffffffffffffff1681526020019081526020015f205f015f888481518110614389576143886159f7565b5b602002602001015173ffffffffffffffffffffffffffffffffffffffff1673ffffffffffffffffffffffffffffffffffffffff1681526020019081526020015f206001015f8a73ffffffffffffffffffffffffffffffffffffffff1673ffffffffffffffffffffffffffffffffffffffff1681526020019081526020015f205f01600d9054906101000a90046fffffffffffffffffffffffffffffffff166fffffffffffffffffffffffffffffffff1690505f811461457d5780868381518110614456576144556159f7565b5b6020026020010181815161446a9190615a51565b915081815250505f60015f8573ffffffffffffffffffffffffffffffffffffffff1673ffffffffffffffffffffffffffffffffffffffff1681526020019081526020015f205f015f8985815181106144c5576144c46159f7565b5b602002602001015173ffffffffffffffffffffffffffffffffffffffff1673ffffffffffffffffffffffffffffffffffffffff1681526020019081526020015f206001015f8b73ffffffffffffffffffffffffffffffffffffffff1673ffffffffffffffffffffffffffffffffffffffff1681526020019081526020015f205f01600d6101000a8154816fffffffffffffffffffffffffffffffff02191690836fffffffffffffffffffffffffffffffff1602179055505b508080600101915050614256565b5050808060010191505061421b565b505f5f90505b818110156146a6576145e7858583815181106145bf576145be6159f7565b5b60200260200101518584815181106145da576145d96159f7565b5b60200260200101516148bb565b8473ffffffffffffffffffffffffffffffffffffffff16848281518110614611576146106159f7565b5b602002602001015173ffffffffffffffffffffffffffffffffffffffff168773ffffffffffffffffffffffffffffffffffffffff167fc052130bc4ef84580db505783484b067ea8b71b3bca78a7e12db7aea8658f0048a87868151811061467b5761467a6159f7565b5b6020026020010151604051614691929190615ffd565b60405180910390a480806001019150506145a0565b50509550959350505050565b5f6001905090565b5f5f303b90505f811491505090565b5f5f5f5f6146d887878761363d565b915091505f82821461479c576cffffffffffffffffffffffffff8016821115614736576040517f08c379a000000000000000000000000000000000000000000000000000000000815260040161472d906163b0565b60405180910390fd5b6001905081885f015f6101000a8154816cffffffffffffffffffffffffff02191690836cffffffffffffffffffffffffff16021790555061477642614be7565b885f0160186101000a81548163ffffffff021916908363ffffffff1602179055506147c7565b6147a542614be7565b885f0160186101000a81548163ffffffff021916908363ffffffff1602179055505b818194509450505050935093915050565b5f5f90505b81518110156148585761484b8282815181106147fc576147fb6159f7565b5b60200260200101515f01518484848151811061481b5761481a6159f7565b5b60200260200101516020015185858151811061483a576148396159f7565b5b602002602001015160400151612be6565b80806001019150506147dd565b505050565b5f6fffffffffffffffffffffffffffffffff80168211156148b3576040517f08c379a00000000000000000000000000000000000000000000000000000000081526004016148aa9061643e565b60405180910390fd5b819050919050565b5f603a5f8473ffffffffffffffffffffffffffffffffffffffff1673ffffffffffffffffffffffffffffffffffffffff1681526020019081526020015f205f9054906101000a900473ffffffffffffffffffffffffffffffffffffffff1690505f8173ffffffffffffffffffffffffffffffffffffffff166316beb9828686866040518463ffffffff1660e01b81526004016149599392919061645c565b6020604051808303815f875af1158015614975573d5f5f3e3d5ffd5b505050506040513d601f19601f8201168201806040525081019061499991906164c6565b905060011515811515146149e2576040517f08c379a00000000000000000000000000000000000000000000000000000000081526004016149d99061653b565b60405180910390fd5b5050505050565b5f5f5f876001015f8873ffffffffffffffffffffffffffffffffffffffff1673ffffffffffffffffffffffffffffffffffffffff1681526020019081526020015f205f015f9054906101000a90046cffffffffffffffffffffffffff166cffffffffffffffffffffffffff1690505f5f8683141590508015614b9757868a6001015f8b73ffffffffffffffffffffffffffffffffffffffff1673ffffffffffffffffffffffffffffffffffffffff1681526020019081526020015f205f015f6101000a8154816cffffffffffffffffffffffffff02191690836cffffffffffffffffffffffffff1602179055505f8814614b9657614ae988888589614baa565b9150614af48261485d565b8a6001015f8b73ffffffffffffffffffffffffffffffffffffffff1673ffffffffffffffffffffffffffffffffffffffff1681526020019081526020015f205f01600d8282829054906101000a90046fffffffffffffffffffffffffffffffff16614b5f9190616559565b92506101000a8154816fffffffffffffffffffffffffffffffff02191690836fffffffffffffffffffffffffffffffff1602179055505b5b8181945094505050509550959350505050565b5f5f8385614bb89190615fca565b86614bc3919061615d565b9050828104905080915050949350505050565b5f5f823b90505f8111915050919050565b5f63ffffffff8016821115614c31576040517f08c379a0000000000000000000000000000000000000000000000000000000008152600401614c289061660c565b60405180910390fd5b819050919050565b60405180606001604052805f73ffffffffffffffffffffffffffffffffffffffff1681526020015f81526020015f81525090565b5f604051905090565b5f5ffd5b5f5ffd5b5f73ffffffffffffffffffffffffffffffffffffffff82169050919050565b5f614ca782614c7e565b9050919050565b614cb781614c9d565b8114614cc1575f5ffd5b50565b5f81359050614cd281614cae565b92915050565b5f5f60408385031215614cee57614ced614c76565b5b5f614cfb85828601614cc4565b9250506020614d0c85828601614cc4565b9150509250929050565b5f819050919050565b614d2881614d16565b82525050565b5f602082019050614d415f830184614d1f565b92915050565b5f5ffd5b5f5ffd5b5f5ffd5b5f5f83601f840112614d6857614d67614d47565b5b8235905067ffffffffffffffff811115614d8557614d84614d4b565b5b602083019150836020820283011115614da157614da0614d4f565b5b9250929050565b614db181614d16565b8114614dbb575f5ffd5b50565b5f81359050614dcc81614da8565b92915050565b5f5f5f5f5f60808688031215614deb57614dea614c76565b5b5f86013567ffffffffffffffff811115614e0857614e07614c7a565b5b614e1488828901614d53565b95509550506020614e2788828901614dbe565b9350506040614e3888828901614cc4565b9250506060614e4988828901614cc4565b9150509295509295909350565b5f60208284031215614e6b57614e6a614c76565b5b5f614e7884828501614cc4565b91505092915050565b614e8a81614c9d565b82525050565b5f602082019050614ea35f830184614e81565b92915050565b5f5f5f60608486031215614ec057614ebf614c76565b5b5f614ecd86828701614cc4565b9350506020614ede86828701614dbe565b9250506040614eef86828701614dbe565b9150509250925092565b5f5f5f5f5f5f60a08789031215614f1357614f12614c76565b5b5f87013567ffffffffffffffff811115614f3057614f2f614c7a565b5b614f3c89828a01614d53565b96509650506020614f4f89828a01614dbe565b9450506040614f6089828a01614cc4565b9350506060614f7189828a01614cc4565b9250506080614f8289828a01614cc4565b9150509295509295509295565b5f5f5f60408486031215614fa657614fa5614c76565b5b5f84013567ffffffffffffffff811115614fc357614fc2614c7a565b5b614fcf86828701614d53565b93509350506020614fe286828701614cc4565b9150509250925092565b5f81519050919050565b5f82825260208201905092915050565b5f819050602082019050919050565b61501e81614c9d565b82525050565b5f61502f8383615015565b60208301905092915050565b5f602082019050919050565b5f61505182614fec565b61505b8185614ff6565b935061506683615006565b805f5b8381101561509657815161507d8882615024565b97506150888361503b565b925050600181019050615069565b5085935050505092915050565b5f81519050919050565b5f82825260208201905092915050565b5f819050602082019050919050565b6150d581614d16565b82525050565b5f6150e683836150cc565b60208301905092915050565b5f602082019050919050565b5f615108826150a3565b61511281856150ad565b935061511d836150bd565b805f5b8381101561514d57815161513488826150db565b975061513f836150f2565b925050600181019050615120565b5085935050505092915050565b5f6040820190508181035f8301526151728185615047565b9050818103602083015261518681846150fe565b90509392505050565b5f5f5f606084860312156151a6576151a5614c76565b5b5f6151b386828701614cc4565b93505060206151c486828701614cc4565b92505060406151d586828701614cc4565b9150509250925092565b5f6151e982614c9d565b9050919050565b6151f9816151df565b8114615203575f5ffd5b50565b5f81359050615214816151f0565b92915050565b5f5f604083850312156152305761522f614c76565b5b5f61523d85828601614cc4565b925050602061524e85828601615206565b9150509250929050565b5f5f5f5f606085870312156152705761526f614c76565b5b5f85013567ffffffffffffffff81111561528d5761528c614c7a565b5b61529987828801614d53565b945094505060206152ac87828801614dbe565b92505060406152bd87828801614cc4565b91505092959194509250565b5f6020820190508181035f8301526152e18184615047565b905092915050565b5f5f5f5f6060858703121561530157615300614c76565b5b5f85013567ffffffffffffffff81111561531e5761531d614c7a565b5b61532a87828801614d53565b9450945050602061533d87828801614cc4565b925050604061534e87828801614cc4565b91505092959194509250565b5f60808201905061536d5f830187614d1f565b61537a6020830186614d1f565b6153876040830185614d1f565b6153946060830184614d1f565b95945050505050565b5f6040820190506153b05f830185614d1f565b6153bd6020830184614d1f565b9392505050565b5f601f19601f8301169050919050565b7f4e487b71000000000000000000000000000000000000000000000000000000005f52604160045260245ffd5b61540a826153c4565b810181811067ffffffffffffffff82111715615429576154286153d4565b5b80604052505050565b5f61543b614c6d565b90506154478282615401565b919050565b5f67ffffffffffffffff821115615466576154656153d4565b5b602082029050602081019050919050565b5f5ffd5b5f6affffffffffffffffffffff82169050919050565b61549a8161547b565b81146154a4575f5ffd5b50565b5f813590506154b581615491565b92915050565b5f63ffffffff82169050919050565b6154d3816154bb565b81146154dd575f5ffd5b50565b5f813590506154ee816154ca565b92915050565b5f6154fe82614c9d565b9050919050565b61550e816154f4565b8114615518575f5ffd5b50565b5f8135905061552981615505565b92915050565b5f60e0828403121561554457615543615477565b5b61554e60e0615432565b90505f61555d848285016154a7565b5f83015250602061557084828501614dbe565b6020830152506040615584848285016154e0565b604083015250606061559884828501614cc4565b60608301525060806155ac84828501614cc4565b60808301525060a06155c08482850161551b565b60a08301525060c06155d484828501615206565b60c08301525092915050565b5f6155f26155ed8461544c565b615432565b90508083825260208201905060e0840283018581111561561557615614614d4f565b5b835b8181101561563e578061562a888261552f565b84526020840193505060e081019050615617565b5050509392505050565b5f82601f83011261565c5761565b614d47565b5b813561566c8482602086016155e0565b91505092915050565b5f6020828403121561568a57615689614c76565b5b5f82013567ffffffffffffffff8111156156a7576156a6614c7a565b5b6156b384828501615648565b91505092915050565b5f60ff82169050919050565b6156d1816156bc565b82525050565b5f6020820190506156ea5f8301846156c8565b92915050565b5f5f6020838503121561570657615705614c76565b5b5f83013567ffffffffffffffff81111561572357615722614c7a565b5b61572f85828601614d53565b92509250509250929050565b5f5f5f6060848603121561575257615751614c76565b5b5f61575f86828701614cc4565b935050602061577086828701614cc4565b9250506040615781868287016154e0565b9150509250925092565b5f5f604083850312156157a1576157a0614c76565b5b5f6157ae85828601614cc4565b92505060206157bf8582860161551b565b9150509250929050565b5f5f83601f8401126157de576157dd614d47565b5b8235905067ffffffffffffffff8111156157fb576157fa614d4b565b5b60208301915083602082028301111561581757615816614d4f565b5b9250929050565b5f5f5f5f5f6060868803121561583757615836614c76565b5b5f61584488828901614cc4565b955050602086013567ffffffffffffffff81111561586557615864614c7a565b5b61587188828901614d53565b9450945050604086013567ffffffffffffffff81111561589457615893614c7a565b5b6158a0888289016157c9565b92509250509295509295909350565b5f82825260208201905092915050565b7f494e56414c49445f544f5f4144445245535300000000000000000000000000005f82015250565b5f6158f36012836158af565b91506158fe826158bf565b602082019050919050565b5f6020820190508181035f830152615920816158e7565b9050919050565b7f434c41494d45525f554e415554484f52495a45440000000000000000000000005f82015250565b5f61595b6014836158af565b915061596682615927565b602082019050919050565b5f6020820190508181035f8301526159888161594f565b9050919050565b7f494e56414c49445f555345525f414444524553530000000000000000000000005f82015250565b5f6159c36014836158af565b91506159ce8261598f565b602082019050919050565b5f6020820190508181035f8301526159f0816159b7565b9050919050565b7f4e487b71000000000000000000000000000000000000000000000000000000005f52603260045260245ffd5b7f4e487b71000000000000000000000000000000000000000000000000000000005f52601160045260245ffd5b5f615a5b82614d16565b9150615a6683614d16565b9250828201905080821115615a7e57615a7d615a24565b5b92915050565b7f4f4e4c595f454d495353494f4e5f4d414e4147455200000000000000000000005f82015250565b5f615ab86015836158af565b9150615ac382615a84565b602082019050919050565b5f6020820190508181035f830152615ae581615aac565b9050919050565b5f81519050615afa81614da8565b92915050565b5f60208284031215615b1557615b14614c76565b5b5f615b2284828501615aec565b91505092915050565b5f8160011c9050919050565b5f5f8291508390505b6001851115615b8057808604811115615b5c57615b5b615a24565b5b6001851615615b6b5780820291505b8081029050615b7985615b2b565b9450615b40565b94509492505050565b5f82615b985760019050615c53565b81615ba5575f9050615c53565b8160018114615bbb5760028114615bc557615bf4565b6001915050615c53565b60ff841115615bd757615bd6615a24565b5b8360020a915084821115615bee57615bed615a24565b5b50615c53565b5060208310610133831016604e8410600b8410161715615c295782820a905083811115615c2457615c23615a24565b5b615c53565b615c368484846001615b37565b92509050818404811115615c4d57615c4c615a24565b5b81810290505b9392505050565b5f615c6482614d16565b9150615c6f836156bc565b9250615c9c7fffffffffffffffffffffffffffffffffffffffffffffffffffffffffffffffff8484615b89565b905092915050565b7f436f6e747261637420696e7374616e63652068617320616c72656164792062655f8201527f656e20696e697469616c697a6564000000000000000000000000000000000000602082015250565b5f615cfe602e836158af565b9150615d0982615ca4565b604082019050919050565b5f6020820190508181035f830152615d2b81615cf2565b9050919050565b5f819050919050565b5f615d55615d50615d4b8461547b565b615d32565b614d16565b9050919050565b615d6581615d3b565b82525050565b5f615d85615d80615d7b846154bb565b615d32565b614d16565b9050919050565b615d9581615d6b565b82525050565b5f6cffffffffffffffffffffffffff82169050919050565b5f615dcd615dc8615dc384615d9b565b615d32565b614d16565b9050919050565b615ddd81615db3565b82525050565b5f60a082019050615df65f830188615d5c565b615e036020830187615d5c565b615e106040830186614d1f565b615e1d6060830185615d8c565b615e2a6080830184615dd4565b9695505050505050565b7f494e56414c49445f494e505554000000000000000000000000000000000000005f82015250565b5f615e68600d836158af565b9150615e7382615e34565b602082019050919050565b5f6020820190508181035f830152615e9581615e5c565b9050919050565b7f444953545249425554494f4e5f444f45535f4e4f545f455849535400000000005f82015250565b5f615ed0601b836158af565b9150615edb82615e9c565b602082019050919050565b5f6020820190508181035f830152615efd81615ec4565b9050919050565b5f615f0e82614d16565b9150615f1983614d16565b9250615f467fffffffffffffffffffffffffffffffffffffffffffffffffffffffffffffffff8484615b89565b905092915050565b5f60208284031215615f6357615f62614c76565b5b5f615f70848285016154a7565b91505092915050565b5f60a082019050615f8c5f830188614d1f565b615f996020830187615d5c565b615fa66040830186615d8c565b615fb36060830185615d8c565b615fc06080830184614d1f565b9695505050505050565b5f615fd482614d16565b9150615fdf83614d16565b9250828203905081811115615ff757615ff6615a24565b5b92915050565b5f6040820190506160105f830185614e81565b61601d6020830184614d1f565b9392505050565b5f6060820190506160375f830186614d1f565b6160446020830185614d1f565b6160516040830184614d1f565b949350505050565b5f5f6040838503121561606f5761606e614c76565b5b5f61607c85828601615aec565b925050602061608d85828601615aec565b9150509250929050565b5f819050919050565b6160a981616097565b81146160b3575f5ffd5b50565b5f815190506160c4816160a0565b92915050565b5f602082840312156160df576160de614c76565b5b5f6160ec848285016160b6565b91505092915050565b7f4f5241434c455f4d5553545f52455455524e5f505249434500000000000000005f82015250565b5f6161296018836158af565b9150616134826160f5565b602082019050919050565b5f6020820190508181035f8301526161568161611d565b9050919050565b5f61616782614d16565b915061617283614d16565b925082820261618081614d16565b9150828204841483151761619757616196615a24565b5b5092915050565b7f53545241544547595f43414e5f4e4f545f42455f5a45524f00000000000000005f82015250565b5f6161d26018836158af565b91506161dd8261619e565b602082019050919050565b5f6020820190508181035f8301526161ff816161c6565b9050919050565b7f53545241544547595f4d5553545f42455f434f4e5452414354000000000000005f82015250565b5f61623a6019836158af565b915061624582616206565b602082019050919050565b5f6020820190508181035f8301526162678161622e565b9050919050565b616277816156bc565b8114616281575f5ffd5b50565b5f815190506162928161626e565b92915050565b5f602082840312156162ad576162ac614c76565b5b5f6162ba84828501616284565b91505092915050565b5f6fffffffffffffffffffffffffffffffff82169050919050565b5f6162e8826162c3565b91506fffffffffffffffffffffffffffffffff820361630a57616309615a24565b5b600182019050919050565b5f60a0820190506163285f830188615d5c565b6163356020830187615d5c565b6163426040830186615d8c565b61634f6060830185615d8c565b61635c6080830184614d1f565b9695505050505050565b7f494e4445585f4f564552464c4f570000000000000000000000000000000000005f82015250565b5f61639a600e836158af565b91506163a582616366565b602082019050919050565b5f6020820190508181035f8301526163c78161638e565b9050919050565b7f53616665436173743a2076616c756520646f65736e27742066697420696e20315f8201527f3238206269747300000000000000000000000000000000000000000000000000602082015250565b5f6164286027836158af565b9150616433826163ce565b604082019050919050565b5f6020820190508181035f8301526164558161641c565b9050919050565b5f60608201905061646f5f830186614e81565b61647c6020830185614e81565b6164896040830184614d1f565b949350505050565b5f8115159050919050565b6164a581616491565b81146164af575f5ffd5b50565b5f815190506164c08161649c565b92915050565b5f602082840312156164db576164da614c76565b5b5f6164e8848285016164b2565b91505092915050565b7f5452414e534645525f4552524f520000000000000000000000000000000000005f82015250565b5f616525600e836158af565b9150616530826164f1565b602082019050919050565b5f6020820190508181035f83015261655281616519565b9050919050565b5f616563826162c3565b915061656e836162c3565b925082820190506fffffffffffffffffffffffffffffffff81111561659657616595615a24565b5b92915050565b7f53616665436173743a2076616c756520646f65736e27742066697420696e20335f8201527f3220626974730000000000000000000000000000000000000000000000000000602082015250565b5f6165f66026836158af565b91506166018261659c565b604082019050919050565b5f6020820190508181035f830152616623816165ea565b905091905056fea264697066735822122016e7145f03acc15bebab610195d40986e195fc3c8f707a51e40053d2a3df482264736f6c634300081c0033","linkReferences":{}},"methodIdentifiers":{"EMISSION_MANAGER()":"cbcbb507","REVISION()":"dde43cba","claimAllRewards(address[],address)":"bb492bf5","claimAllRewardsOnBehalf(address[],address,address)":"9ff55db9","claimAllRewardsToSelf(address[])":"bf90f63a","claimRewards(address[],uint256,address,address)":"236300dc","claimRewardsOnBehalf(address[],uint256,address,address,address)":"33028b99","claimRewardsToSelf(address[],uint256,address)":"57b89883","configureAssets((uint88,uint256,uint32,address,address,address,address)[])":"955c2ad7","getAllUserRewards(address[],address)":"4c0369c3","getAssetDecimals(address)":"9efd6f72","getAssetIndex(address,address)":"886fe70b","getClaimer(address)":"74d945ec","getDistributionEnd(address,address)":"1b839c77","getEmissionManager()":"92074b08","getRewardOracle(address)":"2a17bf60","getRewardsByAsset(address)":"6657732f","getRewardsData(address,address)":"7eff4ba8","getRewardsList()":"b45ac1a9","getTransferStrategy(address)":"5f130b24","getUserAccruedRewards(address,address)":"b022418c","getUserAssetIndex(address,address,address)":"533f542a","getUserRewards(address[],address,address)":"70674ab9","handleAction(address,uint256,uint256)":"31873e2e","initialize(address)":"c4d66de8","setClaimer(address,address)":"f5cf673b","setDistributionEnd(address,address,uint32)":"c5a7b538","setEmissionPerSecond(address,address[],uint88[])":"f996868b","setRewardOracle(address,address)":"5453ba10","setTransferStrategy(address,address)":"e15ac623"},"id":31}