{"abi":[{"type":"function","name":"DEBT_CEILING_DECIMALS","inputs":[],"outputs":[{"name":"","type":"uint256","internalType":"uint256"}],"stateMutability":"view"},{"type":"function","name":"MAX_RESERVES_COUNT","inputs":[],"outputs":[{"name":"","type":"uint16","internalType":"uint16"}],"stateMutability":"view"}],"bytecode":{"object":"0x61011261004d600b8282823980515f1a6073146041577f4e487b71000000000000000000000000000000000000000000000000000000005f525f60045260245ffd5b305f52607381538281f3fe7300000000000000000000000000000000000000003014608060405260043610603c575f3560e01c8063280d5de914604057806331b561ba14605a575b5f5ffd5b60466074565b604051605191906094565b60405180910390f35b60606079565b604051606b919060c5565b60405180910390f35b600281565b608081565b5f819050919050565b608e81607e565b82525050565b5f60208201905060a55f8301846087565b92915050565b5f61ffff82169050919050565b60bf8160ab565b82525050565b5f60208201905060d65f83018460b8565b9291505056fea2646970667358221220d395f6746010bd303bcb2c275a98bf3eb2f822cf2deefd7be00962d4b089eb7664736f6c634300081c0033","linkReferences":{}},"methodIdentifiers":{"DEBT_CEILING_DECIMALS()":"280d5de9","MAX_RESERVES_COUNT()":"31b561ba"},"id":90}