{"abi":[{"type":"constructor","inputs":[{"name":"_networkBaseTokenPriceInUsdProxyAggregator","type":"address","internalType":"contract IEACAggregatorProxy"},{"name":"_marketReferenceCurrencyPriceInUsdProxyAggregator","type":"address","internalType":"contract IEACAggregatorProxy"}],"stateMutability":"nonpayable"},{"type":"function","name":"ETH_CURRENCY_UNIT","inputs":[],"outputs":[{"name":"","type":"uint256","internalType":"uint256"}],"stateMutability":"view"},{"type":"function","name":"MKR_ADDRESS","inputs":[],"outputs":[{"name":"","type":"address","internalType":"address"}],"stateMutability":"view"},{"type":"function","name":"bytes32ToString","inputs":[{"name":"_bytes32","type":"bytes32","internalType":"bytes32"}],"outputs":[{"name":"","type":"string","internalType":"string"}],"stateMutability":"pure"},{"type":"function","name":"getReservesData","inputs":[{"name":"provider","type":"address","internalType":"contract IPoolAddressesProvider"}],"outputs":[{"name":"","type":"tuple[]","internalType":"struct IUiPoolDataProviderV3.AggregatedReserveData[]","components":[{"name":"underlyingAsset","type":"address","internalType":"address"},{"name":"name","type":"string","internalType":"string"},{"name":"symbol","type":"string","internalType":"string"},{"name":"decimals","type":"uint256","internalType":"uint256"},{"name":"baseLTVasCollateral","type":"uint256","internalType":"uint256"},{"name":"reserveLiquidationThreshold","type":"uint256","internalType":"uint256"},{"name":"reserveLiquidationBonus","type":"uint256","internalType":"uint256"},{"name":"reserveFactor","type":"uint256","internalType":"uint256"},{"name":"usageAsCollateralEnabled","type":"bool","internalType":"bool"},{"name":"borrowingEnabled","type":"bool","internalType":"bool"},{"name":"stableBorrowRateEnabled","type":"bool","internalType":"bool"},{"name":"isActive","type":"bool","internalType":"bool"},{"name":"isFrozen","type":"bool","internalType":"bool"},{"name":"liquidityIndex","type":"uint128","internalType":"uint128"},{"name":"variableBorrowIndex","type":"uint128","internalType":"uint128"},{"name":"liquidityRate","type":"uint128","internalType":"uint128"},{"name":"variableBorrowRate","type":"uint128","internalType":"uint128"},{"name":"stableBorrowRate","type":"uint128","internalType":"uint128"},{"name":"lastUpdateTimestamp","type":"uint40","internalType":"uint40"},{"name":"aTokenAddress","type":"address","internalType":"address"},{"name":"stableDebtTokenAddress","type":"address","internalType":"address"},{"name":"variableDebtTokenAddress","type":"address","internalType":"address"},{"name":"interestRateStrategyAddress","type":"address","internalType":"address"},{"name":"availableLiquidity","type":"uint256","internalType":"uint256"},{"name":"totalPrincipalStableDebt","type":"uint256","internalType":"uint256"},{"name":"averageStableRate","type":"uint256","internalType":"uint256"},{"name":"stableDebtLastUpdateTimestamp","type":"uint256","internalType":"uint256"},{"name":"totalScaledVariableDebt","type":"uint256","internalType":"uint256"},{"name":"priceInMarketReferenceCurrency","type":"uint256","internalType":"uint256"},{"name":"priceOracle","type":"address","internalType":"address"},{"name":"variableRateSlope1","type":"uint256","internalType":"uint256"},{"name":"variableRateSlope2","type":"uint256","internalType":"uint256"},{"name":"stableRateSlope1","type":"uint256","internalType":"uint256"},{"name":"stableRateSlope2","type":"uint256","internalType":"uint256"},{"name":"baseStableBorrowRate","type":"uint256","internalType":"uint256"},{"name":"baseVariableBorrowRate","type":"uint256","internalType":"uint256"},{"name":"optimalUsageRatio","type":"uint256","internalType":"uint256"},{"name":"isPaused","type":"bool","internalType":"bool"},{"name":"isSiloedBorrowing","type":"bool","internalType":"bool"},{"name":"accruedToTreasury","type":"uint128","internalType":"uint128"},{"name":"unbacked","type":"uint128","internalType":"uint128"},{"name":"isolationModeTotalDebt","type":"uint128","internalType":"uint128"},{"name":"flashLoanEnabled","type":"bool","internalType":"bool"},{"name":"debtCeiling","type":"uint256","internalType":"uint256"},{"name":"debtCeilingDecimals","type":"uint256","internalType":"uint256"},{"name":"eModeCategoryId","type":"uint8","internalType":"uint8"},{"name":"borrowCap","type":"uint256","internalType":"uint256"},{"name":"supplyCap","type":"uint256","internalType":"uint256"},{"name":"eModeLtv","type":"uint16","internalType":"uint16"},{"name":"eModeLiquidationThreshold","type":"uint16","internalType":"uint16"},{"name":"eModeLiquidationBonus","type":"uint16","internalType":"uint16"},{"name":"eModePriceSource","type":"address","internalType":"address"},{"name":"eModeLabel","type":"string","internalType":"string"},{"name":"borrowableInIsolation","type":"bool","internalType":"bool"}]},{"name":"","type":"tuple","internalType":"struct IUiPoolDataProviderV3.BaseCurrencyInfo","components":[{"name":"marketReferenceCurrencyUnit","type":"uint256","internalType":"uint256"},{"name":"marketReferenceCurrencyPriceInUsd","type":"int256","internalType":"int256"},{"name":"networkBaseTokenPriceInUsd","type":"int256","internalType":"int256"},{"name":"networkBaseTokenPriceDecimals","type":"uint8","internalType":"uint8"}]}],"stateMutability":"view"},{"type":"function","name":"getReservesList","inputs":[{"name":"provider","type":"address","internalType":"contract IPoolAddressesProvider"}],"outputs":[{"name":"","type":"address[]","internalType":"address[]"}],"stateMutability":"view"},{"type":"function","name":"getUserReservesData","inputs":[{"name":"provider","type":"address","internalType":"contract IPoolAddressesProvider"},{"name":"user","type":"address","internalType":"address"}],"outputs":[{"name":"","type":"tuple[]","internalType":"struct IUiPoolDataProviderV3.UserReserveData[]","components":[{"name":"underlyingAsset","type":"address","internalType":"address"},{"name":"scaledATokenBalance","type":"uint256","internalType":"uint256"},{"name":"usageAsCollateralEnabledOnUser","type":"bool","internalType":"bool"},{"name":"stableBorrowRate","type":"uint256","internalType":"uint256"},{"name":"scaledVariableDebt","type":"uint256","internalType":"uint256"},{"name":"principalStableDebt","type":"uint256","internalType":"uint256"},{"name":"stableBorrowLastUpdateTimestamp","type":"uint256","internalType":"uint256"}]},{"name":"","type":"uint8","internalType":"uint8"}],"stateMutability":"view"},{"type":"function","name":"marketReferenceCurrencyPriceInUsdProxyAggregator","inputs":[],"outputs":[{"name":"","type":"address","internalType":"contract IEACAggregatorProxy"}],"stateMutability":"view"},{"type":"function","name":"networkBaseTokenPriceInUsdProxyAggregator","inputs":[],"outputs":[{"name":"","type":"address","internalType":"contract IEACAggregatorProxy"}],"stateMutability":"view"}],"bytecode":{"object":"0x60c060405234801561000f575f5ffd5b50604051613e8e380380613e8e8339818101604052810190610031919061010f565b8173ffffffffffffffffffffffffffffffffffffffff1660808173ffffffffffffffffffffffffffffffffffffffff16815250508073ffffffffffffffffffffffffffffffffffffffff1660a08173ffffffffffffffffffffffffffffffffffffffff1681525050505061014d565b5f5ffd5b5f73ffffffffffffffffffffffffffffffffffffffff82169050919050565b5f6100cd826100a4565b9050919050565b5f6100de826100c3565b9050919050565b6100ee816100d4565b81146100f8575f5ffd5b50565b5f81519050610109816100e5565b92915050565b5f5f60408385031215610125576101246100a0565b5b5f610132858286016100fb565b9250506020610143858286016100fb565b9150509250929050565b60805160a051613d0b6101835f395f8181610bd00152611ff901525f81816101d201528181611e180152611eae0152613d0b5ff3fe608060405234801561000f575f5ffd5b5060043610610086575f3560e01c8063825ffd9211610059578063825ffd92146101275780639201de5514610145578063d22cf68a14610175578063ec489c211461019357610086565b80630496f53a1461008a5780633c1740ed146100a857806351974cc0146100c6578063586c1442146100f7575b5f5ffd5b6100926101c4565b60405161009f919061280d565b60405180910390f35b6100b06101d0565b6040516100bd91906128a0565b60405180910390f35b6100e060048036038101906100db9190612940565b6101f4565b6040516100ee929190612b05565b60405180910390f35b610111600480360381019061010c9190612b33565b610934565b60405161011e9190612c06565b60405180910390f35b61012f610a1e565b60405161013c9190612c35565b60405180910390f35b61015f600480360381019061015a9190612c81565b610a36565b60405161016c9190612d1c565b60405180910390f35b61017d610bce565b60405161018a91906128a0565b60405180910390f35b6101ad60048036038101906101a89190612b33565b610bf2565b6040516101bb92919061339f565b60405180910390f35b670de0b6b3a764000081565b7f000000000000000000000000000000000000000000000000000000000000000081565b60605f5f8473ffffffffffffffffffffffffffffffffffffffff1663026b1d5f6040518163ffffffff1660e01b8152600401602060405180830381865afa158015610241573d5f5f3e3d5ffd5b505050506040513d601f19601f8201168201806040525081019061026591906133e1565b90505f8173ffffffffffffffffffffffffffffffffffffffff1663d1946dbc6040518163ffffffff1660e01b81526004015f60405180830381865afa1580156102b0573d5f5f3e3d5ffd5b505050506040513d5f823e3d601f19601f820116820180604052508101906102d8919061354c565b90505f8273ffffffffffffffffffffffffffffffffffffffff16634417a583876040518263ffffffff1660e01b81526004016103149190612c35565b602060405180830381865afa15801561032f573d5f5f3e3d5ffd5b505050506040513d601f19601f8201168201806040525081019061035391906135fe565b90505f8373ffffffffffffffffffffffffffffffffffffffff1663eddf1b79886040518263ffffffff1660e01b815260040161038f9190612c35565b602060405180830381865afa1580156103aa573d5f5f3e3d5ffd5b505050506040513d601f19601f820116820180604052508101906103ce9190613629565b90505f5f73ffffffffffffffffffffffffffffffffffffffff168873ffffffffffffffffffffffffffffffffffffffff160361040a575f61040d565b83515b67ffffffffffffffff81111561042657610425613410565b5b60405190808252806020026020018201604052801561045f57816020015b61044c6124da565b8152602001906001900390816104445790505b5090505f5f90505b8451811015610921575f8673ffffffffffffffffffffffffffffffffffffffff166335ea6a758784815181106104a05761049f613654565b5b60200260200101516040518263ffffffff1660e01b81526004016104c49190612c35565b6101e060405180830381865afa1580156104e0573d5f5f3e3d5ffd5b505050506040513d601f19601f820116820180604052508101906105049190613899565b905085828151811061051957610518613654565b5b602002602001015183838151811061053457610533613654565b5b60200260200101515f019073ffffffffffffffffffffffffffffffffffffffff16908173ffffffffffffffffffffffffffffffffffffffff168152505080610100015173ffffffffffffffffffffffffffffffffffffffff16631da24f3e8b6040518263ffffffff1660e01b81526004016105af9190612c35565b602060405180830381865afa1580156105ca573d5f5f3e3d5ffd5b505050506040513d601f19601f820116820180604052508101906105ee9190613629565b83838151811061060157610600613654565b5b6020026020010151602001818152505061062482866120b990919063ffffffff16565b83838151811061063757610636613654565b5b60200260200101516040019015159081151581525050610660828661215590919063ffffffff16565b156109135780610140015173ffffffffffffffffffffffffffffffffffffffff16631da24f3e8b6040518263ffffffff1660e01b81526004016106a39190612c35565b602060405180830381865afa1580156106be573d5f5f3e3d5ffd5b505050506040513d601f19601f820116820180604052508101906106e29190613629565b8383815181106106f5576106f4613654565b5b6020026020010151608001818152505080610120015173ffffffffffffffffffffffffffffffffffffffff1663c634dfaa8b6040518263ffffffff1660e01b81526004016107439190612c35565b602060405180830381865afa15801561075e573d5f5f3e3d5ffd5b505050506040513d601f19601f820116820180604052508101906107829190613629565b83838151811061079557610794613654565b5b602002602001015160a00181815250505f8383815181106107b9576107b8613654565b5b602002602001015160a00151146109125780610120015173ffffffffffffffffffffffffffffffffffffffff1663e78c9b3b8b6040518263ffffffff1660e01b81526004016108089190612c35565b602060405180830381865afa158015610823573d5f5f3e3d5ffd5b505050506040513d601f19601f820116820180604052508101906108479190613629565b83838151811061085a57610859613654565b5b6020026020010151606001818152505080610120015173ffffffffffffffffffffffffffffffffffffffff166379ce6b8c8b6040518263ffffffff1660e01b81526004016108a89190612c35565b602060405180830381865afa1580156108c3573d5f5f3e3d5ffd5b505050506040513d601f19601f820116820180604052508101906108e791906138c5565b64ffffffffff1683838151811061090157610900613654565b5b602002602001015160c00181815250505b5b508080600101915050610467565b5080829650965050505050509250929050565b60605f8273ffffffffffffffffffffffffffffffffffffffff1663026b1d5f6040518163ffffffff1660e01b8152600401602060405180830381865afa158015610980573d5f5f3e3d5ffd5b505050506040513d601f19601f820116820180604052508101906109a491906133e1565b90508073ffffffffffffffffffffffffffffffffffffffff1663d1946dbc6040518163ffffffff1660e01b81526004015f60405180830381865afa1580156109ee573d5f5f3e3d5ffd5b505050506040513d5f823e3d601f19601f82011682018060405250810190610a16919061354c565b915050919050565b739f8f72aa9304c8b593d555f12ef6589cc3a579a281565b60605f5f90505b60208160ff16108015610a8e57505f60f81b838260ff1660208110610a6557610a64613654565b5b1a60f81b7effffffffffffffffffffffffffffffffffffffffffffffffffffffffffffff191614155b15610aa6578080610a9e9061391d565b915050610a3d565b5f8160ff1667ffffffffffffffff811115610ac457610ac3613410565b5b6040519080825280601f01601f191660200182016040528015610af65781602001600182028036833780820191505090505b5090505f91505b60208260ff16108015610b4e57505f60f81b848360ff1660208110610b2557610b24613654565b5b1a60f81b7effffffffffffffffffffffffffffffffffffffffffffffffffffffffffffff191614155b15610bc457838260ff1660208110610b6957610b68613654565b5b1a60f81b818360ff1681518110610b8357610b82613654565b5b60200101907effffffffffffffffffffffffffffffffffffffffffffffffffffffffffffff191690815f1a9053508180610bbc9061391d565b925050610afd565b8092505050919050565b7f000000000000000000000000000000000000000000000000000000000000000081565b6060610bfc612528565b5f8373ffffffffffffffffffffffffffffffffffffffff1663fca513a86040518163ffffffff1660e01b8152600401602060405180830381865afa158015610c46573d5f5f3e3d5ffd5b505050506040513d601f19601f82011682018060405250810190610c6a91906133e1565b90505f8473ffffffffffffffffffffffffffffffffffffffff1663026b1d5f6040518163ffffffff1660e01b8152600401602060405180830381865afa158015610cb6573d5f5f3e3d5ffd5b505050506040513d601f19601f82011682018060405250810190610cda91906133e1565b90505f8573ffffffffffffffffffffffffffffffffffffffff1663e860accb6040518163ffffffff1660e01b8152600401602060405180830381865afa158015610d26573d5f5f3e3d5ffd5b505050506040513d601f19601f82011682018060405250810190610d4a91906133e1565b90505f8273ffffffffffffffffffffffffffffffffffffffff1663d1946dbc6040518163ffffffff1660e01b81526004015f60405180830381865afa158015610d95573d5f5f3e3d5ffd5b505050506040513d5f823e3d601f19601f82011682018060405250810190610dbd919061354c565b90505f815167ffffffffffffffff811115610ddb57610dda613410565b5b604051908082528060200260200182016040528015610e1457816020015b610e0161254f565b815260200190600190039081610df95790505b5090505f5f90505b8251811015611e0d575f828281518110610e3957610e38613654565b5b60200260200101519050838281518110610e5657610e55613654565b5b6020026020010151815f019073ffffffffffffffffffffffffffffffffffffffff16908173ffffffffffffffffffffffffffffffffffffffff16815250505f8673ffffffffffffffffffffffffffffffffffffffff166335ea6a75835f01516040518263ffffffff1660e01b8152600401610ed19190612c35565b6101e060405180830381865afa158015610eed573d5f5f3e3d5ffd5b505050506040513d601f19601f82011682018060405250810190610f119190613899565b90508060200151826101a001906fffffffffffffffffffffffffffffffff1690816fffffffffffffffffffffffffffffffff16815250508060600151826101c001906fffffffffffffffffffffffffffffffff1690816fffffffffffffffffffffffffffffffff16815250508060400151826101e001906fffffffffffffffffffffffffffffffff1690816fffffffffffffffffffffffffffffffff168152505080608001518261020001906fffffffffffffffffffffffffffffffff1690816fffffffffffffffffffffffffffffffff16815250508060a001518261022001906fffffffffffffffffffffffffffffffff1690816fffffffffffffffffffffffffffffffff16815250508060c0015182610240019064ffffffffff16908164ffffffffff168152505080610100015182610260019073ffffffffffffffffffffffffffffffffffffffff16908173ffffffffffffffffffffffffffffffffffffffff168152505080610120015182610280019073ffffffffffffffffffffffffffffffffffffffff16908173ffffffffffffffffffffffffffffffffffffffff1681525050806101400151826102a0019073ffffffffffffffffffffffffffffffffffffffff16908173ffffffffffffffffffffffffffffffffffffffff1681525050806101600151826102c0019073ffffffffffffffffffffffffffffffffffffffff16908173ffffffffffffffffffffffffffffffffffffffff16815250508773ffffffffffffffffffffffffffffffffffffffff1663b3596f07835f01516040518263ffffffff1660e01b815260040161116f9190612c35565b602060405180830381865afa15801561118a573d5f5f3e3d5ffd5b505050506040513d601f19601f820116820180604052508101906111ae9190613629565b826103800181815250508773ffffffffffffffffffffffffffffffffffffffff166392bf2be0835f01516040518263ffffffff1660e01b81526004016111f49190612c35565b602060405180830381865afa15801561120f573d5f5f3e3d5ffd5b505050506040513d601f19601f8201168201806040525081019061123391906133e1565b826103a0019073ffffffffffffffffffffffffffffffffffffffff16908173ffffffffffffffffffffffffffffffffffffffff1681525050815f015173ffffffffffffffffffffffffffffffffffffffff166370a082318361026001516040518263ffffffff1660e01b81526004016112ac9190612c35565b602060405180830381865afa1580156112c7573d5f5f3e3d5ffd5b505050506040513d601f19601f820116820180604052508101906112eb9190613629565b826102e001818152505081610280015173ffffffffffffffffffffffffffffffffffffffff1663797743386040518163ffffffff1660e01b8152600401608060405180830381865afa158015611343573d5f5f3e3d5ffd5b505050506040513d601f19601f820116820180604052508101906113679190613945565b9091508064ffffffffff169050846103000185610320018661034001838152508381525083815250505050816102a0015173ffffffffffffffffffffffffffffffffffffffff1663b1bf962d6040518163ffffffff1660e01b8152600401602060405180830381865afa1580156113e0573d5f5f3e3d5ffd5b505050506040513d601f19601f820116820180604052508101906114049190613629565b82610360018181525050739f8f72aa9304c8b593d555f12ef6589cc3a579a273ffffffffffffffffffffffffffffffffffffffff16825f015173ffffffffffffffffffffffffffffffffffffffff1603611567575f825f015173ffffffffffffffffffffffffffffffffffffffff166395d89b416040518163ffffffff1660e01b8152600401602060405180830381865afa1580156114a5573d5f5f3e3d5ffd5b505050506040513d601f19601f820116820180604052508101906114c991906139bd565b90505f835f015173ffffffffffffffffffffffffffffffffffffffff166306fdde036040518163ffffffff1660e01b8152600401602060405180830381865afa158015611518573d5f5f3e3d5ffd5b505050506040513d601f19601f8201168201806040525081019061153c91906139bd565b905061154782610a36565b846040018190525061155881610a36565b8460200181905250505061165e565b815f015173ffffffffffffffffffffffffffffffffffffffff166395d89b416040518163ffffffff1660e01b81526004015f60405180830381865afa1580156115b2573d5f5f3e3d5ffd5b505050506040513d5f823e3d601f19601f820116820180604052508101906115da9190613a8a565b8260400181905250815f015173ffffffffffffffffffffffffffffffffffffffff166306fdde036040518163ffffffff1660e01b81526004015f60405180830381865afa15801561162d573d5f5f3e3d5ffd5b505050506040513d5f823e3d601f19601f820116820180604052508101906116559190613a8a565b82602001819052505b5f815f015190505f61166f826121ee565b896080018a60a0018b60c0018c6060018d60e001859b5086815250868152508681525086815250868152505050505050505f84608001511415846101000190151590811515815250506116c1826122fd565b886101600189610180018a610120018b610140018c6104a001851515151581525085151515158152508515151515815250851515151581525085151515158152505050505050836102c0015173ffffffffffffffffffffffffffffffffffffffff16630b3429a26040518163ffffffff1660e01b8152600401602060405180830381865afa92505050801561177457506040513d601f19601f820116820180604052508101906117719190613629565b60015b156117865780856103c0018181525050505b836102c0015173ffffffffffffffffffffffffffffffffffffffff1663f42024096040518163ffffffff1660e01b8152600401602060405180830381865afa9250505080156117f357506040513d601f19601f820116820180604052508101906117f09190613629565b60015b156118055780856103e0018181525050505b836102c0015173ffffffffffffffffffffffffffffffffffffffff1663d5cd73916040518163ffffffff1660e01b8152600401602060405180830381865afa92505050801561187257506040513d601f19601f8201168201806040525081019061186f9190613629565b60015b15611884578085610400018181525050505b836102c0015173ffffffffffffffffffffffffffffffffffffffff166314e32da46040518163ffffffff1660e01b8152600401602060405180830381865afa9250505080156118f157506040513d601f19601f820116820180604052508101906118ee9190613629565b60015b15611903578085610420018181525050505b836102c0015173ffffffffffffffffffffffffffffffffffffffff1663acd786866040518163ffffffff1660e01b8152600401602060405180830381865afa92505050801561197057506040513d601f19601f8201168201806040525081019061196d9190613629565b60015b15611982578085610440018181525050505b836102c0015173ffffffffffffffffffffffffffffffffffffffff166334762ca56040518163ffffffff1660e01b8152600401602060405180830381865afa9250505080156119ef57506040513d601f19601f820116820180604052508101906119ec9190613629565b60015b15611a01578085610460018181525050505b836102c0015173ffffffffffffffffffffffffffffffffffffffff166354c365c66040518163ffffffff1660e01b8152600401602060405180830381865afa925050508015611a6e57506040513d601f19601f82011682018060405250810190611a6b9190613629565b60015b15611a80578085610480018181525050505b80846105a0019060ff16908160ff1681525050611a9c826123e0565b846105600181815250508773ffffffffffffffffffffffffffffffffffffffff166369b169e16040518163ffffffff1660e01b8152600401602060405180830381865afa158015611aef573d5f5f3e3d5ffd5b505050506040513d601f19601f82011682018060405250810190611b139190613629565b84610580018181525050611b2682612413565b856105c001866105e001828152508281525050508773ffffffffffffffffffffffffffffffffffffffff1663d7ed3ef4855f01516040518263ffffffff1660e01b8152600401611b769190612c35565b602060405180830381865afa925050508015611bb057506040513d601f19601f82011682018060405250810190611bad9190613afb565b60015b611bfc573d805f8114611bde576040519150601f19603f3d011682016040523d82523d5f602084013e611be3565b606091505b5060018561054001901515908115158152505050611c0f565b8085610540019015159081151581525050505b611c1882612476565b846104c0019015159081151581525050826101a001518461050001906fffffffffffffffffffffffffffffffff1690816fffffffffffffffffffffffffffffffff1681525050826101c001518461052001906fffffffffffffffffffffffffffffffff1690816fffffffffffffffffffffffffffffffff1681525050826101800151846104e001906fffffffffffffffffffffffffffffffff1690816fffffffffffffffffffffffffffffffff16815250505f8973ffffffffffffffffffffffffffffffffffffffff16636c6f6ae1866105a001516040518263ffffffff1660e01b8152600401611d099190613b26565b5f60405180830381865afa158015611d23573d5f5f3e3d5ffd5b505050506040513d5f823e3d601f19601f82011682018060405250810190611d4b9190613be4565b9050805f015185610600019061ffff16908161ffff1681525050806020015185610620019061ffff16908161ffff1681525050806040015185610640019061ffff16908161ffff1681525050806060015185610660019073ffffffffffffffffffffffffffffffffffffffff16908173ffffffffffffffffffffffffffffffffffffffff16815250508060800151856106800181905250611deb836124a8565b856106a001901515908115158152505050505050508080600101915050610e1c565b50611e16612528565b7f000000000000000000000000000000000000000000000000000000000000000073ffffffffffffffffffffffffffffffffffffffff166350d25bcd6040518163ffffffff1660e01b8152600401602060405180830381865afa158015611e7f573d5f5f3e3d5ffd5b505050506040513d601f19601f82011682018060405250810190611ea39190613c55565b8160400181815250507f000000000000000000000000000000000000000000000000000000000000000073ffffffffffffffffffffffffffffffffffffffff1663313ce5676040518163ffffffff1660e01b8152600401602060405180830381865afa158015611f15573d5f5f3e3d5ffd5b505050506040513d601f19601f82011682018060405250810190611f399190613caa565b816060019060ff16908160ff16815250508573ffffffffffffffffffffffffffffffffffffffff16638c89b64f6040518163ffffffff1660e01b8152600401602060405180830381865afa925050508015611fb257506040513d601f19601f82011682018060405250810190611faf9190613629565b60015b612093573d805f8114611fe0576040519150601f19603f3d011682016040523d82523d5f602084013e611fe5565b606091505b50670de0b6b3a7640000825f0181815250507f000000000000000000000000000000000000000000000000000000000000000073ffffffffffffffffffffffffffffffffffffffff166350d25bcd6040518163ffffffff1660e01b8152600401602060405180830381865afa158015612060573d5f5f3e3d5ffd5b505050506040513d601f19601f820116820180604052508101906120849190613c55565b826020018181525050506120a8565b80825f01818152505080826020018181525050505b818197509750505050505050915091565b5f608061ffff1682106040518060400160405280600281526020017f373400000000000000000000000000000000000000000000000000000000000081525090612139576040517f08c379a00000000000000000000000000000000000000000000000000000000081526004016121309190612d1c565b60405180910390fd5b505f600180600185901b01855f0151901c161415905092915050565b5f608061ffff1682106040518060400160405280600281526020017f3734000000000000000000000000000000000000000000000000000000000000815250906121d5576040517f08c379a00000000000000000000000000000000000000000000000000000000081526004016121cc9190612d1c565b60405180910390fd5b505f60018084901b855f0151901c161415905092915050565b5f5f5f5f5f5f5f875f015190507fffffffffffffffffffffffffffffffffffffffffffffffffffffffffffff000019811660107fffffffffffffffffffffffffffffffffffffffffffffffffffffffff0000ffff198316901c60207fffffffffffffffffffffffffffffffffffffffffffffffffffff0000ffffffff198416901c60307fffffffffffffffffffffffffffffffffffffffffffffffffff00ffffffffffff198516901c60407fffffffffffffffffffffffffffffffffffffffffffff0000ffffffffffffffff198616901c60a87fffffffffffffffffffff00ffffffffffffffffffffffffffffffffffffffffff198716901c9650965096509650965096505091939550919395565b5f5f5f5f5f5f865f015190505f7ffffffffffffffffffffffffffffffffffffffffffffffffffeffffffffffffff19821614155f7ffffffffffffffffffffffffffffffffffffffffffffffffffdffffffffffffff19831614155f7ffffffffffffffffffffffffffffffffffffffffffffffffffbffffffffffffff19841614155f7ffffffffffffffffffffffffffffffffffffffffffffffffff7ffffffffffffff19851614155f7fffffffffffffffffffffffffffffffffffffffffffffffffefffffffffffffff1986161415955095509550955095505091939590929450565b5f60d47ff0000000000fffffffffffffffffffffffffffffffffffffffffffffffffffff19835f015116901c9050919050565b5f5f5f835f0151905060507ffffffffffffffffffffffffffffffffffff000000000ffffffffffffffffffff198216901c60747fffffffffffffffffffffffffff000000000fffffffffffffffffffffffffffff198316901c9250925050915091565b5f5f7fffffffffffffffffffffffffffffffffffffffffffffffffbfffffffffffffff19835f01511614159050919050565b5f5f7fffffffffffffffffffffffffffffffffffffffffffffffffdfffffffffffffff19835f01511614159050919050565b6040518060e001604052805f73ffffffffffffffffffffffffffffffffffffffff1681526020015f81526020015f151581526020015f81526020015f81526020015f81526020015f81525090565b60405180608001604052805f81526020015f81526020015f81526020015f60ff1681525090565b604051806106c001604052805f73ffffffffffffffffffffffffffffffffffffffff16815260200160608152602001606081526020015f81526020015f81526020015f81526020015f81526020015f81526020015f151581526020015f151581526020015f151581526020015f151581526020015f151581526020015f6fffffffffffffffffffffffffffffffff1681526020015f6fffffffffffffffffffffffffffffffff1681526020015f6fffffffffffffffffffffffffffffffff1681526020015f6fffffffffffffffffffffffffffffffff1681526020015f6fffffffffffffffffffffffffffffffff1681526020015f64ffffffffff1681526020015f73ffffffffffffffffffffffffffffffffffffffff1681526020015f73ffffffffffffffffffffffffffffffffffffffff1681526020015f73ffffffffffffffffffffffffffffffffffffffff1681526020015f73ffffffffffffffffffffffffffffffffffffffff1681526020015f81526020015f81526020015f81526020015f81526020015f81526020015f81526020015f73ffffffffffffffffffffffffffffffffffffffff1681526020015f81526020015f81526020015f81526020015f81526020015f81526020015f81526020015f81526020015f151581526020015f151581526020015f6fffffffffffffffffffffffffffffffff1681526020015f6fffffffffffffffffffffffffffffffff1681526020015f6fffffffffffffffffffffffffffffffff1681526020015f151581526020015f81526020015f81526020015f60ff1681526020015f81526020015f81526020015f61ffff1681526020015f61ffff1681526020015f61ffff1681526020015f73ffffffffffffffffffffffffffffffffffffffff168152602001606081526020015f151581525090565b5f819050919050565b612807816127f5565b82525050565b5f6020820190506128205f8301846127fe565b92915050565b5f73ffffffffffffffffffffffffffffffffffffffff82169050919050565b5f819050919050565b5f61286861286361285e84612826565b612845565b612826565b9050919050565b5f6128798261284e565b9050919050565b5f61288a8261286f565b9050919050565b61289a81612880565b82525050565b5f6020820190506128b35f830184612891565b92915050565b5f604051905090565b5f5ffd5b5f5ffd5b5f6128d482612826565b9050919050565b5f6128e5826128ca565b9050919050565b6128f5816128db565b81146128ff575f5ffd5b50565b5f81359050612910816128ec565b92915050565b61291f816128ca565b8114612929575f5ffd5b50565b5f8135905061293a81612916565b92915050565b5f5f60408385031215612956576129556128c2565b5b5f61296385828601612902565b92505060206129748582860161292c565b9150509250929050565b5f81519050919050565b5f82825260208201905092915050565b5f819050602082019050919050565b6129b0816128ca565b82525050565b6129bf816127f5565b82525050565b5f8115159050919050565b6129d9816129c5565b82525050565b60e082015f8201516129f35f8501826129a7565b506020820151612a0660208501826129b6565b506040820151612a1960408501826129d0565b506060820151612a2c60608501826129b6565b506080820151612a3f60808501826129b6565b5060a0820151612a5260a08501826129b6565b5060c0820151612a6560c08501826129b6565b50505050565b5f612a7683836129df565b60e08301905092915050565b5f602082019050919050565b5f612a988261297e565b612aa28185612988565b9350612aad83612998565b805f5b83811015612add578151612ac48882612a6b565b9750612acf83612a82565b925050600181019050612ab0565b5085935050505092915050565b5f60ff82169050919050565b612aff81612aea565b82525050565b5f6040820190508181035f830152612b1d8185612a8e565b9050612b2c6020830184612af6565b9392505050565b5f60208284031215612b4857612b476128c2565b5b5f612b5584828501612902565b91505092915050565b5f81519050919050565b5f82825260208201905092915050565b5f819050602082019050919050565b5f612b9283836129a7565b60208301905092915050565b5f602082019050919050565b5f612bb482612b5e565b612bbe8185612b68565b9350612bc983612b78565b805f5b83811015612bf9578151612be08882612b87565b9750612beb83612b9e565b925050600181019050612bcc565b5085935050505092915050565b5f6020820190508181035f830152612c1e8184612baa565b905092915050565b612c2f816128ca565b82525050565b5f602082019050612c485f830184612c26565b92915050565b5f819050919050565b612c6081612c4e565b8114612c6a575f5ffd5b50565b5f81359050612c7b81612c57565b92915050565b5f60208284031215612c9657612c956128c2565b5b5f612ca384828501612c6d565b91505092915050565b5f81519050919050565b5f82825260208201905092915050565b8281835e5f83830152505050565b5f601f19601f8301169050919050565b5f612cee82612cac565b612cf88185612cb6565b9350612d08818560208601612cc6565b612d1181612cd4565b840191505092915050565b5f6020820190508181035f830152612d348184612ce4565b905092915050565b5f81519050919050565b5f82825260208201905092915050565b5f819050602082019050919050565b5f82825260208201905092915050565b5f612d7f82612cac565b612d898185612d65565b9350612d99818560208601612cc6565b612da281612cd4565b840191505092915050565b5f6fffffffffffffffffffffffffffffffff82169050919050565b612dd181612dad565b82525050565b5f64ffffffffff82169050919050565b612df081612dd7565b82525050565b612dff81612aea565b82525050565b5f61ffff82169050919050565b612e1b81612e05565b82525050565b5f6106c083015f830151612e375f8601826129a7565b5060208301518482036020860152612e4f8282612d75565b91505060408301518482036040860152612e698282612d75565b9150506060830151612e7e60608601826129b6565b506080830151612e9160808601826129b6565b5060a0830151612ea460a08601826129b6565b5060c0830151612eb760c08601826129b6565b5060e0830151612eca60e08601826129b6565b50610100830151612edf6101008601826129d0565b50610120830151612ef46101208601826129d0565b50610140830151612f096101408601826129d0565b50610160830151612f1e6101608601826129d0565b50610180830151612f336101808601826129d0565b506101a0830151612f486101a0860182612dc8565b506101c0830151612f5d6101c0860182612dc8565b506101e0830151612f726101e0860182612dc8565b50610200830151612f87610200860182612dc8565b50610220830151612f9c610220860182612dc8565b50610240830151612fb1610240860182612de7565b50610260830151612fc66102608601826129a7565b50610280830151612fdb6102808601826129a7565b506102a0830151612ff06102a08601826129a7565b506102c08301516130056102c08601826129a7565b506102e083015161301a6102e08601826129b6565b5061030083015161302f6103008601826129b6565b506103208301516130446103208601826129b6565b506103408301516130596103408601826129b6565b5061036083015161306e6103608601826129b6565b506103808301516130836103808601826129b6565b506103a08301516130986103a08601826129a7565b506103c08301516130ad6103c08601826129b6565b506103e08301516130c26103e08601826129b6565b506104008301516130d76104008601826129b6565b506104208301516130ec6104208601826129b6565b506104408301516131016104408601826129b6565b506104608301516131166104608601826129b6565b5061048083015161312b6104808601826129b6565b506104a08301516131406104a08601826129d0565b506104c08301516131556104c08601826129d0565b506104e083015161316a6104e0860182612dc8565b5061050083015161317f610500860182612dc8565b50610520830151613194610520860182612dc8565b506105408301516131a96105408601826129d0565b506105608301516131be6105608601826129b6565b506105808301516131d36105808601826129b6565b506105a08301516131e86105a0860182612df6565b506105c08301516131fd6105c08601826129b6565b506105e08301516132126105e08601826129b6565b50610600830151613227610600860182612e12565b5061062083015161323c610620860182612e12565b50610640830151613251610640860182612e12565b506106608301516132666106608601826129a7565b506106808301518482036106808601526132808282612d75565b9150506106a08301516132976106a08601826129d0565b508091505092915050565b5f6132ad8383612e21565b905092915050565b5f602082019050919050565b5f6132cb82612d3c565b6132d58185612d46565b9350836020820285016132e785612d56565b805f5b85811015613322578484038952815161330385826132a2565b945061330e836132b5565b925060208a019950506001810190506132ea565b50829750879550505050505092915050565b5f819050919050565b61334681613334565b82525050565b608082015f8201516133605f8501826129b6565b506020820151613373602085018261333d565b506040820151613386604085018261333d565b5060608201516133996060850182612df6565b50505050565b5f60a0820190508181035f8301526133b781856132c1565b90506133c6602083018461334c565b9392505050565b5f815190506133db81612916565b92915050565b5f602082840312156133f6576133f56128c2565b5b5f613403848285016133cd565b91505092915050565b5f5ffd5b7f4e487b71000000000000000000000000000000000000000000000000000000005f52604160045260245ffd5b61344682612cd4565b810181811067ffffffffffffffff8211171561346557613464613410565b5b80604052505050565b5f6134776128b9565b9050613483828261343d565b919050565b5f67ffffffffffffffff8211156134a2576134a1613410565b5b602082029050602081019050919050565b5f5ffd5b5f6134c96134c484613488565b61346e565b905080838252602082019050602084028301858111156134ec576134eb6134b3565b5b835b81811015613515578061350188826133cd565b8452602084019350506020810190506134ee565b5050509392505050565b5f82601f8301126135335761353261340c565b5b81516135438482602086016134b7565b91505092915050565b5f60208284031215613561576135606128c2565b5b5f82015167ffffffffffffffff81111561357e5761357d6128c6565b5b61358a8482850161351f565b91505092915050565b5f5ffd5b5f5ffd5b6135a4816127f5565b81146135ae575f5ffd5b50565b5f815190506135bf8161359b565b92915050565b5f602082840312156135da576135d9613593565b5b6135e4602061346e565b90505f6135f3848285016135b1565b5f8301525092915050565b5f60208284031215613613576136126128c2565b5b5f613620848285016135c5565b91505092915050565b5f6020828403121561363e5761363d6128c2565b5b5f61364b848285016135b1565b91505092915050565b7f4e487b71000000000000000000000000000000000000000000000000000000005f52603260045260245ffd5b5f6020828403121561369657613695613593565b5b6136a0602061346e565b90505f6136af848285016135b1565b5f8301525092915050565b6136c381612dad565b81146136cd575f5ffd5b50565b5f815190506136de816136ba565b92915050565b6136ed81612dd7565b81146136f7575f5ffd5b50565b5f81519050613708816136e4565b92915050565b61371781612e05565b8114613721575f5ffd5b50565b5f815190506137328161370e565b92915050565b5f6101e0828403121561374e5761374d613593565b5b6137596101e061346e565b90505f61376884828501613681565b5f83015250602061377b848285016136d0565b602083015250604061378f848285016136d0565b60408301525060606137a3848285016136d0565b60608301525060806137b7848285016136d0565b60808301525060a06137cb848285016136d0565b60a08301525060c06137df848285016136fa565b60c08301525060e06137f384828501613724565b60e083015250610100613808848285016133cd565b6101008301525061012061381e848285016133cd565b61012083015250610140613834848285016133cd565b6101408301525061016061384a848285016133cd565b61016083015250610180613860848285016136d0565b610180830152506101a0613876848285016136d0565b6101a0830152506101c061388c848285016136d0565b6101c08301525092915050565b5f6101e082840312156138af576138ae6128c2565b5b5f6138bc84828501613738565b91505092915050565b5f602082840312156138da576138d96128c2565b5b5f6138e7848285016136fa565b91505092915050565b7f4e487b71000000000000000000000000000000000000000000000000000000005f52601160045260245ffd5b5f61392782612aea565b915060ff820361393a576139396138f0565b5b600182019050919050565b5f5f5f5f6080858703121561395d5761395c6128c2565b5b5f61396a878288016135b1565b945050602061397b878288016135b1565b935050604061398c878288016135b1565b925050606061399d878288016136fa565b91505092959194509250565b5f815190506139b781612c57565b92915050565b5f602082840312156139d2576139d16128c2565b5b5f6139df848285016139a9565b91505092915050565b5f5ffd5b5f67ffffffffffffffff821115613a0657613a05613410565b5b613a0f82612cd4565b9050602081019050919050565b5f613a2e613a29846139ec565b61346e565b905082815260208101848484011115613a4a57613a496139e8565b5b613a55848285612cc6565b509392505050565b5f82601f830112613a7157613a7061340c565b5b8151613a81848260208601613a1c565b91505092915050565b5f60208284031215613a9f57613a9e6128c2565b5b5f82015167ffffffffffffffff811115613abc57613abb6128c6565b5b613ac884828501613a5d565b91505092915050565b613ada816129c5565b8114613ae4575f5ffd5b50565b5f81519050613af581613ad1565b92915050565b5f60208284031215613b1057613b0f6128c2565b5b5f613b1d84828501613ae7565b91505092915050565b5f602082019050613b395f830184612af6565b92915050565b5f60a08284031215613b5457613b53613593565b5b613b5e60a061346e565b90505f613b6d84828501613724565b5f830152506020613b8084828501613724565b6020830152506040613b9484828501613724565b6040830152506060613ba8848285016133cd565b606083015250608082015167ffffffffffffffff811115613bcc57613bcb613597565b5b613bd884828501613a5d565b60808301525092915050565b5f60208284031215613bf957613bf86128c2565b5b5f82015167ffffffffffffffff811115613c1657613c156128c6565b5b613c2284828501613b3f565b91505092915050565b613c3481613334565b8114613c3e575f5ffd5b50565b5f81519050613c4f81613c2b565b92915050565b5f60208284031215613c6a57613c696128c2565b5b5f613c7784828501613c41565b91505092915050565b613c8981612aea565b8114613c93575f5ffd5b50565b5f81519050613ca481613c80565b92915050565b5f60208284031215613cbf57613cbe6128c2565b5b5f613ccc84828501613c96565b9150509291505056fea26469706673582212206d4ac9f567621eda7f7b0dd98da2fe767bcb5b12ff8896c2bcf0bc72e8dfe3ee64736f6c634300081c0033","linkReferences":{}},"methodIdentifiers":{"ETH_CURRENCY_UNIT()":"0496f53a","MKR_ADDRESS()":"825ffd92","bytes32ToString(bytes32)":"9201de55","getReservesData(address)":"ec489c21","getReservesList(address)":"586c1442","getUserReservesData(address,address)":"51974cc0","marketReferenceCurrencyPriceInUsdProxyAggregator()":"d22cf68a","networkBaseTokenPriceInUsdProxyAggregator()":"3c1740ed"},"id":11}