{"abi":[{"type":"constructor","inputs":[{"name":"mockName","type":"string","internalType":"string"},{"name":"mockSymbol","type":"string","internalType":"string"},{"name":"owner","type":"address","internalType":"address"}],"stateMutability":"nonpayable"},{"type":"receive","stateMutability":"payable"},{"type":"function","name":"allowance","inputs":[{"name":"","type":"address","internalType":"address"},{"name":"","type":"address","internalType":"address"}],"outputs":[{"name":"","type":"uint256","internalType":"uint256"}],"stateMutability":"view"},{"type":"function","name":"approve","inputs":[{"name":"guy","type":"address","internalType":"address"},{"name":"wad","type":"uint256","internalType":"uint256"}],"outputs":[{"name":"","type":"bool","internalType":"bool"}],"stateMutability":"nonpayable"},{"type":"function","name":"balanceOf","inputs":[{"name":"","type":"address","internalType":"address"}],"outputs":[{"name":"","type":"uint256","internalType":"uint256"}],"stateMutability":"view"},{"type":"function","name":"decimals","inputs":[],"outputs":[{"name":"","type":"uint8","internalType":"uint8"}],"stateMutability":"view"},{"type":"function","name":"deposit","inputs":[],"outputs":[],"stateMutability":"payable"},{"type":"function","name":"isProtected","inputs":[],"outputs":[{"name":"","type":"bool","internalType":"bool"}],"stateMutability":"view"},{"type":"function","name":"mint","inputs":[{"name":"account","type":"address","internalType":"address"},{"name":"value","type":"uint256","internalType":"uint256"}],"outputs":[{"name":"","type":"bool","internalType":"bool"}],"stateMutability":"nonpayable"},{"type":"function","name":"name","inputs":[],"outputs":[{"name":"","type":"string","internalType":"string"}],"stateMutability":"view"},{"type":"function","name":"owner","inputs":[],"outputs":[{"name":"","type":"address","internalType":"address"}],"stateMutability":"view"},{"type":"function","name":"renounceOwnership","inputs":[],"outputs":[],"stateMutability":"nonpayable"},{"type":"function","name":"setProtected","inputs":[{"name":"state","type":"bool","internalType":"bool"}],"outputs":[],"stateMutability":"nonpayable"},{"type":"function","name":"symbol","inputs":[],"outputs":[{"name":"","type":"string","internalType":"string"}],"stateMutability":"view"},{"type":"function","name":"totalSupply","inputs":[],"outputs":[{"name":"","type":"uint256","internalType":"uint256"}],"stateMutability":"view"},{"type":"function","name":"transfer","inputs":[{"name":"dst","type":"address","internalType":"address"},{"name":"wad","type":"uint256","internalType":"uint256"}],"outputs":[{"name":"","type":"bool","internalType":"bool"}],"stateMutability":"nonpayable"},{"type":"function","name":"transferFrom","inputs":[{"name":"src","type":"address","internalType":"address"},{"name":"dst","type":"address","internalType":"address"},{"name":"wad","type":"uint256","internalType":"uint256"}],"outputs":[{"name":"","type":"bool","internalType":"bool"}],"stateMutability":"nonpayable"},{"type":"function","name":"transferOwnership","inputs":[{"name":"newOwner","type":"address","internalType":"address"}],"outputs":[],"stateMutability":"nonpayable"},{"type":"function","name":"withdraw","inputs":[{"name":"wad","type":"uint256","internalType":"uint256"}],"outputs":[],"stateMutability":"nonpayable"},{"type":"event","name":"Approval","inputs":[{"name":"src","type":"address","indexed":true,"internalType":"address"},{"name":"guy","type":"address","indexed":true,"internalType":"address"},{"name":"wad","type":"uint256","indexed":false,"internalType":"uint256"}],"anonymous":false},{"type":"event","name":"Deposit","inputs":[{"name":"dst","type":"address","indexed":true,"internalType":"address"},{"name":"wad","type":"uint256","indexed":false,"internalType":"uint256"}],"anonymous":false},{"type":"event","name":"OwnershipTransferred","inputs":[{"name":"previousOwner","type":"address","indexed":true,"internalType":"address"},{"name":"newOwner","type":"address","indexed":true,"internalType":"address"}],"anonymous":false},{"type":"event","name":"Transfer","inputs":[{"name":"src","type":"address","indexed":true,"internalType":"address"},{"name":"dst","type":"address","indexed":true,"internalType":"address"},{"name":"wad","type":"uint256","indexed":false,"internalType":"uint256"}],"anonymous":false},{"type":"event","name":"Withdrawal","inputs":[{"name":"src","type":"address","indexed":true,"internalType":"address"},{"name":"wad","type":"uint256","indexed":false,"internalType":"uint256"}],"anonymous":false}],"bytecode":{"object":"0x60806040526040518060400160405280600d81526020017f57726170706564204574686572000000000000000000000000000000000000008152505f908161004791906105de565b506040518060400160405280600481526020017f57455448000000000000000000000000000000000000000000000000000000008152506001908161008c91906105de565b50601260025f6101000a81548160ff021916908360ff1602179055503480156100b3575f5ffd5b5060405161202b38038061202b83398181016040528101906100d59190610827565b5f6100e46101d260201b60201c565b90508060055f6101000a81548173ffffffffffffffffffffffffffffffffffffffff021916908373ffffffffffffffffffffffffffffffffffffffff1602179055508073ffffffffffffffffffffffffffffffffffffffff165f73ffffffffffffffffffffffffffffffffffffffff167f8be0079c531659141344cd1fd0a4f28419497f9722a3daafe3b4186f6b6457e060405160405180910390a350825f908161018f91906105de565b50816001908161019f91906105de565b506101af816101d960201b60201c565b6001600560146101000a81548160ff0219169083151502179055505050506109b5565b5f33905090565b6101e76101d260201b60201c565b73ffffffffffffffffffffffffffffffffffffffff1660055f9054906101000a900473ffffffffffffffffffffffffffffffffffffffff1673ffffffffffffffffffffffffffffffffffffffff1614610275576040517f08c379a000000000000000000000000000000000000000000000000000000000815260040161026c90610909565b60405180910390fd5b5f73ffffffffffffffffffffffffffffffffffffffff168173ffffffffffffffffffffffffffffffffffffffff16036102e3576040517f08c379a00000000000000000000000000000000000000000000000000000000081526004016102da90610997565b60405180910390fd5b8073ffffffffffffffffffffffffffffffffffffffff1660055f9054906101000a900473ffffffffffffffffffffffffffffffffffffffff1673ffffffffffffffffffffffffffffffffffffffff167f8be0079c531659141344cd1fd0a4f28419497f9722a3daafe3b4186f6b6457e060405160405180910390a38060055f6101000a81548173ffffffffffffffffffffffffffffffffffffffff021916908373ffffffffffffffffffffffffffffffffffffffff16021790555050565b5f81519050919050565b7f4e487b71000000000000000000000000000000000000000000000000000000005f52604160045260245ffd5b7f4e487b71000000000000000000000000000000000000000000000000000000005f52602260045260245ffd5b5f600282049050600182168061041c57607f821691505b60208210810361042f5761042e6103d8565b5b50919050565b5f819050815f5260205f209050919050565b5f6020601f8301049050919050565b5f82821b905092915050565b5f600883026104917fffffffffffffffffffffffffffffffffffffffffffffffffffffffffffffffff82610456565b61049b8683610456565b95508019841693508086168417925050509392505050565b5f819050919050565b5f819050919050565b5f6104df6104da6104d5846104b3565b6104bc565b6104b3565b9050919050565b5f819050919050565b6104f8836104c5565b61050c610504826104e6565b848454610462565b825550505050565b5f5f905090565b610523610514565b61052e8184846104ef565b505050565b5b81811015610551576105465f8261051b565b600181019050610534565b5050565b601f8211156105965761056781610435565b61057084610447565b8101602085101561057f578190505b61059361058b85610447565b830182610533565b50505b505050565b5f82821c905092915050565b5f6105b65f198460080261059b565b1980831691505092915050565b5f6105ce83836105a7565b9150826002028217905092915050565b6105e7826103a1565b67ffffffffffffffff811115610600576105ff6103ab565b5b61060a8254610405565b610615828285610555565b5f60209050601f831160018114610646575f8415610634578287015190505b61063e85826105c3565b8655506106a5565b601f19841661065486610435565b5f5b8281101561067b57848901518255600182019150602085019450602081019050610656565b868310156106985784890151610694601f8916826105a7565b8355505b6001600288020188555050505b505050505050565b5f604051905090565b5f5ffd5b5f5ffd5b5f5ffd5b5f5ffd5b5f601f19601f8301169050919050565b6106df826106c6565b810181811067ffffffffffffffff821117156106fe576106fd6103ab565b5b80604052505050565b5f6107106106ad565b905061071c82826106d6565b919050565b5f67ffffffffffffffff82111561073b5761073a6103ab565b5b610744826106c6565b9050602081019050919050565b8281835e5f83830152505050565b5f61077161076c84610721565b610707565b90508281526020810184848401111561078d5761078c6106c2565b5b610798848285610751565b509392505050565b5f82601f8301126107b4576107b36106be565b5b81516107c484826020860161075f565b91505092915050565b5f73ffffffffffffffffffffffffffffffffffffffff82169050919050565b5f6107f6826107cd565b9050919050565b610806816107ec565b8114610810575f5ffd5b50565b5f81519050610821816107fd565b92915050565b5f5f5f6060848603121561083e5761083d6106b6565b5b5f84015167ffffffffffffffff81111561085b5761085a6106ba565b5b610867868287016107a0565b935050602084015167ffffffffffffffff811115610888576108876106ba565b5b610894868287016107a0565b92505060406108a586828701610813565b9150509250925092565b5f82825260208201905092915050565b7f4f776e61626c653a2063616c6c6572206973206e6f7420746865206f776e65725f82015250565b5f6108f36020836108af565b91506108fe826108bf565b602082019050919050565b5f6020820190508181035f830152610920816108e7565b9050919050565b7f4f776e61626c653a206e6577206f776e657220697320746865207a65726f20615f8201527f6464726573730000000000000000000000000000000000000000000000000000602082015250565b5f6109816026836108af565b915061098c82610927565b604082019050919050565b5f6020820190508181035f8301526109ae81610975565b9050919050565b611669806109c25f395ff3fe608060405260043610610101575f3560e01c80635300f82b1161009457806395d89b411161006357806395d89b411461033c578063a9059cbb14610366578063d0e30db0146103a2578063dd62ed3e146103ac578063f2fde38b146103e857610110565b80635300f82b1461029657806370a08231146102c0578063715018a6146102fc5780638da5cb5b1461031257610110565b806323b872dd116100d057806323b872dd146101cc5780632e1a7d4d14610208578063313ce5671461023057806340c10f191461025a57610110565b806306fdde0314610114578063095ea7b31461013e57806318160ddd1461017a5780631c02bc31146101a457610110565b366101105761010e610410565b005b5f5ffd5b34801561011f575f5ffd5b506101286104b3565b604051610135919061116e565b60405180910390f35b348015610149575f5ffd5b50610164600480360381019061015f919061121f565b61053e565b6040516101719190611277565b60405180910390f35b348015610185575f5ffd5b5061018e61062b565b60405161019b919061129f565b60405180910390f35b3480156101af575f5ffd5b506101ca60048036038101906101c591906112e2565b610632565b005b3480156101d7575f5ffd5b506101f260048036038101906101ed919061130d565b6106e5565b6040516101ff9190611277565b60405180910390f35b348015610213575f5ffd5b5061022e6004803603810190610229919061135d565b610a31565b005b34801561023b575f5ffd5b50610244610b62565b60405161025191906113a3565b60405180910390f35b348015610265575f5ffd5b50610280600480360381019061027b919061121f565b610b74565b60405161028d9190611277565b60405180910390f35b3480156102a1575f5ffd5b506102aa610ccf565b6040516102b79190611277565b60405180910390f35b3480156102cb575f5ffd5b506102e660048036038101906102e191906113bc565b610ce5565b6040516102f3919061129f565b60405180910390f35b348015610307575f5ffd5b50610310610cfa565b005b34801561031d575f5ffd5b50610326610e4d565b60405161033391906113f6565b60405180910390f35b348015610347575f5ffd5b50610350610e75565b60405161035d919061116e565b60405180910390f35b348015610371575f5ffd5b5061038c6004803603810190610387919061121f565b610f01565b6040516103999190611277565b60405180910390f35b6103aa610410565b005b3480156103b7575f5ffd5b506103d260048036038101906103cd919061140f565b610f15565b6040516103df919061129f565b60405180910390f35b3480156103f3575f5ffd5b5061040e600480360381019061040991906113bc565b610f35565b005b3460035f3373ffffffffffffffffffffffffffffffffffffffff1673ffffffffffffffffffffffffffffffffffffffff1681526020019081526020015f205f82825461045c919061147a565b925050819055503373ffffffffffffffffffffffffffffffffffffffff167fe1fffcc4923d04b559f4d29a8bfc6cda04eb5b0d3c460751c2402c5c5cc9109c346040516104a9919061129f565b60405180910390a2565b5f80546104bf906114da565b80601f01602080910402602001604051908101604052809291908181526020018280546104eb906114da565b80156105365780601f1061050d57610100808354040283529160200191610536565b820191905f5260205f20905b81548152906001019060200180831161051957829003601f168201915b505050505081565b5f8160045f3373ffffffffffffffffffffffffffffffffffffffff1673ffffffffffffffffffffffffffffffffffffffff1681526020019081526020015f205f8573ffffffffffffffffffffffffffffffffffffffff1673ffffffffffffffffffffffffffffffffffffffff1681526020019081526020015f20819055508273ffffffffffffffffffffffffffffffffffffffff163373ffffffffffffffffffffffffffffffffffffffff167f8c5be1e5ebec7d5bd14f71427d1e84f3dd0314c0f7b2291e5b200ac8c7c3b92584604051610619919061129f565b60405180910390a36001905092915050565b5f47905090565b61063a6110f7565b73ffffffffffffffffffffffffffffffffffffffff1660055f9054906101000a900473ffffffffffffffffffffffffffffffffffffffff1673ffffffffffffffffffffffffffffffffffffffff16146106c8576040517f08c379a00000000000000000000000000000000000000000000000000000000081526004016106bf90611554565b60405180910390fd5b80600560146101000a81548160ff02191690831515021790555050565b5f8160035f8673ffffffffffffffffffffffffffffffffffffffff1673ffffffffffffffffffffffffffffffffffffffff1681526020019081526020015f2054101561072f575f5ffd5b3373ffffffffffffffffffffffffffffffffffffffff168473ffffffffffffffffffffffffffffffffffffffff161415801561080357507fffffffffffffffffffffffffffffffffffffffffffffffffffffffffffffffff60045f8673ffffffffffffffffffffffffffffffffffffffff1673ffffffffffffffffffffffffffffffffffffffff1681526020019081526020015f205f3373ffffffffffffffffffffffffffffffffffffffff1673ffffffffffffffffffffffffffffffffffffffff1681526020019081526020015f205414155b1561091b578160045f8673ffffffffffffffffffffffffffffffffffffffff1673ffffffffffffffffffffffffffffffffffffffff1681526020019081526020015f205f3373ffffffffffffffffffffffffffffffffffffffff1673ffffffffffffffffffffffffffffffffffffffff1681526020019081526020015f2054101561088c575f5ffd5b8160045f8673ffffffffffffffffffffffffffffffffffffffff1673ffffffffffffffffffffffffffffffffffffffff1681526020019081526020015f205f3373ffffffffffffffffffffffffffffffffffffffff1673ffffffffffffffffffffffffffffffffffffffff1681526020019081526020015f205f8282546109139190611572565b925050819055505b8160035f8673ffffffffffffffffffffffffffffffffffffffff1673ffffffffffffffffffffffffffffffffffffffff1681526020019081526020015f205f8282546109679190611572565b925050819055508160035f8573ffffffffffffffffffffffffffffffffffffffff1673ffffffffffffffffffffffffffffffffffffffff1681526020019081526020015f205f8282546109ba919061147a565b925050819055508273ffffffffffffffffffffffffffffffffffffffff168473ffffffffffffffffffffffffffffffffffffffff167fddf252ad1be2c89b69c2b068fc378daa952ba7f163c4a11628f55a4df523b3ef84604051610a1e919061129f565b60405180910390a3600190509392505050565b8060035f3373ffffffffffffffffffffffffffffffffffffffff1673ffffffffffffffffffffffffffffffffffffffff1681526020019081526020015f20541015610a7a575f5ffd5b8060035f3373ffffffffffffffffffffffffffffffffffffffff1673ffffffffffffffffffffffffffffffffffffffff1681526020019081526020015f205f828254610ac69190611572565b925050819055503373ffffffffffffffffffffffffffffffffffffffff166108fc8290811502906040515f60405180830381858888f19350505050158015610b10573d5f5f3e3d5ffd5b503373ffffffffffffffffffffffffffffffffffffffff167f7fcf532c15f0a6db0bd6d0e038bea71d30d808c7d98cb3bf7268a95bf5081b6582604051610b57919061129f565b60405180910390a250565b60025f9054906101000a900460ff1681565b5f60011515600560149054906101000a900460ff16151503610c0d57610b986110f7565b73ffffffffffffffffffffffffffffffffffffffff16610bb6610e4d565b73ffffffffffffffffffffffffffffffffffffffff1614610c0c576040517f08c379a0000000000000000000000000000000000000000000000000000000008152600401610c0390611554565b60405180910390fd5b5b8160035f8573ffffffffffffffffffffffffffffffffffffffff1673ffffffffffffffffffffffffffffffffffffffff1681526020019081526020015f205f828254610c59919061147a565b925050819055508273ffffffffffffffffffffffffffffffffffffffff165f73ffffffffffffffffffffffffffffffffffffffff167fddf252ad1be2c89b69c2b068fc378daa952ba7f163c4a11628f55a4df523b3ef84604051610cbd919061129f565b60405180910390a36001905092915050565b5f600560149054906101000a900460ff16905090565b6003602052805f5260405f205f915090505481565b610d026110f7565b73ffffffffffffffffffffffffffffffffffffffff1660055f9054906101000a900473ffffffffffffffffffffffffffffffffffffffff1673ffffffffffffffffffffffffffffffffffffffff1614610d90576040517f08c379a0000000000000000000000000000000000000000000000000000000008152600401610d8790611554565b60405180910390fd5b5f73ffffffffffffffffffffffffffffffffffffffff1660055f9054906101000a900473ffffffffffffffffffffffffffffffffffffffff1673ffffffffffffffffffffffffffffffffffffffff167f8be0079c531659141344cd1fd0a4f28419497f9722a3daafe3b4186f6b6457e060405160405180910390a35f60055f6101000a81548173ffffffffffffffffffffffffffffffffffffffff021916908373ffffffffffffffffffffffffffffffffffffffff160217905550565b5f60055f9054906101000a900473ffffffffffffffffffffffffffffffffffffffff16905090565b60018054610e82906114da565b80601f0160208091040260200160405190810160405280929190818152602001828054610eae906114da565b8015610ef95780601f10610ed057610100808354040283529160200191610ef9565b820191905f5260205f20905b815481529060010190602001808311610edc57829003601f168201915b505050505081565b5f610f0d3384846106e5565b905092915050565b6004602052815f5260405f20602052805f5260405f205f91509150505481565b610f3d6110f7565b73ffffffffffffffffffffffffffffffffffffffff1660055f9054906101000a900473ffffffffffffffffffffffffffffffffffffffff1673ffffffffffffffffffffffffffffffffffffffff1614610fcb576040517f08c379a0000000000000000000000000000000000000000000000000000000008152600401610fc290611554565b60405180910390fd5b5f73ffffffffffffffffffffffffffffffffffffffff168173ffffffffffffffffffffffffffffffffffffffff1603611039576040517f08c379a000000000000000000000000000000000000000000000000000000000815260040161103090611615565b60405180910390fd5b8073ffffffffffffffffffffffffffffffffffffffff1660055f9054906101000a900473ffffffffffffffffffffffffffffffffffffffff1673ffffffffffffffffffffffffffffffffffffffff167f8be0079c531659141344cd1fd0a4f28419497f9722a3daafe3b4186f6b6457e060405160405180910390a38060055f6101000a81548173ffffffffffffffffffffffffffffffffffffffff021916908373ffffffffffffffffffffffffffffffffffffffff16021790555050565b5f33905090565b5f81519050919050565b5f82825260208201905092915050565b8281835e5f83830152505050565b5f601f19601f8301169050919050565b5f611140826110fe565b61114a8185611108565b935061115a818560208601611118565b61116381611126565b840191505092915050565b5f6020820190508181035f8301526111868184611136565b905092915050565b5f5ffd5b5f73ffffffffffffffffffffffffffffffffffffffff82169050919050565b5f6111bb82611192565b9050919050565b6111cb816111b1565b81146111d5575f5ffd5b50565b5f813590506111e6816111c2565b92915050565b5f819050919050565b6111fe816111ec565b8114611208575f5ffd5b50565b5f81359050611219816111f5565b92915050565b5f5f604083850312156112355761123461118e565b5b5f611242858286016111d8565b92505060206112538582860161120b565b9150509250929050565b5f8115159050919050565b6112718161125d565b82525050565b5f60208201905061128a5f830184611268565b92915050565b611299816111ec565b82525050565b5f6020820190506112b25f830184611290565b92915050565b6112c18161125d565b81146112cb575f5ffd5b50565b5f813590506112dc816112b8565b92915050565b5f602082840312156112f7576112f661118e565b5b5f611304848285016112ce565b91505092915050565b5f5f5f606084860312156113245761132361118e565b5b5f611331868287016111d8565b9350506020611342868287016111d8565b92505060406113538682870161120b565b9150509250925092565b5f602082840312156113725761137161118e565b5b5f61137f8482850161120b565b91505092915050565b5f60ff82169050919050565b61139d81611388565b82525050565b5f6020820190506113b65f830184611394565b92915050565b5f602082840312156113d1576113d061118e565b5b5f6113de848285016111d8565b91505092915050565b6113f0816111b1565b82525050565b5f6020820190506114095f8301846113e7565b92915050565b5f5f604083850312156114255761142461118e565b5b5f611432858286016111d8565b9250506020611443858286016111d8565b9150509250929050565b7f4e487b71000000000000000000000000000000000000000000000000000000005f52601160045260245ffd5b5f611484826111ec565b915061148f836111ec565b92508282019050808211156114a7576114a661144d565b5b92915050565b7f4e487b71000000000000000000000000000000000000000000000000000000005f52602260045260245ffd5b5f60028204905060018216806114f157607f821691505b602082108103611504576115036114ad565b5b50919050565b7f4f776e61626c653a2063616c6c6572206973206e6f7420746865206f776e65725f82015250565b5f61153e602083611108565b91506115498261150a565b602082019050919050565b5f6020820190508181035f83015261156b81611532565b9050919050565b5f61157c826111ec565b9150611587836111ec565b925082820390508181111561159f5761159e61144d565b5b92915050565b7f4f776e61626c653a206e6577206f776e657220697320746865207a65726f20615f8201527f6464726573730000000000000000000000000000000000000000000000000000602082015250565b5f6115ff602683611108565b915061160a826115a5565b604082019050919050565b5f6020820190508181035f83015261162c816115f3565b905091905056fea26469706673582212208f99d018a3c8d905893dc71acf3701205909571f517c63d3dca41bed854b2c7964736f6c634300081c0033","linkReferences":{}},"methodIdentifiers":{"allowance(address,address)":"dd62ed3e","approve(address,uint256)":"095ea7b3","balanceOf(address)":"70a08231","decimals()":"313ce567","deposit()":"d0e30db0","isProtected()":"5300f82b","mint(address,uint256)":"40c10f19","name()":"06fdde03","owner()":"8da5cb5b","renounceOwnership()":"715018a6","setProtected(bool)":"1c02bc31","symbol()":"95d89b41","totalSupply()":"18160ddd","transfer(address,uint256)":"a9059cbb","transferFrom(address,address,uint256)":"23b872dd","transferOwnership(address)":"f2fde38b","withdraw(uint256)":"2e1a7d4d"},"id":22}