{"abi":[{"type":"constructor","inputs":[{"name":"name","type":"string","internalType":"string"},{"name":"symbol","type":"string","internalType":"string"},{"name":"decimals","type":"uint8","internalType":"uint8"}],"stateMutability":"nonpayable"},{"type":"function","name":"DOMAIN_SEPARATOR","inputs":[],"outputs":[{"name":"","type":"bytes32","internalType":"bytes32"}],"stateMutability":"view"},{"type":"function","name":"EIP712_REVISION","inputs":[],"outputs":[{"name":"","type":"bytes","internalType":"bytes"}],"stateMutability":"view"},{"type":"function","name":"PERMIT_TYPEHASH","inputs":[],"outputs":[{"name":"","type":"bytes32","internalType":"bytes32"}],"stateMutability":"view"},{"type":"function","name":"allowance","inputs":[{"name":"owner","type":"address","internalType":"address"},{"name":"spender","type":"address","internalType":"address"}],"outputs":[{"name":"","type":"uint256","internalType":"uint256"}],"stateMutability":"view"},{"type":"function","name":"approve","inputs":[{"name":"spender","type":"address","internalType":"address"},{"name":"amount","type":"uint256","internalType":"uint256"}],"outputs":[{"name":"","type":"bool","internalType":"bool"}],"stateMutability":"nonpayable"},{"type":"function","name":"balanceOf","inputs":[{"name":"account","type":"address","internalType":"address"}],"outputs":[{"name":"","type":"uint256","internalType":"uint256"}],"stateMutability":"view"},{"type":"function","name":"decimals","inputs":[],"outputs":[{"name":"","type":"uint8","internalType":"uint8"}],"stateMutability":"view"},{"type":"function","name":"decreaseAllowance","inputs":[{"name":"spender","type":"address","internalType":"address"},{"name":"subtractedValue","type":"uint256","internalType":"uint256"}],"outputs":[{"name":"","type":"bool","internalType":"bool"}],"stateMutability":"nonpayable"},{"type":"function","name":"increaseAllowance","inputs":[{"name":"spender","type":"address","internalType":"address"},{"name":"addedValue","type":"uint256","internalType":"uint256"}],"outputs":[{"name":"","type":"bool","internalType":"bool"}],"stateMutability":"nonpayable"},{"type":"function","name":"mint","inputs":[{"name":"account","type":"address","internalType":"address"},{"name":"value","type":"uint256","internalType":"uint256"}],"outputs":[{"name":"","type":"bool","internalType":"bool"}],"stateMutability":"nonpayable"},{"type":"function","name":"mint","inputs":[{"name":"value","type":"uint256","internalType":"uint256"}],"outputs":[{"name":"","type":"bool","internalType":"bool"}],"stateMutability":"nonpayable"},{"type":"function","name":"name","inputs":[],"outputs":[{"name":"","type":"string","internalType":"string"}],"stateMutability":"view"},{"type":"function","name":"nonces","inputs":[{"name":"owner","type":"address","internalType":"address"}],"outputs":[{"name":"","type":"uint256","internalType":"uint256"}],"stateMutability":"view"},{"type":"function","name":"permit","inputs":[{"name":"owner","type":"address","internalType":"address"},{"name":"spender","type":"address","internalType":"address"},{"name":"value","type":"uint256","internalType":"uint256"},{"name":"deadline","type":"uint256","internalType":"uint256"},{"name":"v","type":"uint8","internalType":"uint8"},{"name":"r","type":"bytes32","internalType":"bytes32"},{"name":"s","type":"bytes32","internalType":"bytes32"}],"outputs":[],"stateMutability":"nonpayable"},{"type":"function","name":"symbol","inputs":[],"outputs":[{"name":"","type":"string","internalType":"string"}],"stateMutability":"view"},{"type":"function","name":"totalSupply","inputs":[],"outputs":[{"name":"","type":"uint256","internalType":"uint256"}],"stateMutability":"view"},{"type":"function","name":"transfer","inputs":[{"name":"recipient","type":"address","internalType":"address"},{"name":"amount","type":"uint256","internalType":"uint256"}],"outputs":[{"name":"","type":"bool","internalType":"bool"}],"stateMutability":"nonpayable"},{"type":"function","name":"transferFrom","inputs":[{"name":"sender","type":"address","internalType":"address"},{"name":"recipient","type":"address","internalType":"address"},{"name":"amount","type":"uint256","internalType":"uint256"}],"outputs":[{"name":"","type":"bool","internalType":"bool"}],"stateMutability":"nonpayable"},{"type":"event","name":"Approval","inputs":[{"name":"owner","type":"address","indexed":true,"internalType":"address"},{"name":"spender","type":"address","indexed":true,"internalType":"address"},{"name":"value","type":"uint256","indexed":false,"internalType":"uint256"}],"anonymous":false},{"type":"event","name":"Transfer","inputs":[{"name":"from","type":"address","indexed":true,"internalType":"address"},{"name":"to","type":"address","indexed":true,"internalType":"address"},{"name":"value","type":"uint256","indexed":false,"internalType":"uint256"}],"anonymous":false}],"bytecode":{"object":"0x608060405234801561000f575f5ffd5b50604051612413380380612413833981810160405281019061003191906102c4565b82828160039081610042919061055c565b508060049081610052919061055c565b50601260055f6101000a81548160ff021916908360ff16021790555050505f4690507f8b73c3c69bb8fe3d512ecc4cf759cc79239f7b179b0ffacaa9a75d522b39400f84805190602001206040518060400160405280600181526020017f31000000000000000000000000000000000000000000000000000000000000008152508051906020012083306040516020016100f0959493929190610691565b6040516020818303038152906040528051906020012060078190555061011b8261012460201b60201c565b505050506106e2565b8060055f6101000a81548160ff021916908360ff16021790555050565b5f604051905090565b5f5ffd5b5f5ffd5b5f5ffd5b5f5ffd5b5f601f19601f8301169050919050565b7f4e487b71000000000000000000000000000000000000000000000000000000005f52604160045260245ffd5b6101a08261015a565b810181811067ffffffffffffffff821117156101bf576101be61016a565b5b80604052505050565b5f6101d1610141565b90506101dd8282610197565b919050565b5f67ffffffffffffffff8211156101fc576101fb61016a565b5b6102058261015a565b9050602081019050919050565b8281835e5f83830152505050565b5f61023261022d846101e2565b6101c8565b90508281526020810184848401111561024e5761024d610156565b5b610259848285610212565b509392505050565b5f82601f83011261027557610274610152565b5b8151610285848260208601610220565b91505092915050565b5f60ff82169050919050565b6102a38161028e565b81146102ad575f5ffd5b50565b5f815190506102be8161029a565b92915050565b5f5f5f606084860312156102db576102da61014a565b5b5f84015167ffffffffffffffff8111156102f8576102f761014e565b5b61030486828701610261565b935050602084015167ffffffffffffffff8111156103255761032461014e565b5b61033186828701610261565b9250506040610342868287016102b0565b9150509250925092565b5f81519050919050565b7f4e487b71000000000000000000000000000000000000000000000000000000005f52602260045260245ffd5b5f600282049050600182168061039a57607f821691505b6020821081036103ad576103ac610356565b5b50919050565b5f819050815f5260205f209050919050565b5f6020601f8301049050919050565b5f82821b905092915050565b5f6008830261040f7fffffffffffffffffffffffffffffffffffffffffffffffffffffffffffffffff826103d4565b61041986836103d4565b95508019841693508086168417925050509392505050565b5f819050919050565b5f819050919050565b5f61045d61045861045384610431565b61043a565b610431565b9050919050565b5f819050919050565b61047683610443565b61048a61048282610464565b8484546103e0565b825550505050565b5f5f905090565b6104a1610492565b6104ac81848461046d565b505050565b5b818110156104cf576104c45f82610499565b6001810190506104b2565b5050565b601f821115610514576104e5816103b3565b6104ee846103c5565b810160208510156104fd578190505b610511610509856103c5565b8301826104b1565b50505b505050565b5f82821c905092915050565b5f6105345f1984600802610519565b1980831691505092915050565b5f61054c8383610525565b9150826002028217905092915050565b6105658261034c565b67ffffffffffffffff81111561057e5761057d61016a565b5b6105888254610383565b6105938282856104d3565b5f60209050601f8311600181146105c4575f84156105b2578287015190505b6105bc8582610541565b865550610623565b601f1984166105d2866103b3565b5f5b828110156105f9578489015182556001820191506020850194506020810190506105d4565b868310156106165784890151610612601f891682610525565b8355505b6001600288020188555050505b505050505050565b5f819050919050565b61063d8161062b565b82525050565b61064c81610431565b82525050565b5f73ffffffffffffffffffffffffffffffffffffffff82169050919050565b5f61067b82610652565b9050919050565b61068b81610671565b82525050565b5f60a0820190506106a45f830188610634565b6106b16020830187610634565b6106be6040830186610634565b6106cb6060830185610643565b6106d86080830184610682565b9695505050505050565b611d24806106ef5f395ff3fe608060405234801561000f575f5ffd5b5060043610610114575f3560e01c806370a08231116100a0578063a0712d681161006f578063a0712d681461030a578063a457c2d71461033a578063a9059cbb1461036a578063d505accf1461039a578063dd62ed3e146103b657610114565b806370a082311461026e578063781603761461029e5780637ecebe00146102bc57806395d89b41146102ec57610114565b806330adf81f116100e757806330adf81f146101b4578063313ce567146101d25780633644e515146101f0578063395093511461020e57806340c10f191461023e57610114565b806306fdde0314610118578063095ea7b31461013657806318160ddd1461016657806323b872dd14610184575b5f5ffd5b6101206103e6565b60405161012d9190611295565b60405180910390f35b610150600480360381019061014b9190611346565b610476565b60405161015d919061139e565b60405180910390f35b61016e610493565b60405161017b91906113c6565b60405180910390f35b61019e600480360381019061019991906113df565b61049c565b6040516101ab919061139e565b60405180910390f35b6101bc610570565b6040516101c99190611447565b60405180910390f35b6101da610594565b6040516101e7919061147b565b60405180910390f35b6101f86105a9565b6040516102059190611447565b60405180910390f35b61022860048036038101906102239190611346565b6105af565b604051610235919061139e565b60405180910390f35b61025860048036038101906102539190611346565b61065d565b604051610265919061139e565b60405180910390f35b61028860048036038101906102839190611494565b610672565b60405161029591906113c6565b60405180910390f35b6102a66106b7565b6040516102b39190611511565b60405180910390f35b6102d660048036038101906102d19190611494565b6106f0565b6040516102e391906113c6565b60405180910390f35b6102f4610736565b6040516103019190611295565b60405180910390f35b610324600480360381019061031f9190611531565b6107c6565b604051610331919061139e565b60405180910390f35b610354600480360381019061034f9190611346565b6107e1565b604051610361919061139e565b60405180910390f35b610384600480360381019061037f9190611346565b6108a9565b604051610391919061139e565b60405180910390f35b6103b460048036038101906103af91906115b0565b6108c6565b005b6103d060048036038101906103cb919061164d565b610b53565b6040516103dd91906113c6565b60405180910390f35b6060600380546103f5906116b8565b80601f0160208091040260200160405190810160405280929190818152602001828054610421906116b8565b801561046c5780601f106104435761010080835404028352916020019161046c565b820191905f5260205f20905b81548152906001019060200180831161044f57829003601f168201915b5050505050905090565b5f610489610482610bd5565b8484610bdc565b6001905092915050565b5f600254905090565b5f6104a8848484610d9f565b610565846104b4610bd5565b61056085604051806060016040528060288152602001611ca26028913960015f8b73ffffffffffffffffffffffffffffffffffffffff1673ffffffffffffffffffffffffffffffffffffffff1681526020019081526020015f205f610517610bd5565b73ffffffffffffffffffffffffffffffffffffffff1673ffffffffffffffffffffffffffffffffffffffff1681526020019081526020015f20546110289092919063ffffffff16565b610bdc565b600190509392505050565b7f6e71edae12b1b97f4d1f60370fef10105fa2faae0126114a169c64845d6126c981565b5f60055f9054906101000a900460ff16905090565b60075481565b5f6106536105bb610bd5565b8461064e8560015f6105cb610bd5565b73ffffffffffffffffffffffffffffffffffffffff1673ffffffffffffffffffffffffffffffffffffffff1681526020019081526020015f205f8973ffffffffffffffffffffffffffffffffffffffff1673ffffffffffffffffffffffffffffffffffffffff1681526020019081526020015f205461107c90919063ffffffff16565b610bdc565b6001905092915050565b5f6106688383611094565b6001905092915050565b5f5f5f8373ffffffffffffffffffffffffffffffffffffffff1673ffffffffffffffffffffffffffffffffffffffff1681526020019081526020015f20549050919050565b6040518060400160405280600181526020017f310000000000000000000000000000000000000000000000000000000000000081525081565b5f60065f8373ffffffffffffffffffffffffffffffffffffffff1673ffffffffffffffffffffffffffffffffffffffff1681526020019081526020015f20549050919050565b606060048054610745906116b8565b80601f0160208091040260200160405190810160405280929190818152602001828054610771906116b8565b80156107bc5780601f10610793576101008083540402835291602001916107bc565b820191905f5260205f20905b81548152906001019060200180831161079f57829003601f168201915b5050505050905090565b5f6107d86107d2610bd5565b83611094565b60019050919050565b5f61089f6107ed610bd5565b8461089a85604051806060016040528060258152602001611cca6025913960015f610816610bd5565b73ffffffffffffffffffffffffffffffffffffffff1673ffffffffffffffffffffffffffffffffffffffff1681526020019081526020015f205f8a73ffffffffffffffffffffffffffffffffffffffff1673ffffffffffffffffffffffffffffffffffffffff1681526020019081526020015f20546110289092919063ffffffff16565b610bdc565b6001905092915050565b5f6108bc6108b5610bd5565b8484610d9f565b6001905092915050565b5f73ffffffffffffffffffffffffffffffffffffffff168773ffffffffffffffffffffffffffffffffffffffff1603610934576040517f08c379a000000000000000000000000000000000000000000000000000000000815260040161092b90611732565b60405180910390fd5b83421115610977576040517f08c379a000000000000000000000000000000000000000000000000000000000815260040161096e9061179a565b60405180910390fd5b5f60065f8973ffffffffffffffffffffffffffffffffffffffff1673ffffffffffffffffffffffffffffffffffffffff1681526020019081526020015f205490505f6007547f6e71edae12b1b97f4d1f60370fef10105fa2faae0126114a169c64845d6126c98a8a8a868b6040516020016109f7969594939291906117c7565b60405160208183030381529060405280519060200120604051602001610a1e92919061189a565b6040516020818303038152906040528051906020012090506001818686866040515f8152602001604052604051610a5894939291906118d0565b6020604051602081039080840390855afa158015610a78573d5f5f3e3d5ffd5b5050506020604051035173ffffffffffffffffffffffffffffffffffffffff168973ffffffffffffffffffffffffffffffffffffffff1614610aef576040517f08c379a0000000000000000000000000000000000000000000000000000000008152600401610ae69061195d565b60405180910390fd5b600182610afc91906119a8565b60065f8b73ffffffffffffffffffffffffffffffffffffffff1673ffffffffffffffffffffffffffffffffffffffff1681526020019081526020015f2081905550610b48898989610bdc565b505050505050505050565b5f60015f8473ffffffffffffffffffffffffffffffffffffffff1673ffffffffffffffffffffffffffffffffffffffff1681526020019081526020015f205f8373ffffffffffffffffffffffffffffffffffffffff1673ffffffffffffffffffffffffffffffffffffffff1681526020019081526020015f2054905092915050565b5f33905090565b5f73ffffffffffffffffffffffffffffffffffffffff168373ffffffffffffffffffffffffffffffffffffffff1603610c4a576040517f08c379a0000000000000000000000000000000000000000000000000000000008152600401610c4190611a4b565b60405180910390fd5b5f73ffffffffffffffffffffffffffffffffffffffff168273ffffffffffffffffffffffffffffffffffffffff1603610cb8576040517f08c379a0000000000000000000000000000000000000000000000000000000008152600401610caf90611ad9565b60405180910390fd5b8060015f8573ffffffffffffffffffffffffffffffffffffffff1673ffffffffffffffffffffffffffffffffffffffff1681526020019081526020015f205f8473ffffffffffffffffffffffffffffffffffffffff1673ffffffffffffffffffffffffffffffffffffffff1681526020019081526020015f20819055508173ffffffffffffffffffffffffffffffffffffffff168373ffffffffffffffffffffffffffffffffffffffff167f8c5be1e5ebec7d5bd14f71427d1e84f3dd0314c0f7b2291e5b200ac8c7c3b92583604051610d9291906113c6565b60405180910390a3505050565b5f73ffffffffffffffffffffffffffffffffffffffff168373ffffffffffffffffffffffffffffffffffffffff1603610e0d576040517f08c379a0000000000000000000000000000000000000000000000000000000008152600401610e0490611b67565b60405180910390fd5b5f73ffffffffffffffffffffffffffffffffffffffff168273ffffffffffffffffffffffffffffffffffffffff1603610e7b576040517f08c379a0000000000000000000000000000000000000000000000000000000008152600401610e7290611bf5565b60405180910390fd5b610e86838383611220565b610eef81604051806060016040528060268152602001611c7c602691395f5f8773ffffffffffffffffffffffffffffffffffffffff1673ffffffffffffffffffffffffffffffffffffffff1681526020019081526020015f20546110289092919063ffffffff16565b5f5f8573ffffffffffffffffffffffffffffffffffffffff1673ffffffffffffffffffffffffffffffffffffffff1681526020019081526020015f2081905550610f7e815f5f8573ffffffffffffffffffffffffffffffffffffffff1673ffffffffffffffffffffffffffffffffffffffff1681526020019081526020015f205461107c90919063ffffffff16565b5f5f8473ffffffffffffffffffffffffffffffffffffffff1673ffffffffffffffffffffffffffffffffffffffff1681526020019081526020015f20819055508173ffffffffffffffffffffffffffffffffffffffff168373ffffffffffffffffffffffffffffffffffffffff167fddf252ad1be2c89b69c2b068fc378daa952ba7f163c4a11628f55a4df523b3ef8360405161101b91906113c6565b60405180910390a3505050565b5f8383850391508111158290611074576040517f08c379a000000000000000000000000000000000000000000000000000000000815260040161106b9190611295565b60405180910390fd5b509392505050565b5f82828401915081101561108e575f5ffd5b92915050565b5f73ffffffffffffffffffffffffffffffffffffffff168273ffffffffffffffffffffffffffffffffffffffff1603611102576040517f08c379a00000000000000000000000000000000000000000000000000000000081526004016110f990611c5d565b60405180910390fd5b61110d5f8383611220565b6111228160025461107c90919063ffffffff16565b600281905550611177815f5f8573ffffffffffffffffffffffffffffffffffffffff1673ffffffffffffffffffffffffffffffffffffffff1681526020019081526020015f205461107c90919063ffffffff16565b5f5f8473ffffffffffffffffffffffffffffffffffffffff1673ffffffffffffffffffffffffffffffffffffffff1681526020019081526020015f20819055508173ffffffffffffffffffffffffffffffffffffffff165f73ffffffffffffffffffffffffffffffffffffffff167fddf252ad1be2c89b69c2b068fc378daa952ba7f163c4a11628f55a4df523b3ef8360405161121491906113c6565b60405180910390a35050565b505050565b5f81519050919050565b5f82825260208201905092915050565b8281835e5f83830152505050565b5f601f19601f8301169050919050565b5f61126782611225565b611271818561122f565b935061128181856020860161123f565b61128a8161124d565b840191505092915050565b5f6020820190508181035f8301526112ad818461125d565b905092915050565b5f5ffd5b5f73ffffffffffffffffffffffffffffffffffffffff82169050919050565b5f6112e2826112b9565b9050919050565b6112f2816112d8565b81146112fc575f5ffd5b50565b5f8135905061130d816112e9565b92915050565b5f819050919050565b61132581611313565b811461132f575f5ffd5b50565b5f813590506113408161131c565b92915050565b5f5f6040838503121561135c5761135b6112b5565b5b5f611369858286016112ff565b925050602061137a85828601611332565b9150509250929050565b5f8115159050919050565b61139881611384565b82525050565b5f6020820190506113b15f83018461138f565b92915050565b6113c081611313565b82525050565b5f6020820190506113d95f8301846113b7565b92915050565b5f5f5f606084860312156113f6576113f56112b5565b5b5f611403868287016112ff565b9350506020611414868287016112ff565b925050604061142586828701611332565b9150509250925092565b5f819050919050565b6114418161142f565b82525050565b5f60208201905061145a5f830184611438565b92915050565b5f60ff82169050919050565b61147581611460565b82525050565b5f60208201905061148e5f83018461146c565b92915050565b5f602082840312156114a9576114a86112b5565b5b5f6114b6848285016112ff565b91505092915050565b5f81519050919050565b5f82825260208201905092915050565b5f6114e3826114bf565b6114ed81856114c9565b93506114fd81856020860161123f565b6115068161124d565b840191505092915050565b5f6020820190508181035f83015261152981846114d9565b905092915050565b5f60208284031215611546576115456112b5565b5b5f61155384828501611332565b91505092915050565b61156581611460565b811461156f575f5ffd5b50565b5f813590506115808161155c565b92915050565b61158f8161142f565b8114611599575f5ffd5b50565b5f813590506115aa81611586565b92915050565b5f5f5f5f5f5f5f60e0888a0312156115cb576115ca6112b5565b5b5f6115d88a828b016112ff565b97505060206115e98a828b016112ff565b96505060406115fa8a828b01611332565b955050606061160b8a828b01611332565b945050608061161c8a828b01611572565b93505060a061162d8a828b0161159c565b92505060c061163e8a828b0161159c565b91505092959891949750929550565b5f5f60408385031215611663576116626112b5565b5b5f611670858286016112ff565b9250506020611681858286016112ff565b9150509250929050565b7f4e487b71000000000000000000000000000000000000000000000000000000005f52602260045260245ffd5b5f60028204905060018216806116cf57607f821691505b6020821081036116e2576116e161168b565b5b50919050565b7f494e56414c49445f4f574e4552000000000000000000000000000000000000005f82015250565b5f61171c600d8361122f565b9150611727826116e8565b602082019050919050565b5f6020820190508181035f83015261174981611710565b9050919050565b7f494e56414c49445f45585049524154494f4e00000000000000000000000000005f82015250565b5f61178460128361122f565b915061178f82611750565b602082019050919050565b5f6020820190508181035f8301526117b181611778565b9050919050565b6117c1816112d8565b82525050565b5f60c0820190506117da5f830189611438565b6117e760208301886117b8565b6117f460408301876117b8565b61180160608301866113b7565b61180e60808301856113b7565b61181b60a08301846113b7565b979650505050505050565b5f81905092915050565b7f19010000000000000000000000000000000000000000000000000000000000005f82015250565b5f611864600283611826565b915061186f82611830565b600282019050919050565b5f819050919050565b61189461188f8261142f565b61187a565b82525050565b5f6118a482611858565b91506118b08285611883565b6020820191506118c08284611883565b6020820191508190509392505050565b5f6080820190506118e35f830187611438565b6118f0602083018661146c565b6118fd6040830185611438565b61190a6060830184611438565b95945050505050565b7f494e56414c49445f5349474e41545552450000000000000000000000000000005f82015250565b5f61194760118361122f565b915061195282611913565b602082019050919050565b5f6020820190508181035f8301526119748161193b565b9050919050565b7f4e487b71000000000000000000000000000000000000000000000000000000005f52601160045260245ffd5b5f6119b282611313565b91506119bd83611313565b92508282019050808211156119d5576119d461197b565b5b92915050565b7f45524332303a20617070726f76652066726f6d20746865207a65726f206164645f8201527f7265737300000000000000000000000000000000000000000000000000000000602082015250565b5f611a3560248361122f565b9150611a40826119db565b604082019050919050565b5f6020820190508181035f830152611a6281611a29565b9050919050565b7f45524332303a20617070726f766520746f20746865207a65726f2061646472655f8201527f7373000000000000000000000000000000000000000000000000000000000000602082015250565b5f611ac360228361122f565b9150611ace82611a69565b604082019050919050565b5f6020820190508181035f830152611af081611ab7565b9050919050565b7f45524332303a207472616e736665722066726f6d20746865207a65726f2061645f8201527f6472657373000000000000000000000000000000000000000000000000000000602082015250565b5f611b5160258361122f565b9150611b5c82611af7565b604082019050919050565b5f6020820190508181035f830152611b7e81611b45565b9050919050565b7f45524332303a207472616e7366657220746f20746865207a65726f20616464725f8201527f6573730000000000000000000000000000000000000000000000000000000000602082015250565b5f611bdf60238361122f565b9150611bea82611b85565b604082019050919050565b5f6020820190508181035f830152611c0c81611bd3565b9050919050565b7f45524332303a206d696e7420746f20746865207a65726f2061646472657373005f82015250565b5f611c47601f8361122f565b9150611c5282611c13565b602082019050919050565b5f6020820190508181035f830152611c7481611c3b565b905091905056fe45524332303a207472616e7366657220616d6f756e7420657863656564732062616c616e636545524332303a207472616e7366657220616d6f756e74206578636565647320616c6c6f77616e636545524332303a2064656372656173656420616c6c6f77616e63652062656c6f77207a65726fa2646970667358221220cc604eb31c0efb81f03221716c5b36ba6df07e08a5f356d4a9b8f317254a69bc64736f6c634300081c0033","linkReferences":{}},"methodIdentifiers":{"DOMAIN_SEPARATOR()":"3644e515","EIP712_REVISION()":"78160376","PERMIT_TYPEHASH()":"30adf81f","allowance(address,address)":"dd62ed3e","approve(address,uint256)":"095ea7b3","balanceOf(address)":"70a08231","decimals()":"313ce567","decreaseAllowance(address,uint256)":"a457c2d7","increaseAllowance(address,uint256)":"39509351","mint(address,uint256)":"40c10f19","mint(uint256)":"a0712d68","name()":"06fdde03","nonces(address)":"7ecebe00","permit(address,address,uint256,uint256,uint8,bytes32,bytes32)":"d505accf","symbol()":"95d89b41","totalSupply()":"18160ddd","transfer(address,uint256)":"a9059cbb","transferFrom(address,address,uint256)":"23b872dd"},"id":88}