{"abi":[{"type":"constructor","inputs":[{"name":"aic","type":"address","internalType":"contract IRewardsController"},{"name":"decimals","type":"uint256","internalType":"uint256"}],"stateMutability":"nonpayable"},{"type":"function","name":"_aic","inputs":[],"outputs":[{"name":"","type":"address","internalType":"contract IRewardsController"}],"stateMutability":"view"},{"type":"function","name":"cleanUserState","inputs":[],"outputs":[],"stateMutability":"nonpayable"},{"type":"function","name":"decimals","inputs":[],"outputs":[{"name":"","type":"uint256","internalType":"uint256"}],"stateMutability":"view"},{"type":"function","name":"doubleHandleActionOnAic","inputs":[{"name":"user","type":"address","internalType":"address"},{"name":"totalSupply","type":"uint256","internalType":"uint256"},{"name":"userBalance","type":"uint256","internalType":"uint256"}],"outputs":[],"stateMutability":"nonpayable"},{"type":"function","name":"getScaledUserBalanceAndSupply","inputs":[{"name":"","type":"address","internalType":"address"}],"outputs":[{"name":"","type":"uint256","internalType":"uint256"},{"name":"","type":"uint256","internalType":"uint256"}],"stateMutability":"view"},{"type":"function","name":"handleActionOnAic","inputs":[{"name":"user","type":"address","internalType":"address"},{"name":"totalSupply","type":"uint256","internalType":"uint256"},{"name":"userBalance","type":"uint256","internalType":"uint256"}],"outputs":[],"stateMutability":"nonpayable"},{"type":"function","name":"scaledTotalSupply","inputs":[],"outputs":[{"name":"","type":"uint256","internalType":"uint256"}],"stateMutability":"view"},{"type":"function","name":"setUserBalanceAndSupply","inputs":[{"name":"userBalance","type":"uint256","internalType":"uint256"},{"name":"totalSupply","type":"uint256","internalType":"uint256"}],"outputs":[],"stateMutability":"nonpayable"},{"type":"function","name":"totalSupply","inputs":[],"outputs":[{"name":"","type":"uint256","internalType":"uint256"}],"stateMutability":"view"},{"type":"event","name":"Accrued","inputs":[{"name":"asset","type":"address","indexed":true,"internalType":"address"},{"name":"user","type":"address","indexed":true,"internalType":"address"},{"name":"assetIndex","type":"uint256","indexed":false,"internalType":"uint256"},{"name":"userIndex","type":"uint256","indexed":false,"internalType":"uint256"},{"name":"rewardsAccrued","type":"uint256","indexed":false,"internalType":"uint256"}],"anonymous":false},{"type":"event","name":"AssetConfigUpdated","inputs":[{"name":"asset","type":"address","indexed":true,"internalType":"address"},{"name":"reward","type":"address","indexed":true,"internalType":"address"},{"name":"emission","type":"uint256","indexed":false,"internalType":"uint256"},{"name":"distributionEnd","type":"uint256","indexed":false,"internalType":"uint256"},{"name":"assetIndex","type":"uint256","indexed":false,"internalType":"uint256"}],"anonymous":false}],"bytecode":{"object":"0x60a060405234801561000f575f5ffd5b506040516107d23803806107d283398181016040528101906100319190610121565b815f5f6101000a81548173ffffffffffffffffffffffffffffffffffffffff021916908373ffffffffffffffffffffffffffffffffffffffff1602179055508060808181525050505061015f565b5f5ffd5b5f73ffffffffffffffffffffffffffffffffffffffff82169050919050565b5f6100ac82610083565b9050919050565b5f6100bd826100a2565b9050919050565b6100cd816100b3565b81146100d7575f5ffd5b50565b5f815190506100e8816100c4565b92915050565b5f819050919050565b610100816100ee565b811461010a575f5ffd5b50565b5f8151905061011b816100f7565b92915050565b5f5f604083850312156101375761013661007f565b5b5f610144858286016100da565b92505060206101558582860161010d565b9150509250929050565b60805161065b6101775f395f6101b9015261065b5ff3fe608060405234801561000f575f5ffd5b5060043610610091575f3560e01c80638d279294116100645780638d2792941461011e578063b1bf962d1461013a578063b39944ba14610158578063b41c6f9814610162578063f794ca511461018057610091565b80630afbcdc91461009557806318160ddd146100c6578063313ce567146100e457806334743e7c14610102575b5f5ffd5b6100af60048036038101906100aa9190610432565b61019c565b6040516100bd929190610475565b60405180910390f35b6100ce6101ad565b6040516100db919061049c565b60405180910390f35b6100ec6101b6565b6040516100f9919061049c565b60405180910390f35b61011c600480360381019061011791906104df565b6101dd565b005b610138600480360381019061013391906104df565b61026c565b005b610142610385565b60405161014f919061049c565b60405180910390f35b61016061038e565b005b61016a61039e565b604051610177919061058a565b60405180910390f35b61019a600480360381019061019591906105a3565b6103c2565b005b5f5f60015460025491509150915091565b5f600254905090565b5f7f0000000000000000000000000000000000000000000000000000000000000000905090565b5f5f9054906101000a900473ffffffffffffffffffffffffffffffffffffffff1673ffffffffffffffffffffffffffffffffffffffff166331873e2e8484846040518463ffffffff1660e01b815260040161023a939291906105f0565b5f604051808303815f87803b158015610251575f5ffd5b505af1158015610263573d5f5f3e3d5ffd5b50505050505050565b5f5f9054906101000a900473ffffffffffffffffffffffffffffffffffffffff1673ffffffffffffffffffffffffffffffffffffffff166331873e2e8484846040518463ffffffff1660e01b81526004016102c9939291906105f0565b5f604051808303815f87803b1580156102e0575f5ffd5b505af11580156102f2573d5f5f3e3d5ffd5b505050505f5f9054906101000a900473ffffffffffffffffffffffffffffffffffffffff1673ffffffffffffffffffffffffffffffffffffffff166331873e2e8484846040518463ffffffff1660e01b8152600401610353939291906105f0565b5f604051808303815f87803b15801561036a575f5ffd5b505af115801561037c573d5f5f3e3d5ffd5b50505050505050565b5f600254905090565b5f6001819055505f600281905550565b5f5f9054906101000a900473ffffffffffffffffffffffffffffffffffffffff1681565b81600181905550806002819055505050565b5f5ffd5b5f73ffffffffffffffffffffffffffffffffffffffff82169050919050565b5f610401826103d8565b9050919050565b610411816103f7565b811461041b575f5ffd5b50565b5f8135905061042c81610408565b92915050565b5f60208284031215610447576104466103d4565b5b5f6104548482850161041e565b91505092915050565b5f819050919050565b61046f8161045d565b82525050565b5f6040820190506104885f830185610466565b6104956020830184610466565b9392505050565b5f6020820190506104af5f830184610466565b92915050565b6104be8161045d565b81146104c8575f5ffd5b50565b5f813590506104d9816104b5565b92915050565b5f5f5f606084860312156104f6576104f56103d4565b5b5f6105038682870161041e565b9350506020610514868287016104cb565b9250506040610525868287016104cb565b9150509250925092565b5f819050919050565b5f61055261054d610548846103d8565b61052f565b6103d8565b9050919050565b5f61056382610538565b9050919050565b5f61057482610559565b9050919050565b6105848161056a565b82525050565b5f60208201905061059d5f83018461057b565b92915050565b5f5f604083850312156105b9576105b86103d4565b5b5f6105c6858286016104cb565b92505060206105d7858286016104cb565b9150509250929050565b6105ea816103f7565b82525050565b5f6060820190506106035f8301866105e1565b6106106020830185610466565b61061d6040830184610466565b94935050505056fea26469706673582212200ee11a3ed811cf8f743a815c5df1d3071e10da41716f420063d3f761bb5329a164736f6c634300081c0033","linkReferences":{}},"methodIdentifiers":{"_aic()":"b41c6f98","cleanUserState()":"b39944ba","decimals()":"313ce567","doubleHandleActionOnAic(address,uint256,uint256)":"8d279294","getScaledUserBalanceAndSupply(address)":"0afbcdc9","handleActionOnAic(address,uint256,uint256)":"34743e7c","scaledTotalSupply()":"b1bf962d","setUserBalanceAndSupply(uint256,uint256)":"f794ca51","totalSupply()":"18160ddd"},"id":20}