{"abi":[{"type":"constructor","inputs":[{"name":"owner","type":"address","internalType":"address"},{"name":"permissioned","type":"bool","internalType":"bool"},{"name":"maxMinAmount","type":"uint256","internalType":"uint256"}],"stateMutability":"nonpayable"},{"type":"function","name":"getMaximumMintAmount","inputs":[],"outputs":[{"name":"","type":"uint256","internalType":"uint256"}],"stateMutability":"view"},{"type":"function","name":"isMintable","inputs":[{"name":"asset","type":"address","internalType":"address"}],"outputs":[{"name":"","type":"bool","internalType":"bool"}],"stateMutability":"view"},{"type":"function","name":"isPermissioned","inputs":[],"outputs":[{"name":"","type":"bool","internalType":"bool"}],"stateMutability":"view"},{"type":"function","name":"mint","inputs":[{"name":"token","type":"address","internalType":"address"},{"name":"to","type":"address","internalType":"address"},{"name":"amount","type":"uint256","internalType":"uint256"}],"outputs":[{"name":"","type":"uint256","internalType":"uint256"}],"stateMutability":"nonpayable"},{"type":"function","name":"owner","inputs":[],"outputs":[{"name":"","type":"address","internalType":"address"}],"stateMutability":"view"},{"type":"function","name":"renounceOwnership","inputs":[],"outputs":[],"stateMutability":"nonpayable"},{"type":"function","name":"setMaximumMintAmount","inputs":[{"name":"newMaxMintAmount","type":"uint256","internalType":"uint256"}],"outputs":[],"stateMutability":"nonpayable"},{"type":"function","name":"setMintable","inputs":[{"name":"asset","type":"address","internalType":"address"},{"name":"active","type":"bool","internalType":"bool"}],"outputs":[],"stateMutability":"nonpayable"},{"type":"function","name":"setPermissioned","inputs":[{"name":"permissioned","type":"bool","internalType":"bool"}],"outputs":[],"stateMutability":"nonpayable"},{"type":"function","name":"setProtectedOfChild","inputs":[{"name":"childContracts","type":"address[]","internalType":"address[]"},{"name":"state","type":"bool","internalType":"bool"}],"outputs":[],"stateMutability":"nonpayable"},{"type":"function","name":"transferOwnership","inputs":[{"name":"newOwner","type":"address","internalType":"address"}],"outputs":[],"stateMutability":"nonpayable"},{"type":"function","name":"transferOwnershipOfChild","inputs":[{"name":"childContracts","type":"address[]","internalType":"address[]"},{"name":"newOwner","type":"address","internalType":"address"}],"outputs":[],"stateMutability":"nonpayable"},{"type":"event","name":"OwnershipTransferred","inputs":[{"name":"previousOwner","type":"address","indexed":true,"internalType":"address"},{"name":"newOwner","type":"address","indexed":true,"internalType":"address"}],"anonymous":false}],"bytecode":{"object":"0x608060405234801561000f575f5ffd5b50604051611ac0380380611ac0833981810160405281019061003191906103dc565b5f61004061014a60201b60201c565b9050805f5f6101000a81548173ffffffffffffffffffffffffffffffffffffffff021916908373ffffffffffffffffffffffffffffffffffffffff1602179055508073ffffffffffffffffffffffffffffffffffffffff165f73ffffffffffffffffffffffffffffffffffffffff167f8be0079c531659141344cd1fd0a4f28419497f9722a3daafe3b4186f6b6457e060405160405180910390a3505f73ffffffffffffffffffffffffffffffffffffffff168373ffffffffffffffffffffffffffffffffffffffff1603610113575f5ffd5b6101228361015160201b60201c565b8160035f6101000a81548160ff02191690831515021790555080600181905550505050610532565b5f33905090565b61015f61014a60201b60201c565b73ffffffffffffffffffffffffffffffffffffffff165f5f9054906101000a900473ffffffffffffffffffffffffffffffffffffffff1673ffffffffffffffffffffffffffffffffffffffff16146101ec576040517f08c379a00000000000000000000000000000000000000000000000000000000081526004016101e390610486565b60405180910390fd5b5f73ffffffffffffffffffffffffffffffffffffffff168173ffffffffffffffffffffffffffffffffffffffff160361025a576040517f08c379a000000000000000000000000000000000000000000000000000000000815260040161025190610514565b60405180910390fd5b8073ffffffffffffffffffffffffffffffffffffffff165f5f9054906101000a900473ffffffffffffffffffffffffffffffffffffffff1673ffffffffffffffffffffffffffffffffffffffff167f8be0079c531659141344cd1fd0a4f28419497f9722a3daafe3b4186f6b6457e060405160405180910390a3805f5f6101000a81548173ffffffffffffffffffffffffffffffffffffffff021916908373ffffffffffffffffffffffffffffffffffffffff16021790555050565b5f5ffd5b5f73ffffffffffffffffffffffffffffffffffffffff82169050919050565b5f6103438261031a565b9050919050565b61035381610339565b811461035d575f5ffd5b50565b5f8151905061036e8161034a565b92915050565b5f8115159050919050565b61038881610374565b8114610392575f5ffd5b50565b5f815190506103a38161037f565b92915050565b5f819050919050565b6103bb816103a9565b81146103c5575f5ffd5b50565b5f815190506103d6816103b2565b92915050565b5f5f5f606084860312156103f3576103f2610316565b5b5f61040086828701610360565b935050602061041186828701610395565b9250506040610422868287016103c8565b9150509250925092565b5f82825260208201905092915050565b7f4f776e61626c653a2063616c6c6572206973206e6f7420746865206f776e65725f82015250565b5f61047060208361042c565b915061047b8261043c565b602082019050919050565b5f6020820190508181035f83015261049d81610464565b9050919050565b7f4f776e61626c653a206e6577206f776e657220697320746865207a65726f20615f8201527f6464726573730000000000000000000000000000000000000000000000000000602082015250565b5f6104fe60268361042c565b9150610509826104a4565b604082019050919050565b5f6020820190508181035f83015261052b816104f2565b9050919050565b6115818061053f5f395ff3fe608060405234801561000f575f5ffd5b50600436106100b2575f3560e01c8063c6c3bbe61161006f578063c6c3bbe614610162578063ca51a90314610192578063dd26b1d3146101ae578063e2a4157c146101cc578063f2fde38b146101ea578063f7eb06c414610206576100b2565b80631a678cd3146100b6578063222b15fb146100d2578063506f26cc14610102578063715018a61461011e5780638da5cb5b146101285780639420d47614610146575b5f5ffd5b6100d060048036038101906100cb9190610d45565b610222565b005b6100ec60048036038101906100e79190610dca565b6102d3565b6040516100f99190610e04565b60405180910390f35b61011c60048036038101906101179190610e7e565b610326565b005b61012661046b565b005b6101306105bb565b60405161013d9190610eea565b60405180910390f35b610160600480360381019061015b9190610f36565b6105e2565b005b61017c60048036038101906101779190610f61565b610681565b6040516101899190610fc0565b60405180910390f35b6101ac60048036038101906101a79190610fd9565b6108f1565b005b6101b6610a36565b6040516101c39190610fc0565b60405180910390f35b6101d4610a3f565b6040516101e19190610e04565b60405180910390f35b61020460048036038101906101ff9190610dca565b610a54565b005b610220600480360381019061021b9190611036565b610c13565b005b61022a610d01565b73ffffffffffffffffffffffffffffffffffffffff165f5f9054906101000a900473ffffffffffffffffffffffffffffffffffffffff1673ffffffffffffffffffffffffffffffffffffffff16146102b7576040517f08c379a00000000000000000000000000000000000000000000000000000000081526004016102ae906110ce565b60405180910390fd5b8060035f6101000a81548160ff02191690831515021790555050565b5f60025f8373ffffffffffffffffffffffffffffffffffffffff1673ffffffffffffffffffffffffffffffffffffffff1681526020019081526020015f205f9054906101000a900460ff16159050919050565b61032e610d01565b73ffffffffffffffffffffffffffffffffffffffff165f5f9054906101000a900473ffffffffffffffffffffffffffffffffffffffff1673ffffffffffffffffffffffffffffffffffffffff16146103bb576040517f08c379a00000000000000000000000000000000000000000000000000000000081526004016103b2906110ce565b60405180910390fd5b5f5f90505b83839050811015610465578383828181106103de576103dd6110ec565b5b90506020020160208101906103f39190610dca565b73ffffffffffffffffffffffffffffffffffffffff1663f2fde38b836040518263ffffffff1660e01b815260040161042b9190610eea565b5f604051808303815f87803b158015610442575f5ffd5b505af1158015610454573d5f5f3e3d5ffd5b5050505080806001019150506103c0565b50505050565b610473610d01565b73ffffffffffffffffffffffffffffffffffffffff165f5f9054906101000a900473ffffffffffffffffffffffffffffffffffffffff1673ffffffffffffffffffffffffffffffffffffffff1614610500576040517f08c379a00000000000000000000000000000000000000000000000000000000081526004016104f7906110ce565b60405180910390fd5b5f73ffffffffffffffffffffffffffffffffffffffff165f5f9054906101000a900473ffffffffffffffffffffffffffffffffffffffff1673ffffffffffffffffffffffffffffffffffffffff167f8be0079c531659141344cd1fd0a4f28419497f9722a3daafe3b4186f6b6457e060405160405180910390a35f5f5f6101000a81548173ffffffffffffffffffffffffffffffffffffffff021916908373ffffffffffffffffffffffffffffffffffffffff160217905550565b5f5f5f9054906101000a900473ffffffffffffffffffffffffffffffffffffffff16905090565b6105ea610d01565b73ffffffffffffffffffffffffffffffffffffffff165f5f9054906101000a900473ffffffffffffffffffffffffffffffffffffffff1673ffffffffffffffffffffffffffffffffffffffff1614610677576040517f08c379a000000000000000000000000000000000000000000000000000000000815260040161066e906110ce565b60405180910390fd5b8060018190555050565b5f6001151560035f9054906101000a900460ff16151503610719576106a4610d01565b73ffffffffffffffffffffffffffffffffffffffff166106c26105bb565b73ffffffffffffffffffffffffffffffffffffffff1614610718576040517f08c379a000000000000000000000000000000000000000000000000000000000815260040161070f906110ce565b60405180910390fd5b5b60025f8573ffffffffffffffffffffffffffffffffffffffff1673ffffffffffffffffffffffffffffffffffffffff1681526020019081526020015f205f9054906101000a900460ff16156107a3576040517f08c379a000000000000000000000000000000000000000000000000000000000815260040161079a90611163565b60405180910390fd5b8373ffffffffffffffffffffffffffffffffffffffff1663313ce5676040518163ffffffff1660e01b8152600401602060405180830381865afa1580156107ec573d5f5f3e3d5ffd5b505050506040513d601f19601f8201168201806040525081019061081091906111b7565b600a61081c919061133e565b6001546108299190611388565b82111561086b576040517f08c379a000000000000000000000000000000000000000000000000000000000815260040161086290611439565b60405180910390fd5b8373ffffffffffffffffffffffffffffffffffffffff166340c10f1984846040518363ffffffff1660e01b81526004016108a6929190611457565b6020604051808303815f875af11580156108c2573d5f5f3e3d5ffd5b505050506040513d601f19601f820116820180604052508101906108e69190611492565b508190509392505050565b6108f9610d01565b73ffffffffffffffffffffffffffffffffffffffff165f5f9054906101000a900473ffffffffffffffffffffffffffffffffffffffff1673ffffffffffffffffffffffffffffffffffffffff1614610986576040517f08c379a000000000000000000000000000000000000000000000000000000000815260040161097d906110ce565b60405180910390fd5b5f5f90505b83839050811015610a30578383828181106109a9576109a86110ec565b5b90506020020160208101906109be9190610dca565b73ffffffffffffffffffffffffffffffffffffffff16631c02bc31836040518263ffffffff1660e01b81526004016109f69190610e04565b5f604051808303815f87803b158015610a0d575f5ffd5b505af1158015610a1f573d5f5f3e3d5ffd5b50505050808060010191505061098b565b50505050565b5f600154905090565b5f60035f9054906101000a900460ff16905090565b610a5c610d01565b73ffffffffffffffffffffffffffffffffffffffff165f5f9054906101000a900473ffffffffffffffffffffffffffffffffffffffff1673ffffffffffffffffffffffffffffffffffffffff1614610ae9576040517f08c379a0000000000000000000000000000000000000000000000000000000008152600401610ae0906110ce565b60405180910390fd5b5f73ffffffffffffffffffffffffffffffffffffffff168173ffffffffffffffffffffffffffffffffffffffff1603610b57576040517f08c379a0000000000000000000000000000000000000000000000000000000008152600401610b4e9061152d565b60405180910390fd5b8073ffffffffffffffffffffffffffffffffffffffff165f5f9054906101000a900473ffffffffffffffffffffffffffffffffffffffff1673ffffffffffffffffffffffffffffffffffffffff167f8be0079c531659141344cd1fd0a4f28419497f9722a3daafe3b4186f6b6457e060405160405180910390a3805f5f6101000a81548173ffffffffffffffffffffffffffffffffffffffff021916908373ffffffffffffffffffffffffffffffffffffffff16021790555050565b610c1b610d01565b73ffffffffffffffffffffffffffffffffffffffff165f5f9054906101000a900473ffffffffffffffffffffffffffffffffffffffff1673ffffffffffffffffffffffffffffffffffffffff1614610ca8576040517f08c379a0000000000000000000000000000000000000000000000000000000008152600401610c9f906110ce565b60405180910390fd5b801560025f8473ffffffffffffffffffffffffffffffffffffffff1673ffffffffffffffffffffffffffffffffffffffff1681526020019081526020015f205f6101000a81548160ff0219169083151502179055505050565b5f33905090565b5f5ffd5b5f5ffd5b5f8115159050919050565b610d2481610d10565b8114610d2e575f5ffd5b50565b5f81359050610d3f81610d1b565b92915050565b5f60208284031215610d5a57610d59610d08565b5b5f610d6784828501610d31565b91505092915050565b5f73ffffffffffffffffffffffffffffffffffffffff82169050919050565b5f610d9982610d70565b9050919050565b610da981610d8f565b8114610db3575f5ffd5b50565b5f81359050610dc481610da0565b92915050565b5f60208284031215610ddf57610dde610d08565b5b5f610dec84828501610db6565b91505092915050565b610dfe81610d10565b82525050565b5f602082019050610e175f830184610df5565b92915050565b5f5ffd5b5f5ffd5b5f5ffd5b5f5f83601f840112610e3e57610e3d610e1d565b5b8235905067ffffffffffffffff811115610e5b57610e5a610e21565b5b602083019150836020820283011115610e7757610e76610e25565b5b9250929050565b5f5f5f60408486031215610e9557610e94610d08565b5b5f84013567ffffffffffffffff811115610eb257610eb1610d0c565b5b610ebe86828701610e29565b93509350506020610ed186828701610db6565b9150509250925092565b610ee481610d8f565b82525050565b5f602082019050610efd5f830184610edb565b92915050565b5f819050919050565b610f1581610f03565b8114610f1f575f5ffd5b50565b5f81359050610f3081610f0c565b92915050565b5f60208284031215610f4b57610f4a610d08565b5b5f610f5884828501610f22565b91505092915050565b5f5f5f60608486031215610f7857610f77610d08565b5b5f610f8586828701610db6565b9350506020610f9686828701610db6565b9250506040610fa786828701610f22565b9150509250925092565b610fba81610f03565b82525050565b5f602082019050610fd35f830184610fb1565b92915050565b5f5f5f60408486031215610ff057610fef610d08565b5b5f84013567ffffffffffffffff81111561100d5761100c610d0c565b5b61101986828701610e29565b9350935050602061102c86828701610d31565b9150509250925092565b5f5f6040838503121561104c5761104b610d08565b5b5f61105985828601610db6565b925050602061106a85828601610d31565b9150509250929050565b5f82825260208201905092915050565b7f4f776e61626c653a2063616c6c6572206973206e6f7420746865206f776e65725f82015250565b5f6110b8602083611074565b91506110c382611084565b602082019050919050565b5f6020820190508181035f8301526110e5816110ac565b9050919050565b7f4e487b71000000000000000000000000000000000000000000000000000000005f52603260045260245ffd5b7f4572726f723a206e6f74206d696e7461626c65000000000000000000000000005f82015250565b5f61114d601383611074565b915061115882611119565b602082019050919050565b5f6020820190508181035f83015261117a81611141565b9050919050565b5f60ff82169050919050565b61119681611181565b81146111a0575f5ffd5b50565b5f815190506111b18161118d565b92915050565b5f602082840312156111cc576111cb610d08565b5b5f6111d9848285016111a3565b91505092915050565b7f4e487b71000000000000000000000000000000000000000000000000000000005f52601160045260245ffd5b5f8160011c9050919050565b5f5f8291508390505b6001851115611264578086048111156112405761123f6111e2565b5b600185161561124f5780820291505b808102905061125d8561120f565b9450611224565b94509492505050565b5f8261127c5760019050611337565b81611289575f9050611337565b816001811461129f57600281146112a9576112d8565b6001915050611337565b60ff8411156112bb576112ba6111e2565b5b8360020a9150848211156112d2576112d16111e2565b5b50611337565b5060208310610133831016604e8410600b841016171561130d5782820a905083811115611308576113076111e2565b5b611337565b61131a848484600161121b565b92509050818404811115611331576113306111e2565b5b81810290505b9392505050565b5f61134882610f03565b915061135383611181565b92506113807fffffffffffffffffffffffffffffffffffffffffffffffffffffffffffffffff848461126d565b905092915050565b5f61139282610f03565b915061139d83610f03565b92508282026113ab81610f03565b915082820484148315176113c2576113c16111e2565b5b5092915050565b7f4572726f723a204d696e74206c696d6974207472616e73616374696f6e2065785f8201527f6365656465640000000000000000000000000000000000000000000000000000602082015250565b5f611423602683611074565b915061142e826113c9565b604082019050919050565b5f6020820190508181035f83015261145081611417565b9050919050565b5f60408201905061146a5f830185610edb565b6114776020830184610fb1565b9392505050565b5f8151905061148c81610d1b565b92915050565b5f602082840312156114a7576114a6610d08565b5b5f6114b48482850161147e565b91505092915050565b7f4f776e61626c653a206e6577206f776e657220697320746865207a65726f20615f8201527f6464726573730000000000000000000000000000000000000000000000000000602082015250565b5f611517602683611074565b9150611522826114bd565b604082019050919050565b5f6020820190508181035f8301526115448161150b565b905091905056fea2646970667358221220ed565e588c982c8c6af4e2aab914e69728804428d417890ed4d65c61c9c6350064736f6c634300081c0033","linkReferences":{}},"methodIdentifiers":{"getMaximumMintAmount()":"dd26b1d3","isMintable(address)":"222b15fb","isPermissioned()":"e2a4157c","mint(address,address,uint256)":"c6c3bbe6","owner()":"8da5cb5b","renounceOwnership()":"715018a6","setMaximumMintAmount(uint256)":"9420d476","setMintable(address,bool)":"f7eb06c4","setPermissioned(bool)":"1a678cd3","setProtectedOfChild(address[],bool)":"ca51a903","transferOwnership(address)":"f2fde38b","transferOwnershipOfChild(address[],address)":"506f26cc"},"id":27}