{"abi":[{"type":"receive","stateMutability":"payable"},{"type":"function","name":"ETH_MOCK_ADDRESS","inputs":[],"outputs":[{"name":"","type":"address","internalType":"address"}],"stateMutability":"view"},{"type":"function","name":"REVISION","inputs":[],"outputs":[{"name":"","type":"uint256","internalType":"uint256"}],"stateMutability":"view"},{"type":"function","name":"approve","inputs":[{"name":"token","type":"address","internalType":"contract IERC20"},{"name":"recipient","type":"address","internalType":"address"},{"name":"amount","type":"uint256","internalType":"uint256"}],"outputs":[],"stateMutability":"nonpayable"},{"type":"function","name":"balanceOf","inputs":[{"name":"streamId","type":"uint256","internalType":"uint256"},{"name":"who","type":"address","internalType":"address"}],"outputs":[{"name":"balance","type":"uint256","internalType":"uint256"}],"stateMutability":"view"},{"type":"function","name":"cancelStream","inputs":[{"name":"streamId","type":"uint256","internalType":"uint256"}],"outputs":[{"name":"","type":"bool","internalType":"bool"}],"stateMutability":"nonpayable"},{"type":"function","name":"createStream","inputs":[{"name":"recipient","type":"address","internalType":"address"},{"name":"deposit","type":"uint256","internalType":"uint256"},{"name":"tokenAddress","type":"address","internalType":"address"},{"name":"startTime","type":"uint256","internalType":"uint256"},{"name":"stopTime","type":"uint256","internalType":"uint256"}],"outputs":[{"name":"","type":"uint256","internalType":"uint256"}],"stateMutability":"nonpayable"},{"type":"function","name":"deltaOf","inputs":[{"name":"streamId","type":"uint256","internalType":"uint256"}],"outputs":[{"name":"delta","type":"uint256","internalType":"uint256"}],"stateMutability":"view"},{"type":"function","name":"getFundsAdmin","inputs":[],"outputs":[{"name":"","type":"address","internalType":"address"}],"stateMutability":"view"},{"type":"function","name":"getNextStreamId","inputs":[],"outputs":[{"name":"","type":"uint256","internalType":"uint256"}],"stateMutability":"view"},{"type":"function","name":"getStream","inputs":[{"name":"streamId","type":"uint256","internalType":"uint256"}],"outputs":[{"name":"sender","type":"address","internalType":"address"},{"name":"recipient","type":"address","internalType":"address"},{"name":"deposit","type":"uint256","internalType":"uint256"},{"name":"tokenAddress","type":"address","internalType":"address"},{"name":"startTime","type":"uint256","internalType":"uint256"},{"name":"stopTime","type":"uint256","internalType":"uint256"},{"name":"remainingBalance","type":"uint256","internalType":"uint256"},{"name":"ratePerSecond","type":"uint256","internalType":"uint256"}],"stateMutability":"view"},{"type":"function","name":"initialize","inputs":[{"name":"fundsAdmin","type":"address","internalType":"address"}],"outputs":[],"stateMutability":"nonpayable"},{"type":"function","name":"transfer","inputs":[{"name":"token","type":"address","internalType":"contract IERC20"},{"name":"recipient","type":"address","internalType":"address"},{"name":"amount","type":"uint256","internalType":"uint256"}],"outputs":[],"stateMutability":"nonpayable"},{"type":"function","name":"withdrawFromStream","inputs":[{"name":"streamId","type":"uint256","internalType":"uint256"},{"name":"amount","type":"uint256","internalType":"uint256"}],"outputs":[{"name":"","type":"bool","internalType":"bool"}],"stateMutability":"nonpayable"},{"type":"event","name":"CancelStream","inputs":[{"name":"streamId","type":"uint256","indexed":true,"internalType":"uint256"},{"name":"sender","type":"address","indexed":true,"internalType":"address"},{"name":"recipient","type":"address","indexed":true,"internalType":"address"},{"name":"senderBalance","type":"uint256","indexed":false,"internalType":"uint256"},{"name":"recipientBalance","type":"uint256","indexed":false,"internalType":"uint256"}],"anonymous":false},{"type":"event","name":"CreateStream","inputs":[{"name":"streamId","type":"uint256","indexed":true,"internalType":"uint256"},{"name":"sender","type":"address","indexed":true,"internalType":"address"},{"name":"recipient","type":"address","indexed":true,"internalType":"address"},{"name":"deposit","type":"uint256","indexed":false,"internalType":"uint256"},{"name":"tokenAddress","type":"address","indexed":false,"internalType":"address"},{"name":"startTime","type":"uint256","indexed":false,"internalType":"uint256"},{"name":"stopTime","type":"uint256","indexed":false,"internalType":"uint256"}],"anonymous":false},{"type":"event","name":"NewFundsAdmin","inputs":[{"name":"fundsAdmin","type":"address","indexed":true,"internalType":"address"}],"anonymous":false},{"type":"event","name":"WithdrawFromStream","inputs":[{"name":"streamId","type":"uint256","indexed":true,"internalType":"uint256"},{"name":"recipient","type":"address","indexed":true,"internalType":"address"},{"name":"amount","type":"uint256","indexed":false,"internalType":"uint256"}],"anonymous":false}],"bytecode":{"object":"0x60806040525f5f553480156011575f5ffd5b50600160348190555061349a806100275f395ff3fe6080604052600436106100c5575f3560e01c8063894e9a0d1161007e578063c4d66de811610058578063c4d66de8146102a9578063cc1b4bf6146102d1578063dde43cba1461030d578063e1f21c6714610337576100cc565b8063894e9a0d14610202578063a82ccd4d14610245578063beabacc814610281576100cc565b806306bc2ee0146100d05780630932f92b146100fa5780633656eec21461012457806351ee886b146101605780636db9241b1461018a5780637a9b2c6c146101c6576100cc565b366100cc57005b5f5ffd5b3480156100db575f5ffd5b506100e461035f565b6040516100f19190612317565b60405180910390f35b348015610105575f5ffd5b5061010e610387565b60405161011b9190612348565b60405180910390f35b34801561012f575f5ffd5b5061014a600480360381019061014591906123b9565b610390565b6040516101579190612348565b60405180910390f35b34801561016b575f5ffd5b50610174610686565b6040516101819190612317565b60405180910390f35b348015610195575f5ffd5b506101b060048036038101906101ab91906123f7565b61069e565b6040516101bd919061243c565b60405180910390f35b3480156101d1575f5ffd5b506101ec60048036038101906101e79190612455565b610b57565b6040516101f9919061243c565b60405180910390f35b34801561020d575f5ffd5b50610228600480360381019061022391906123f7565b61109d565b60405161023c989796959493929190612493565b60405180910390f35b348015610250575f5ffd5b5061026b600480360381019061026691906123f7565b611227565b6040516102789190612348565b60405180910390f35b34801561028c575f5ffd5b506102a760048036038101906102a2919061254a565b61144b565b005b3480156102b4575f5ffd5b506102cf60048036038101906102ca919061259a565b6115ee565b005b3480156102dc575f5ffd5b506102f760048036038101906102f291906125c5565b611659565b6040516103049190612348565b60405180910390f35b348015610318575f5ffd5b50610321611c1b565b60405161032e9190612348565b60405180910390f35b348015610342575f5ffd5b5061035d6004803603810190610358919061254a565b611c20565b005b5f60335f9054906101000a900473ffffffffffffffffffffffffffffffffffffffff16905090565b5f603554905090565b5f8260365f8281526020019081526020015f2060070160149054906101000a900460ff166103f3576040517f08c379a00000000000000000000000000000000000000000000000000000000081526004016103ea90612696565b60405180910390fd5b5f60365f8681526020019081526020015f20604051806101200160405290815f820154815260200160018201548152602001600282015481526020016003820154815260200160048201548152602001600582015f9054906101000a900473ffffffffffffffffffffffffffffffffffffffff1673ffffffffffffffffffffffffffffffffffffffff1673ffffffffffffffffffffffffffffffffffffffff168152602001600682015f9054906101000a900473ffffffffffffffffffffffffffffffffffffffff1673ffffffffffffffffffffffffffffffffffffffff1673ffffffffffffffffffffffffffffffffffffffff168152602001600782015f9054906101000a900473ffffffffffffffffffffffffffffffffffffffff1673ffffffffffffffffffffffffffffffffffffffff1673ffffffffffffffffffffffffffffffffffffffff1681526020016007820160149054906101000a900460ff16151515158152505090506105666122a2565b5f61057087611227565b905082602001518161058291906126e1565b825f0181815250508260400151835f015111156105d1578260400151835f01516105ac9190612722565b8260200181815250508160200151825f01516105c89190612722565b825f0181815250505b8260a0015173ffffffffffffffffffffffffffffffffffffffff168673ffffffffffffffffffffffffffffffffffffffff160361061657815f0151945050505061067f565b8260c0015173ffffffffffffffffffffffffffffffffffffffff168673ffffffffffffffffffffffffffffffffffffffff160361067857815f015183604001516106609190612722565b8260400181815250508160400151945050505061067f565b5f94505050505b5092915050565b73eeeeeeeeeeeeeeeeeeeeeeeeeeeeeeeeeeeeeeee81565b5f6002603454036106e4576040517f08c379a00000000000000000000000000000000000000000000000000000000081526004016106db9061279f565b60405180910390fd5b60026034819055508160365f8281526020019081526020015f2060070160149054906101000a900460ff1661074e576040517f08c379a000000000000000000000000000000000000000000000000000000000815260040161074590612696565b60405180910390fd5b8260335f9054906101000a900473ffffffffffffffffffffffffffffffffffffffff1673ffffffffffffffffffffffffffffffffffffffff163373ffffffffffffffffffffffffffffffffffffffff161480610808575060365f8281526020019081526020015f206005015f9054906101000a900473ffffffffffffffffffffffffffffffffffffffff1673ffffffffffffffffffffffffffffffffffffffff163373ffffffffffffffffffffffffffffffffffffffff16145b610847576040517f08c379a000000000000000000000000000000000000000000000000000000000815260040161083e9061282d565b60405180910390fd5b5f60365f8681526020019081526020015f20604051806101200160405290815f820154815260200160018201548152602001600282015481526020016003820154815260200160048201548152602001600582015f9054906101000a900473ffffffffffffffffffffffffffffffffffffffff1673ffffffffffffffffffffffffffffffffffffffff1673ffffffffffffffffffffffffffffffffffffffff168152602001600682015f9054906101000a900473ffffffffffffffffffffffffffffffffffffffff1673ffffffffffffffffffffffffffffffffffffffff1673ffffffffffffffffffffffffffffffffffffffff168152602001600782015f9054906101000a900473ffffffffffffffffffffffffffffffffffffffff1673ffffffffffffffffffffffffffffffffffffffff1673ffffffffffffffffffffffffffffffffffffffff1681526020016007820160149054906101000a900460ff16151515158152505090505f6109c1868360c00151610390565b90505f6109d2878460a00151610390565b905060365f8881526020019081526020015f205f5f82015f9055600182015f9055600282015f9055600382015f9055600482015f9055600582015f6101000a81549073ffffffffffffffffffffffffffffffffffffffff0219169055600682015f6101000a81549073ffffffffffffffffffffffffffffffffffffffff0219169055600782015f6101000a81549073ffffffffffffffffffffffffffffffffffffffff02191690556007820160146101000a81549060ff021916905550505f8360e0015190505f821115610ad057610acf8460a00151838373ffffffffffffffffffffffffffffffffffffffff16611cdf9092919063ffffffff16565b5b8360a0015173ffffffffffffffffffffffffffffffffffffffff168460c0015173ffffffffffffffffffffffffffffffffffffffff16897fca3e6079b726e7728802a0537949e2d1c7762304fa641fb06eb56daf2ba8c6b98686604051610b3892919061284b565b60405180910390a4600196505050505050506001603481905550919050565b5f600260345403610b9d576040517f08c379a0000000000000000000000000000000000000000000000000000000008152600401610b949061279f565b60405180910390fd5b60026034819055508260365f8281526020019081526020015f2060070160149054906101000a900460ff16610c07576040517f08c379a0000000000000000000000000000000000000000000000000000000008152600401610bfe90612696565b60405180910390fd5b8360335f9054906101000a900473ffffffffffffffffffffffffffffffffffffffff1673ffffffffffffffffffffffffffffffffffffffff163373ffffffffffffffffffffffffffffffffffffffff161480610cc1575060365f8281526020019081526020015f206005015f9054906101000a900473ffffffffffffffffffffffffffffffffffffffff1673ffffffffffffffffffffffffffffffffffffffff163373ffffffffffffffffffffffffffffffffffffffff16145b610d00576040517f08c379a0000000000000000000000000000000000000000000000000000000008152600401610cf79061282d565b60405180910390fd5b5f8411610d42576040517f08c379a0000000000000000000000000000000000000000000000000000000008152600401610d39906128bc565b60405180910390fd5b5f60365f8781526020019081526020015f20604051806101200160405290815f820154815260200160018201548152602001600282015481526020016003820154815260200160048201548152602001600582015f9054906101000a900473ffffffffffffffffffffffffffffffffffffffff1673ffffffffffffffffffffffffffffffffffffffff1673ffffffffffffffffffffffffffffffffffffffff168152602001600682015f9054906101000a900473ffffffffffffffffffffffffffffffffffffffff1673ffffffffffffffffffffffffffffffffffffffff1673ffffffffffffffffffffffffffffffffffffffff168152602001600782015f9054906101000a900473ffffffffffffffffffffffffffffffffffffffff1673ffffffffffffffffffffffffffffffffffffffff1673ffffffffffffffffffffffffffffffffffffffff1681526020016007820160149054906101000a900460ff16151515158152505090505f610ebc878360a00151610390565b905085811015610f01576040517f08c379a0000000000000000000000000000000000000000000000000000000008152600401610ef89061294a565b60405180910390fd5b858260400151610f119190612722565b60365f8981526020019081526020015f20600201819055505f60365f8981526020019081526020015f2060020154036110015760365f8881526020019081526020015f205f5f82015f9055600182015f9055600282015f9055600382015f9055600482015f9055600582015f6101000a81549073ffffffffffffffffffffffffffffffffffffffff0219169055600682015f6101000a81549073ffffffffffffffffffffffffffffffffffffffff0219169055600782015f6101000a81549073ffffffffffffffffffffffffffffffffffffffff02191690556007820160146101000a81549060ff021916905550505b6110348260a00151878460e0015173ffffffffffffffffffffffffffffffffffffffff16611cdf9092919063ffffffff16565b8160a0015173ffffffffffffffffffffffffffffffffffffffff16877f36c3ab437e6a424ed25dc4bfdeb62706aa06558660fab2dab229d2555adaf89c8860405161107f9190612348565b60405180910390a36001945050505050600160348190555092915050565b5f5f5f5f5f5f5f5f8860365f8281526020019081526020015f2060070160149054906101000a900460ff16611107576040517f08c379a00000000000000000000000000000000000000000000000000000000081526004016110fe90612696565b60405180910390fd5b60365f8b81526020019081526020015f206006015f9054906101000a900473ffffffffffffffffffffffffffffffffffffffff16985060365f8b81526020019081526020015f206005015f9054906101000a900473ffffffffffffffffffffffffffffffffffffffff16975060365f8b81526020019081526020015f205f0154965060365f8b81526020019081526020015f206007015f9054906101000a900473ffffffffffffffffffffffffffffffffffffffff16955060365f8b81526020019081526020015f2060030154945060365f8b81526020019081526020015f2060040154935060365f8b81526020019081526020015f2060020154925060365f8b81526020019081526020015f2060010154915050919395975091939597565b5f8160365f8281526020019081526020015f2060070160149054906101000a900460ff1661128a576040517f08c379a000000000000000000000000000000000000000000000000000000000815260040161128190612696565b60405180910390fd5b5f60365f8581526020019081526020015f20604051806101200160405290815f820154815260200160018201548152602001600282015481526020016003820154815260200160048201548152602001600582015f9054906101000a900473ffffffffffffffffffffffffffffffffffffffff1673ffffffffffffffffffffffffffffffffffffffff1673ffffffffffffffffffffffffffffffffffffffff168152602001600682015f9054906101000a900473ffffffffffffffffffffffffffffffffffffffff1673ffffffffffffffffffffffffffffffffffffffff1673ffffffffffffffffffffffffffffffffffffffff168152602001600782015f9054906101000a900473ffffffffffffffffffffffffffffffffffffffff1673ffffffffffffffffffffffffffffffffffffffff1673ffffffffffffffffffffffffffffffffffffffff1681526020016007820160149054906101000a900460ff161515151581525050905080606001514211611409575f925050611445565b806080015142101561142d578060600151426114259190612722565b925050611445565b806060015181608001516114419190612722565b9250505b50919050565b60335f9054906101000a900473ffffffffffffffffffffffffffffffffffffffff1673ffffffffffffffffffffffffffffffffffffffff163373ffffffffffffffffffffffffffffffffffffffff16146114da576040517f08c379a00000000000000000000000000000000000000000000000000000000081526004016114d1906129b2565b60405180910390fd5b5f73ffffffffffffffffffffffffffffffffffffffff168273ffffffffffffffffffffffffffffffffffffffff1603611548576040517f08c379a000000000000000000000000000000000000000000000000000000000815260040161153f90612a1a565b60405180910390fd5b73eeeeeeeeeeeeeeeeeeeeeeeeeeeeeeeeeeeeeeee73ffffffffffffffffffffffffffffffffffffffff168373ffffffffffffffffffffffffffffffffffffffff16036115bd576115b8818373ffffffffffffffffffffffffffffffffffffffff16611d6590919063ffffffff16565b6115e9565b6115e882828573ffffffffffffffffffffffffffffffffffffffff16611cdf9092919063ffffffff16565b5b505050565b5f6115f7611e55565b90505f54811161163c576040517f08c379a000000000000000000000000000000000000000000000000000000000815260040161163390612aa8565b60405180910390fd5b805f81905550620186a060358190555061165582611e5d565b5050565b5f60335f9054906101000a900473ffffffffffffffffffffffffffffffffffffffff1673ffffffffffffffffffffffffffffffffffffffff163373ffffffffffffffffffffffffffffffffffffffff16146116e9576040517f08c379a00000000000000000000000000000000000000000000000000000000081526004016116e0906129b2565b60405180910390fd5b5f73ffffffffffffffffffffffffffffffffffffffff168673ffffffffffffffffffffffffffffffffffffffff1603611757576040517f08c379a000000000000000000000000000000000000000000000000000000000815260040161174e90612b10565b60405180910390fd5b3073ffffffffffffffffffffffffffffffffffffffff168673ffffffffffffffffffffffffffffffffffffffff16036117c5576040517f08c379a00000000000000000000000000000000000000000000000000000000081526004016117bc90612b78565b60405180910390fd5b3373ffffffffffffffffffffffffffffffffffffffff168673ffffffffffffffffffffffffffffffffffffffff1603611833576040517f08c379a000000000000000000000000000000000000000000000000000000000815260040161182a90612be0565b60405180910390fd5b5f8511611875576040517f08c379a000000000000000000000000000000000000000000000000000000000815260040161186c90612c48565b60405180910390fd5b428310156118b8576040517f08c379a00000000000000000000000000000000000000000000000000000000081526004016118af90612cd6565b60405180910390fd5b8282116118fa576040517f08c379a00000000000000000000000000000000000000000000000000000000081526004016118f190612d3e565b60405180910390fd5b6119026122c0565b838361190e9190612722565b815f018181525050805f015186101561195c576040517f08c379a000000000000000000000000000000000000000000000000000000000815260040161195390612da6565b60405180910390fd5b5f815f01518761196c9190612df1565b146119ac576040517f08c379a00000000000000000000000000000000000000000000000000000000081526004016119a390612e91565b60405180910390fd5b805f0151866119bb9190612eaf565b8160200181815250505f6035549050604051806101200160405280888152602001836020015181526020018881526020018681526020018581526020018973ffffffffffffffffffffffffffffffffffffffff1681526020013073ffffffffffffffffffffffffffffffffffffffff1681526020018773ffffffffffffffffffffffffffffffffffffffff1681526020016001151581525060365f8381526020019081526020015f205f820151815f01556020820151816001015560408201518160020155606082015181600301556080820151816004015560a0820151816005015f6101000a81548173ffffffffffffffffffffffffffffffffffffffff021916908373ffffffffffffffffffffffffffffffffffffffff16021790555060c0820151816006015f6101000a81548173ffffffffffffffffffffffffffffffffffffffff021916908373ffffffffffffffffffffffffffffffffffffffff16021790555060e0820151816007015f6101000a81548173ffffffffffffffffffffffffffffffffffffffff021916908373ffffffffffffffffffffffffffffffffffffffff1602179055506101008201518160070160146101000a81548160ff02191690831515021790555090505060355f815480929190611b9c90612edf565b91905055508773ffffffffffffffffffffffffffffffffffffffff163073ffffffffffffffffffffffffffffffffffffffff16827f7b01d409597969366dc268d7f957a990d1ca3d3449baf8fb45db67351aecfe788a8a8a8a604051611c059493929190612f26565b60405180910390a4809250505095945050505050565b600181565b60335f9054906101000a900473ffffffffffffffffffffffffffffffffffffffff1673ffffffffffffffffffffffffffffffffffffffff163373ffffffffffffffffffffffffffffffffffffffff1614611caf576040517f08c379a0000000000000000000000000000000000000000000000000000000008152600401611ca6906129b2565b60405180910390fd5b611cda82828573ffffffffffffffffffffffffffffffffffffffff16611ee39092919063ffffffff16565b505050565b611d608363a9059cbb60e01b8484604051602401611cfe929190612f69565b604051602081830303815290604052907bffffffffffffffffffffffffffffffffffffffffffffffffffffffff19166020820180517bffffffffffffffffffffffffffffffffffffffffffffffffffffffff838183161783525050505061202e565b505050565b80471015611da8576040517f08c379a0000000000000000000000000000000000000000000000000000000008152600401611d9f90612fda565b60405180910390fd5b5f8273ffffffffffffffffffffffffffffffffffffffff1682604051611dcd90613025565b5f6040518083038185875af1925050503d805f8114611e07576040519150601f19603f3d011682016040523d82523d5f602084013e611e0c565b606091505b5050905080611e50576040517f08c379a0000000000000000000000000000000000000000000000000000000008152600401611e47906130a9565b60405180910390fd5b505050565b5f6001905090565b8060335f6101000a81548173ffffffffffffffffffffffffffffffffffffffff021916908373ffffffffffffffffffffffffffffffffffffffff1602179055508073ffffffffffffffffffffffffffffffffffffffff167f1ab77a654795da4cfe37c33188e862203ade9a5c7f1a9d4957669b3ccbec9e1160405160405180910390a250565b5f811480611f6957505f8373ffffffffffffffffffffffffffffffffffffffff1663dd62ed3e30856040518363ffffffff1660e01b8152600401611f289291906130c7565b602060405180830381865afa158015611f43573d5f5f3e3d5ffd5b505050506040513d601f19601f82011682018060405250810190611f679190613102565b145b611fa8576040517f08c379a0000000000000000000000000000000000000000000000000000000008152600401611f9f9061319d565b60405180910390fd5b6120298363095ea7b360e01b8484604051602401611fc7929190612f69565b604051602081830303815290604052907bffffffffffffffffffffffffffffffffffffffffffffffffffffffff19166020820180517bffffffffffffffffffffffffffffffffffffffffffffffffffffffff838183161783525050505061202e565b505050565b5f61208f826040518060400160405280602081526020017f5361666545524332303a206c6f772d6c6576656c2063616c6c206661696c65648152508573ffffffffffffffffffffffffffffffffffffffff166120f39092919063ffffffff16565b90505f815111156120ee57808060200190518101906120ae91906131e5565b6120ed576040517f08c379a00000000000000000000000000000000000000000000000000000000081526004016120e490613280565b60405180910390fd5b5b505050565b606061210184845f8561210a565b90509392505050565b60608247101561214f576040517f08c379a00000000000000000000000000000000000000000000000000000000081526004016121469061330e565b60405180910390fd5b6121588561221a565b612197576040517f08c379a000000000000000000000000000000000000000000000000000000000815260040161218e90613376565b60405180910390fd5b5f5f8673ffffffffffffffffffffffffffffffffffffffff1685876040516121bf91906133dc565b5f6040518083038185875af1925050503d805f81146121f9576040519150601f19603f3d011682016040523d82523d5f602084013e6121fe565b606091505b509150915061220e82828661223c565b92505050949350505050565b5f5f8273ffffffffffffffffffffffffffffffffffffffff163b119050919050565b6060831561224c5782905061229b565b5f8351111561225e5782518084602001fd5b816040517f08c379a00000000000000000000000000000000000000000000000000000000081526004016122929190613444565b60405180910390fd5b9392505050565b60405180606001604052805f81526020015f81526020015f81525090565b60405180604001604052805f81526020015f81525090565b5f73ffffffffffffffffffffffffffffffffffffffff82169050919050565b5f612301826122d8565b9050919050565b612311816122f7565b82525050565b5f60208201905061232a5f830184612308565b92915050565b5f819050919050565b61234281612330565b82525050565b5f60208201905061235b5f830184612339565b92915050565b5f5ffd5b61236e81612330565b8114612378575f5ffd5b50565b5f8135905061238981612365565b92915050565b612398816122f7565b81146123a2575f5ffd5b50565b5f813590506123b38161238f565b92915050565b5f5f604083850312156123cf576123ce612361565b5b5f6123dc8582860161237b565b92505060206123ed858286016123a5565b9150509250929050565b5f6020828403121561240c5761240b612361565b5b5f6124198482850161237b565b91505092915050565b5f8115159050919050565b61243681612422565b82525050565b5f60208201905061244f5f83018461242d565b92915050565b5f5f6040838503121561246b5761246a612361565b5b5f6124788582860161237b565b92505060206124898582860161237b565b9150509250929050565b5f610100820190506124a75f83018b612308565b6124b4602083018a612308565b6124c16040830189612339565b6124ce6060830188612308565b6124db6080830187612339565b6124e860a0830186612339565b6124f560c0830185612339565b61250260e0830184612339565b9998505050505050505050565b5f612519826122f7565b9050919050565b6125298161250f565b8114612533575f5ffd5b50565b5f8135905061254481612520565b92915050565b5f5f5f6060848603121561256157612560612361565b5b5f61256e86828701612536565b935050602061257f868287016123a5565b92505060406125908682870161237b565b9150509250925092565b5f602082840312156125af576125ae612361565b5b5f6125bc848285016123a5565b91505092915050565b5f5f5f5f5f60a086880312156125de576125dd612361565b5b5f6125eb888289016123a5565b95505060206125fc8882890161237b565b945050604061260d888289016123a5565b935050606061261e8882890161237b565b925050608061262f8882890161237b565b9150509295509295909350565b5f82825260208201905092915050565b7f73747265616d20646f6573206e6f7420657869737400000000000000000000005f82015250565b5f61268060158361263c565b915061268b8261264c565b602082019050919050565b5f6020820190508181035f8301526126ad81612674565b9050919050565b7f4e487b71000000000000000000000000000000000000000000000000000000005f52601160045260245ffd5b5f6126eb82612330565b91506126f683612330565b925082820261270481612330565b9150828204841483151761271b5761271a6126b4565b5b5092915050565b5f61272c82612330565b915061273783612330565b925082820390508181111561274f5761274e6126b4565b5b92915050565b7f5265656e7472616e637947756172643a207265656e7472616e742063616c6c005f82015250565b5f612789601f8361263c565b915061279482612755565b602082019050919050565b5f6020820190508181035f8301526127b68161277d565b9050919050565b7f63616c6c6572206973206e6f74207468652066756e64732061646d696e206f725f8201527f2074686520726563697069656e74206f66207468652073747265616d00000000602082015250565b5f612817603c8361263c565b9150612822826127bd565b604082019050919050565b5f6020820190508181035f8301526128448161280b565b9050919050565b5f60408201905061285e5f830185612339565b61286b6020830184612339565b9392505050565b7f616d6f756e74206973207a65726f0000000000000000000000000000000000005f82015250565b5f6128a6600e8361263c565b91506128b182612872565b602082019050919050565b5f6020820190508181035f8301526128d38161289a565b9050919050565b7f616d6f756e7420657863656564732074686520617661696c61626c652062616c5f8201527f616e636500000000000000000000000000000000000000000000000000000000602082015250565b5f61293460248361263c565b915061293f826128da565b604082019050919050565b5f6020820190508181035f83015261296181612928565b9050919050565b7f4f4e4c595f42595f46554e44535f41444d494e000000000000000000000000005f82015250565b5f61299c60138361263c565b91506129a782612968565b602082019050919050565b5f6020820190508181035f8301526129c981612990565b9050919050565b7f494e56414c49445f30585f524543495049454e540000000000000000000000005f82015250565b5f612a0460148361263c565b9150612a0f826129d0565b602082019050919050565b5f6020820190508181035f830152612a31816129f8565b9050919050565b7f436f6e747261637420696e7374616e63652068617320616c72656164792062655f8201527f656e20696e697469616c697a6564000000000000000000000000000000000000602082015250565b5f612a92602e8361263c565b9150612a9d82612a38565b604082019050919050565b5f6020820190508181035f830152612abf81612a86565b9050919050565b7f73747265616d20746f20746865207a65726f20616464726573730000000000005f82015250565b5f612afa601a8361263c565b9150612b0582612ac6565b602082019050919050565b5f6020820190508181035f830152612b2781612aee565b9050919050565b7f73747265616d20746f2074686520636f6e747261637420697473656c660000005f82015250565b5f612b62601d8361263c565b9150612b6d82612b2e565b602082019050919050565b5f6020820190508181035f830152612b8f81612b56565b9050919050565b7f73747265616d20746f207468652063616c6c65720000000000000000000000005f82015250565b5f612bca60148361263c565b9150612bd582612b96565b602082019050919050565b5f6020820190508181035f830152612bf781612bbe565b9050919050565b7f6465706f736974206973207a65726f00000000000000000000000000000000005f82015250565b5f612c32600f8361263c565b9150612c3d82612bfe565b602082019050919050565b5f6020820190508181035f830152612c5f81612c26565b9050919050565b7f73746172742074696d65206265666f726520626c6f636b2e74696d657374616d5f8201527f7000000000000000000000000000000000000000000000000000000000000000602082015250565b5f612cc060218361263c565b9150612ccb82612c66565b604082019050919050565b5f6020820190508181035f830152612ced81612cb4565b9050919050565b7f73746f702074696d65206265666f7265207468652073746172742074696d65005f82015250565b5f612d28601f8361263c565b9150612d3382612cf4565b602082019050919050565b5f6020820190508181035f830152612d5581612d1c565b9050919050565b7f6465706f73697420736d616c6c6572207468616e2074696d652064656c7461005f82015250565b5f612d90601f8361263c565b9150612d9b82612d5c565b602082019050919050565b5f6020820190508181035f830152612dbd81612d84565b9050919050565b7f4e487b71000000000000000000000000000000000000000000000000000000005f52601260045260245ffd5b5f612dfb82612330565b9150612e0683612330565b925082612e1657612e15612dc4565b5b828206905092915050565b7f6465706f736974206e6f74206d756c7469706c65206f662074696d652064656c5f8201527f7461000000000000000000000000000000000000000000000000000000000000602082015250565b5f612e7b60228361263c565b9150612e8682612e21565b604082019050919050565b5f6020820190508181035f830152612ea881612e6f565b9050919050565b5f612eb982612330565b9150612ec483612330565b925082612ed457612ed3612dc4565b5b828204905092915050565b5f612ee982612330565b91507fffffffffffffffffffffffffffffffffffffffffffffffffffffffffffffffff8203612f1b57612f1a6126b4565b5b600182019050919050565b5f608082019050612f395f830187612339565b612f466020830186612308565b612f536040830185612339565b612f606060830184612339565b95945050505050565b5f604082019050612f7c5f830185612308565b612f896020830184612339565b9392505050565b7f416464726573733a20696e73756666696369656e742062616c616e63650000005f82015250565b5f612fc4601d8361263c565b9150612fcf82612f90565b602082019050919050565b5f6020820190508181035f830152612ff181612fb8565b9050919050565b5f81905092915050565b50565b5f6130105f83612ff8565b915061301b82613002565b5f82019050919050565b5f61302f82613005565b9150819050919050565b7f416464726573733a20756e61626c6520746f2073656e642076616c75652c20725f8201527f6563697069656e74206d61792068617665207265766572746564000000000000602082015250565b5f613093603a8361263c565b915061309e82613039565b604082019050919050565b5f6020820190508181035f8301526130c081613087565b9050919050565b5f6040820190506130da5f830185612308565b6130e76020830184612308565b9392505050565b5f815190506130fc81612365565b92915050565b5f6020828403121561311757613116612361565b5b5f613124848285016130ee565b91505092915050565b7f5361666545524332303a20617070726f76652066726f6d206e6f6e2d7a65726f5f8201527f20746f206e6f6e2d7a65726f20616c6c6f77616e636500000000000000000000602082015250565b5f61318760368361263c565b91506131928261312d565b604082019050919050565b5f6020820190508181035f8301526131b48161317b565b9050919050565b6131c481612422565b81146131ce575f5ffd5b50565b5f815190506131df816131bb565b92915050565b5f602082840312156131fa576131f9612361565b5b5f613207848285016131d1565b91505092915050565b7f5361666545524332303a204552433230206f7065726174696f6e20646964206e5f8201527f6f74207375636365656400000000000000000000000000000000000000000000602082015250565b5f61326a602a8361263c565b915061327582613210565b604082019050919050565b5f6020820190508181035f8301526132978161325e565b9050919050565b7f416464726573733a20696e73756666696369656e742062616c616e636520666f5f8201527f722063616c6c0000000000000000000000000000000000000000000000000000602082015250565b5f6132f860268361263c565b91506133038261329e565b604082019050919050565b5f6020820190508181035f830152613325816132ec565b9050919050565b7f416464726573733a2063616c6c20746f206e6f6e2d636f6e74726163740000005f82015250565b5f613360601d8361263c565b915061336b8261332c565b602082019050919050565b5f6020820190508181035f83015261338d81613354565b9050919050565b5f81519050919050565b8281835e5f83830152505050565b5f6133b682613394565b6133c08185612ff8565b93506133d081856020860161339e565b80840191505092915050565b5f6133e782846133ac565b915081905092915050565b5f81519050919050565b5f601f19601f8301169050919050565b5f613416826133f2565b613420818561263c565b935061343081856020860161339e565b613439816133fc565b840191505092915050565b5f6020820190508181035f83015261345c818461340c565b90509291505056fea264697066735822122012facbe9f88e903b3175b6774dbdca6bbf3e6f84af69952c9f44daa90bf323dd64736f6c634300081c0033","linkReferences":{}},"methodIdentifiers":{"ETH_MOCK_ADDRESS()":"51ee886b","REVISION()":"dde43cba","approve(address,address,uint256)":"e1f21c67","balanceOf(uint256,address)":"3656eec2","cancelStream(uint256)":"6db9241b","createStream(address,uint256,address,uint256,uint256)":"cc1b4bf6","deltaOf(uint256)":"a82ccd4d","getFundsAdmin()":"06bc2ee0","getNextStreamId()":"0932f92b","getStream(uint256)":"894e9a0d","initialize(address)":"c4d66de8","transfer(address,address,uint256)":"beabacc8","withdrawFromStream(uint256,uint256)":"7a9b2c6c"},"id":45}