{"abi":[{"type":"constructor","inputs":[{"name":"weth","type":"address","internalType":"address"},{"name":"owner","type":"address","internalType":"address"},{"name":"pool","type":"address","internalType":"contract IPool"}],"stateMutability":"nonpayable"},{"type":"fallback","stateMutability":"payable"},{"type":"receive","stateMutability":"payable"},{"type":"function","name":"borrowETH","inputs":[{"name":"","type":"address","internalType":"address"},{"name":"amount","type":"uint256","internalType":"uint256"},{"name":"interestRateMode","type":"uint256","internalType":"uint256"},{"name":"referralCode","type":"uint16","internalType":"uint16"}],"outputs":[],"stateMutability":"nonpayable"},{"type":"function","name":"depositETH","inputs":[{"name":"","type":"address","internalType":"address"},{"name":"onBehalfOf","type":"address","internalType":"address"},{"name":"referralCode","type":"uint16","internalType":"uint16"}],"outputs":[],"stateMutability":"payable"},{"type":"function","name":"emergencyEtherTransfer","inputs":[{"name":"to","type":"address","internalType":"address"},{"name":"amount","type":"uint256","internalType":"uint256"}],"outputs":[],"stateMutability":"nonpayable"},{"type":"function","name":"emergencyTokenTransfer","inputs":[{"name":"token","type":"address","internalType":"address"},{"name":"to","type":"address","internalType":"address"},{"name":"amount","type":"uint256","internalType":"uint256"}],"outputs":[],"stateMutability":"nonpayable"},{"type":"function","name":"getWETHAddress","inputs":[],"outputs":[{"name":"","type":"address","internalType":"address"}],"stateMutability":"view"},{"type":"function","name":"owner","inputs":[],"outputs":[{"name":"","type":"address","internalType":"address"}],"stateMutability":"view"},{"type":"function","name":"renounceOwnership","inputs":[],"outputs":[],"stateMutability":"nonpayable"},{"type":"function","name":"repayETH","inputs":[{"name":"","type":"address","internalType":"address"},{"name":"amount","type":"uint256","internalType":"uint256"},{"name":"rateMode","type":"uint256","internalType":"uint256"},{"name":"onBehalfOf","type":"address","internalType":"address"}],"outputs":[],"stateMutability":"payable"},{"type":"function","name":"transferOwnership","inputs":[{"name":"newOwner","type":"address","internalType":"address"}],"outputs":[],"stateMutability":"nonpayable"},{"type":"function","name":"withdrawETH","inputs":[{"name":"","type":"address","internalType":"address"},{"name":"amount","type":"uint256","internalType":"uint256"},{"name":"to","type":"address","internalType":"address"}],"outputs":[],"stateMutability":"nonpayable"},{"type":"function","name":"withdrawETHWithPermit","inputs":[{"name":"","type":"address","internalType":"address"},{"name":"amount","type":"uint256","internalType":"uint256"},{"name":"to","type":"address","internalType":"address"},{"name":"deadline","type":"uint256","internalType":"uint256"},{"name":"permitV","type":"uint8","internalType":"uint8"},{"name":"permitR","type":"bytes32","internalType":"bytes32"},{"name":"permitS","type":"bytes32","internalType":"bytes32"}],"outputs":[],"stateMutability":"nonpayable"},{"type":"event","name":"OwnershipTransferred","inputs":[{"name":"previousOwner","type":"address","indexed":true,"internalType":"address"},{"name":"newOwner","type":"address","indexed":true,"internalType":"address"}],"anonymous":false}],"bytecode":{"object":"0x60c060405234801561000f575f5ffd5b50604051612c84380380612c848339818101604052810190610031919061045c565b5f6100406101f760201b60201c565b9050805f5f6101000a81548173ffffffffffffffffffffffffffffffffffffffff021916908373ffffffffffffffffffffffffffffffffffffffff1602179055508073ffffffffffffffffffffffffffffffffffffffff165f73ffffffffffffffffffffffffffffffffffffffff167f8be0079c531659141344cd1fd0a4f28419497f9722a3daafe3b4186f6b6457e060405160405180910390a3508273ffffffffffffffffffffffffffffffffffffffff1660808173ffffffffffffffffffffffffffffffffffffffff16815250508073ffffffffffffffffffffffffffffffffffffffff1660a08173ffffffffffffffffffffffffffffffffffffffff1681525050610153826101fe60201b60201c565b8273ffffffffffffffffffffffffffffffffffffffff1663095ea7b3827fffffffffffffffffffffffffffffffffffffffffffffffffffffffffffffffff6040518363ffffffff1660e01b81526004016101ae9291906104d3565b6020604051808303815f875af11580156101ca573d5f5f3e3d5ffd5b505050506040513d601f19601f820116820180604052508101906101ee919061052f565b50505050610660565b5f33905090565b61020c6101f760201b60201c565b73ffffffffffffffffffffffffffffffffffffffff165f5f9054906101000a900473ffffffffffffffffffffffffffffffffffffffff1673ffffffffffffffffffffffffffffffffffffffff1614610299576040517f08c379a0000000000000000000000000000000000000000000000000000000008152600401610290906105b4565b60405180910390fd5b5f73ffffffffffffffffffffffffffffffffffffffff168173ffffffffffffffffffffffffffffffffffffffff1603610307576040517f08c379a00000000000000000000000000000000000000000000000000000000081526004016102fe90610642565b60405180910390fd5b8073ffffffffffffffffffffffffffffffffffffffff165f5f9054906101000a900473ffffffffffffffffffffffffffffffffffffffff1673ffffffffffffffffffffffffffffffffffffffff167f8be0079c531659141344cd1fd0a4f28419497f9722a3daafe3b4186f6b6457e060405160405180910390a3805f5f6101000a81548173ffffffffffffffffffffffffffffffffffffffff021916908373ffffffffffffffffffffffffffffffffffffffff16021790555050565b5f5ffd5b5f73ffffffffffffffffffffffffffffffffffffffff82169050919050565b5f6103f0826103c7565b9050919050565b610400816103e6565b811461040a575f5ffd5b50565b5f8151905061041b816103f7565b92915050565b5f61042b826103e6565b9050919050565b61043b81610421565b8114610445575f5ffd5b50565b5f8151905061045681610432565b92915050565b5f5f5f60608486031215610473576104726103c3565b5b5f6104808682870161040d565b93505060206104918682870161040d565b92505060406104a286828701610448565b9150509250925092565b6104b5816103e6565b82525050565b5f819050919050565b6104cd816104bb565b82525050565b5f6040820190506104e65f8301856104ac565b6104f360208301846104c4565b9392505050565b5f8115159050919050565b61050e816104fa565b8114610518575f5ffd5b50565b5f8151905061052981610505565b92915050565b5f60208284031215610544576105436103c3565b5b5f6105518482850161051b565b91505092915050565b5f82825260208201905092915050565b7f4f776e61626c653a2063616c6c6572206973206e6f7420746865206f776e65725f82015250565b5f61059e60208361055a565b91506105a98261056a565b602082019050919050565b5f6020820190508181035f8301526105cb81610592565b9050919050565b7f4f776e61626c653a206e6577206f776e657220697320746865207a65726f20615f8201527f6464726573730000000000000000000000000000000000000000000000000000602082015250565b5f61062c60268361055a565b9150610637826105d2565b604082019050919050565b5f6020820190508181035f83015261065981610620565b9050919050565b60805160a0516125716107135f395f8181610309015281816104e001528181610644015281816106f50152818161098a01528181610b7201528181610ddc015261103601525f818160a601528181610345015281816104630152818161051c015281816105c70152818161068001528181610731015281816107a3015281816109c601528181610bae01528181610c3001528181610db501528181610e180152818161107201526110f401526125715ff3fe60806040526004361061009f575f3560e01c80638da5cb5b116100635780638da5cb5b1461020d578063a3d5b25514610237578063affa88171461025f578063d4c40b6c14610289578063eed88b8d146102b1578063f2fde38b146102d957610134565b806302c5fcf81461016f578063474cf53d1461018b57806366514c97146101a7578063715018a6146101cf57806380500d20146101e557610134565b36610134577f000000000000000000000000000000000000000000000000000000000000000073ffffffffffffffffffffffffffffffffffffffff163373ffffffffffffffffffffffffffffffffffffffff1614610132576040517f08c379a0000000000000000000000000000000000000000000000000000000008152600401610129906117b1565b60405180910390fd5b005b6040517f08c379a000000000000000000000000000000000000000000000000000000000815260040161016690611819565b60405180910390fd5b610189600480360381019061018491906118d1565b610301565b005b6101a560048036038101906101a0919061196c565b6105c5565b005b3480156101b2575f5ffd5b506101cd60048036038101906101c891906119bc565b6106f3565b005b3480156101da575f5ffd5b506101e3610837565b005b3480156101f0575f5ffd5b5061020b60048036038101906102069190611a20565b610987565b005b348015610218575f5ffd5b50610221610cc6565b60405161022e9190611a7f565b60405180910390f35b348015610242575f5ffd5b5061025d60048036038101906102589190611a98565b610ced565b005b34801561026a575f5ffd5b50610273610db2565b6040516102809190611a7f565b60405180910390f35b348015610294575f5ffd5b506102af60048036038101906102aa9190611b51565b610dd9565b005b3480156102bc575f5ffd5b506102d760048036038101906102d29190611bee565b61118e565b005b3480156102e4575f5ffd5b506102ff60048036038101906102fa9190611c2c565b611231565b005b5f5f6103c5837f000000000000000000000000000000000000000000000000000000000000000073ffffffffffffffffffffffffffffffffffffffff166335ea6a757f00000000000000000000000000000000000000000000000000000000000000006040518263ffffffff1660e01b81526004016103809190611a7f565b6101e060405180830381865afa15801561039c573d5f5f3e3d5ffd5b505050506040513d601f19601f820116820180604052508101906103c09190611f38565b6113f0565b915091505f600160028111156103de576103dd611f64565b5b8560028111156103f1576103f0611f64565b5b600281111561040357610402611f64565b5b1461040e5781610410565b825b90508086101561041e578590505b80341015610461576040517f08c379a000000000000000000000000000000000000000000000000000000000815260040161045890612001565b60405180910390fd5b7f000000000000000000000000000000000000000000000000000000000000000073ffffffffffffffffffffffffffffffffffffffff1663d0e30db0826040518263ffffffff1660e01b81526004015f604051808303818588803b1580156104c7575f5ffd5b505af11580156104d9573d5f5f3e3d5ffd5b50505050507f000000000000000000000000000000000000000000000000000000000000000073ffffffffffffffffffffffffffffffffffffffff1663573ade817f00000000000000000000000000000000000000000000000000000000000000003488886040518563ffffffff1660e01b815260040161055d949392919061202e565b6020604051808303815f875af1158015610579573d5f5f3e3d5ffd5b505050506040513d601f19601f8201168201806040525081019061059d9190612071565b50803411156105bc576105bb3382346105b691906120c9565b6114f7565b5b50505050505050565b7f000000000000000000000000000000000000000000000000000000000000000073ffffffffffffffffffffffffffffffffffffffff1663d0e30db0346040518263ffffffff1660e01b81526004015f604051808303818588803b15801561062b575f5ffd5b505af115801561063d573d5f5f3e3d5ffd5b50505050507f000000000000000000000000000000000000000000000000000000000000000073ffffffffffffffffffffffffffffffffffffffff1663e8eda9df7f00000000000000000000000000000000000000000000000000000000000000003485856040518563ffffffff1660e01b81526004016106c1949392919061210b565b5f604051808303815f87803b1580156106d8575f5ffd5b505af11580156106ea573d5f5f3e3d5ffd5b50505050505050565b7f000000000000000000000000000000000000000000000000000000000000000073ffffffffffffffffffffffffffffffffffffffff1663a415bcad7f0000000000000000000000000000000000000000000000000000000000000000858585336040518663ffffffff1660e01b815260040161077495949392919061214e565b5f604051808303815f87803b15801561078b575f5ffd5b505af115801561079d573d5f5f3e3d5ffd5b505050507f000000000000000000000000000000000000000000000000000000000000000073ffffffffffffffffffffffffffffffffffffffff16632e1a7d4d846040518263ffffffff1660e01b81526004016107fa919061219f565b5f604051808303815f87803b158015610811575f5ffd5b505af1158015610823573d5f5f3e3d5ffd5b5050505061083133846114f7565b50505050565b61083f6115f2565b73ffffffffffffffffffffffffffffffffffffffff165f5f9054906101000a900473ffffffffffffffffffffffffffffffffffffffff1673ffffffffffffffffffffffffffffffffffffffff16146108cc576040517f08c379a00000000000000000000000000000000000000000000000000000000081526004016108c390612202565b60405180910390fd5b5f73ffffffffffffffffffffffffffffffffffffffff165f5f9054906101000a900473ffffffffffffffffffffffffffffffffffffffff1673ffffffffffffffffffffffffffffffffffffffff167f8be0079c531659141344cd1fd0a4f28419497f9722a3daafe3b4186f6b6457e060405160405180910390a35f5f5f6101000a81548173ffffffffffffffffffffffffffffffffffffffff021916908373ffffffffffffffffffffffffffffffffffffffff160217905550565b5f7f000000000000000000000000000000000000000000000000000000000000000073ffffffffffffffffffffffffffffffffffffffff166335ea6a757f00000000000000000000000000000000000000000000000000000000000000006040518263ffffffff1660e01b8152600401610a019190611a7f565b6101e060405180830381865afa158015610a1d573d5f5f3e3d5ffd5b505050506040513d601f19601f82011682018060405250810190610a419190611f38565b610100015190505f8173ffffffffffffffffffffffffffffffffffffffff166370a08231336040518263ffffffff1660e01b8152600401610a829190611a7f565b602060405180830381865afa158015610a9d573d5f5f3e3d5ffd5b505050506040513d601f19601f82011682018060405250810190610ac19190612071565b90505f8490507fffffffffffffffffffffffffffffffffffffffffffffffffffffffffffffffff8503610af2578190505b8273ffffffffffffffffffffffffffffffffffffffff166323b872dd3330846040518463ffffffff1660e01b8152600401610b2f93929190612220565b6020604051808303815f875af1158015610b4b573d5f5f3e3d5ffd5b505050506040513d601f19601f82011682018060405250810190610b6f919061228a565b507f000000000000000000000000000000000000000000000000000000000000000073ffffffffffffffffffffffffffffffffffffffff166369328dec7f000000000000000000000000000000000000000000000000000000000000000083306040518463ffffffff1660e01b8152600401610bed939291906122b5565b6020604051808303815f875af1158015610c09573d5f5f3e3d5ffd5b505050506040513d601f19601f82011682018060405250810190610c2d9190612071565b507f000000000000000000000000000000000000000000000000000000000000000073ffffffffffffffffffffffffffffffffffffffff16632e1a7d4d826040518263ffffffff1660e01b8152600401610c87919061219f565b5f604051808303815f87803b158015610c9e575f5ffd5b505af1158015610cb0573d5f5f3e3d5ffd5b50505050610cbe84826114f7565b505050505050565b5f5f5f9054906101000a900473ffffffffffffffffffffffffffffffffffffffff16905090565b610cf56115f2565b73ffffffffffffffffffffffffffffffffffffffff165f5f9054906101000a900473ffffffffffffffffffffffffffffffffffffffff1673ffffffffffffffffffffffffffffffffffffffff1614610d82576040517f08c379a0000000000000000000000000000000000000000000000000000000008152600401610d7990612202565b60405180910390fd5b610dad82828573ffffffffffffffffffffffffffffffffffffffff166115f99092919063ffffffff16565b505050565b5f7f0000000000000000000000000000000000000000000000000000000000000000905090565b5f7f000000000000000000000000000000000000000000000000000000000000000073ffffffffffffffffffffffffffffffffffffffff166335ea6a757f00000000000000000000000000000000000000000000000000000000000000006040518263ffffffff1660e01b8152600401610e539190611a7f565b6101e060405180830381865afa158015610e6f573d5f5f3e3d5ffd5b505050506040513d601f19601f82011682018060405250810190610e939190611f38565b610100015190505f8173ffffffffffffffffffffffffffffffffffffffff166370a08231336040518263ffffffff1660e01b8152600401610ed49190611a7f565b602060405180830381865afa158015610eef573d5f5f3e3d5ffd5b505050506040513d601f19601f82011682018060405250810190610f139190612071565b90505f8890507fffffffffffffffffffffffffffffffffffffffffffffffffffffffffffffffff8903610f44578190505b8273ffffffffffffffffffffffffffffffffffffffff1663d505accf33308c8b8b8b8b6040518863ffffffff1660e01b8152600401610f899796959493929190612308565b5f604051808303815f87803b158015610fa0575f5ffd5b505af1158015610fb2573d5f5f3e3d5ffd5b505050508273ffffffffffffffffffffffffffffffffffffffff166323b872dd3330846040518463ffffffff1660e01b8152600401610ff393929190612220565b6020604051808303815f875af115801561100f573d5f5f3e3d5ffd5b505050506040513d601f19601f82011682018060405250810190611033919061228a565b507f000000000000000000000000000000000000000000000000000000000000000073ffffffffffffffffffffffffffffffffffffffff166369328dec7f000000000000000000000000000000000000000000000000000000000000000083306040518463ffffffff1660e01b81526004016110b1939291906122b5565b6020604051808303815f875af11580156110cd573d5f5f3e3d5ffd5b505050506040513d601f19601f820116820180604052508101906110f19190612071565b507f000000000000000000000000000000000000000000000000000000000000000073ffffffffffffffffffffffffffffffffffffffff16632e1a7d4d826040518263ffffffff1660e01b815260040161114b919061219f565b5f604051808303815f87803b158015611162575f5ffd5b505af1158015611174573d5f5f3e3d5ffd5b5050505061118288826114f7565b50505050505050505050565b6111966115f2565b73ffffffffffffffffffffffffffffffffffffffff165f5f9054906101000a900473ffffffffffffffffffffffffffffffffffffffff1673ffffffffffffffffffffffffffffffffffffffff1614611223576040517f08c379a000000000000000000000000000000000000000000000000000000000815260040161121a90612202565b60405180910390fd5b61122d82826114f7565b5050565b6112396115f2565b73ffffffffffffffffffffffffffffffffffffffff165f5f9054906101000a900473ffffffffffffffffffffffffffffffffffffffff1673ffffffffffffffffffffffffffffffffffffffff16146112c6576040517f08c379a00000000000000000000000000000000000000000000000000000000081526004016112bd90612202565b60405180910390fd5b5f73ffffffffffffffffffffffffffffffffffffffff168173ffffffffffffffffffffffffffffffffffffffff1603611334576040517f08c379a000000000000000000000000000000000000000000000000000000000815260040161132b906123e5565b60405180910390fd5b8073ffffffffffffffffffffffffffffffffffffffff165f5f9054906101000a900473ffffffffffffffffffffffffffffffffffffffff1673ffffffffffffffffffffffffffffffffffffffff167f8be0079c531659141344cd1fd0a4f28419497f9722a3daafe3b4186f6b6457e060405160405180910390a3805f5f6101000a81548173ffffffffffffffffffffffffffffffffffffffff021916908373ffffffffffffffffffffffffffffffffffffffff16021790555050565b5f5f82610120015173ffffffffffffffffffffffffffffffffffffffff166370a08231856040518263ffffffff1660e01b81526004016114309190611a7f565b602060405180830381865afa15801561144b573d5f5f3e3d5ffd5b505050506040513d601f19601f8201168201806040525081019061146f9190612071565b83610140015173ffffffffffffffffffffffffffffffffffffffff166370a08231866040518263ffffffff1660e01b81526004016114ad9190611a7f565b602060405180830381865afa1580156114c8573d5f5f3e3d5ffd5b505050506040513d601f19601f820116820180604052508101906114ec9190612071565b915091509250929050565b5f8273ffffffffffffffffffffffffffffffffffffffff16825f67ffffffffffffffff81111561152a57611529611c6b565b5b6040519080825280601f01601f19166020018201604052801561155c5781602001600182028036833780820191505090505b5060405161156a9190612455565b5f6040518083038185875af1925050503d805f81146115a4576040519150601f19603f3d011682016040523d82523d5f602084013e6115a9565b606091505b50509050806115ed576040517f08c379a00000000000000000000000000000000000000000000000000000000081526004016115e4906124b5565b60405180910390fd5b505050565b5f33905090565b5f63a9059cbb60e01b905060405181815273ffffffffffffffffffffffffffffffffffffffff841660048201528260248201525f5f6044835f895af1611641573d5f5f3e3d5ffd5b5061164b84611690565b61168a576040517f08c379a00000000000000000000000000000000000000000000000000000000081526004016116819061251d565b60405180910390fd5b50505050565b5f6116cb565b7f08c379a0000000000000000000000000000000000000000000000000000000005f526020600452806024528160445260645ffd5b3d5f811461170b5760208114611746576117067f475076323a206d616c666f726d6564207472616e7366657220726573756c7400601f611696565b611751565b823b61173d5761173c7f475076323a206e6f74206120636f6e74726163740000000000000000000000006014611696565b5b60019150611751565b3d5f5f3e5f51151591505b50919050565b5f82825260208201905092915050565b7f52656365697665206e6f7420616c6c6f776564000000000000000000000000005f82015250565b5f61179b601383611757565b91506117a682611767565b602082019050919050565b5f6020820190508181035f8301526117c88161178f565b9050919050565b7f46616c6c6261636b206e6f7420616c6c6f7765640000000000000000000000005f82015250565b5f611803601483611757565b915061180e826117cf565b602082019050919050565b5f6020820190508181035f830152611830816117f7565b9050919050565b5f604051905090565b5f5ffd5b5f73ffffffffffffffffffffffffffffffffffffffff82169050919050565b5f61186d82611844565b9050919050565b61187d81611863565b8114611887575f5ffd5b50565b5f8135905061189881611874565b92915050565b5f819050919050565b6118b08161189e565b81146118ba575f5ffd5b50565b5f813590506118cb816118a7565b92915050565b5f5f5f5f608085870312156118e9576118e8611840565b5b5f6118f68782880161188a565b9450506020611907878288016118bd565b9350506040611918878288016118bd565b92505060606119298782880161188a565b91505092959194509250565b5f61ffff82169050919050565b61194b81611935565b8114611955575f5ffd5b50565b5f8135905061196681611942565b92915050565b5f5f5f6060848603121561198357611982611840565b5b5f6119908682870161188a565b93505060206119a18682870161188a565b92505060406119b286828701611958565b9150509250925092565b5f5f5f5f608085870312156119d4576119d3611840565b5b5f6119e18782880161188a565b94505060206119f2878288016118bd565b9350506040611a03878288016118bd565b9250506060611a1487828801611958565b91505092959194509250565b5f5f5f60608486031215611a3757611a36611840565b5b5f611a448682870161188a565b9350506020611a55868287016118bd565b9250506040611a668682870161188a565b9150509250925092565b611a7981611863565b82525050565b5f602082019050611a925f830184611a70565b92915050565b5f5f5f60608486031215611aaf57611aae611840565b5b5f611abc8682870161188a565b9350506020611acd8682870161188a565b9250506040611ade868287016118bd565b9150509250925092565b5f60ff82169050919050565b611afd81611ae8565b8114611b07575f5ffd5b50565b5f81359050611b1881611af4565b92915050565b5f819050919050565b611b3081611b1e565b8114611b3a575f5ffd5b50565b5f81359050611b4b81611b27565b92915050565b5f5f5f5f5f5f5f60e0888a031215611b6c57611b6b611840565b5b5f611b798a828b0161188a565b9750506020611b8a8a828b016118bd565b9650506040611b9b8a828b0161188a565b9550506060611bac8a828b016118bd565b9450506080611bbd8a828b01611b0a565b93505060a0611bce8a828b01611b3d565b92505060c0611bdf8a828b01611b3d565b91505092959891949750929550565b5f5f60408385031215611c0457611c03611840565b5b5f611c118582860161188a565b9250506020611c22858286016118bd565b9150509250929050565b5f60208284031215611c4157611c40611840565b5b5f611c4e8482850161188a565b91505092915050565b5f5ffd5b5f601f19601f8301169050919050565b7f4e487b71000000000000000000000000000000000000000000000000000000005f52604160045260245ffd5b611ca182611c5b565b810181811067ffffffffffffffff82111715611cc057611cbf611c6b565b5b80604052505050565b5f611cd2611837565b9050611cde8282611c98565b919050565b5f81519050611cf1816118a7565b92915050565b5f60208284031215611d0c57611d0b611c57565b5b611d166020611cc9565b90505f611d2584828501611ce3565b5f8301525092915050565b5f6fffffffffffffffffffffffffffffffff82169050919050565b611d5481611d30565b8114611d5e575f5ffd5b50565b5f81519050611d6f81611d4b565b92915050565b5f64ffffffffff82169050919050565b611d8e81611d75565b8114611d98575f5ffd5b50565b5f81519050611da981611d85565b92915050565b5f81519050611dbd81611942565b92915050565b5f81519050611dd181611874565b92915050565b5f6101e08284031215611ded57611dec611c57565b5b611df86101e0611cc9565b90505f611e0784828501611cf7565b5f830152506020611e1a84828501611d61565b6020830152506040611e2e84828501611d61565b6040830152506060611e4284828501611d61565b6060830152506080611e5684828501611d61565b60808301525060a0611e6a84828501611d61565b60a08301525060c0611e7e84828501611d9b565b60c08301525060e0611e9284828501611daf565b60e083015250610100611ea784828501611dc3565b61010083015250610120611ebd84828501611dc3565b61012083015250610140611ed384828501611dc3565b61014083015250610160611ee984828501611dc3565b61016083015250610180611eff84828501611d61565b610180830152506101a0611f1584828501611d61565b6101a0830152506101c0611f2b84828501611d61565b6101c08301525092915050565b5f6101e08284031215611f4e57611f4d611840565b5b5f611f5b84828501611dd7565b91505092915050565b7f4e487b71000000000000000000000000000000000000000000000000000000005f52602160045260245ffd5b7f6d73672e76616c7565206973206c657373207468616e2072657061796d656e745f8201527f20616d6f756e7400000000000000000000000000000000000000000000000000602082015250565b5f611feb602783611757565b9150611ff682611f91565b604082019050919050565b5f6020820190508181035f83015261201881611fdf565b9050919050565b6120288161189e565b82525050565b5f6080820190506120415f830187611a70565b61204e602083018661201f565b61205b604083018561201f565b6120686060830184611a70565b95945050505050565b5f6020828403121561208657612085611840565b5b5f61209384828501611ce3565b91505092915050565b7f4e487b71000000000000000000000000000000000000000000000000000000005f52601160045260245ffd5b5f6120d38261189e565b91506120de8361189e565b92508282039050818111156120f6576120f561209c565b5b92915050565b61210581611935565b82525050565b5f60808201905061211e5f830187611a70565b61212b602083018661201f565b6121386040830185611a70565b61214560608301846120fc565b95945050505050565b5f60a0820190506121615f830188611a70565b61216e602083018761201f565b61217b604083018661201f565b61218860608301856120fc565b6121956080830184611a70565b9695505050505050565b5f6020820190506121b25f83018461201f565b92915050565b7f4f776e61626c653a2063616c6c6572206973206e6f7420746865206f776e65725f82015250565b5f6121ec602083611757565b91506121f7826121b8565b602082019050919050565b5f6020820190508181035f830152612219816121e0565b9050919050565b5f6060820190506122335f830186611a70565b6122406020830185611a70565b61224d604083018461201f565b949350505050565b5f8115159050919050565b61226981612255565b8114612273575f5ffd5b50565b5f8151905061228481612260565b92915050565b5f6020828403121561229f5761229e611840565b5b5f6122ac84828501612276565b91505092915050565b5f6060820190506122c85f830186611a70565b6122d5602083018561201f565b6122e26040830184611a70565b949350505050565b6122f381611ae8565b82525050565b61230281611b1e565b82525050565b5f60e08201905061231b5f83018a611a70565b6123286020830189611a70565b612335604083018861201f565b612342606083018761201f565b61234f60808301866122ea565b61235c60a08301856122f9565b61236960c08301846122f9565b98975050505050505050565b7f4f776e61626c653a206e6577206f776e657220697320746865207a65726f20615f8201527f6464726573730000000000000000000000000000000000000000000000000000602082015250565b5f6123cf602683611757565b91506123da82612375565b604082019050919050565b5f6020820190508181035f8301526123fc816123c3565b9050919050565b5f81519050919050565b5f81905092915050565b8281835e5f83830152505050565b5f61242f82612403565b612439818561240d565b9350612449818560208601612417565b80840191505092915050565b5f6124608284612425565b915081905092915050565b7f4554485f5452414e534645525f4641494c4544000000000000000000000000005f82015250565b5f61249f601383611757565b91506124aa8261246b565b602082019050919050565b5f6020820190508181035f8301526124cc81612493565b9050919050565b7f475076323a206661696c6564207472616e7366657200000000000000000000005f82015250565b5f612507601583611757565b9150612512826124d3565b602082019050919050565b5f6020820190508181035f830152612534816124fb565b905091905056fea2646970667358221220028f9f7daf1682d2b014edbd4cc8270b283e2ba326189a15c742991b2e08686264736f6c634300081c0033","linkReferences":{}},"methodIdentifiers":{"borrowETH(address,uint256,uint256,uint16)":"66514c97","depositETH(address,address,uint16)":"474cf53d","emergencyEtherTransfer(address,uint256)":"eed88b8d","emergencyTokenTransfer(address,address,uint256)":"a3d5b255","getWETHAddress()":"affa8817","owner()":"8da5cb5b","renounceOwnership()":"715018a6","repayETH(address,uint256,uint256,address)":"02c5fcf8","transferOwnership(address)":"f2fde38b","withdrawETH(address,uint256,address)":"80500d20","withdrawETHWithPermit(address,uint256,address,uint256,uint8,bytes32,bytes32)":"d4c40b6c"},"id":13}