{"abi":[{"type":"function","name":"ACL_ADMIN_CANNOT_BE_ZERO","inputs":[],"outputs":[{"name":"","type":"string","internalType":"string"}],"stateMutability":"view"},{"type":"function","name":"ADDRESSES_PROVIDER_ALREADY_ADDED","inputs":[],"outputs":[{"name":"","type":"string","internalType":"string"}],"stateMutability":"view"},{"type":"function","name":"ADDRESSES_PROVIDER_NOT_REGISTERED","inputs":[],"outputs":[{"name":"","type":"string","internalType":"string"}],"stateMutability":"view"},{"type":"function","name":"AMOUNT_BIGGER_THAN_MAX_LOAN_SIZE_STABLE","inputs":[],"outputs":[{"name":"","type":"string","internalType":"string"}],"stateMutability":"view"},{"type":"function","name":"ASSET_NOT_BORROWABLE_IN_ISOLATION","inputs":[],"outputs":[{"name":"","type":"string","internalType":"string"}],"stateMutability":"view"},{"type":"function","name":"ASSET_NOT_LISTED","inputs":[],"outputs":[{"name":"","type":"string","internalType":"string"}],"stateMutability":"view"},{"type":"function","name":"BORROWING_NOT_ENABLED","inputs":[],"outputs":[{"name":"","type":"string","internalType":"string"}],"stateMutability":"view"},{"type":"function","name":"BORROW_CAP_EXCEEDED","inputs":[],"outputs":[{"name":"","type":"string","internalType":"string"}],"stateMutability":"view"},{"type":"function","name":"BRIDGE_PROTOCOL_FEE_INVALID","inputs":[],"outputs":[{"name":"","type":"string","internalType":"string"}],"stateMutability":"view"},{"type":"function","name":"CALLER_MUST_BE_POOL","inputs":[],"outputs":[{"name":"","type":"string","internalType":"string"}],"stateMutability":"view"},{"type":"function","name":"CALLER_NOT_ASSET_LISTING_OR_POOL_ADMIN","inputs":[],"outputs":[{"name":"","type":"string","internalType":"string"}],"stateMutability":"view"},{"type":"function","name":"CALLER_NOT_ATOKEN","inputs":[],"outputs":[{"name":"","type":"string","internalType":"string"}],"stateMutability":"view"},{"type":"function","name":"CALLER_NOT_BRIDGE","inputs":[],"outputs":[{"name":"","type":"string","internalType":"string"}],"stateMutability":"view"},{"type":"function","name":"CALLER_NOT_EMERGENCY_ADMIN","inputs":[],"outputs":[{"name":"","type":"string","internalType":"string"}],"stateMutability":"view"},{"type":"function","name":"CALLER_NOT_POOL_ADMIN","inputs":[],"outputs":[{"name":"","type":"string","internalType":"string"}],"stateMutability":"view"},{"type":"function","name":"CALLER_NOT_POOL_CONFIGURATOR","inputs":[],"outputs":[{"name":"","type":"string","internalType":"string"}],"stateMutability":"view"},{"type":"function","name":"CALLER_NOT_POOL_OR_EMERGENCY_ADMIN","inputs":[],"outputs":[{"name":"","type":"string","internalType":"string"}],"stateMutability":"view"},{"type":"function","name":"CALLER_NOT_RISK_OR_POOL_ADMIN","inputs":[],"outputs":[{"name":"","type":"string","internalType":"string"}],"stateMutability":"view"},{"type":"function","name":"COLLATERAL_BALANCE_IS_ZERO","inputs":[],"outputs":[{"name":"","type":"string","internalType":"string"}],"stateMutability":"view"},{"type":"function","name":"COLLATERAL_CANNOT_BE_LIQUIDATED","inputs":[],"outputs":[{"name":"","type":"string","internalType":"string"}],"stateMutability":"view"},{"type":"function","name":"COLLATERAL_CANNOT_COVER_NEW_BORROW","inputs":[],"outputs":[{"name":"","type":"string","internalType":"string"}],"stateMutability":"view"},{"type":"function","name":"COLLATERAL_SAME_AS_BORROWING_CURRENCY","inputs":[],"outputs":[{"name":"","type":"string","internalType":"string"}],"stateMutability":"view"},{"type":"function","name":"DEBT_CEILING_EXCEEDED","inputs":[],"outputs":[{"name":"","type":"string","internalType":"string"}],"stateMutability":"view"},{"type":"function","name":"DEBT_CEILING_NOT_ZERO","inputs":[],"outputs":[{"name":"","type":"string","internalType":"string"}],"stateMutability":"view"},{"type":"function","name":"EMODE_CATEGORY_RESERVED","inputs":[],"outputs":[{"name":"","type":"string","internalType":"string"}],"stateMutability":"view"},{"type":"function","name":"FLASHLOAN_DISABLED","inputs":[],"outputs":[{"name":"","type":"string","internalType":"string"}],"stateMutability":"view"},{"type":"function","name":"FLASHLOAN_PREMIUM_INVALID","inputs":[],"outputs":[{"name":"","type":"string","internalType":"string"}],"stateMutability":"view"},{"type":"function","name":"HEALTH_FACTOR_LOWER_THAN_LIQUIDATION_THRESHOLD","inputs":[],"outputs":[{"name":"","type":"string","internalType":"string"}],"stateMutability":"view"},{"type":"function","name":"HEALTH_FACTOR_NOT_BELOW_THRESHOLD","inputs":[],"outputs":[{"name":"","type":"string","internalType":"string"}],"stateMutability":"view"},{"type":"function","name":"INCONSISTENT_EMODE_CATEGORY","inputs":[],"outputs":[{"name":"","type":"string","internalType":"string"}],"stateMutability":"view"},{"type":"function","name":"INCONSISTENT_FLASHLOAN_PARAMS","inputs":[],"outputs":[{"name":"","type":"string","internalType":"string"}],"stateMutability":"view"},{"type":"function","name":"INCONSISTENT_PARAMS_LENGTH","inputs":[],"outputs":[{"name":"","type":"string","internalType":"string"}],"stateMutability":"view"},{"type":"function","name":"INTEREST_RATE_REBALANCE_CONDITIONS_NOT_MET","inputs":[],"outputs":[{"name":"","type":"string","internalType":"string"}],"stateMutability":"view"},{"type":"function","name":"INVALID_ADDRESSES_PROVIDER","inputs":[],"outputs":[{"name":"","type":"string","internalType":"string"}],"stateMutability":"view"},{"type":"function","name":"INVALID_ADDRESSES_PROVIDER_ID","inputs":[],"outputs":[{"name":"","type":"string","internalType":"string"}],"stateMutability":"view"},{"type":"function","name":"INVALID_AMOUNT","inputs":[],"outputs":[{"name":"","type":"string","internalType":"string"}],"stateMutability":"view"},{"type":"function","name":"INVALID_BORROW_CAP","inputs":[],"outputs":[{"name":"","type":"string","internalType":"string"}],"stateMutability":"view"},{"type":"function","name":"INVALID_BURN_AMOUNT","inputs":[],"outputs":[{"name":"","type":"string","internalType":"string"}],"stateMutability":"view"},{"type":"function","name":"INVALID_DEBT_CEILING","inputs":[],"outputs":[{"name":"","type":"string","internalType":"string"}],"stateMutability":"view"},{"type":"function","name":"INVALID_DECIMALS","inputs":[],"outputs":[{"name":"","type":"string","internalType":"string"}],"stateMutability":"view"},{"type":"function","name":"INVALID_EMODE_CATEGORY","inputs":[],"outputs":[{"name":"","type":"string","internalType":"string"}],"stateMutability":"view"},{"type":"function","name":"INVALID_EMODE_CATEGORY_ASSIGNMENT","inputs":[],"outputs":[{"name":"","type":"string","internalType":"string"}],"stateMutability":"view"},{"type":"function","name":"INVALID_EMODE_CATEGORY_PARAMS","inputs":[],"outputs":[{"name":"","type":"string","internalType":"string"}],"stateMutability":"view"},{"type":"function","name":"INVALID_EXPIRATION","inputs":[],"outputs":[{"name":"","type":"string","internalType":"string"}],"stateMutability":"view"},{"type":"function","name":"INVALID_FLASHLOAN_EXECUTOR_RETURN","inputs":[],"outputs":[{"name":"","type":"string","internalType":"string"}],"stateMutability":"view"},{"type":"function","name":"INVALID_INTEREST_RATE_MODE_SELECTED","inputs":[],"outputs":[{"name":"","type":"string","internalType":"string"}],"stateMutability":"view"},{"type":"function","name":"INVALID_LIQUIDATION_PROTOCOL_FEE","inputs":[],"outputs":[{"name":"","type":"string","internalType":"string"}],"stateMutability":"view"},{"type":"function","name":"INVALID_LIQ_BONUS","inputs":[],"outputs":[{"name":"","type":"string","internalType":"string"}],"stateMutability":"view"},{"type":"function","name":"INVALID_LIQ_THRESHOLD","inputs":[],"outputs":[{"name":"","type":"string","internalType":"string"}],"stateMutability":"view"},{"type":"function","name":"INVALID_LTV","inputs":[],"outputs":[{"name":"","type":"string","internalType":"string"}],"stateMutability":"view"},{"type":"function","name":"INVALID_MINT_AMOUNT","inputs":[],"outputs":[{"name":"","type":"string","internalType":"string"}],"stateMutability":"view"},{"type":"function","name":"INVALID_OPTIMAL_STABLE_TO_TOTAL_DEBT_RATIO","inputs":[],"outputs":[{"name":"","type":"string","internalType":"string"}],"stateMutability":"view"},{"type":"function","name":"INVALID_OPTIMAL_USAGE_RATIO","inputs":[],"outputs":[{"name":"","type":"string","internalType":"string"}],"stateMutability":"view"},{"type":"function","name":"INVALID_RESERVE_FACTOR","inputs":[],"outputs":[{"name":"","type":"string","internalType":"string"}],"stateMutability":"view"},{"type":"function","name":"INVALID_RESERVE_INDEX","inputs":[],"outputs":[{"name":"","type":"string","internalType":"string"}],"stateMutability":"view"},{"type":"function","name":"INVALID_RESERVE_PARAMS","inputs":[],"outputs":[{"name":"","type":"string","internalType":"string"}],"stateMutability":"view"},{"type":"function","name":"INVALID_SIGNATURE","inputs":[],"outputs":[{"name":"","type":"string","internalType":"string"}],"stateMutability":"view"},{"type":"function","name":"INVALID_SUPPLY_CAP","inputs":[],"outputs":[{"name":"","type":"string","internalType":"string"}],"stateMutability":"view"},{"type":"function","name":"INVALID_UNBACKED_MINT_CAP","inputs":[],"outputs":[{"name":"","type":"string","internalType":"string"}],"stateMutability":"view"},{"type":"function","name":"LTV_VALIDATION_FAILED","inputs":[],"outputs":[{"name":"","type":"string","internalType":"string"}],"stateMutability":"view"},{"type":"function","name":"NOT_CONTRACT","inputs":[],"outputs":[{"name":"","type":"string","internalType":"string"}],"stateMutability":"view"},{"type":"function","name":"NOT_ENOUGH_AVAILABLE_USER_BALANCE","inputs":[],"outputs":[{"name":"","type":"string","internalType":"string"}],"stateMutability":"view"},{"type":"function","name":"NO_DEBT_OF_SELECTED_TYPE","inputs":[],"outputs":[{"name":"","type":"string","internalType":"string"}],"stateMutability":"view"},{"type":"function","name":"NO_EXPLICIT_AMOUNT_TO_REPAY_ON_BEHALF","inputs":[],"outputs":[{"name":"","type":"string","internalType":"string"}],"stateMutability":"view"},{"type":"function","name":"NO_MORE_RESERVES_ALLOWED","inputs":[],"outputs":[{"name":"","type":"string","internalType":"string"}],"stateMutability":"view"},{"type":"function","name":"NO_OUTSTANDING_STABLE_DEBT","inputs":[],"outputs":[{"name":"","type":"string","internalType":"string"}],"stateMutability":"view"},{"type":"function","name":"NO_OUTSTANDING_VARIABLE_DEBT","inputs":[],"outputs":[{"name":"","type":"string","internalType":"string"}],"stateMutability":"view"},{"type":"function","name":"OPERATION_NOT_SUPPORTED","inputs":[],"outputs":[{"name":"","type":"string","internalType":"string"}],"stateMutability":"view"},{"type":"function","name":"POOL_ADDRESSES_DO_NOT_MATCH","inputs":[],"outputs":[{"name":"","type":"string","internalType":"string"}],"stateMutability":"view"},{"type":"function","name":"PRICE_ORACLE_SENTINEL_CHECK_FAILED","inputs":[],"outputs":[{"name":"","type":"string","internalType":"string"}],"stateMutability":"view"},{"type":"function","name":"RESERVE_ALREADY_ADDED","inputs":[],"outputs":[{"name":"","type":"string","internalType":"string"}],"stateMutability":"view"},{"type":"function","name":"RESERVE_ALREADY_INITIALIZED","inputs":[],"outputs":[{"name":"","type":"string","internalType":"string"}],"stateMutability":"view"},{"type":"function","name":"RESERVE_DEBT_NOT_ZERO","inputs":[],"outputs":[{"name":"","type":"string","internalType":"string"}],"stateMutability":"view"},{"type":"function","name":"RESERVE_FROZEN","inputs":[],"outputs":[{"name":"","type":"string","internalType":"string"}],"stateMutability":"view"},{"type":"function","name":"RESERVE_INACTIVE","inputs":[],"outputs":[{"name":"","type":"string","internalType":"string"}],"stateMutability":"view"},{"type":"function","name":"RESERVE_LIQUIDITY_NOT_ZERO","inputs":[],"outputs":[{"name":"","type":"string","internalType":"string"}],"stateMutability":"view"},{"type":"function","name":"RESERVE_PAUSED","inputs":[],"outputs":[{"name":"","type":"string","internalType":"string"}],"stateMutability":"view"},{"type":"function","name":"SILOED_BORROWING_VIOLATION","inputs":[],"outputs":[{"name":"","type":"string","internalType":"string"}],"stateMutability":"view"},{"type":"function","name":"SPECIFIED_CURRENCY_NOT_BORROWED_BY_USER","inputs":[],"outputs":[{"name":"","type":"string","internalType":"string"}],"stateMutability":"view"},{"type":"function","name":"STABLE_BORROWING_ENABLED","inputs":[],"outputs":[{"name":"","type":"string","internalType":"string"}],"stateMutability":"view"},{"type":"function","name":"STABLE_BORROWING_NOT_ENABLED","inputs":[],"outputs":[{"name":"","type":"string","internalType":"string"}],"stateMutability":"view"},{"type":"function","name":"STABLE_DEBT_NOT_ZERO","inputs":[],"outputs":[{"name":"","type":"string","internalType":"string"}],"stateMutability":"view"},{"type":"function","name":"SUPPLY_CAP_EXCEEDED","inputs":[],"outputs":[{"name":"","type":"string","internalType":"string"}],"stateMutability":"view"},{"type":"function","name":"UNBACKED_MINT_CAP_EXCEEDED","inputs":[],"outputs":[{"name":"","type":"string","internalType":"string"}],"stateMutability":"view"},{"type":"function","name":"UNDERLYING_BALANCE_ZERO","inputs":[],"outputs":[{"name":"","type":"string","internalType":"string"}],"stateMutability":"view"},{"type":"function","name":"UNDERLYING_CANNOT_BE_RESCUED","inputs":[],"outputs":[{"name":"","type":"string","internalType":"string"}],"stateMutability":"view"},{"type":"function","name":"UNDERLYING_CLAIMABLE_RIGHTS_NOT_ZERO","inputs":[],"outputs":[{"name":"","type":"string","internalType":"string"}],"stateMutability":"view"},{"type":"function","name":"USER_IN_ISOLATION_MODE_OR_LTV_ZERO","inputs":[],"outputs":[{"name":"","type":"string","internalType":"string"}],"stateMutability":"view"},{"type":"function","name":"VARIABLE_DEBT_SUPPLY_NOT_ZERO","inputs":[],"outputs":[{"name":"","type":"string","internalType":"string"}],"stateMutability":"view"},{"type":"function","name":"ZERO_ADDRESS_NOT_VALID","inputs":[],"outputs":[{"name":"","type":"string","internalType":"string"}],"stateMutability":"view"}],"bytecode":{"object":"0x61245761004d600b8282823980515f1a6073146041577f4e487b71000000000000000000000000000000000000000000000000000000005f525f60045260245ffd5b305f52607381538281f3fe73000000000000000000000000000000000000000030146080604052600436106104f7575f3560e01c80638aa3ca4c11610297578063bad8308c11610170578063dd1dd95f116100e2578063f07f67851161009b578063f07f678514610ed3578063f10727db14610ef1578063f479ea1114610f0f578063fa163a8314610f2d578063fae8279114610f4b578063fd1828ff14610f69576104f7565b8063dd1dd95f14610e1f578063de24948c14610e3d578063e02f07ee14610e5b578063e3fa20f514610e79578063e4dd8b7414610e97578063e981483a14610eb5576104f7565b8063d14bb17a11610134578063d14bb17a14610d6b578063d1cd8b1d14610d89578063d6f9fcde14610da7578063d9adda8514610dc5578063dc191bd914610de3578063dcc56db614610e01576104f7565b8063bad8308c14610cd5578063c08a114614610cf3578063c863808214610d11578063c899301a14610d2f578063cd23367c14610d4d576104f7565b8063a4868dca11610209578063b0510054116101cd578063b051005414610c21578063b4a4573014610c3f578063b5e7936614610c5d578063b68774e914610c7b578063b7f5e22414610c99578063b87041c214610cb7576104f7565b8063a4868dca14610b8b578063a8c9785314610ba9578063ab883ca014610bc7578063abd351b114610be5578063ac75323614610c03576104f7565b8063952633c51161025b578063952633c514610ad75780639527e9d914610af557806399ce53f314610b13578063a2797c8014610b31578063a2e976c614610b4f578063a3402a3814610b6d576104f7565b80638aa3ca4c14610a415780638b8b98d714610a5f5780638eda46bd14610a7d5780638f7722b214610a9b57806394f9fd8a14610ab9576104f7565b80634e3aed37116103d45780636cd3cfbc116103465780637aa0767e116102ff5780637aa0767e1461098d5780637fea6f36146109ab5780638596aad5146109c9578063895f7dc8146109e757806389c5d45f14610a055780638a34400014610a23576104f7565b80636cd3cfbc146108d9578063712f536a146108f757806373dea5e31461091557806374459b1414610933578063747fa5561461095157806376ae8fca1461096f576104f7565b80635d9c76c0116103985780635d9c76c01461082557806360c3de801461084357806361c111d21461086157806365a83bab1461087f57806365e7ef4c1461089d5780636b3f7cc7146108bb576104f7565b80634e3aed371461078f5780634ef999ff146107ad5780634f77647b146107cb57806351267450146107e957806352ba9dbe14610807576104f7565b80632eed17e81161046d57806347ba93d81161043157806347ba93d8146106db57806347cf1523146106f9578063480702ae14610717578063485c8ff6146107355780634d86f393146107535780634e01e3c114610771576104f7565b80632eed17e814610645578063335763de14610663578063366eb54d14610681578063379307821461069f578063471df685146106bd576104f7565b80631abbb001116104bf5780631abbb0011461059157806322a73446146105af57806326bbd053146105cd57806326e7b312146105eb5780632926c971146106095780632c8e3b4c14610627576104f7565b8063084dfa0d146104fb57806311d7b0061461051957806312dcade81461053757806314dcfbbc14610555578063198d6a6b14610573575b5f5ffd5b610503610f87565b6040516105109190612401565b60405180910390f35b610521610fc0565b60405161052e9190612401565b60405180910390f35b61053f610ff9565b60405161054c9190612401565b60405180910390f35b61055d611032565b60405161056a9190612401565b60405180910390f35b61057b61106b565b6040516105889190612401565b60405180910390f35b6105996110a4565b6040516105a69190612401565b60405180910390f35b6105b76110dd565b6040516105c49190612401565b60405180910390f35b6105d5611116565b6040516105e29190612401565b60405180910390f35b6105f361114f565b6040516106009190612401565b60405180910390f35b610611611188565b60405161061e9190612401565b60405180910390f35b61062f6111c1565b60405161063c9190612401565b60405180910390f35b61064d6111fa565b60405161065a9190612401565b60405180910390f35b61066b611233565b6040516106789190612401565b60405180910390f35b61068961126c565b6040516106969190612401565b60405180910390f35b6106a76112a5565b6040516106b49190612401565b60405180910390f35b6106c56112de565b6040516106d29190612401565b60405180910390f35b6106e3611317565b6040516106f09190612401565b60405180910390f35b610701611350565b60405161070e9190612401565b60405180910390f35b61071f611389565b60405161072c9190612401565b60405180910390f35b61073d6113c2565b60405161074a9190612401565b60405180910390f35b61075b6113fb565b6040516107689190612401565b60405180910390f35b610779611434565b6040516107869190612401565b60405180910390f35b61079761146d565b6040516107a49190612401565b60405180910390f35b6107b56114a6565b6040516107c29190612401565b60405180910390f35b6107d36114df565b6040516107e09190612401565b60405180910390f35b6107f1611518565b6040516107fe9190612401565b60405180910390f35b61080f611551565b60405161081c9190612401565b60405180910390f35b61082d61158a565b60405161083a9190612401565b60405180910390f35b61084b6115c3565b6040516108589190612401565b60405180910390f35b6108696115fc565b6040516108769190612401565b60405180910390f35b610887611635565b6040516108949190612401565b60405180910390f35b6108a561166e565b6040516108b29190612401565b60405180910390f35b6108c36116a7565b6040516108d09190612401565b60405180910390f35b6108e16116e0565b6040516108ee9190612401565b60405180910390f35b6108ff611719565b60405161090c9190612401565b60405180910390f35b61091d611752565b60405161092a9190612401565b60405180910390f35b61093b61178b565b6040516109489190612401565b60405180910390f35b6109596117c4565b6040516109669190612401565b60405180910390f35b6109776117fd565b6040516109849190612401565b60405180910390f35b610995611836565b6040516109a29190612401565b60405180910390f35b6109b361186f565b6040516109c09190612401565b60405180910390f35b6109d16118a8565b6040516109de9190612401565b60405180910390f35b6109ef6118e1565b6040516109fc9190612401565b60405180910390f35b610a0d61191a565b604051610a1a9190612401565b60405180910390f35b610a2b611953565b604051610a389190612401565b60405180910390f35b610a4961198c565b604051610a569190612401565b60405180910390f35b610a676119c5565b604051610a749190612401565b60405180910390f35b610a856119fe565b604051610a929190612401565b60405180910390f35b610aa3611a37565b604051610ab09190612401565b60405180910390f35b610ac1611a70565b604051610ace9190612401565b60405180910390f35b610adf611aa9565b604051610aec9190612401565b60405180910390f35b610afd611ae2565b604051610b0a9190612401565b60405180910390f35b610b1b611b1b565b604051610b289190612401565b60405180910390f35b610b39611b54565b604051610b469190612401565b60405180910390f35b610b57611b8d565b604051610b649190612401565b60405180910390f35b610b75611bc6565b604051610b829190612401565b60405180910390f35b610b93611bff565b604051610ba09190612401565b60405180910390f35b610bb1611c38565b604051610bbe9190612401565b60405180910390f35b610bcf611c71565b604051610bdc9190612401565b60405180910390f35b610bed611caa565b604051610bfa9190612401565b60405180910390f35b610c0b611ce3565b604051610c189190612401565b60405180910390f35b610c29611d1c565b604051610c369190612401565b60405180910390f35b610c47611d55565b604051610c549190612401565b60405180910390f35b610c65611d8e565b604051610c729190612401565b60405180910390f35b610c83611dc7565b604051610c909190612401565b60405180910390f35b610ca1611e00565b604051610cae9190612401565b60405180910390f35b610cbf611e39565b604051610ccc9190612401565b60405180910390f35b610cdd611e72565b604051610cea9190612401565b60405180910390f35b610cfb611eab565b604051610d089190612401565b60405180910390f35b610d19611ee4565b604051610d269190612401565b60405180910390f35b610d37611f1d565b604051610d449190612401565b60405180910390f35b610d55611f56565b604051610d629190612401565b60405180910390f35b610d73611f8f565b604051610d809190612401565b60405180910390f35b610d91611fc8565b604051610d9e9190612401565b60405180910390f35b610daf612001565b604051610dbc9190612401565b60405180910390f35b610dcd61203a565b604051610dda9190612401565b60405180910390f35b610deb612073565b604051610df89190612401565b60405180910390f35b610e096120ac565b604051610e169190612401565b60405180910390f35b610e276120e5565b604051610e349190612401565b60405180910390f35b610e4561211e565b604051610e529190612401565b60405180910390f35b610e63612157565b604051610e709190612401565b60405180910390f35b610e81612190565b604051610e8e9190612401565b60405180910390f35b610e9f6121c9565b604051610eac9190612401565b60405180910390f35b610ebd612202565b604051610eca9190612401565b60405180910390f35b610edb61223b565b604051610ee89190612401565b60405180910390f35b610ef9612274565b604051610f069190612401565b60405180910390f35b610f176122ad565b604051610f249190612401565b60405180910390f35b610f356122e6565b604051610f429190612401565b60405180910390f35b610f5361231f565b604051610f609190612401565b60405180910390f35b610f71612358565b604051610f7e9190612401565b60405180910390f35b6040518060400160405280600281526020017f313800000000000000000000000000000000000000000000000000000000000081525081565b6040518060400160405280600181526020017f390000000000000000000000000000000000000000000000000000000000000081525081565b6040518060400160405280600281526020017f313400000000000000000000000000000000000000000000000000000000000081525081565b6040518060400160405280600281526020017f383600000000000000000000000000000000000000000000000000000000000081525081565b6040518060400160405280600281526020017f383800000000000000000000000000000000000000000000000000000000000081525081565b6040518060400160405280600281526020017f383700000000000000000000000000000000000000000000000000000000000081525081565b6040518060400160405280600281526020017f343700000000000000000000000000000000000000000000000000000000000081525081565b6040518060400160405280600281526020017f363900000000000000000000000000000000000000000000000000000000000081525081565b6040518060400160405280600181526020017f330000000000000000000000000000000000000000000000000000000000000081525081565b6040518060400160405280600281526020017f343400000000000000000000000000000000000000000000000000000000000081525081565b6040518060400160405280600181526020017f350000000000000000000000000000000000000000000000000000000000000081525081565b6040518060400160405280600281526020017f353000000000000000000000000000000000000000000000000000000000000081525081565b6040518060400160405280600281526020017f323000000000000000000000000000000000000000000000000000000000000081525081565b6040518060400160405280600281526020017f333500000000000000000000000000000000000000000000000000000000000081525081565b6040518060400160405280600281526020017f313200000000000000000000000000000000000000000000000000000000000081525081565b6040518060400160405280600281526020017f323300000000000000000000000000000000000000000000000000000000000081525081565b6040518060400160405280600281526020017f373200000000000000000000000000000000000000000000000000000000000081525081565b6040518060400160405280600281526020017f323100000000000000000000000000000000000000000000000000000000000081525081565b6040518060400160405280600281526020017f363200000000000000000000000000000000000000000000000000000000000081525081565b6040518060400160405280600181526020017f320000000000000000000000000000000000000000000000000000000000000081525081565b6040518060400160405280600281526020017f333100000000000000000000000000000000000000000000000000000000000081525081565b6040518060400160405280600281526020017f333400000000000000000000000000000000000000000000000000000000000081525081565b6040518060400160405280600281526020017f383300000000000000000000000000000000000000000000000000000000000081525081565b6040518060400160405280600281526020017f333000000000000000000000000000000000000000000000000000000000000081525081565b6040518060400160405280600181526020017f360000000000000000000000000000000000000000000000000000000000000081525081565b6040518060400160405280600281526020017f323500000000000000000000000000000000000000000000000000000000000081525081565b6040518060400160405280600281526020017f323700000000000000000000000000000000000000000000000000000000000081525081565b6040518060400160405280600281526020017f313700000000000000000000000000000000000000000000000000000000000081525081565b6040518060400160405280600181526020017f380000000000000000000000000000000000000000000000000000000000000081525081565b6040518060400160405280600281526020017f313000000000000000000000000000000000000000000000000000000000000081525081565b6040518060400160405280600281526020017f353300000000000000000000000000000000000000000000000000000000000081525081565b6040518060400160405280600281526020017f353500000000000000000000000000000000000000000000000000000000000081525081565b6040518060400160405280600281526020017f353200000000000000000000000000000000000000000000000000000000000081525081565b6040518060400160405280600281526020017f323800000000000000000000000000000000000000000000000000000000000081525081565b6040518060400160405280600281526020017f343000000000000000000000000000000000000000000000000000000000000081525081565b6040518060400160405280600281526020017f343900000000000000000000000000000000000000000000000000000000000081525081565b6040518060400160405280600281526020017f343100000000000000000000000000000000000000000000000000000000000081525081565b6040518060400160405280600281526020017f313900000000000000000000000000000000000000000000000000000000000081525081565b6040518060400160405280600281526020017f313500000000000000000000000000000000000000000000000000000000000081525081565b6040518060400160405280600281526020017f323200000000000000000000000000000000000000000000000000000000000081525081565b6040518060400160405280600281526020017f313300000000000000000000000000000000000000000000000000000000000081525081565b6040518060400160405280600281526020017f363000000000000000000000000000000000000000000000000000000000000081525081565b6040518060400160405280600281526020017f343600000000000000000000000000000000000000000000000000000000000081525081565b6040518060400160405280600281526020017f333300000000000000000000000000000000000000000000000000000000000081525081565b6040518060400160405280600281526020017f333700000000000000000000000000000000000000000000000000000000000081525081565b6040518060400160405280600281526020017f393100000000000000000000000000000000000000000000000000000000000081525081565b6040518060400160405280600281526020017f383000000000000000000000000000000000000000000000000000000000000081525081565b6040518060400160405280600281526020017f373000000000000000000000000000000000000000000000000000000000000081525081565b6040518060400160405280600281526020017f353800000000000000000000000000000000000000000000000000000000000081525081565b6040518060400160405280600281526020017f353400000000000000000000000000000000000000000000000000000000000081525081565b6040518060400160405280600281526020017f343500000000000000000000000000000000000000000000000000000000000081525081565b6040518060400160405280600281526020017f363500000000000000000000000000000000000000000000000000000000000081525081565b6040518060400160405280600281526020017f363300000000000000000000000000000000000000000000000000000000000081525081565b6040518060400160405280600281526020017f343300000000000000000000000000000000000000000000000000000000000081525081565b6040518060400160405280600281526020017f313100000000000000000000000000000000000000000000000000000000000081525081565b6040518060400160405280600281526020017f373900000000000000000000000000000000000000000000000000000000000081525081565b6040518060400160405280600281526020017f363700000000000000000000000000000000000000000000000000000000000081525081565b6040518060400160405280600281526020017f373100000000000000000000000000000000000000000000000000000000000081525081565b6040518060400160405280600281526020017f383500000000000000000000000000000000000000000000000000000000000081525081565b6040518060400160405280600281526020017f323400000000000000000000000000000000000000000000000000000000000081525081565b6040518060400160405280600181526020017f310000000000000000000000000000000000000000000000000000000000000081525081565b6040518060400160405280600281526020017f353100000000000000000000000000000000000000000000000000000000000081525081565b6040518060400160405280600281526020017f343200000000000000000000000000000000000000000000000000000000000081525081565b6040518060400160405280600181526020017f340000000000000000000000000000000000000000000000000000000000000081525081565b6040518060400160405280600281526020017f323900000000000000000000000000000000000000000000000000000000000081525081565b6040518060400160405280600281526020017f333200000000000000000000000000000000000000000000000000000000000081525081565b6040518060400160405280600281526020017f353700000000000000000000000000000000000000000000000000000000000081525081565b6040518060400160405280600281526020017f373600000000000000000000000000000000000000000000000000000000000081525081565b6040518060400160405280600281526020017f373800000000000000000000000000000000000000000000000000000000000081525081565b6040518060400160405280600281526020017f353900000000000000000000000000000000000000000000000000000000000081525081565b6040518060400160405280600281526020017f383400000000000000000000000000000000000000000000000000000000000081525081565b6040518060400160405280600281526020017f383200000000000000000000000000000000000000000000000000000000000081525081565b6040518060400160405280600281526020017f373700000000000000000000000000000000000000000000000000000000000081525081565b6040518060400160405280600281526020017f373400000000000000000000000000000000000000000000000000000000000081525081565b6040518060400160405280600281526020017f363800000000000000000000000000000000000000000000000000000000000081525081565b6040518060400160405280600281526020017f363100000000000000000000000000000000000000000000000000000000000081525081565b6040518060400160405280600281526020017f333900000000000000000000000000000000000000000000000000000000000081525081565b6040518060400160405280600281526020017f373300000000000000000000000000000000000000000000000000000000000081525081565b6040518060400160405280600281526020017f363400000000000000000000000000000000000000000000000000000000000081525081565b6040518060400160405280600281526020017f383900000000000000000000000000000000000000000000000000000000000081525081565b6040518060400160405280600181526020017f370000000000000000000000000000000000000000000000000000000000000081525081565b6040518060400160405280600281526020017f333600000000000000000000000000000000000000000000000000000000000081525081565b6040518060400160405280600281526020017f383100000000000000000000000000000000000000000000000000000000000081525081565b6040518060400160405280600281526020017f393000000000000000000000000000000000000000000000000000000000000081525081565b6040518060400160405280600281526020017f333800000000000000000000000000000000000000000000000000000000000081525081565b6040518060400160405280600281526020017f353600000000000000000000000000000000000000000000000000000000000081525081565b6040518060400160405280600281526020017f313600000000000000000000000000000000000000000000000000000000000081525081565b6040518060400160405280600281526020017f363600000000000000000000000000000000000000000000000000000000000081525081565b6040518060400160405280600281526020017f323600000000000000000000000000000000000000000000000000000000000081525081565b6040518060400160405280600281526020017f373500000000000000000000000000000000000000000000000000000000000081525081565b5f81519050919050565b5f82825260208201905092915050565b8281835e5f83830152505050565b5f601f19601f8301169050919050565b5f6123d382612391565b6123dd818561239b565b93506123ed8185602086016123ab565b6123f6816123b9565b840191505092915050565b5f6020820190508181035f83015261241981846123c9565b90509291505056fea2646970667358221220899f27cf44118aa4d7b0eeb94ef493eebdde368f0a5442d0446d41469b91d33964736f6c634300081c0033","linkReferences":{}},"methodIdentifiers":{"ACL_ADMIN_CANNOT_BE_ZERO()":"fd1828ff","ADDRESSES_PROVIDER_ALREADY_ADDED()":"14dcfbbc","ADDRESSES_PROVIDER_NOT_REGISTERED()":"e02f07ee","AMOUNT_BIGGER_THAN_MAX_LOAN_SIZE_STABLE()":"f07f6785","ASSET_NOT_BORROWABLE_IN_ISOLATION()":"8596aad5","ASSET_NOT_LISTED()":"cd23367c","BORROWING_NOT_ENABLED()":"4ef999ff","BORROW_CAP_EXCEEDED()":"2eed17e8","BRIDGE_PROTOCOL_FEE_INVALID()":"7aa0767e","CALLER_MUST_BE_POOL()":"471df685","CALLER_NOT_ASSET_LISTING_OR_POOL_ADMIN()":"2c8e3b4c","CALLER_NOT_ATOKEN()":"a2e976c6","CALLER_NOT_BRIDGE()":"4f77647b","CALLER_NOT_EMERGENCY_ADMIN()":"485c8ff6","CALLER_NOT_POOL_ADMIN()":"ac753236","CALLER_NOT_POOL_CONFIGURATOR()":"61c111d2","CALLER_NOT_POOL_OR_EMERGENCY_ADMIN()":"26e7b312","CALLER_NOT_RISK_OR_POOL_ADMIN()":"b5e79366","COLLATERAL_BALANCE_IS_ZERO()":"4e01e3c1","COLLATERAL_CANNOT_BE_LIQUIDATED()":"895f7dc8","COLLATERAL_CANNOT_COVER_NEW_BORROW()":"e3fa20f5","COLLATERAL_SAME_AS_BORROWING_CURRENCY()":"8a344000","DEBT_CEILING_EXCEEDED()":"65a83bab","DEBT_CEILING_NOT_ZERO()":"e4dd8b74","EMODE_CATEGORY_RESERVED()":"f479ea11","FLASHLOAN_DISABLED()":"8aa3ca4c","FLASHLOAN_PREMIUM_INVALID()":"747fa556","HEALTH_FACTOR_LOWER_THAN_LIQUIDATION_THRESHOLD()":"366eb54d","HEALTH_FACTOR_NOT_BELOW_THRESHOLD()":"952633c5","INCONSISTENT_EMODE_CATEGORY()":"8f7722b2","INCONSISTENT_FLASHLOAN_PARAMS()":"73dea5e3","INCONSISTENT_PARAMS_LENGTH()":"bad8308c","INTEREST_RATE_REBALANCE_CONDITIONS_NOT_MET()":"2926c971","INVALID_ADDRESSES_PROVIDER()":"37930782","INVALID_ADDRESSES_PROVIDER_ID()":"60c3de80","INVALID_AMOUNT()":"fae82791","INVALID_BORROW_CAP()":"d6f9fcde","INVALID_BURN_AMOUNT()":"51267450","INVALID_DEBT_CEILING()":"dcc56db6","INVALID_DECIMALS()":"fa163a83","INVALID_EMODE_CATEGORY()":"a8c97853","INVALID_EMODE_CATEGORY_ASSIGNMENT()":"5d9c76c0","INVALID_EMODE_CATEGORY_PARAMS()":"47cf1523","INVALID_EXPIRATION()":"c08a1146","INVALID_FLASHLOAN_EXECUTOR_RETURN()":"7fea6f36","INVALID_INTEREST_RATE_MODE_SELECTED()":"89c5d45f","INVALID_LIQUIDATION_PROTOCOL_FEE()":"8eda46bd","INVALID_LIQ_BONUS()":"9527e9d9","INVALID_LIQ_THRESHOLD()":"dd1dd95f","INVALID_LTV()":"99ce53f3","INVALID_MINT_AMOUNT()":"abd351b1","INVALID_OPTIMAL_STABLE_TO_TOTAL_DEBT_RATIO()":"c899301a","INVALID_OPTIMAL_USAGE_RATIO()":"4e3aed37","INVALID_RESERVE_FACTOR()":"a4868dca","INVALID_RESERVE_INDEX()":"d1cd8b1d","INVALID_RESERVE_PARAMS()":"335763de","INVALID_SIGNATURE()":"a3402a38","INVALID_SUPPLY_CAP()":"26bbd053","INVALID_UNBACKED_MINT_CAP()":"47ba93d8","LTV_VALIDATION_FAILED()":"b87041c2","NOT_CONTRACT()":"11d7b006","NOT_ENOUGH_AVAILABLE_USER_BALANCE()":"b7f5e224","NO_DEBT_OF_SELECTED_TYPE()":"dc191bd9","NO_EXPLICIT_AMOUNT_TO_REPAY_ON_BEHALF()":"712f536a","NO_MORE_RESERVES_ALLOWED()":"76ae8fca","NO_OUTSTANDING_STABLE_DEBT()":"74459b14","NO_OUTSTANDING_VARIABLE_DEBT()":"b4a45730","OPERATION_NOT_SUPPORTED()":"8b8b98d7","POOL_ADDRESSES_DO_NOT_MATCH()":"1abbb001","PRICE_ORACLE_SENTINEL_CHECK_FAILED()":"c8638082","RESERVE_ALREADY_ADDED()":"12dcade8","RESERVE_ALREADY_INITIALIZED()":"d9adda85","RESERVE_DEBT_NOT_ZERO()":"e981483a","RESERVE_FROZEN()":"6cd3cfbc","RESERVE_INACTIVE()":"52ba9dbe","RESERVE_LIQUIDITY_NOT_ZERO()":"084dfa0d","RESERVE_PAUSED()":"b68774e9","SILOED_BORROWING_VIOLATION()":"de24948c","SPECIFIED_CURRENCY_NOT_BORROWED_BY_USER()":"22a73446","STABLE_BORROWING_ENABLED()":"198d6a6b","STABLE_BORROWING_NOT_ENABLED()":"4d86f393","STABLE_DEBT_NOT_ZERO()":"65e7ef4c","SUPPLY_CAP_EXCEEDED()":"b0510054","UNBACKED_MINT_CAP_EXCEEDED()":"6b3f7cc7","UNDERLYING_BALANCE_ZERO()":"a2797c80","UNDERLYING_CANNOT_BE_RESCUED()":"ab883ca0","UNDERLYING_CLAIMABLE_RIGHTS_NOT_ZERO()":"94f9fd8a","USER_IN_ISOLATION_MODE_OR_LTV_ZERO()":"480702ae","VARIABLE_DEBT_SUPPLY_NOT_ZERO()":"f10727db","ZERO_ADDRESS_NOT_VALID()":"d14bb17a"},"id":92}