{"abi":[{"type":"constructor","inputs":[{"name":"provider","type":"address","internalType":"contract IPoolAddressesProvider"},{"name":"optimalUsageRatio","type":"uint256","internalType":"uint256"},{"name":"baseVariableBorrowRate","type":"uint256","internalType":"uint256"},{"name":"variableRateSlope1","type":"uint256","internalType":"uint256"},{"name":"variableRateSlope2","type":"uint256","internalType":"uint256"},{"name":"stableRateSlope1","type":"uint256","internalType":"uint256"},{"name":"stableRateSlope2","type":"uint256","internalType":"uint256"},{"name":"baseStableRateOffset","type":"uint256","internalType":"uint256"},{"name":"stableRateExcessOffset","type":"uint256","internalType":"uint256"},{"name":"optimalStableToTotalDebtRatio","type":"uint256","internalType":"uint256"}],"stateMutability":"nonpayable"},{"type":"function","name":"ADDRESSES_PROVIDER","inputs":[],"outputs":[{"name":"","type":"address","internalType":"contract IPoolAddressesProvider"}],"stateMutability":"view"},{"type":"function","name":"MAX_EXCESS_STABLE_TO_TOTAL_DEBT_RATIO","inputs":[],"outputs":[{"name":"","type":"uint256","internalType":"uint256"}],"stateMutability":"view"},{"type":"function","name":"MAX_EXCESS_USAGE_RATIO","inputs":[],"outputs":[{"name":"","type":"uint256","internalType":"uint256"}],"stateMutability":"view"},{"type":"function","name":"OPTIMAL_STABLE_TO_TOTAL_DEBT_RATIO","inputs":[],"outputs":[{"name":"","type":"uint256","internalType":"uint256"}],"stateMutability":"view"},{"type":"function","name":"OPTIMAL_USAGE_RATIO","inputs":[],"outputs":[{"name":"","type":"uint256","internalType":"uint256"}],"stateMutability":"view"},{"type":"function","name":"calculateInterestRates","inputs":[{"name":"params","type":"tuple","internalType":"struct DataTypes.CalculateInterestRatesParams","components":[{"name":"unbacked","type":"uint256","internalType":"uint256"},{"name":"liquidityAdded","type":"uint256","internalType":"uint256"},{"name":"liquidityTaken","type":"uint256","internalType":"uint256"},{"name":"totalStableDebt","type":"uint256","internalType":"uint256"},{"name":"totalVariableDebt","type":"uint256","internalType":"uint256"},{"name":"averageStableBorrowRate","type":"uint256","internalType":"uint256"},{"name":"reserveFactor","type":"uint256","internalType":"uint256"},{"name":"reserve","type":"address","internalType":"address"},{"name":"aToken","type":"address","internalType":"address"}]}],"outputs":[{"name":"","type":"uint256","internalType":"uint256"},{"name":"","type":"uint256","internalType":"uint256"},{"name":"","type":"uint256","internalType":"uint256"}],"stateMutability":"view"},{"type":"function","name":"getBaseStableBorrowRate","inputs":[],"outputs":[{"name":"","type":"uint256","internalType":"uint256"}],"stateMutability":"view"},{"type":"function","name":"getBaseVariableBorrowRate","inputs":[],"outputs":[{"name":"","type":"uint256","internalType":"uint256"}],"stateMutability":"view"},{"type":"function","name":"getMaxVariableBorrowRate","inputs":[],"outputs":[{"name":"","type":"uint256","internalType":"uint256"}],"stateMutability":"view"},{"type":"function","name":"getStableRateExcessOffset","inputs":[],"outputs":[{"name":"","type":"uint256","internalType":"uint256"}],"stateMutability":"view"},{"type":"function","name":"getStableRateSlope1","inputs":[],"outputs":[{"name":"","type":"uint256","internalType":"uint256"}],"stateMutability":"view"},{"type":"function","name":"getStableRateSlope2","inputs":[],"outputs":[{"name":"","type":"uint256","internalType":"uint256"}],"stateMutability":"view"},{"type":"function","name":"getVariableRateSlope1","inputs":[],"outputs":[{"name":"","type":"uint256","internalType":"uint256"}],"stateMutability":"view"},{"type":"function","name":"getVariableRateSlope2","inputs":[],"outputs":[{"name":"","type":"uint256","internalType":"uint256"}],"stateMutability":"view"}],"bytecode":{"object":"0x610200604052348015610010575f5ffd5b50604051611614380380611614833981810160405281019061003291906102b5565b886b033b2e3c9fd0803ce800000010156040518060400160405280600281526020017f3833000000000000000000000000000000000000000000000000000000000000815250906100b9576040517f08c379a00000000000000000000000000000000000000000000000000000000081526004016100b091906103fe565b60405180910390fd5b50806b033b2e3c9fd0803ce800000010156040518060400160405280600281526020017f383400000000000000000000000000000000000000000000000000000000000081525090610141576040517f08c379a000000000000000000000000000000000000000000000000000000000815260040161013891906103fe565b60405180910390fd5b508860808181525050886b033b2e3c9fd0803ce8000000610162919061044b565b60c081815250508060a08181525050806b033b2e3c9fd0803ce8000000610189919061044b565b60e081815250508973ffffffffffffffffffffffffffffffffffffffff166101008173ffffffffffffffffffffffffffffffffffffffff1681525050876101208181525050866101408181525050856101608181525050846101808181525050836101a08181525050826101c08181525050816101e081815250505050505050505050505061047e565b5f5ffd5b5f73ffffffffffffffffffffffffffffffffffffffff82169050919050565b5f61024082610217565b9050919050565b5f61025182610236565b9050919050565b61026181610247565b811461026b575f5ffd5b50565b5f8151905061027c81610258565b92915050565b5f819050919050565b61029481610282565b811461029e575f5ffd5b50565b5f815190506102af8161028b565b92915050565b5f5f5f5f5f5f5f5f5f5f6101408b8d0312156102d4576102d3610213565b5b5f6102e18d828e0161026e565b9a505060206102f28d828e016102a1565b99505060406103038d828e016102a1565b98505060606103148d828e016102a1565b97505060806103258d828e016102a1565b96505060a06103368d828e016102a1565b95505060c06103478d828e016102a1565b94505060e06103588d828e016102a1565b93505061010061036a8d828e016102a1565b92505061012061037c8d828e016102a1565b9150509295989b9194979a5092959850565b5f81519050919050565b5f82825260208201905092915050565b8281835e5f83830152505050565b5f601f19601f8301169050919050565b5f6103d08261038e565b6103da8185610398565b93506103ea8185602086016103a8565b6103f3816103b6565b840191505092915050565b5f6020820190508181035f83015261041681846103c6565b905092915050565b7f4e487b71000000000000000000000000000000000000000000000000000000005f52601160045260245ffd5b5f61045582610282565b915061046083610282565b92508282039050818111156104785761047761041e565b5b92915050565b60805160a05160c05160e05161010051610120516101405161016051610180516101a0516101c0516101e05161108761058d5f395f81816108d80152610a1301525f6109c101525f81816102f2015261065201525f81816106810152818161076c0152610a3a01525f8181610388015281816106c80152610a6101525f81816102cb015281816103a9015281816106f7015281816107ed01526109e201525f8181610319015281816103ca015261043601525f6102a601525f81816108730152610a8701525f81816105ed015261099c01525f818161036301528181610843015261089401525f818161033f015281816105bd0152818161060e0152818161074301526107c401526110875ff3fe608060405234801561000f575f5ffd5b50600436106100e8575f3560e01c8063a58987091161008a578063bc62690811610064578063bc6269081461022c578063d5cd73911461024a578063f420240914610268578063fe5fd69814610286576100e8565b8063a5898709146101be578063a9c622f8146101f0578063acd786861461020e576100e8565b806334762ca5116100c657806334762ca51461014657806354c365c6146101645780636fb925891461018257806380031e37146101a0576100e8565b80630542975c146100ec5780630b3429a21461010a57806314e32da414610128575b5f5ffd5b6100f46102a4565b6040516101019190610cd1565b60405180910390f35b6101126102c8565b60405161011f9190610d02565b60405180910390f35b6101306102ef565b60405161013d9190610d02565b60405180910390f35b61014e610316565b60405161015b9190610d02565b60405180910390f35b61016c61033d565b6040516101799190610d02565b60405180910390f35b61018a610361565b6040516101979190610d02565b60405180910390f35b6101a8610385565b6040516101b59190610d02565b60405180910390f35b6101d860048036038101906101d39190610ef6565b610402565b6040516101e793929190610f22565b60405180910390f35b6101f861099a565b6040516102059190610d02565b60405180910390f35b6102166109be565b6040516102239190610d02565b60405180910390f35b610234610a10565b6040516102419190610d02565b60405180910390f35b610252610a37565b60405161025f9190610d02565b60405180910390f35b610270610a5e565b60405161027d9190610d02565b60405180910390f35b61028e610a85565b60405161029b9190610d02565b60405180910390f35b7f000000000000000000000000000000000000000000000000000000000000000081565b5f7f0000000000000000000000000000000000000000000000000000000000000000905090565b5f7f0000000000000000000000000000000000000000000000000000000000000000905090565b5f7f0000000000000000000000000000000000000000000000000000000000000000905090565b7f000000000000000000000000000000000000000000000000000000000000000081565b7f000000000000000000000000000000000000000000000000000000000000000081565b5f7f00000000000000000000000000000000000000000000000000000000000000007f00000000000000000000000000000000000000000000000000000000000000007f00000000000000000000000000000000000000000000000000000000000000006103f39190610f84565b6103fd9190610f84565b905090565b5f5f5f61040d610c14565b846080015185606001516104219190610f84565b8160200181815250505f8160800181815250507f00000000000000000000000000000000000000000000000000000000000000008160400181815250506104666109be565b8160600181815250505f8160200151146105bb5761049581602001518660600151610aa990919063ffffffff16565b8160e0018181525050846040015185602001518660e0015173ffffffffffffffffffffffffffffffffffffffff166370a082318861010001516040518263ffffffff1660e01b81526004016104ea9190610fc6565b602060405180830381865afa158015610505573d5f5f3e3d5ffd5b505050506040513d601f19601f820116820180604052508101906105299190610ff3565b6105339190610f84565b61053d919061101e565b815f0181815250508060200151815f01516105589190610f84565b8161010001818152505061057e8161010001518260200151610aa990919063ffffffff16565b8160a00181815250506105b1855f015182610100015161059e9190610f84565b8260200151610aa990919063ffffffff16565b8160c00181815250505b7f00000000000000000000000000000000000000000000000000000000000000008160a00151111561073e575f61064a7f00000000000000000000000000000000000000000000000000000000000000007f00000000000000000000000000000000000000000000000000000000000000008460a0015161063c919061101e565b610aa990919063ffffffff16565b905061067f817f0000000000000000000000000000000000000000000000000000000000000000610aed90919063ffffffff16565b7f00000000000000000000000000000000000000000000000000000000000000006106aa9190610f84565b826060018181516106bb9190610f84565b915081815250506106f5817f0000000000000000000000000000000000000000000000000000000000000000610aed90919063ffffffff16565b7f00000000000000000000000000000000000000000000000000000000000000006107209190610f84565b826040018181516107319190610f84565b9150818152505050610841565b6107a77f00000000000000000000000000000000000000000000000000000000000000006107998360a001517f0000000000000000000000000000000000000000000000000000000000000000610aed90919063ffffffff16565b610aa990919063ffffffff16565b816060018181516107b89190610f84565b915081815250506108287f000000000000000000000000000000000000000000000000000000000000000061081a8360a001517f0000000000000000000000000000000000000000000000000000000000000000610aed90919063ffffffff16565b610aa990919063ffffffff16565b816040018181516108399190610f84565b915081815250505b7f00000000000000000000000000000000000000000000000000000000000000008160e00151111561091f575f6108d07f00000000000000000000000000000000000000000000000000000000000000007f00000000000000000000000000000000000000000000000000000000000000008460e001516108c2919061101e565b610aa990919063ffffffff16565b9050610905817f0000000000000000000000000000000000000000000000000000000000000000610aed90919063ffffffff16565b826060018181516109169190610f84565b91508181525050505b6109748560c00151612710610934919061101e565b6109668360c0015161095889606001518a6080015187604001518c60a00151610b35565b610aed90919063ffffffff16565b610bca90919063ffffffff16565b816080018181525050806080015181606001518260400151935093509350509193909250565b7f000000000000000000000000000000000000000000000000000000000000000081565b5f7f00000000000000000000000000000000000000000000000000000000000000007f0000000000000000000000000000000000000000000000000000000000000000610a0b9190610f84565b905090565b5f7f0000000000000000000000000000000000000000000000000000000000000000905090565b5f7f0000000000000000000000000000000000000000000000000000000000000000905090565b5f7f0000000000000000000000000000000000000000000000000000000000000000905090565b7f000000000000000000000000000000000000000000000000000000000000000081565b5f6b033b2e3c9fd0803ce8000000600283045f1903048311151582151715610acf575f5ffd5b81600283046b033b2e3c9fd0803ce800000085020104905092915050565b5f816b019d971e4fe8401e740000005f190304831115821517610b0e575f5ffd5b6b033b2e3c9fd0803ce80000006b019d971e4fe8401e740000008385020104905092915050565b5f5f8486610b439190610f84565b90505f8103610b55575f915050610bc2565b5f610b7185610b6388610bf4565b610aed90919063ffffffff16565b90505f610b8f85610b818a610bf4565b610aed90919063ffffffff16565b90505f610bb8610b9e85610bf4565b8385610baa9190610f84565b610aa990919063ffffffff16565b9050809450505050505b949350505050565b5f816113885f190304831115821517610be1575f5ffd5b6127106113888385020104905092915050565b5f633b9aca008202905081633b9aca00820414610c0f575f5ffd5b919050565b6040518061012001604052805f81526020015f81526020015f81526020015f81526020015f81526020015f81526020015f81526020015f81526020015f81525090565b5f73ffffffffffffffffffffffffffffffffffffffff82169050919050565b5f819050919050565b5f610c99610c94610c8f84610c57565b610c76565b610c57565b9050919050565b5f610caa82610c7f565b9050919050565b5f610cbb82610ca0565b9050919050565b610ccb81610cb1565b82525050565b5f602082019050610ce45f830184610cc2565b92915050565b5f819050919050565b610cfc81610cea565b82525050565b5f602082019050610d155f830184610cf3565b92915050565b5f604051905090565b5f5ffd5b5f5ffd5b5f601f19601f8301169050919050565b7f4e487b71000000000000000000000000000000000000000000000000000000005f52604160045260245ffd5b610d7282610d2c565b810181811067ffffffffffffffff82111715610d9157610d90610d3c565b5b80604052505050565b5f610da3610d1b565b9050610daf8282610d69565b919050565b610dbd81610cea565b8114610dc7575f5ffd5b50565b5f81359050610dd881610db4565b92915050565b5f610de882610c57565b9050919050565b610df881610dde565b8114610e02575f5ffd5b50565b5f81359050610e1381610def565b92915050565b5f6101208284031215610e2f57610e2e610d28565b5b610e3a610120610d9a565b90505f610e4984828501610dca565b5f830152506020610e5c84828501610dca565b6020830152506040610e7084828501610dca565b6040830152506060610e8484828501610dca565b6060830152506080610e9884828501610dca565b60808301525060a0610eac84828501610dca565b60a08301525060c0610ec084828501610dca565b60c08301525060e0610ed484828501610e05565b60e083015250610100610ee984828501610e05565b6101008301525092915050565b5f6101208284031215610f0c57610f0b610d24565b5b5f610f1984828501610e19565b91505092915050565b5f606082019050610f355f830186610cf3565b610f426020830185610cf3565b610f4f6040830184610cf3565b949350505050565b7f4e487b71000000000000000000000000000000000000000000000000000000005f52601160045260245ffd5b5f610f8e82610cea565b9150610f9983610cea565b9250828201905080821115610fb157610fb0610f57565b5b92915050565b610fc081610dde565b82525050565b5f602082019050610fd95f830184610fb7565b92915050565b5f81519050610fed81610db4565b92915050565b5f6020828403121561100857611007610d24565b5b5f61101584828501610fdf565b91505092915050565b5f61102882610cea565b915061103383610cea565b925082820390508181111561104b5761104a610f57565b5b9291505056fea26469706673582212203e356488e993bed6f9c02f3467c19665ad9afa8f35b155553747cd94dea51fe064736f6c634300081c0033","linkReferences":{}},"methodIdentifiers":{"ADDRESSES_PROVIDER()":"0542975c","MAX_EXCESS_STABLE_TO_TOTAL_DEBT_RATIO()":"fe5fd698","MAX_EXCESS_USAGE_RATIO()":"a9c622f8","OPTIMAL_STABLE_TO_TOTAL_DEBT_RATIO()":"6fb92589","OPTIMAL_USAGE_RATIO()":"54c365c6","calculateInterestRates((uint256,uint256,uint256,uint256,uint256,uint256,uint256,address,address))":"a5898709","getBaseStableBorrowRate()":"acd78686","getBaseVariableBorrowRate()":"34762ca5","getMaxVariableBorrowRate()":"80031e37","getStableRateExcessOffset()":"bc626908","getStableRateSlope1()":"d5cd7391","getStableRateSlope2()":"14e32da4","getVariableRateSlope1()":"0b3429a2","getVariableRateSlope2()":"f4202409"},"id":96}