{"abi":[{"type":"constructor","inputs":[{"name":"addressesProvider","type":"address","internalType":"contract IPoolAddressesProvider"},{"name":"augustusRegistry","type":"address","internalType":"contract IParaSwapAugustusRegistry"},{"name":"owner","type":"address","internalType":"address"}],"stateMutability":"nonpayable"},{"type":"function","name":"ADDRESSES_PROVIDER","inputs":[],"outputs":[{"name":"","type":"address","internalType":"contract IPoolAddressesProvider"}],"stateMutability":"view"},{"type":"function","name":"AUGUSTUS_REGISTRY","inputs":[],"outputs":[{"name":"","type":"address","internalType":"contract IParaSwapAugustusRegistry"}],"stateMutability":"view"},{"type":"function","name":"MAX_SLIPPAGE_PERCENT","inputs":[],"outputs":[{"name":"","type":"uint256","internalType":"uint256"}],"stateMutability":"view"},{"type":"function","name":"ORACLE","inputs":[],"outputs":[{"name":"","type":"address","internalType":"contract IPriceOracleGetter"}],"stateMutability":"view"},{"type":"function","name":"POOL","inputs":[],"outputs":[{"name":"","type":"address","internalType":"contract IPool"}],"stateMutability":"view"},{"type":"function","name":"executeOperation","inputs":[{"name":"asset","type":"address","internalType":"address"},{"name":"amount","type":"uint256","internalType":"uint256"},{"name":"premium","type":"uint256","internalType":"uint256"},{"name":"initiator","type":"address","internalType":"address"},{"name":"params","type":"bytes","internalType":"bytes"}],"outputs":[{"name":"","type":"bool","internalType":"bool"}],"stateMutability":"nonpayable"},{"type":"function","name":"owner","inputs":[],"outputs":[{"name":"","type":"address","internalType":"address"}],"stateMutability":"view"},{"type":"function","name":"renounceOwnership","inputs":[],"outputs":[],"stateMutability":"nonpayable"},{"type":"function","name":"rescueTokens","inputs":[{"name":"token","type":"address","internalType":"contract IERC20"}],"outputs":[],"stateMutability":"nonpayable"},{"type":"function","name":"swapAndDeposit","inputs":[{"name":"assetToSwapFrom","type":"address","internalType":"contract IERC20Detailed"},{"name":"assetToSwapTo","type":"address","internalType":"contract IERC20Detailed"},{"name":"amountToSwap","type":"uint256","internalType":"uint256"},{"name":"minAmountToReceive","type":"uint256","internalType":"uint256"},{"name":"swapAllBalanceOffset","type":"uint256","internalType":"uint256"},{"name":"swapCalldata","type":"bytes","internalType":"bytes"},{"name":"augustus","type":"address","internalType":"contract IParaSwapAugustus"},{"name":"permitParams","type":"tuple","internalType":"struct BaseParaSwapAdapter.PermitSignature","components":[{"name":"amount","type":"uint256","internalType":"uint256"},{"name":"deadline","type":"uint256","internalType":"uint256"},{"name":"v","type":"uint8","internalType":"uint8"},{"name":"r","type":"bytes32","internalType":"bytes32"},{"name":"s","type":"bytes32","internalType":"bytes32"}]}],"outputs":[],"stateMutability":"nonpayable"},{"type":"function","name":"transferOwnership","inputs":[{"name":"newOwner","type":"address","internalType":"address"}],"outputs":[],"stateMutability":"nonpayable"},{"type":"event","name":"Bought","inputs":[{"name":"fromAsset","type":"address","indexed":true,"internalType":"address"},{"name":"toAsset","type":"address","indexed":true,"internalType":"address"},{"name":"amountSold","type":"uint256","indexed":false,"internalType":"uint256"},{"name":"receivedAmount","type":"uint256","indexed":false,"internalType":"uint256"}],"anonymous":false},{"type":"event","name":"OwnershipTransferred","inputs":[{"name":"previousOwner","type":"address","indexed":true,"internalType":"address"},{"name":"newOwner","type":"address","indexed":true,"internalType":"address"}],"anonymous":false},{"type":"event","name":"Swapped","inputs":[{"name":"fromAsset","type":"address","indexed":true,"internalType":"address"},{"name":"toAsset","type":"address","indexed":true,"internalType":"address"},{"name":"fromAmount","type":"uint256","indexed":false,"internalType":"uint256"},{"name":"receivedAmount","type":"uint256","indexed":false,"internalType":"uint256"}],"anonymous":false}],"bytecode":{"object":"0x610100604052348015610010575f5ffd5b50604051614282380380614282833981810160405281019061003291906105cc565b828281808073ffffffffffffffffffffffffffffffffffffffff1660808173ffffffffffffffffffffffffffffffffffffffff16815250508073ffffffffffffffffffffffffffffffffffffffff1663026b1d5f6040518163ffffffff1660e01b8152600401602060405180830381865afa1580156100b3573d5f5f3e3d5ffd5b505050506040513d601f19601f820116820180604052508101906100d7919061061c565b73ffffffffffffffffffffffffffffffffffffffff1660a08173ffffffffffffffffffffffffffffffffffffffff1681525050505f61011a61032c60201b60201c565b9050805f5f6101000a81548173ffffffffffffffffffffffffffffffffffffffff021916908373ffffffffffffffffffffffffffffffffffffffff1602179055508073ffffffffffffffffffffffffffffffffffffffff165f73ffffffffffffffffffffffffffffffffffffffff167f8be0079c531659141344cd1fd0a4f28419497f9722a3daafe3b4186f6b6457e060405160405180910390a3508073ffffffffffffffffffffffffffffffffffffffff1663fca513a86040518163ffffffff1660e01b8152600401602060405180830381865afa1580156101ff573d5f5f3e3d5ffd5b505050506040513d601f19601f82011682018060405250810190610223919061061c565b73ffffffffffffffffffffffffffffffffffffffff1660c08173ffffffffffffffffffffffffffffffffffffffff1681525050508073ffffffffffffffffffffffffffffffffffffffff1663fb04e17b5f6040518263ffffffff1660e01b81526004016102909190610656565b602060405180830381865afa1580156102ab573d5f5f3e3d5ffd5b505050506040513d601f19601f820116820180604052508101906102cf91906106a4565b156102d8575f5ffd5b8073ffffffffffffffffffffffffffffffffffffffff1660e08173ffffffffffffffffffffffffffffffffffffffff16815250505050600180819055506103248161033360201b60201c565b5050506107d5565b5f33905090565b61034161032c60201b60201c565b73ffffffffffffffffffffffffffffffffffffffff165f5f9054906101000a900473ffffffffffffffffffffffffffffffffffffffff1673ffffffffffffffffffffffffffffffffffffffff16146103ce576040517f08c379a00000000000000000000000000000000000000000000000000000000081526004016103c590610729565b60405180910390fd5b5f73ffffffffffffffffffffffffffffffffffffffff168173ffffffffffffffffffffffffffffffffffffffff160361043c576040517f08c379a0000000000000000000000000000000000000000000000000000000008152600401610433906107b7565b60405180910390fd5b8073ffffffffffffffffffffffffffffffffffffffff165f5f9054906101000a900473ffffffffffffffffffffffffffffffffffffffff1673ffffffffffffffffffffffffffffffffffffffff167f8be0079c531659141344cd1fd0a4f28419497f9722a3daafe3b4186f6b6457e060405160405180910390a3805f5f6101000a81548173ffffffffffffffffffffffffffffffffffffffff021916908373ffffffffffffffffffffffffffffffffffffffff16021790555050565b5f5ffd5b5f73ffffffffffffffffffffffffffffffffffffffff82169050919050565b5f610525826104fc565b9050919050565b5f6105368261051b565b9050919050565b6105468161052c565b8114610550575f5ffd5b50565b5f815190506105618161053d565b92915050565b5f6105718261051b565b9050919050565b61058181610567565b811461058b575f5ffd5b50565b5f8151905061059c81610578565b92915050565b6105ab8161051b565b81146105b5575f5ffd5b50565b5f815190506105c6816105a2565b92915050565b5f5f5f606084860312156105e3576105e26104f8565b5b5f6105f086828701610553565b93505060206106018682870161058e565b9250506040610612868287016105b8565b9150509250925092565b5f60208284031215610631576106306104f8565b5b5f61063e848285016105b8565b91505092915050565b6106508161051b565b82525050565b5f6020820190506106695f830184610647565b92915050565b5f8115159050919050565b6106838161066f565b811461068d575f5ffd5b50565b5f8151905061069e8161067a565b92915050565b5f602082840312156106b9576106b86104f8565b5b5f6106c684828501610690565b91505092915050565b5f82825260208201905092915050565b7f4f776e61626c653a2063616c6c6572206973206e6f7420746865206f776e65725f82015250565b5f6107136020836106cf565b915061071e826106df565b602082019050919050565b5f6020820190508181035f83015261074081610707565b9050919050565b7f4f776e61626c653a206e6577206f776e657220697320746865207a65726f20615f8201527f6464726573730000000000000000000000000000000000000000000000000000602082015250565b5f6107a16026836106cf565b91506107ac82610747565b604082019050919050565b5f6020820190508181035f8301526107ce81610795565b9050919050565b60805160a05160c05160e051613a1f6108635f395f81816104bb015261114d01525f81816104970152611bd001525f81816103a10152818161062f0152818161081701528181610862015281816108aa01528181610d0b01528181610d5601528181610d9e01528181610e4c01528181610e9701528181610f09015261106801525f61032f0152613a1f5ff3fe608060405234801561000f575f5ffd5b50600436106100a6575f3560e01c80633a8298671161006f5780633a82986714610150578063715018a61461016e5780637535d246146101785780638da5cb5b14610196578063d3454a35146101b4578063f2fde38b146101d0576100a6565b8062ae3bf8146100aa5780630542975c146100c65780631b11d0ff146100e457806332e4b2861461011457806338013f0214610132575b5f5ffd5b6100c460048036038101906100bf919061212f565b6101ec565b005b6100ce61032d565b6040516100db91906121b5565b60405180910390f35b6100fe60048036038101906100f9919061228c565b610351565b60405161010b919061233c565b60405180910390f35b61011c61048f565b6040516101299190612364565b60405180910390f35b61013a610495565b604051610147919061239d565b60405180910390f35b6101586104b9565b60405161016591906123d6565b60405180910390f35b6101766104dd565b005b61018061062d565b60405161018d919061240f565b60405180910390f35b61019e610651565b6040516101ab9190612437565b60405180910390f35b6101ce60048036038101906101c991906124e8565b610678565b005b6101ea60048036038101906101e591906125b8565b610948565b005b6101f4610b07565b73ffffffffffffffffffffffffffffffffffffffff165f5f9054906101000a900473ffffffffffffffffffffffffffffffffffffffff1673ffffffffffffffffffffffffffffffffffffffff1614610281576040517f08c379a00000000000000000000000000000000000000000000000000000000081526004016102789061263d565b60405180910390fd5b61032a61028c610651565b8273ffffffffffffffffffffffffffffffffffffffff166370a08231306040518263ffffffff1660e01b81526004016102c59190612437565b602060405180830381865afa1580156102e0573d5f5f3e3d5ffd5b505050506040513d601f19601f82011682018060405250810190610304919061266f565b8373ffffffffffffffffffffffffffffffffffffffff16610b0e9092919063ffffffff16565b50565b7f000000000000000000000000000000000000000000000000000000000000000081565b5f600260015403610397576040517f08c379a000000000000000000000000000000000000000000000000000000000815260040161038e906126e4565b60405180910390fd5b60026001819055507f000000000000000000000000000000000000000000000000000000000000000073ffffffffffffffffffffffffffffffffffffffff163373ffffffffffffffffffffffffffffffffffffffff161461042d576040517f08c379a00000000000000000000000000000000000000000000000000000000081526004016104249061274c565b60405180910390fd5b5f8690505f8690505f8690505f8a90505f5f5f5f5f5f8c8c8101906104529190612998565b955095509550955095509550610470848484848e8e8e8e8e8e610ba5565b60019a5050505050505050505050600180819055509695505050505050565b610bb881565b7f000000000000000000000000000000000000000000000000000000000000000081565b7f000000000000000000000000000000000000000000000000000000000000000081565b6104e5610b07565b73ffffffffffffffffffffffffffffffffffffffff165f5f9054906101000a900473ffffffffffffffffffffffffffffffffffffffff1673ffffffffffffffffffffffffffffffffffffffff1614610572576040517f08c379a00000000000000000000000000000000000000000000000000000000081526004016105699061263d565b60405180910390fd5b5f73ffffffffffffffffffffffffffffffffffffffff165f5f9054906101000a900473ffffffffffffffffffffffffffffffffffffffff1673ffffffffffffffffffffffffffffffffffffffff167f8be0079c531659141344cd1fd0a4f28419497f9722a3daafe3b4186f6b6457e060405160405180910390a35f5f5f6101000a81548173ffffffffffffffffffffffffffffffffffffffff021916908373ffffffffffffffffffffffffffffffffffffffff160217905550565b7f000000000000000000000000000000000000000000000000000000000000000081565b5f5f5f9054906101000a900473ffffffffffffffffffffffffffffffffffffffff16905090565b6002600154036106bd576040517f08c379a00000000000000000000000000000000000000000000000000000000081526004016106b4906126e4565b60405180910390fd5b60026001819055505f6106cf8a610eff565b610100015190505f86146107a0575f8173ffffffffffffffffffffffffffffffffffffffff166370a08231336040518263ffffffff1660e01b81526004016107179190612437565b602060405180830381865afa158015610732573d5f5f3e3d5ffd5b505050506040513d601f19601f82011682018060405250810190610756919061266f565b90508881111561079b576040517f08c379a000000000000000000000000000000000000000000000000000000000815260040161079290612a88565b60405180910390fd5b809850505b6107bd8a82338b868036038101906107b89190612aa6565b610fa7565b5f6108108787878080601f0160208091040260200160405190810160405280939291908181526020018383808284375f81840152601f19601f82011690508083019250505050505050868e8e8e8e61114a565b905061085d7f00000000000000000000000000000000000000000000000000000000000000005f8c73ffffffffffffffffffffffffffffffffffffffff166118169092919063ffffffff16565b6108a87f0000000000000000000000000000000000000000000000000000000000000000828c73ffffffffffffffffffffffffffffffffffffffff166118169092919063ffffffff16565b7f000000000000000000000000000000000000000000000000000000000000000073ffffffffffffffffffffffffffffffffffffffff1663e8eda9df8b83335f6040518563ffffffff1660e01b81526004016109079493929190612b17565b5f604051808303815f87803b15801561091e575f5ffd5b505af1158015610930573d5f5f3e3d5ffd5b50505050505060018081905550505050505050505050565b610950610b07565b73ffffffffffffffffffffffffffffffffffffffff165f5f9054906101000a900473ffffffffffffffffffffffffffffffffffffffff1673ffffffffffffffffffffffffffffffffffffffff16146109dd576040517f08c379a00000000000000000000000000000000000000000000000000000000081526004016109d49061263d565b60405180910390fd5b5f73ffffffffffffffffffffffffffffffffffffffff168173ffffffffffffffffffffffffffffffffffffffff1603610a4b576040517f08c379a0000000000000000000000000000000000000000000000000000000008152600401610a4290612bca565b60405180910390fd5b8073ffffffffffffffffffffffffffffffffffffffff165f5f9054906101000a900473ffffffffffffffffffffffffffffffffffffffff1673ffffffffffffffffffffffffffffffffffffffff167f8be0079c531659141344cd1fd0a4f28419497f9722a3daafe3b4186f6b6457e060405160405180910390a3805f5f6101000a81548173ffffffffffffffffffffffffffffffffffffffff021916908373ffffffffffffffffffffffffffffffffffffffff16021790555050565b5f33905090565b5f63a9059cbb60e01b905060405181815273ffffffffffffffffffffffffffffffffffffffff841660048201528260248201525f5f6044835f895af1610b56573d5f5f3e3d5ffd5b50610b6084611961565b610b9f576040517f08c379a0000000000000000000000000000000000000000000000000000000008152600401610b9690612c32565b60405180910390fd5b50505050565b5f610baf84610eff565b610100015190505f8790505f8273ffffffffffffffffffffffffffffffffffffffff166370a08231886040518263ffffffff1660e01b8152600401610bf49190612437565b602060405180830381865afa158015610c0f573d5f5f3e3d5ffd5b505050506040513d601f19601f82011682018060405250810190610c33919061266f565b90505f8d14610c9e575f610c508983611a2890919063ffffffff16565b905082811115610c95576040517f08c379a0000000000000000000000000000000000000000000000000000000008152600401610c8c90612a88565b60405180910390fd5b80925050610cf4565b610cb18883611a4090919063ffffffff16565b811015610cf3576040517f08c379a0000000000000000000000000000000000000000000000000000000008152600401610cea90612c9a565b60405180910390fd5b5b5f610d048e8e8e8a8a888b61114a565b9050610d517f00000000000000000000000000000000000000000000000000000000000000005f8873ffffffffffffffffffffffffffffffffffffffff166118169092919063ffffffff16565b610d9c7f0000000000000000000000000000000000000000000000000000000000000000828873ffffffffffffffffffffffffffffffffffffffff166118169092919063ffffffff16565b7f000000000000000000000000000000000000000000000000000000000000000073ffffffffffffffffffffffffffffffffffffffff1663e8eda9df87838b5f6040518563ffffffff1660e01b8152600401610dfb9493929190612b17565b5f604051808303815f87803b158015610e12575f5ffd5b505af1158015610e24573d5f5f3e3d5ffd5b50505050610e4787858a610e418d88611a4090919063ffffffff16565b8f610fa7565b610e927f00000000000000000000000000000000000000000000000000000000000000005f8973ffffffffffffffffffffffffffffffffffffffff166118169092919063ffffffff16565b610eef7f0000000000000000000000000000000000000000000000000000000000000000610ec98b8d611a4090919063ffffffff16565b8973ffffffffffffffffffffffffffffffffffffffff166118169092919063ffffffff16565b5050505050505050505050505050565b610f07611f40565b7f000000000000000000000000000000000000000000000000000000000000000073ffffffffffffffffffffffffffffffffffffffff166335ea6a75836040518263ffffffff1660e01b8152600401610f609190612437565b6101e060405180830381865afa158015610f7c573d5f5f3e3d5ffd5b505050506040513d601f19601f82011682018060405250810190610fa09190612f0f565b9050919050565b5f816020015114611038578373ffffffffffffffffffffffffffffffffffffffff1663d505accf8430845f015185602001518660400151876060015188608001516040518863ffffffff1660e01b815260040161100a9796959493929190612f59565b5f604051808303815f87803b158015611021575f5ffd5b505af1158015611033573d5f5f3e3d5ffd5b505050505b6110658330848773ffffffffffffffffffffffffffffffffffffffff16611a58909392919063ffffffff16565b817f000000000000000000000000000000000000000000000000000000000000000073ffffffffffffffffffffffffffffffffffffffff166369328dec8785306040518463ffffffff1660e01b81526004016110c393929190612fc6565b6020604051808303815f875af11580156110df573d5f5f3e3d5ffd5b505050506040513d601f19601f82011682018060405250810190611103919061266f565b14611143576040517f08c379a000000000000000000000000000000000000000000000000000000000815260040161113a90613045565b60405180910390fd5b5050505050565b5f7f000000000000000000000000000000000000000000000000000000000000000073ffffffffffffffffffffffffffffffffffffffff1663fb04e17b876040518263ffffffff1660e01b81526004016111a49190612437565b602060405180830381865afa1580156111bf573d5f5f3e3d5ffd5b505050506040513d601f19601f820116820180604052508101906111e3919061308d565b611222576040517f08c379a000000000000000000000000000000000000000000000000000000000815260040161121990613102565b60405180910390fd5b5f61122c86611b0c565b60ff1690505f61123b86611b0c565b60ff1690505f61124a88611bcd565b90505f61125688611bcd565b90505f6112db610bb861271061126c919061314d565b6112cd61128e88600a61127f91906132af565b86611c6d90919063ffffffff16565b6112bf6112b089600a6112a191906132af565b89611c6d90919063ffffffff16565b8d611c6d90919063ffffffff16565b611c9e90919063ffffffff16565b611cb390919063ffffffff16565b905086811115611320576040517f08c379a000000000000000000000000000000000000000000000000000000000815260040161131790613343565b60405180910390fd5b50505050505f8573ffffffffffffffffffffffffffffffffffffffff166370a08231306040518263ffffffff1660e01b815260040161135f9190612437565b602060405180830381865afa15801561137a573d5f5f3e3d5ffd5b505050506040513d601f19601f8201168201806040525081019061139e919061266f565b9050838110156113e3576040517f08c379a00000000000000000000000000000000000000000000000000000000081526004016113da906133ab565b60405180910390fd5b5f8573ffffffffffffffffffffffffffffffffffffffff166370a08231306040518263ffffffff1660e01b815260040161141d9190612437565b602060405180830381865afa158015611438573d5f5f3e3d5ffd5b505050506040513d601f19601f8201168201806040525081019061145c919061266f565b90505f8873ffffffffffffffffffffffffffffffffffffffff1663d2c4b5986040518163ffffffff1660e01b8152600401602060405180830381865afa1580156114a8573d5f5f3e3d5ffd5b505050506040513d601f19601f820116820180604052508101906114cc91906133c9565b90506114f9815f8a73ffffffffffffffffffffffffffffffffffffffff166118169092919063ffffffff16565b61152481878a73ffffffffffffffffffffffffffffffffffffffff166118169092919063ffffffff16565b5f8b146115985760048b10158015611550575061154c60208b51611a2890919063ffffffff16565b8b11155b61158f576040517f08c379a00000000000000000000000000000000000000000000000000000000081526004016115869061343e565b60405180910390fd5b8560208c018b01525b5f8973ffffffffffffffffffffffffffffffffffffffff168b6040516115be91906134ae565b5f604051808303815f865af19150503d805f81146115f7576040519150601f19603f3d011682016040523d82523d5f602084013e6115fc565b606091505b505090508061160d573d5f5f3e3d5ffd5b8684611619919061314d565b8973ffffffffffffffffffffffffffffffffffffffff166370a08231306040518263ffffffff1660e01b81526004016116529190612437565b602060405180830381865afa15801561166d573d5f5f3e3d5ffd5b505050506040513d601f19601f82011682018060405250810190611691919061266f565b146116d1576040517f08c379a00000000000000000000000000000000000000000000000000000000081526004016116c89061350e565b60405180910390fd5b61175b838973ffffffffffffffffffffffffffffffffffffffff166370a08231306040518263ffffffff1660e01b815260040161170e9190612437565b602060405180830381865afa158015611729573d5f5f3e3d5ffd5b505050506040513d601f19601f8201168201806040525081019061174d919061266f565b611a2890919063ffffffff16565b9450858510156117a0576040517f08c379a000000000000000000000000000000000000000000000000000000000815260040161179790613576565b60405180910390fd5b8773ffffffffffffffffffffffffffffffffffffffff168973ffffffffffffffffffffffffffffffffffffffff167fa078c4190abe07940190effc1846be0ccf03ad6007bc9e93f9697d0b460befbb89886040516117ff929190613594565b60405180910390a350505050979650505050505050565b5f81148061189c57505f8373ffffffffffffffffffffffffffffffffffffffff1663dd62ed3e30856040518363ffffffff1660e01b815260040161185b9291906135bb565b602060405180830381865afa158015611876573d5f5f3e3d5ffd5b505050506040513d601f19601f8201168201806040525081019061189a919061266f565b145b6118db576040517f08c379a00000000000000000000000000000000000000000000000000000000081526004016118d290613652565b60405180910390fd5b61195c8363095ea7b360e01b84846040516024016118fa929190613670565b604051602081830303815290604052907bffffffffffffffffffffffffffffffffffffffffffffffffffffffff19166020820180517bffffffffffffffffffffffffffffffffffffffffffffffffffffffff8381831617835250505050611cdd565b505050565b5f61199c565b7f08c379a0000000000000000000000000000000000000000000000000000000005f526020600452806024528160445260645ffd5b3d5f81146119dc5760208114611a17576119d77f475076323a206d616c666f726d6564207472616e7366657220726573756c7400601f611967565b611a22565b823b611a0e57611a0d7f475076323a206e6f74206120636f6e74726163740000000000000000000000006014611967565b5b60019150611a22565b3d5f5f3e5f51151591505b50919050565b5f828284039150811115611a3a575f5ffd5b92915050565b5f828284019150811015611a52575f5ffd5b92915050565b5f6323b872dd60e01b905060405181815273ffffffffffffffffffffffffffffffffffffffff8516600482015273ffffffffffffffffffffffffffffffffffffffff841660248201528260448201525f5f6064835f8a5af1611abc573d5f5f3e3d5ffd5b50611ac685611961565b611b05576040517f08c379a0000000000000000000000000000000000000000000000000000000008152600401611afc906136e1565b60405180910390fd5b5050505050565b5f5f8273ffffffffffffffffffffffffffffffffffffffff1663313ce5676040518163ffffffff1660e01b8152600401602060405180830381865afa158015611b57573d5f5f3e3d5ffd5b505050506040513d601f19601f82011682018060405250810190611b7b9190613713565b9050604d8160ff161115611bc4576040517f08c379a0000000000000000000000000000000000000000000000000000000008152600401611bbb90613788565b60405180910390fd5b80915050919050565b5f7f000000000000000000000000000000000000000000000000000000000000000073ffffffffffffffffffffffffffffffffffffffff1663b3596f07836040518263ffffffff1660e01b8152600401611c279190612437565b602060405180830381865afa158015611c42573d5f5f3e3d5ffd5b505050506040513d601f19601f82011682018060405250810190611c66919061266f565b9050919050565b5f5f831480611c905750818383850292508281611c8d57611c8c6137a6565b5b04145b611c98575f5ffd5b92915050565b5f8183611cab91906137d3565b905092915050565b5f816113885f190304831115821517611cca575f5ffd5b6127106113888385020104905092915050565b5f611d3e826040518060400160405280602081526020017f5361666545524332303a206c6f772d6c6576656c2063616c6c206661696c65648152508573ffffffffffffffffffffffffffffffffffffffff16611da29092919063ffffffff16565b90505f81511115611d9d5780806020019051810190611d5d919061308d565b611d9c576040517f08c379a0000000000000000000000000000000000000000000000000000000008152600401611d9390613873565b60405180910390fd5b5b505050565b6060611db084845f85611db9565b90509392505050565b606082471015611dfe576040517f08c379a0000000000000000000000000000000000000000000000000000000008152600401611df590613901565b60405180910390fd5b611e0785611ec9565b611e46576040517f08c379a0000000000000000000000000000000000000000000000000000000008152600401611e3d90613969565b60405180910390fd5b5f5f8673ffffffffffffffffffffffffffffffffffffffff168587604051611e6e91906134ae565b5f6040518083038185875af1925050503d805f8114611ea8576040519150601f19603f3d011682016040523d82523d5f602084013e611ead565b606091505b5091509150611ebd828286611eda565b92505050949350505050565b5f5f823b90505f8111915050919050565b60608315611eea57829050611f39565b5f83511115611efc5782518084602001fd5b816040517f08c379a0000000000000000000000000000000000000000000000000000000008152600401611f3091906139c9565b60405180910390fd5b9392505050565b604051806101e00160405280611f546120a1565b81526020015f6fffffffffffffffffffffffffffffffff1681526020015f6fffffffffffffffffffffffffffffffff1681526020015f6fffffffffffffffffffffffffffffffff1681526020015f6fffffffffffffffffffffffffffffffff1681526020015f6fffffffffffffffffffffffffffffffff1681526020015f64ffffffffff1681526020015f61ffff1681526020015f73ffffffffffffffffffffffffffffffffffffffff1681526020015f73ffffffffffffffffffffffffffffffffffffffff1681526020015f73ffffffffffffffffffffffffffffffffffffffff1681526020015f73ffffffffffffffffffffffffffffffffffffffff1681526020015f6fffffffffffffffffffffffffffffffff1681526020015f6fffffffffffffffffffffffffffffffff1681526020015f6fffffffffffffffffffffffffffffffff1681525090565b60405180602001604052805f81525090565b5f604051905090565b5f5ffd5b5f5ffd5b5f73ffffffffffffffffffffffffffffffffffffffff82169050919050565b5f6120ed826120c4565b9050919050565b5f6120fe826120e3565b9050919050565b61210e816120f4565b8114612118575f5ffd5b50565b5f8135905061212981612105565b92915050565b5f60208284031215612144576121436120bc565b5b5f6121518482850161211b565b91505092915050565b5f819050919050565b5f61217d612178612173846120c4565b61215a565b6120c4565b9050919050565b5f61218e82612163565b9050919050565b5f61219f82612184565b9050919050565b6121af81612195565b82525050565b5f6020820190506121c85f8301846121a6565b92915050565b6121d7816120e3565b81146121e1575f5ffd5b50565b5f813590506121f2816121ce565b92915050565b5f819050919050565b61220a816121f8565b8114612214575f5ffd5b50565b5f8135905061222581612201565b92915050565b5f5ffd5b5f5ffd5b5f5ffd5b5f5f83601f84011261224c5761224b61222b565b5b8235905067ffffffffffffffff8111156122695761226861222f565b5b60208301915083600182028301111561228557612284612233565b5b9250929050565b5f5f5f5f5f5f60a087890312156122a6576122a56120bc565b5b5f6122b389828a016121e4565b96505060206122c489828a01612217565b95505060406122d589828a01612217565b94505060606122e689828a016121e4565b935050608087013567ffffffffffffffff811115612307576123066120c0565b5b61231389828a01612237565b92509250509295509295509295565b5f8115159050919050565b61233681612322565b82525050565b5f60208201905061234f5f83018461232d565b92915050565b61235e816121f8565b82525050565b5f6020820190506123775f830184612355565b92915050565b5f61238782612184565b9050919050565b6123978161237d565b82525050565b5f6020820190506123b05f83018461238e565b92915050565b5f6123c082612184565b9050919050565b6123d0816123b6565b82525050565b5f6020820190506123e95f8301846123c7565b92915050565b5f6123f982612184565b9050919050565b612409816123ef565b82525050565b5f6020820190506124225f830184612400565b92915050565b612431816120e3565b82525050565b5f60208201905061244a5f830184612428565b92915050565b5f61245a826120e3565b9050919050565b61246a81612450565b8114612474575f5ffd5b50565b5f8135905061248581612461565b92915050565b5f612495826120e3565b9050919050565b6124a58161248b565b81146124af575f5ffd5b50565b5f813590506124c08161249c565b92915050565b5f5ffd5b5f60a082840312156124df576124de6124c6565b5b81905092915050565b5f5f5f5f5f5f5f5f5f6101808a8c031215612506576125056120bc565b5b5f6125138c828d01612477565b99505060206125248c828d01612477565b98505060406125358c828d01612217565b97505060606125468c828d01612217565b96505060806125578c828d01612217565b95505060a08a013567ffffffffffffffff811115612578576125776120c0565b5b6125848c828d01612237565b945094505060c06125978c828d016124b2565b92505060e06125a88c828d016124ca565b9150509295985092959850929598565b5f602082840312156125cd576125cc6120bc565b5b5f6125da848285016121e4565b91505092915050565b5f82825260208201905092915050565b7f4f776e61626c653a2063616c6c6572206973206e6f7420746865206f776e65725f82015250565b5f6126276020836125e3565b9150612632826125f3565b602082019050919050565b5f6020820190508181035f8301526126548161261b565b9050919050565b5f8151905061266981612201565b92915050565b5f60208284031215612684576126836120bc565b5b5f6126918482850161265b565b91505092915050565b7f5265656e7472616e637947756172643a207265656e7472616e742063616c6c005f82015250565b5f6126ce601f836125e3565b91506126d98261269a565b602082019050919050565b5f6020820190508181035f8301526126fb816126c2565b9050919050565b7f43414c4c45525f4d5553545f42455f504f4f4c000000000000000000000000005f82015250565b5f6127366013836125e3565b915061274182612702565b602082019050919050565b5f6020820190508181035f8301526127638161272a565b9050919050565b5f5ffd5b5f601f19601f8301169050919050565b7f4e487b71000000000000000000000000000000000000000000000000000000005f52604160045260245ffd5b6127b48261276e565b810181811067ffffffffffffffff821117156127d3576127d261277e565b5b80604052505050565b5f6127e56120b3565b90506127f182826127ab565b919050565b5f67ffffffffffffffff8211156128105761280f61277e565b5b6128198261276e565b9050602081019050919050565b828183375f83830152505050565b5f612846612841846127f6565b6127dc565b9050828152602081018484840111156128625761286161276a565b5b61286d848285612826565b509392505050565b5f82601f8301126128895761288861222b565b5b8135612899848260208601612834565b91505092915050565b5f5ffd5b5f60ff82169050919050565b6128bb816128a6565b81146128c5575f5ffd5b50565b5f813590506128d6816128b2565b92915050565b5f819050919050565b6128ee816128dc565b81146128f8575f5ffd5b50565b5f81359050612909816128e5565b92915050565b5f60a08284031215612924576129236128a2565b5b61292e60a06127dc565b90505f61293d84828501612217565b5f83015250602061295084828501612217565b6020830152506040612964848285016128c8565b6040830152506060612978848285016128fb565b606083015250608061298c848285016128fb565b60808301525092915050565b5f5f5f5f5f5f61014087890312156129b3576129b26120bc565b5b5f6129c089828a01612477565b96505060206129d189828a01612217565b95505060406129e289828a01612217565b945050606087013567ffffffffffffffff811115612a0357612a026120c0565b5b612a0f89828a01612875565b9350506080612a2089828a016124b2565b92505060a0612a3189828a0161290f565b9150509295509295509295565b7f494e53554646494349454e545f414d4f554e545f544f5f5357415000000000005f82015250565b5f612a72601b836125e3565b9150612a7d82612a3e565b602082019050919050565b5f6020820190508181035f830152612a9f81612a66565b9050919050565b5f60a08284031215612abb57612aba6120bc565b5b5f612ac88482850161290f565b91505092915050565b5f819050919050565b5f61ffff82169050919050565b5f612b01612afc612af784612ad1565b61215a565b612ada565b9050919050565b612b1181612ae7565b82525050565b5f608082019050612b2a5f830187612428565b612b376020830186612355565b612b446040830185612428565b612b516060830184612b08565b95945050505050565b7f4f776e61626c653a206e6577206f776e657220697320746865207a65726f20615f8201527f6464726573730000000000000000000000000000000000000000000000000000602082015250565b5f612bb46026836125e3565b9150612bbf82612b5a565b604082019050919050565b5f6020820190508181035f830152612be181612ba8565b9050919050565b7f475076323a206661696c6564207472616e7366657200000000000000000000005f82015250565b5f612c1c6015836125e3565b9150612c2782612be8565b602082019050919050565b5f6020820190508181035f830152612c4981612c10565b9050919050565b7f494e53554646494349454e545f41544f4b454e5f42414c414e434500000000005f82015250565b5f612c84601b836125e3565b9150612c8f82612c50565b602082019050919050565b5f6020820190508181035f830152612cb181612c78565b9050919050565b5f60208284031215612ccd57612ccc6128a2565b5b612cd760206127dc565b90505f612ce68482850161265b565b5f8301525092915050565b5f6fffffffffffffffffffffffffffffffff82169050919050565b612d1581612cf1565b8114612d1f575f5ffd5b50565b5f81519050612d3081612d0c565b92915050565b5f64ffffffffff82169050919050565b612d4f81612d36565b8114612d59575f5ffd5b50565b5f81519050612d6a81612d46565b92915050565b612d7981612ada565b8114612d83575f5ffd5b50565b5f81519050612d9481612d70565b92915050565b5f81519050612da8816121ce565b92915050565b5f6101e08284031215612dc457612dc36128a2565b5b612dcf6101e06127dc565b90505f612dde84828501612cb8565b5f830152506020612df184828501612d22565b6020830152506040612e0584828501612d22565b6040830152506060612e1984828501612d22565b6060830152506080612e2d84828501612d22565b60808301525060a0612e4184828501612d22565b60a08301525060c0612e5584828501612d5c565b60c08301525060e0612e6984828501612d86565b60e083015250610100612e7e84828501612d9a565b61010083015250610120612e9484828501612d9a565b61012083015250610140612eaa84828501612d9a565b61014083015250610160612ec084828501612d9a565b61016083015250610180612ed684828501612d22565b610180830152506101a0612eec84828501612d22565b6101a0830152506101c0612f0284828501612d22565b6101c08301525092915050565b5f6101e08284031215612f2557612f246120bc565b5b5f612f3284828501612dae565b91505092915050565b612f44816128a6565b82525050565b612f53816128dc565b82525050565b5f60e082019050612f6c5f83018a612428565b612f796020830189612428565b612f866040830188612355565b612f936060830187612355565b612fa06080830186612f3b565b612fad60a0830185612f4a565b612fba60c0830184612f4a565b98975050505050505050565b5f606082019050612fd95f830186612428565b612fe66020830185612355565b612ff36040830184612428565b949350505050565b7f554e45585045435445445f414d4f554e545f57495448445241574e00000000005f82015250565b5f61302f601b836125e3565b915061303a82612ffb565b602082019050919050565b5f6020820190508181035f83015261305c81613023565b9050919050565b61306c81612322565b8114613076575f5ffd5b50565b5f8151905061308781613063565b92915050565b5f602082840312156130a2576130a16120bc565b5b5f6130af84828501613079565b91505092915050565b7f494e56414c49445f4155475553545553000000000000000000000000000000005f82015250565b5f6130ec6010836125e3565b91506130f7826130b8565b602082019050919050565b5f6020820190508181035f830152613119816130e0565b9050919050565b7f4e487b71000000000000000000000000000000000000000000000000000000005f52601160045260245ffd5b5f613157826121f8565b9150613162836121f8565b925082820390508181111561317a57613179613120565b5b92915050565b5f8160011c9050919050565b5f5f8291508390505b60018511156131d5578086048111156131b1576131b0613120565b5b60018516156131c05780820291505b80810290506131ce85613180565b9450613195565b94509492505050565b5f826131ed57600190506132a8565b816131fa575f90506132a8565b8160018114613210576002811461321a57613249565b60019150506132a8565b60ff84111561322c5761322b613120565b5b8360020a91508482111561324357613242613120565b5b506132a8565b5060208310610133831016604e8410600b841016171561327e5782820a90508381111561327957613278613120565b5b6132a8565b61328b848484600161318c565b925090508184048111156132a2576132a1613120565b5b81810290505b9392505050565b5f6132b9826121f8565b91506132c4836121f8565b92506132f17fffffffffffffffffffffffffffffffffffffffffffffffffffffffffffffffff84846131de565b905092915050565b7f4d494e5f414d4f554e545f455843454544535f4d41585f534c495050414745005f82015250565b5f61332d601f836125e3565b9150613338826132f9565b602082019050919050565b5f6020820190508181035f83015261335a81613321565b9050919050565b7f494e53554646494349454e545f42414c414e43455f4245464f52455f535741505f82015250565b5f6133956020836125e3565b91506133a082613361565b602082019050919050565b5f6020820190508181035f8301526133c281613389565b9050919050565b5f602082840312156133de576133dd6120bc565b5b5f6133eb84828501612d9a565b91505092915050565b7f46524f4d5f414d4f554e545f4f46465345545f4f55545f4f465f52414e4745005f82015250565b5f613428601f836125e3565b9150613433826133f4565b602082019050919050565b5f6020820190508181035f8301526134558161341c565b9050919050565b5f81519050919050565b5f81905092915050565b8281835e5f83830152505050565b5f6134888261345c565b6134928185613466565b93506134a2818560208601613470565b80840191505092915050565b5f6134b9828461347e565b915081905092915050565b7f57524f4e475f42414c414e43455f41465445525f5357415000000000000000005f82015250565b5f6134f86018836125e3565b9150613503826134c4565b602082019050919050565b5f6020820190508181035f830152613525816134ec565b9050919050565b7f494e53554646494349454e545f414d4f554e545f5245434549564544000000005f82015250565b5f613560601c836125e3565b915061356b8261352c565b602082019050919050565b5f6020820190508181035f83015261358d81613554565b9050919050565b5f6040820190506135a75f830185612355565b6135b46020830184612355565b9392505050565b5f6040820190506135ce5f830185612428565b6135db6020830184612428565b9392505050565b7f5361666545524332303a20617070726f76652066726f6d206e6f6e2d7a65726f5f8201527f20746f206e6f6e2d7a65726f20616c6c6f77616e636500000000000000000000602082015250565b5f61363c6036836125e3565b9150613647826135e2565b604082019050919050565b5f6020820190508181035f83015261366981613630565b9050919050565b5f6040820190506136835f830185612428565b6136906020830184612355565b9392505050565b7f475076323a206661696c6564207472616e7366657246726f6d000000000000005f82015250565b5f6136cb6019836125e3565b91506136d682613697565b602082019050919050565b5f6020820190508181035f8301526136f8816136bf565b9050919050565b5f8151905061370d816128b2565b92915050565b5f60208284031215613728576137276120bc565b5b5f613735848285016136ff565b91505092915050565b7f544f4f5f4d414e595f444543494d414c535f4f4e5f544f4b454e0000000000005f82015250565b5f613772601a836125e3565b915061377d8261373e565b602082019050919050565b5f6020820190508181035f83015261379f81613766565b9050919050565b7f4e487b71000000000000000000000000000000000000000000000000000000005f52601260045260245ffd5b5f6137dd826121f8565b91506137e8836121f8565b9250826137f8576137f76137a6565b5b828204905092915050565b7f5361666545524332303a204552433230206f7065726174696f6e20646964206e5f8201527f6f74207375636365656400000000000000000000000000000000000000000000602082015250565b5f61385d602a836125e3565b915061386882613803565b604082019050919050565b5f6020820190508181035f83015261388a81613851565b9050919050565b7f416464726573733a20696e73756666696369656e742062616c616e636520666f5f8201527f722063616c6c0000000000000000000000000000000000000000000000000000602082015250565b5f6138eb6026836125e3565b91506138f682613891565b604082019050919050565b5f6020820190508181035f830152613918816138df565b9050919050565b7f416464726573733a2063616c6c20746f206e6f6e2d636f6e74726163740000005f82015250565b5f613953601d836125e3565b915061395e8261391f565b602082019050919050565b5f6020820190508181035f83015261398081613947565b9050919050565b5f81519050919050565b5f61399b82613987565b6139a581856125e3565b93506139b5818560208601613470565b6139be8161276e565b840191505092915050565b5f6020820190508181035f8301526139e18184613991565b90509291505056fea2646970667358221220c36a5ecae2d83d44156da93a69075ed17f0bc0231eab5e88cbf4b7b33fc17a7764736f6c634300081c0033","linkReferences":{}},"methodIdentifiers":{"ADDRESSES_PROVIDER()":"0542975c","AUGUSTUS_REGISTRY()":"3a829867","MAX_SLIPPAGE_PERCENT()":"32e4b286","ORACLE()":"38013f02","POOL()":"7535d246","executeOperation(address,uint256,uint256,address,bytes)":"1b11d0ff","owner()":"8da5cb5b","renounceOwnership()":"715018a6","rescueTokens(address)":"00ae3bf8","swapAndDeposit(address,address,uint256,uint256,uint256,bytes,address,(uint256,uint256,uint8,bytes32,bytes32))":"d3454a35","transferOwnership(address)":"f2fde38b"},"id":3}