{"abi":[{"type":"constructor","inputs":[{"name":"addressesProvider","type":"address","internalType":"contract IPoolAddressesProvider"}],"stateMutability":"nonpayable"},{"type":"function","name":"ADDRESSES_PROVIDER","inputs":[],"outputs":[{"name":"","type":"address","internalType":"contract IPoolAddressesProvider"}],"stateMutability":"view"},{"type":"function","name":"getATokenTotalSupply","inputs":[{"name":"asset","type":"address","internalType":"address"}],"outputs":[{"name":"","type":"uint256","internalType":"uint256"}],"stateMutability":"view"},{"type":"function","name":"getAllATokens","inputs":[],"outputs":[{"name":"","type":"tuple[]","internalType":"struct IPoolDataProvider.TokenData[]","components":[{"name":"symbol","type":"string","internalType":"string"},{"name":"tokenAddress","type":"address","internalType":"address"}]}],"stateMutability":"view"},{"type":"function","name":"getAllReservesTokens","inputs":[],"outputs":[{"name":"","type":"tuple[]","internalType":"struct IPoolDataProvider.TokenData[]","components":[{"name":"symbol","type":"string","internalType":"string"},{"name":"tokenAddress","type":"address","internalType":"address"}]}],"stateMutability":"view"},{"type":"function","name":"getDebtCeiling","inputs":[{"name":"asset","type":"address","internalType":"address"}],"outputs":[{"name":"","type":"uint256","internalType":"uint256"}],"stateMutability":"view"},{"type":"function","name":"getDebtCeilingDecimals","inputs":[],"outputs":[{"name":"","type":"uint256","internalType":"uint256"}],"stateMutability":"pure"},{"type":"function","name":"getFlashLoanEnabled","inputs":[{"name":"asset","type":"address","internalType":"address"}],"outputs":[{"name":"","type":"bool","internalType":"bool"}],"stateMutability":"view"},{"type":"function","name":"getInterestRateStrategyAddress","inputs":[{"name":"asset","type":"address","internalType":"address"}],"outputs":[{"name":"irStrategyAddress","type":"address","internalType":"address"}],"stateMutability":"view"},{"type":"function","name":"getLiquidationProtocolFee","inputs":[{"name":"asset","type":"address","internalType":"address"}],"outputs":[{"name":"","type":"uint256","internalType":"uint256"}],"stateMutability":"view"},{"type":"function","name":"getPaused","inputs":[{"name":"asset","type":"address","internalType":"address"}],"outputs":[{"name":"isPaused","type":"bool","internalType":"bool"}],"stateMutability":"view"},{"type":"function","name":"getReserveCaps","inputs":[{"name":"asset","type":"address","internalType":"address"}],"outputs":[{"name":"borrowCap","type":"uint256","internalType":"uint256"},{"name":"supplyCap","type":"uint256","internalType":"uint256"}],"stateMutability":"view"},{"type":"function","name":"getReserveConfigurationData","inputs":[{"name":"asset","type":"address","internalType":"address"}],"outputs":[{"name":"decimals","type":"uint256","internalType":"uint256"},{"name":"ltv","type":"uint256","internalType":"uint256"},{"name":"liquidationThreshold","type":"uint256","internalType":"uint256"},{"name":"liquidationBonus","type":"uint256","internalType":"uint256"},{"name":"reserveFactor","type":"uint256","internalType":"uint256"},{"name":"usageAsCollateralEnabled","type":"bool","internalType":"bool"},{"name":"borrowingEnabled","type":"bool","internalType":"bool"},{"name":"stableBorrowRateEnabled","type":"bool","internalType":"bool"},{"name":"isActive","type":"bool","internalType":"bool"},{"name":"isFrozen","type":"bool","internalType":"bool"}],"stateMutability":"view"},{"type":"function","name":"getReserveData","inputs":[{"name":"asset","type":"address","internalType":"address"}],"outputs":[{"name":"unbacked","type":"uint256","internalType":"uint256"},{"name":"accruedToTreasuryScaled","type":"uint256","internalType":"uint256"},{"name":"totalAToken","type":"uint256","internalType":"uint256"},{"name":"totalStableDebt","type":"uint256","internalType":"uint256"},{"name":"totalVariableDebt","type":"uint256","internalType":"uint256"},{"name":"liquidityRate","type":"uint256","internalType":"uint256"},{"name":"variableBorrowRate","type":"uint256","internalType":"uint256"},{"name":"stableBorrowRate","type":"uint256","internalType":"uint256"},{"name":"averageStableBorrowRate","type":"uint256","internalType":"uint256"},{"name":"liquidityIndex","type":"uint256","internalType":"uint256"},{"name":"variableBorrowIndex","type":"uint256","internalType":"uint256"},{"name":"lastUpdateTimestamp","type":"uint40","internalType":"uint40"}],"stateMutability":"view"},{"type":"function","name":"getReserveEModeCategory","inputs":[{"name":"asset","type":"address","internalType":"address"}],"outputs":[{"name":"","type":"uint256","internalType":"uint256"}],"stateMutability":"view"},{"type":"function","name":"getReserveTokensAddresses","inputs":[{"name":"asset","type":"address","internalType":"address"}],"outputs":[{"name":"aTokenAddress","type":"address","internalType":"address"},{"name":"stableDebtTokenAddress","type":"address","internalType":"address"},{"name":"variableDebtTokenAddress","type":"address","internalType":"address"}],"stateMutability":"view"},{"type":"function","name":"getSiloedBorrowing","inputs":[{"name":"asset","type":"address","internalType":"address"}],"outputs":[{"name":"","type":"bool","internalType":"bool"}],"stateMutability":"view"},{"type":"function","name":"getTotalDebt","inputs":[{"name":"asset","type":"address","internalType":"address"}],"outputs":[{"name":"","type":"uint256","internalType":"uint256"}],"stateMutability":"view"},{"type":"function","name":"getUnbackedMintCap","inputs":[{"name":"asset","type":"address","internalType":"address"}],"outputs":[{"name":"","type":"uint256","internalType":"uint256"}],"stateMutability":"view"},{"type":"function","name":"getUserReserveData","inputs":[{"name":"asset","type":"address","internalType":"address"},{"name":"user","type":"address","internalType":"address"}],"outputs":[{"name":"currentATokenBalance","type":"uint256","internalType":"uint256"},{"name":"currentStableDebt","type":"uint256","internalType":"uint256"},{"name":"currentVariableDebt","type":"uint256","internalType":"uint256"},{"name":"principalStableDebt","type":"uint256","internalType":"uint256"},{"name":"scaledVariableDebt","type":"uint256","internalType":"uint256"},{"name":"stableBorrowRate","type":"uint256","internalType":"uint256"},{"name":"liquidityRate","type":"uint256","internalType":"uint256"},{"name":"stableRateLastUpdated","type":"uint40","internalType":"uint40"},{"name":"usageAsCollateralEnabled","type":"bool","internalType":"bool"}],"stateMutability":"view"}],"bytecode":{"object":"0x60a060405234801561000f575f5ffd5b50604051613879380380613879833981810160405281019061003191906100da565b8073ffffffffffffffffffffffffffffffffffffffff1660808173ffffffffffffffffffffffffffffffffffffffff168152505050610105565b5f5ffd5b5f73ffffffffffffffffffffffffffffffffffffffff82169050919050565b5f6100988261006f565b9050919050565b5f6100a98261008e565b9050919050565b6100b98161009f565b81146100c3575f5ffd5b50565b5f815190506100d4816100b0565b92915050565b5f602082840312156100ef576100ee61006b565b5b5f6100fc848285016100c6565b91505092915050565b6080516136de61019b5f395f818161048c015281816104b2015281816105d3015281816106db01528181610bac01528181610f640152818161107801528181611193015281816112ea015281816114020152818161160101528181611784015281816118a5015281816119b801528181611e2401528181611f48015281816120710152818161218b015261246701526136de5ff3fe608060405234801561000f575f5ffd5b506004361061011f575f3560e01c806351460e25116100ab578063b55d99041161006f578063b55d9904146103aa578063d2493b6c146103da578063d7ed3ef41461040c578063f561ae411461043c578063fcf40a621461045a5761011f565b806351460e25146102de5780636744362a1461030e57806369b169e11461033e5780637ba1ae361461035c578063b316ff891461038c5761011f565b80633c798109116100f25780633c798109146101e45780633cb8a622146102145780633e1501411461024457806346fbe5581461027d5780634d44ac4f146102ae5761011f565b80630542975c14610123578063163a0f201461014157806328dd2d011461017157806335ea6a75146101a9575b5f5ffd5b61012b61048a565b6040516101389190612a3f565b60405180910390f35b61015b60048036038101906101569190612aa4565b6104ae565b6040516101689190612ae7565b60405180910390f35b61018b60048036038101906101869190612b00565b6105c7565b6040516101a099989796959493929190612b77565b60405180910390f35b6101c360048036038101906101be9190612aa4565b610b9d565b6040516101db9c9b9a99989796959493929190612c02565b60405180910390f35b6101fe60048036038101906101f99190612aa4565b610f5e565b60405161020b9190612ae7565b60405180910390f35b61022e60048036038101906102299190612aa4565b611072565b60405161023b9190612ae7565b60405180910390f35b61025e60048036038101906102599190612aa4565b611186565b6040516102749a99989796959493929190612cba565b60405180910390f35b61029760048036038101906102929190612aa4565b6112e3565b6040516102a5929190612d54565b60405180910390f35b6102c860048036038101906102c39190612aa4565b6113fe565b6040516102d59190612ae7565b60405180910390f35b6102f860048036038101906102f39190612aa4565b6115fd565b6040516103059190612ae7565b60405180910390f35b61032860048036038101906103239190612aa4565b611780565b6040516103359190612d8a565b60405180910390f35b610346611897565b6040516103539190612ae7565b60405180910390f35b61037660048036038101906103719190612aa4565b61189f565b6040516103839190612ae7565b60405180910390f35b6103946119b3565b6040516103a19190612f17565b60405180910390f35b6103c460048036038101906103bf9190612aa4565b611e1e565b6040516103d19190612f37565b60405180910390f35b6103f460048036038101906103ef9190612aa4565b611f42565b60405161040393929190612f50565b60405180910390f35b61042660048036038101906104219190612aa4565b61206d565b6040516104339190612f37565b60405180910390f35b610444612186565b6040516104519190612f17565b60405180910390f35b610474600480360381019061046f9190612aa4565b612461565b6040516104819190612f37565b60405180910390f35b7f000000000000000000000000000000000000000000000000000000000000000081565b5f5f7f000000000000000000000000000000000000000000000000000000000000000073ffffffffffffffffffffffffffffffffffffffff1663026b1d5f6040518163ffffffff1660e01b8152600401602060405180830381865afa158015610519573d5f5f3e3d5ffd5b505050506040513d601f19601f8201168201806040525081019061053d9190612f99565b73ffffffffffffffffffffffffffffffffffffffff1663c44b11f7846040518263ffffffff1660e01b81526004016105759190612d8a565b602060405180830381865afa158015610590573d5f5f3e3d5ffd5b505050506040513d601f19601f820116820180604052508101906105b491906130a3565b90506105bf81612575565b915050919050565b5f5f5f5f5f5f5f5f5f5f7f000000000000000000000000000000000000000000000000000000000000000073ffffffffffffffffffffffffffffffffffffffff1663026b1d5f6040518163ffffffff1660e01b8152600401602060405180830381865afa15801561063a573d5f5f3e3d5ffd5b505050506040513d601f19601f8201168201806040525081019061065e9190612f99565b73ffffffffffffffffffffffffffffffffffffffff166335ea6a758d6040518263ffffffff1660e01b81526004016106969190612d8a565b6101e060405180830381865afa1580156106b2573d5f5f3e3d5ffd5b505050506040513d601f19601f820116820180604052508101906106d691906132d5565b90505f7f000000000000000000000000000000000000000000000000000000000000000073ffffffffffffffffffffffffffffffffffffffff1663026b1d5f6040518163ffffffff1660e01b8152600401602060405180830381865afa158015610742573d5f5f3e3d5ffd5b505050506040513d601f19601f820116820180604052508101906107669190612f99565b73ffffffffffffffffffffffffffffffffffffffff16634417a5838d6040518263ffffffff1660e01b815260040161079e9190612d8a565b602060405180830381865afa1580156107b9573d5f5f3e3d5ffd5b505050506040513d601f19601f820116820180604052508101906107dd919061333a565b905081610100015173ffffffffffffffffffffffffffffffffffffffff166370a082318d6040518263ffffffff1660e01b815260040161081d9190612d8a565b602060405180830381865afa158015610838573d5f5f3e3d5ffd5b505050506040513d601f19601f8201168201806040525081019061085c9190613365565b9a5081610140015173ffffffffffffffffffffffffffffffffffffffff166370a082318d6040518263ffffffff1660e01b815260040161089c9190612d8a565b602060405180830381865afa1580156108b7573d5f5f3e3d5ffd5b505050506040513d601f19601f820116820180604052508101906108db9190613365565b985081610120015173ffffffffffffffffffffffffffffffffffffffff166370a082318d6040518263ffffffff1660e01b815260040161091b9190612d8a565b602060405180830381865afa158015610936573d5f5f3e3d5ffd5b505050506040513d601f19601f8201168201806040525081019061095a9190613365565b995081610120015173ffffffffffffffffffffffffffffffffffffffff1663c634dfaa8d6040518263ffffffff1660e01b815260040161099a9190612d8a565b602060405180830381865afa1580156109b5573d5f5f3e3d5ffd5b505050506040513d601f19601f820116820180604052508101906109d99190613365565b975081610140015173ffffffffffffffffffffffffffffffffffffffff16631da24f3e8d6040518263ffffffff1660e01b8152600401610a199190612d8a565b602060405180830381865afa158015610a34573d5f5f3e3d5ffd5b505050506040513d601f19601f82011682018060405250810190610a589190613365565b965081604001516fffffffffffffffffffffffffffffffff16945081610120015173ffffffffffffffffffffffffffffffffffffffff1663e78c9b3b8d6040518263ffffffff1660e01b8152600401610ab19190612d8a565b602060405180830381865afa158015610acc573d5f5f3e3d5ffd5b505050506040513d601f19601f82011682018060405250810190610af09190613365565b955081610120015173ffffffffffffffffffffffffffffffffffffffff166379ce6b8c8d6040518263ffffffff1660e01b8152600401610b309190612d8a565b602060405180830381865afa158015610b4b573d5f5f3e3d5ffd5b505050506040513d601f19601f82011682018060405250810190610b6f9190613390565b9350610b8c8260e0015161ffff16826125a890919063ffffffff16565b925050509295985092959850929598565b5f5f5f5f5f5f5f5f5f5f5f5f5f7f000000000000000000000000000000000000000000000000000000000000000073ffffffffffffffffffffffffffffffffffffffff1663026b1d5f6040518163ffffffff1660e01b8152600401602060405180830381865afa158015610c13573d5f5f3e3d5ffd5b505050506040513d601f19601f82011682018060405250810190610c379190612f99565b73ffffffffffffffffffffffffffffffffffffffff166335ea6a758f6040518263ffffffff1660e01b8152600401610c6f9190612d8a565b6101e060405180830381865afa158015610c8b573d5f5f3e3d5ffd5b505050506040513d601f19601f82011682018060405250810190610caf91906132d5565b9050806101a0015181610180015182610100015173ffffffffffffffffffffffffffffffffffffffff166318160ddd6040518163ffffffff1660e01b8152600401602060405180830381865afa158015610d0b573d5f5f3e3d5ffd5b505050506040513d601f19601f82011682018060405250810190610d2f9190613365565b83610120015173ffffffffffffffffffffffffffffffffffffffff166318160ddd6040518163ffffffff1660e01b8152600401602060405180830381865afa158015610d7d573d5f5f3e3d5ffd5b505050506040513d601f19601f82011682018060405250810190610da19190613365565b84610140015173ffffffffffffffffffffffffffffffffffffffff166318160ddd6040518163ffffffff1660e01b8152600401602060405180830381865afa158015610def573d5f5f3e3d5ffd5b505050506040513d601f19601f82011682018060405250810190610e139190613365565b856040015186608001518760a0015188610120015173ffffffffffffffffffffffffffffffffffffffff166390f6fcf26040518163ffffffff1660e01b8152600401602060405180830381865afa158015610e70573d5f5f3e3d5ffd5b505050506040513d601f19601f82011682018060405250810190610e949190613365565b89602001518a606001518b60c001518b6fffffffffffffffffffffffffffffffff169b508a6fffffffffffffffffffffffffffffffff169a50866fffffffffffffffffffffffffffffffff169650856fffffffffffffffffffffffffffffffff169550846fffffffffffffffffffffffffffffffff169450826fffffffffffffffffffffffffffffffff169250816fffffffffffffffffffffffffffffffff1691509c509c509c509c509c509c509c509c509c509c509c509c505091939597999b5091939597999b565b5f61106b7f000000000000000000000000000000000000000000000000000000000000000073ffffffffffffffffffffffffffffffffffffffff1663026b1d5f6040518163ffffffff1660e01b8152600401602060405180830381865afa158015610fcb573d5f5f3e3d5ffd5b505050506040513d601f19601f82011682018060405250810190610fef9190612f99565b73ffffffffffffffffffffffffffffffffffffffff1663c44b11f7846040518263ffffffff1660e01b81526004016110279190612d8a565b602060405180830381865afa158015611042573d5f5f3e3d5ffd5b505050506040513d601f19601f8201168201806040525081019061106691906130a3565b612644565b9050919050565b5f61117f7f000000000000000000000000000000000000000000000000000000000000000073ffffffffffffffffffffffffffffffffffffffff1663026b1d5f6040518163ffffffff1660e01b8152600401602060405180830381865afa1580156110df573d5f5f3e3d5ffd5b505050506040513d601f19601f820116820180604052508101906111039190612f99565b73ffffffffffffffffffffffffffffffffffffffff1663c44b11f7846040518263ffffffff1660e01b815260040161113b9190612d8a565b602060405180830381865afa158015611156573d5f5f3e3d5ffd5b505050506040513d601f19601f8201168201806040525081019061117a91906130a3565b612677565b9050919050565b5f5f5f5f5f5f5f5f5f5f5f7f000000000000000000000000000000000000000000000000000000000000000073ffffffffffffffffffffffffffffffffffffffff1663026b1d5f6040518163ffffffff1660e01b8152600401602060405180830381865afa1580156111fa573d5f5f3e3d5ffd5b505050506040513d601f19601f8201168201806040525081019061121e9190612f99565b73ffffffffffffffffffffffffffffffffffffffff1663c44b11f78d6040518263ffffffff1660e01b81526004016112569190612d8a565b602060405180830381865afa158015611271573d5f5f3e3d5ffd5b505050506040513d601f19601f8201168201806040525081019061129591906130a3565b90506112a0816126aa565b50809b50819f50829c50839d50849e5050505050506112be816127b9565b50809750819850829550839650505050505f8914159550509193959799509193959799565b5f5f6113f17f000000000000000000000000000000000000000000000000000000000000000073ffffffffffffffffffffffffffffffffffffffff1663026b1d5f6040518163ffffffff1660e01b8152600401602060405180830381865afa158015611351573d5f5f3e3d5ffd5b505050506040513d601f19601f820116820180604052508101906113759190612f99565b73ffffffffffffffffffffffffffffffffffffffff1663c44b11f7856040518263ffffffff1660e01b81526004016113ad9190612d8a565b602060405180830381865afa1580156113c8573d5f5f3e3d5ffd5b505050506040513d601f19601f820116820180604052508101906113ec91906130a3565b61289c565b8092508193505050915091565b5f5f7f000000000000000000000000000000000000000000000000000000000000000073ffffffffffffffffffffffffffffffffffffffff1663026b1d5f6040518163ffffffff1660e01b8152600401602060405180830381865afa158015611469573d5f5f3e3d5ffd5b505050506040513d601f19601f8201168201806040525081019061148d9190612f99565b73ffffffffffffffffffffffffffffffffffffffff166335ea6a75846040518263ffffffff1660e01b81526004016114c59190612d8a565b6101e060405180830381865afa1580156114e1573d5f5f3e3d5ffd5b505050506040513d601f19601f8201168201806040525081019061150591906132d5565b905080610140015173ffffffffffffffffffffffffffffffffffffffff166318160ddd6040518163ffffffff1660e01b8152600401602060405180830381865afa158015611555573d5f5f3e3d5ffd5b505050506040513d601f19601f820116820180604052508101906115799190613365565b81610120015173ffffffffffffffffffffffffffffffffffffffff166318160ddd6040518163ffffffff1660e01b8152600401602060405180830381865afa1580156115c7573d5f5f3e3d5ffd5b505050506040513d601f19601f820116820180604052508101906115eb9190613365565b6115f591906133e8565b915050919050565b5f5f7f000000000000000000000000000000000000000000000000000000000000000073ffffffffffffffffffffffffffffffffffffffff1663026b1d5f6040518163ffffffff1660e01b8152600401602060405180830381865afa158015611668573d5f5f3e3d5ffd5b505050506040513d601f19601f8201168201806040525081019061168c9190612f99565b73ffffffffffffffffffffffffffffffffffffffff166335ea6a75846040518263ffffffff1660e01b81526004016116c49190612d8a565b6101e060405180830381865afa1580156116e0573d5f5f3e3d5ffd5b505050506040513d601f19601f8201168201806040525081019061170491906132d5565b905080610100015173ffffffffffffffffffffffffffffffffffffffff166318160ddd6040518163ffffffff1660e01b8152600401602060405180830381865afa158015611754573d5f5f3e3d5ffd5b505050506040513d601f19601f820116820180604052508101906117789190613365565b915050919050565b5f5f7f000000000000000000000000000000000000000000000000000000000000000073ffffffffffffffffffffffffffffffffffffffff1663026b1d5f6040518163ffffffff1660e01b8152600401602060405180830381865afa1580156117eb573d5f5f3e3d5ffd5b505050506040513d601f19601f8201168201806040525081019061180f9190612f99565b73ffffffffffffffffffffffffffffffffffffffff166335ea6a75846040518263ffffffff1660e01b81526004016118479190612d8a565b6101e060405180830381865afa158015611863573d5f5f3e3d5ffd5b505050506040513d601f19601f8201168201806040525081019061188791906132d5565b9050806101600151915050919050565b5f6002905090565b5f6119ac7f000000000000000000000000000000000000000000000000000000000000000073ffffffffffffffffffffffffffffffffffffffff1663026b1d5f6040518163ffffffff1660e01b8152600401602060405180830381865afa15801561190c573d5f5f3e3d5ffd5b505050506040513d601f19601f820116820180604052508101906119309190612f99565b73ffffffffffffffffffffffffffffffffffffffff1663c44b11f7846040518263ffffffff1660e01b81526004016119689190612d8a565b602060405180830381865afa158015611983573d5f5f3e3d5ffd5b505050506040513d601f19601f820116820180604052508101906119a791906130a3565b6128ff565b9050919050565b60605f7f000000000000000000000000000000000000000000000000000000000000000073ffffffffffffffffffffffffffffffffffffffff1663026b1d5f6040518163ffffffff1660e01b8152600401602060405180830381865afa158015611a1f573d5f5f3e3d5ffd5b505050506040513d601f19601f82011682018060405250810190611a439190612f99565b90505f8173ffffffffffffffffffffffffffffffffffffffff1663d1946dbc6040518163ffffffff1660e01b81526004015f60405180830381865afa158015611a8e573d5f5f3e3d5ffd5b505050506040513d5f823e3d601f19601f82011682018060405250810190611ab691906134e3565b90505f815167ffffffffffffffff811115611ad457611ad3612fc8565b5b604051908082528060200260200182016040528015611b0d57816020015b611afa612996565b815260200190600190039081611af25790505b5090505f5f90505b8251811015611e1457739f8f72aa9304c8b593d555f12ef6589cc3a579a273ffffffffffffffffffffffffffffffffffffffff16838281518110611b5c57611b5b61352a565b5b602002602001015173ffffffffffffffffffffffffffffffffffffffff1603611c1c5760405180604001604052806040518060400160405280600381526020017f4d4b5200000000000000000000000000000000000000000000000000000000008152508152602001848381518110611bd857611bd761352a565b5b602002602001015173ffffffffffffffffffffffffffffffffffffffff16815250828281518110611c0c57611c0b61352a565b5b6020026020010181905250611e07565b73eeeeeeeeeeeeeeeeeeeeeeeeeeeeeeeeeeeeeeee73ffffffffffffffffffffffffffffffffffffffff16838281518110611c5a57611c5961352a565b5b602002602001015173ffffffffffffffffffffffffffffffffffffffff1603611d1a5760405180604001604052806040518060400160405280600381526020017f45544800000000000000000000000000000000000000000000000000000000008152508152602001848381518110611cd657611cd561352a565b5b602002602001015173ffffffffffffffffffffffffffffffffffffffff16815250828281518110611d0a57611d0961352a565b5b6020026020010181905250611e07565b6040518060400160405280848381518110611d3857611d3761352a565b5b602002602001015173ffffffffffffffffffffffffffffffffffffffff166395d89b416040518163ffffffff1660e01b81526004015f60405180830381865afa158015611d87573d5f5f3e3d5ffd5b505050506040513d5f823e3d601f19601f82011682018060405250810190611daf91906135f9565b8152602001848381518110611dc757611dc661352a565b5b602002602001015173ffffffffffffffffffffffffffffffffffffffff16815250828281518110611dfb57611dfa61352a565b5b60200260200101819052505b8080600101915050611b15565b5080935050505090565b5f611f2b7f000000000000000000000000000000000000000000000000000000000000000073ffffffffffffffffffffffffffffffffffffffff1663026b1d5f6040518163ffffffff1660e01b8152600401602060405180830381865afa158015611e8b573d5f5f3e3d5ffd5b505050506040513d601f19601f82011682018060405250810190611eaf9190612f99565b73ffffffffffffffffffffffffffffffffffffffff1663c44b11f7846040518263ffffffff1660e01b8152600401611ee79190612d8a565b602060405180830381865afa158015611f02573d5f5f3e3d5ffd5b505050506040513d601f19601f82011682018060405250810190611f2691906130a3565b6127b9565b909192935090919250909150905080915050919050565b5f5f5f5f7f000000000000000000000000000000000000000000000000000000000000000073ffffffffffffffffffffffffffffffffffffffff1663026b1d5f6040518163ffffffff1660e01b8152600401602060405180830381865afa158015611faf573d5f5f3e3d5ffd5b505050506040513d601f19601f82011682018060405250810190611fd39190612f99565b73ffffffffffffffffffffffffffffffffffffffff166335ea6a75866040518263ffffffff1660e01b815260040161200b9190612d8a565b6101e060405180830381865afa158015612027573d5f5f3e3d5ffd5b505050506040513d601f19601f8201168201806040525081019061204b91906132d5565b9050806101000151816101200151826101400151935093509350509193909250565b5f5f7f000000000000000000000000000000000000000000000000000000000000000073ffffffffffffffffffffffffffffffffffffffff1663026b1d5f6040518163ffffffff1660e01b8152600401602060405180830381865afa1580156120d8573d5f5f3e3d5ffd5b505050506040513d601f19601f820116820180604052508101906120fc9190612f99565b73ffffffffffffffffffffffffffffffffffffffff1663c44b11f7846040518263ffffffff1660e01b81526004016121349190612d8a565b602060405180830381865afa15801561214f573d5f5f3e3d5ffd5b505050506040513d601f19601f8201168201806040525081019061217391906130a3565b905061217e81612932565b915050919050565b60605f7f000000000000000000000000000000000000000000000000000000000000000073ffffffffffffffffffffffffffffffffffffffff1663026b1d5f6040518163ffffffff1660e01b8152600401602060405180830381865afa1580156121f2573d5f5f3e3d5ffd5b505050506040513d601f19601f820116820180604052508101906122169190612f99565b90505f8173ffffffffffffffffffffffffffffffffffffffff1663d1946dbc6040518163ffffffff1660e01b81526004015f60405180830381865afa158015612261573d5f5f3e3d5ffd5b505050506040513d5f823e3d601f19601f8201168201806040525081019061228991906134e3565b90505f815167ffffffffffffffff8111156122a7576122a6612fc8565b5b6040519080825280602002602001820160405280156122e057816020015b6122cd612996565b8152602001906001900390816122c55790505b5090505f5f90505b8251811015612457575f8473ffffffffffffffffffffffffffffffffffffffff166335ea6a758584815181106123215761232061352a565b5b60200260200101516040518263ffffffff1660e01b81526004016123459190612d8a565b6101e060405180830381865afa158015612361573d5f5f3e3d5ffd5b505050506040513d601f19601f8201168201806040525081019061238591906132d5565b9050604051806040016040528082610100015173ffffffffffffffffffffffffffffffffffffffff166395d89b416040518163ffffffff1660e01b81526004015f60405180830381865afa1580156123df573d5f5f3e3d5ffd5b505050506040513d5f823e3d601f19601f8201168201806040525081019061240791906135f9565b815260200182610100015173ffffffffffffffffffffffffffffffffffffffff1681525083838151811061243e5761243d61352a565b5b60200260200101819052505080806001019150506122e8565b5080935050505090565b5f61256e7f000000000000000000000000000000000000000000000000000000000000000073ffffffffffffffffffffffffffffffffffffffff1663026b1d5f6040518163ffffffff1660e01b8152600401602060405180830381865afa1580156124ce573d5f5f3e3d5ffd5b505050506040513d601f19601f820116820180604052508101906124f29190612f99565b73ffffffffffffffffffffffffffffffffffffffff1663c44b11f7846040518263ffffffff1660e01b815260040161252a9190612d8a565b602060405180830381865afa158015612545573d5f5f3e3d5ffd5b505050506040513d601f19601f8201168201806040525081019061256991906130a3565b612964565b9050919050565b5f60a87fffffffffffffffffffff00ffffffffffffffffffffffffffffffffffffffffff19835f015116901c9050919050565b5f608061ffff1682106040518060400160405280600281526020017f373400000000000000000000000000000000000000000000000000000000000081525090612628576040517f08c379a000000000000000000000000000000000000000000000000000000000815260040161261f9190613688565b60405180910390fd5b505f600180600185901b01855f0151901c161415905092915050565b5f60d47ff0000000000fffffffffffffffffffffffffffffffffffffffffffffffffffff19835f015116901c9050919050565b5f60987fffffffffffffffffffffff0000ffffffffffffffffffffffffffffffffffffff19835f015116901c9050919050565b5f5f5f5f5f5f5f875f015190507fffffffffffffffffffffffffffffffffffffffffffffffffffffffffffff000019811660107fffffffffffffffffffffffffffffffffffffffffffffffffffffffff0000ffff198316901c60207fffffffffffffffffffffffffffffffffffffffffffffffffffff0000ffffffff198416901c60307fffffffffffffffffffffffffffffffffffffffffffffffffff00ffffffffffff198516901c60407fffffffffffffffffffffffffffffffffffffffffffff0000ffffffffffffffff198616901c60a87fffffffffffffffffffff00ffffffffffffffffffffffffffffffffffffffffff198716901c9650965096509650965096505091939550919395565b5f5f5f5f5f5f865f015190505f7ffffffffffffffffffffffffffffffffffffffffffffffffffeffffffffffffff19821614155f7ffffffffffffffffffffffffffffffffffffffffffffffffffdffffffffffffff19831614155f7ffffffffffffffffffffffffffffffffffffffffffffffffffbffffffffffffff19841614155f7ffffffffffffffffffffffffffffffffffffffffffffffffff7ffffffffffffff19851614155f7fffffffffffffffffffffffffffffffffffffffffffffffffefffffffffffffff1986161415955095509550955095505091939590929450565b5f5f5f835f0151905060507ffffffffffffffffffffffffffffffffffff000000000ffffffffffffffffffff198216901c60747fffffffffffffffffffffffffff000000000fffffffffffffffffffffffffffff198316901c9250925050915091565b5f60b07ffffffffffff000000000ffffffffffffffffffffffffffffffffffffffffffff19835f015116901c9050919050565b5f5f7fffffffffffffffffffffffffffffffffffffffffffffffff7fffffffffffffff19835f01511614159050919050565b5f5f7fffffffffffffffffffffffffffffffffffffffffffffffffbfffffffffffffff19835f01511614159050919050565b6040518060400160405280606081526020015f73ffffffffffffffffffffffffffffffffffffffff1681525090565b5f73ffffffffffffffffffffffffffffffffffffffff82169050919050565b5f819050919050565b5f612a07612a026129fd846129c5565b6129e4565b6129c5565b9050919050565b5f612a18826129ed565b9050919050565b5f612a2982612a0e565b9050919050565b612a3981612a1f565b82525050565b5f602082019050612a525f830184612a30565b92915050565b5f604051905090565b5f5ffd5b5f5ffd5b5f612a73826129c5565b9050919050565b612a8381612a69565b8114612a8d575f5ffd5b50565b5f81359050612a9e81612a7a565b92915050565b5f60208284031215612ab957612ab8612a61565b5b5f612ac684828501612a90565b91505092915050565b5f819050919050565b612ae181612acf565b82525050565b5f602082019050612afa5f830184612ad8565b92915050565b5f5f60408385031215612b1657612b15612a61565b5b5f612b2385828601612a90565b9250506020612b3485828601612a90565b9150509250929050565b5f64ffffffffff82169050919050565b612b5781612b3e565b82525050565b5f8115159050919050565b612b7181612b5d565b82525050565b5f61012082019050612b8b5f83018c612ad8565b612b98602083018b612ad8565b612ba5604083018a612ad8565b612bb26060830189612ad8565b612bbf6080830188612ad8565b612bcc60a0830187612ad8565b612bd960c0830186612ad8565b612be660e0830185612b4e565b612bf4610100830184612b68565b9a9950505050505050505050565b5f61018082019050612c165f83018f612ad8565b612c23602083018e612ad8565b612c30604083018d612ad8565b612c3d606083018c612ad8565b612c4a608083018b612ad8565b612c5760a083018a612ad8565b612c6460c0830189612ad8565b612c7160e0830188612ad8565b612c7f610100830187612ad8565b612c8d610120830186612ad8565b612c9b610140830185612ad8565b612ca9610160830184612b4e565b9d9c50505050505050505050505050565b5f61014082019050612cce5f83018d612ad8565b612cdb602083018c612ad8565b612ce8604083018b612ad8565b612cf5606083018a612ad8565b612d026080830189612ad8565b612d0f60a0830188612b68565b612d1c60c0830187612b68565b612d2960e0830186612b68565b612d37610100830185612b68565b612d45610120830184612b68565b9b9a5050505050505050505050565b5f604082019050612d675f830185612ad8565b612d746020830184612ad8565b9392505050565b612d8481612a69565b82525050565b5f602082019050612d9d5f830184612d7b565b92915050565b5f81519050919050565b5f82825260208201905092915050565b5f819050602082019050919050565b5f81519050919050565b5f82825260208201905092915050565b8281835e5f83830152505050565b5f601f19601f8301169050919050565b5f612e0e82612dcc565b612e188185612dd6565b9350612e28818560208601612de6565b612e3181612df4565b840191505092915050565b612e4581612a69565b82525050565b5f604083015f8301518482035f860152612e658282612e04565b9150506020830151612e7a6020860182612e3c565b508091505092915050565b5f612e908383612e4b565b905092915050565b5f602082019050919050565b5f612eae82612da3565b612eb88185612dad565b935083602082028501612eca85612dbd565b805f5b85811015612f055784840389528151612ee68582612e85565b9450612ef183612e98565b925060208a01995050600181019050612ecd565b50829750879550505050505092915050565b5f6020820190508181035f830152612f2f8184612ea4565b905092915050565b5f602082019050612f4a5f830184612b68565b92915050565b5f606082019050612f635f830186612d7b565b612f706020830185612d7b565b612f7d6040830184612d7b565b949350505050565b5f81519050612f9381612a7a565b92915050565b5f60208284031215612fae57612fad612a61565b5b5f612fbb84828501612f85565b91505092915050565b5f5ffd5b7f4e487b71000000000000000000000000000000000000000000000000000000005f52604160045260245ffd5b612ffe82612df4565b810181811067ffffffffffffffff8211171561301d5761301c612fc8565b5b80604052505050565b5f61302f612a58565b905061303b8282612ff5565b919050565b61304981612acf565b8114613053575f5ffd5b50565b5f8151905061306481613040565b92915050565b5f6020828403121561307f5761307e612fc4565b5b6130896020613026565b90505f61309884828501613056565b5f8301525092915050565b5f602082840312156130b8576130b7612a61565b5b5f6130c58482850161306a565b91505092915050565b5f6fffffffffffffffffffffffffffffffff82169050919050565b6130f2816130ce565b81146130fc575f5ffd5b50565b5f8151905061310d816130e9565b92915050565b61311c81612b3e565b8114613126575f5ffd5b50565b5f8151905061313781613113565b92915050565b5f61ffff82169050919050565b6131538161313d565b811461315d575f5ffd5b50565b5f8151905061316e8161314a565b92915050565b5f6101e0828403121561318a57613189612fc4565b5b6131956101e0613026565b90505f6131a48482850161306a565b5f8301525060206131b7848285016130ff565b60208301525060406131cb848285016130ff565b60408301525060606131df848285016130ff565b60608301525060806131f3848285016130ff565b60808301525060a0613207848285016130ff565b60a08301525060c061321b84828501613129565b60c08301525060e061322f84828501613160565b60e08301525061010061324484828501612f85565b6101008301525061012061325a84828501612f85565b6101208301525061014061327084828501612f85565b6101408301525061016061328684828501612f85565b6101608301525061018061329c848285016130ff565b610180830152506101a06132b2848285016130ff565b6101a0830152506101c06132c8848285016130ff565b6101c08301525092915050565b5f6101e082840312156132eb576132ea612a61565b5b5f6132f884828501613174565b91505092915050565b5f6020828403121561331657613315612fc4565b5b6133206020613026565b90505f61332f84828501613056565b5f8301525092915050565b5f6020828403121561334f5761334e612a61565b5b5f61335c84828501613301565b91505092915050565b5f6020828403121561337a57613379612a61565b5b5f61338784828501613056565b91505092915050565b5f602082840312156133a5576133a4612a61565b5b5f6133b284828501613129565b91505092915050565b7f4e487b71000000000000000000000000000000000000000000000000000000005f52601160045260245ffd5b5f6133f282612acf565b91506133fd83612acf565b9250828201905080821115613415576134146133bb565b5b92915050565b5f5ffd5b5f67ffffffffffffffff82111561343957613438612fc8565b5b602082029050602081019050919050565b5f5ffd5b5f61346061345b8461341f565b613026565b905080838252602082019050602084028301858111156134835761348261344a565b5b835b818110156134ac57806134988882612f85565b845260208401935050602081019050613485565b5050509392505050565b5f82601f8301126134ca576134c961341b565b5b81516134da84826020860161344e565b91505092915050565b5f602082840312156134f8576134f7612a61565b5b5f82015167ffffffffffffffff81111561351557613514612a65565b5b613521848285016134b6565b91505092915050565b7f4e487b71000000000000000000000000000000000000000000000000000000005f52603260045260245ffd5b5f5ffd5b5f67ffffffffffffffff82111561357557613574612fc8565b5b61357e82612df4565b9050602081019050919050565b5f61359d6135988461355b565b613026565b9050828152602081018484840111156135b9576135b8613557565b5b6135c4848285612de6565b509392505050565b5f82601f8301126135e0576135df61341b565b5b81516135f084826020860161358b565b91505092915050565b5f6020828403121561360e5761360d612a61565b5b5f82015167ffffffffffffffff81111561362b5761362a612a65565b5b613637848285016135cc565b91505092915050565b5f82825260208201905092915050565b5f61365a82612dcc565b6136648185613640565b9350613674818560208601612de6565b61367d81612df4565b840191505092915050565b5f6020820190508181035f8301526136a08184613650565b90509291505056fea2646970667358221220bce46355e23997982e62465d1bb413592997f0c6e2803674a4fa6582f392e76764736f6c634300081c0033","linkReferences":{}},"methodIdentifiers":{"ADDRESSES_PROVIDER()":"0542975c","getATokenTotalSupply(address)":"51460e25","getAllATokens()":"f561ae41","getAllReservesTokens()":"b316ff89","getDebtCeiling(address)":"3c798109","getDebtCeilingDecimals()":"69b169e1","getFlashLoanEnabled(address)":"d7ed3ef4","getInterestRateStrategyAddress(address)":"6744362a","getLiquidationProtocolFee(address)":"3cb8a622","getPaused(address)":"b55d9904","getReserveCaps(address)":"46fbe558","getReserveConfigurationData(address)":"3e150141","getReserveData(address)":"35ea6a75","getReserveEModeCategory(address)":"163a0f20","getReserveTokensAddresses(address)":"d2493b6c","getSiloedBorrowing(address)":"fcf40a62","getTotalDebt(address)":"4d44ac4f","getUnbackedMintCap(address)":"7ba1ae36","getUserReserveData(address,address)":"28dd2d01"},"id":86}