{"abi":[{"type":"function","name":"destroyAndTransfer","inputs":[{"name":"to","type":"address","internalType":"address payable"}],"outputs":[],"stateMutability":"payable"}],"bytecode":{"object":"0x6080604052348015600e575f5ffd5b506101038061001c5f395ff3fe608060405260043610601b575f3560e01c8063785e07b314601f575b5f5ffd5b603560048036038101906031919060a7565b6037565b005b8073ffffffffffffffffffffffffffffffffffffffff16ff5b5f5ffd5b5f73ffffffffffffffffffffffffffffffffffffffff82169050919050565b5f607b826054565b9050919050565b6089816073565b81146092575f5ffd5b50565b5f8135905060a1816082565b92915050565b5f6020828403121560b95760b86050565b5b5f60c4848285016095565b9150509291505056fea26469706673582212201b98c999503281d54349a3a981736f84224bc295c8ce051ccb8457286725fd4d64736f6c634300081c0033","linkReferences":{}},"methodIdentifiers":{"destroyAndTransfer(address)":"785e07b3"},"id":23}