{"abi":[{"type":"function","name":"owner","inputs":[],"outputs":[{"name":"","type":"address","internalType":"address"}],"stateMutability":"view"},{"type":"function","name":"renounceOwnership","inputs":[],"outputs":[],"stateMutability":"nonpayable"},{"type":"function","name":"transferFrom","inputs":[{"name":"token","type":"address","internalType":"address"},{"name":"from","type":"address","internalType":"address"},{"name":"to","type":"address","internalType":"address"},{"name":"amount","type":"uint256","internalType":"uint256"}],"outputs":[],"stateMutability":"nonpayable"},{"type":"function","name":"transferOwnership","inputs":[{"name":"newOwner","type":"address","internalType":"address"}],"outputs":[],"stateMutability":"nonpayable"},{"type":"event","name":"OwnershipTransferred","inputs":[{"name":"previousOwner","type":"address","indexed":true,"internalType":"address"},{"name":"newOwner","type":"address","indexed":true,"internalType":"address"}],"anonymous":false}],"bytecode":{"object":"0x6080604052348015600e575f5ffd5b505f601c60bc60201b60201c565b9050805f5f6101000a81548173ffffffffffffffffffffffffffffffffffffffff021916908373ffffffffffffffffffffffffffffffffffffffff1602179055508073ffffffffffffffffffffffffffffffffffffffff165f73ffffffffffffffffffffffffffffffffffffffff167f8be0079c531659141344cd1fd0a4f28419497f9722a3daafe3b4186f6b6457e060405160405180910390a35060c3565b5f33905090565b61082c806100d05f395ff3fe608060405234801561000f575f5ffd5b506004361061004a575f3560e01c806315dacbea1461004e578063715018a61461006a5780638da5cb5b14610074578063f2fde38b14610092575b5f5ffd5b61006860048036038101906100639190610595565b6100ae565b005b6100726101c7565b005b61007c610317565b6040516100899190610608565b60405180910390f35b6100ac60048036038101906100a79190610621565b61033e565b005b6100b66104fd565b73ffffffffffffffffffffffffffffffffffffffff165f5f9054906101000a900473ffffffffffffffffffffffffffffffffffffffff1673ffffffffffffffffffffffffffffffffffffffff1614610143576040517f08c379a000000000000000000000000000000000000000000000000000000000815260040161013a906106a6565b60405180910390fd5b8373ffffffffffffffffffffffffffffffffffffffff166323b872dd8484846040518463ffffffff1660e01b8152600401610180939291906106d3565b6020604051808303815f875af115801561019c573d5f5f3e3d5ffd5b505050506040513d601f19601f820116820180604052508101906101c0919061073d565b5050505050565b6101cf6104fd565b73ffffffffffffffffffffffffffffffffffffffff165f5f9054906101000a900473ffffffffffffffffffffffffffffffffffffffff1673ffffffffffffffffffffffffffffffffffffffff161461025c576040517f08c379a0000000000000000000000000000000000000000000000000000000008152600401610253906106a6565b60405180910390fd5b5f73ffffffffffffffffffffffffffffffffffffffff165f5f9054906101000a900473ffffffffffffffffffffffffffffffffffffffff1673ffffffffffffffffffffffffffffffffffffffff167f8be0079c531659141344cd1fd0a4f28419497f9722a3daafe3b4186f6b6457e060405160405180910390a35f5f5f6101000a81548173ffffffffffffffffffffffffffffffffffffffff021916908373ffffffffffffffffffffffffffffffffffffffff160217905550565b5f5f5f9054906101000a900473ffffffffffffffffffffffffffffffffffffffff16905090565b6103466104fd565b73ffffffffffffffffffffffffffffffffffffffff165f5f9054906101000a900473ffffffffffffffffffffffffffffffffffffffff1673ffffffffffffffffffffffffffffffffffffffff16146103d3576040517f08c379a00000000000000000000000000000000000000000000000000000000081526004016103ca906106a6565b60405180910390fd5b5f73ffffffffffffffffffffffffffffffffffffffff168173ffffffffffffffffffffffffffffffffffffffff1603610441576040517f08c379a0000000000000000000000000000000000000000000000000000000008152600401610438906107d8565b60405180910390fd5b8073ffffffffffffffffffffffffffffffffffffffff165f5f9054906101000a900473ffffffffffffffffffffffffffffffffffffffff1673ffffffffffffffffffffffffffffffffffffffff167f8be0079c531659141344cd1fd0a4f28419497f9722a3daafe3b4186f6b6457e060405160405180910390a3805f5f6101000a81548173ffffffffffffffffffffffffffffffffffffffff021916908373ffffffffffffffffffffffffffffffffffffffff16021790555050565b5f33905090565b5f5ffd5b5f73ffffffffffffffffffffffffffffffffffffffff82169050919050565b5f61053182610508565b9050919050565b61054181610527565b811461054b575f5ffd5b50565b5f8135905061055c81610538565b92915050565b5f819050919050565b61057481610562565b811461057e575f5ffd5b50565b5f8135905061058f8161056b565b92915050565b5f5f5f5f608085870312156105ad576105ac610504565b5b5f6105ba8782880161054e565b94505060206105cb8782880161054e565b93505060406105dc8782880161054e565b92505060606105ed87828801610581565b91505092959194509250565b61060281610527565b82525050565b5f60208201905061061b5f8301846105f9565b92915050565b5f6020828403121561063657610635610504565b5b5f6106438482850161054e565b91505092915050565b5f82825260208201905092915050565b7f4f776e61626c653a2063616c6c6572206973206e6f7420746865206f776e65725f82015250565b5f61069060208361064c565b915061069b8261065c565b602082019050919050565b5f6020820190508181035f8301526106bd81610684565b9050919050565b6106cd81610562565b82525050565b5f6060820190506106e65f8301866105f9565b6106f360208301856105f9565b61070060408301846106c4565b949350505050565b5f8115159050919050565b61071c81610708565b8114610726575f5ffd5b50565b5f8151905061073781610713565b92915050565b5f6020828403121561075257610751610504565b5b5f61075f84828501610729565b91505092915050565b7f4f776e61626c653a206e6577206f776e657220697320746865207a65726f20615f8201527f6464726573730000000000000000000000000000000000000000000000000000602082015250565b5f6107c260268361064c565b91506107cd82610768565b604082019050919050565b5f6020820190508181035f8301526107ef816107b6565b905091905056fea26469706673582212202debb8ecd397241b06545c80dc45e03df5d4f15690dd5e2e91de3f9347db036664736f6c634300081c0033","linkReferences":{}},"methodIdentifiers":{"owner()":"8da5cb5b","renounceOwnership()":"715018a6","transferFrom(address,address,address,uint256)":"15dacbea","transferOwnership(address)":"f2fde38b"},"id":26}