{"abi":[{"type":"constructor","inputs":[{"name":"aaveGovShortTimelock","type":"address","internalType":"address"}],"stateMutability":"nonpayable"},{"type":"function","name":"approve","inputs":[{"name":"collector","type":"address","internalType":"address"},{"name":"token","type":"address","internalType":"contract IERC20"},{"name":"recipient","type":"address","internalType":"address"},{"name":"amount","type":"uint256","internalType":"uint256"}],"outputs":[],"stateMutability":"nonpayable"},{"type":"function","name":"cancelStream","inputs":[{"name":"collector","type":"address","internalType":"address"},{"name":"streamId","type":"uint256","internalType":"uint256"}],"outputs":[{"name":"","type":"bool","internalType":"bool"}],"stateMutability":"nonpayable"},{"type":"function","name":"createStream","inputs":[{"name":"collector","type":"address","internalType":"address"},{"name":"recipient","type":"address","internalType":"address"},{"name":"deposit","type":"uint256","internalType":"uint256"},{"name":"tokenAddress","type":"address","internalType":"contract IERC20"},{"name":"startTime","type":"uint256","internalType":"uint256"},{"name":"stopTime","type":"uint256","internalType":"uint256"}],"outputs":[{"name":"","type":"uint256","internalType":"uint256"}],"stateMutability":"nonpayable"},{"type":"function","name":"owner","inputs":[],"outputs":[{"name":"","type":"address","internalType":"address"}],"stateMutability":"view"},{"type":"function","name":"renounceOwnership","inputs":[],"outputs":[],"stateMutability":"nonpayable"},{"type":"function","name":"transfer","inputs":[{"name":"collector","type":"address","internalType":"address"},{"name":"token","type":"address","internalType":"contract IERC20"},{"name":"recipient","type":"address","internalType":"address"},{"name":"amount","type":"uint256","internalType":"uint256"}],"outputs":[],"stateMutability":"nonpayable"},{"type":"function","name":"transferOwnership","inputs":[{"name":"newOwner","type":"address","internalType":"address"}],"outputs":[],"stateMutability":"nonpayable"},{"type":"function","name":"withdrawFromStream","inputs":[{"name":"collector","type":"address","internalType":"address"},{"name":"streamId","type":"uint256","internalType":"uint256"},{"name":"funds","type":"uint256","internalType":"uint256"}],"outputs":[{"name":"","type":"bool","internalType":"bool"}],"stateMutability":"nonpayable"},{"type":"event","name":"OwnershipTransferred","inputs":[{"name":"previousOwner","type":"address","indexed":true,"internalType":"address"},{"name":"newOwner","type":"address","indexed":true,"internalType":"address"}],"anonymous":false}],"bytecode":{"object":"0x608060405234801561000f575f5ffd5b506040516114573803806114578339818101604052810190610031919061031b565b5f6100406100f160201b60201c565b9050805f5f6101000a81548173ffffffffffffffffffffffffffffffffffffffff021916908373ffffffffffffffffffffffffffffffffffffffff1602179055508073ffffffffffffffffffffffffffffffffffffffff165f73ffffffffffffffffffffffffffffffffffffffff167f8be0079c531659141344cd1fd0a4f28419497f9722a3daafe3b4186f6b6457e060405160405180910390a3506100eb816100f860201b60201c565b5061044c565b5f33905090565b6101066100f160201b60201c565b73ffffffffffffffffffffffffffffffffffffffff165f5f9054906101000a900473ffffffffffffffffffffffffffffffffffffffff1673ffffffffffffffffffffffffffffffffffffffff1614610193576040517f08c379a000000000000000000000000000000000000000000000000000000000815260040161018a906103a0565b60405180910390fd5b5f73ffffffffffffffffffffffffffffffffffffffff168173ffffffffffffffffffffffffffffffffffffffff1603610201576040517f08c379a00000000000000000000000000000000000000000000000000000000081526004016101f89061042e565b60405180910390fd5b8073ffffffffffffffffffffffffffffffffffffffff165f5f9054906101000a900473ffffffffffffffffffffffffffffffffffffffff1673ffffffffffffffffffffffffffffffffffffffff167f8be0079c531659141344cd1fd0a4f28419497f9722a3daafe3b4186f6b6457e060405160405180910390a3805f5f6101000a81548173ffffffffffffffffffffffffffffffffffffffff021916908373ffffffffffffffffffffffffffffffffffffffff16021790555050565b5f5ffd5b5f73ffffffffffffffffffffffffffffffffffffffff82169050919050565b5f6102ea826102c1565b9050919050565b6102fa816102e0565b8114610304575f5ffd5b50565b5f81519050610315816102f1565b92915050565b5f602082840312156103305761032f6102bd565b5b5f61033d84828501610307565b91505092915050565b5f82825260208201905092915050565b7f4f776e61626c653a2063616c6c6572206973206e6f7420746865206f776e65725f82015250565b5f61038a602083610346565b915061039582610356565b602082019050919050565b5f6020820190508181035f8301526103b78161037e565b9050919050565b7f4f776e61626c653a206e6577206f776e657220697320746865207a65726f20615f8201527f6464726573730000000000000000000000000000000000000000000000000000602082015250565b5f610418602683610346565b9150610423826103be565b604082019050919050565b5f6020820190508181035f8301526104458161040c565b9050919050565b610ffe806104595f395ff3fe608060405234801561000f575f5ffd5b5060043610610086575f3560e01c80638da5cb5b116100595780638da5cb5b14610110578063f18d03cc1461012e578063f2fde38b1461014a578063fd59e1341461016657610086565b80632f436bfa1461008a57806359eba454146100ba578063715018a6146100d65780637dc14a8e146100e0575b5f5ffd5b6100a4600480360381019061009f9190610ac2565b610196565b6040516100b19190610b2c565b60405180910390f35b6100d460048036038101906100cf9190610b80565b6102b0565b005b6100de6103b5565b005b6100fa60048036038101906100f59190610be4565b610505565b6040516101079190610b2c565b60405180910390f35b61011861061c565b6040516101259190610c31565b60405180910390f35b61014860048036038101906101439190610b80565b610643565b005b610164600480360381019061015f9190610c4a565b610748565b005b610180600480360381019061017b9190610c75565b610907565b60405161018d9190610d0d565b60405180910390f35b5f61019f610a2a565b73ffffffffffffffffffffffffffffffffffffffff165f5f9054906101000a900473ffffffffffffffffffffffffffffffffffffffff1673ffffffffffffffffffffffffffffffffffffffff161461022c576040517f08c379a000000000000000000000000000000000000000000000000000000000815260040161022390610d80565b60405180910390fd5b8373ffffffffffffffffffffffffffffffffffffffff16637a9b2c6c84846040518363ffffffff1660e01b8152600401610267929190610d9e565b6020604051808303815f875af1158015610283573d5f5f3e3d5ffd5b505050506040513d601f19601f820116820180604052508101906102a79190610def565b90509392505050565b6102b8610a2a565b73ffffffffffffffffffffffffffffffffffffffff165f5f9054906101000a900473ffffffffffffffffffffffffffffffffffffffff1673ffffffffffffffffffffffffffffffffffffffff1614610345576040517f08c379a000000000000000000000000000000000000000000000000000000000815260040161033c90610d80565b60405180910390fd5b8373ffffffffffffffffffffffffffffffffffffffff1663e1f21c678484846040518463ffffffff1660e01b815260040161038293929190610e75565b5f604051808303815f87803b158015610399575f5ffd5b505af11580156103ab573d5f5f3e3d5ffd5b5050505050505050565b6103bd610a2a565b73ffffffffffffffffffffffffffffffffffffffff165f5f9054906101000a900473ffffffffffffffffffffffffffffffffffffffff1673ffffffffffffffffffffffffffffffffffffffff161461044a576040517f08c379a000000000000000000000000000000000000000000000000000000000815260040161044190610d80565b60405180910390fd5b5f73ffffffffffffffffffffffffffffffffffffffff165f5f9054906101000a900473ffffffffffffffffffffffffffffffffffffffff1673ffffffffffffffffffffffffffffffffffffffff167f8be0079c531659141344cd1fd0a4f28419497f9722a3daafe3b4186f6b6457e060405160405180910390a35f5f5f6101000a81548173ffffffffffffffffffffffffffffffffffffffff021916908373ffffffffffffffffffffffffffffffffffffffff160217905550565b5f61050e610a2a565b73ffffffffffffffffffffffffffffffffffffffff165f5f9054906101000a900473ffffffffffffffffffffffffffffffffffffffff1673ffffffffffffffffffffffffffffffffffffffff161461059b576040517f08c379a000000000000000000000000000000000000000000000000000000000815260040161059290610d80565b60405180910390fd5b8273ffffffffffffffffffffffffffffffffffffffff16636db9241b836040518263ffffffff1660e01b81526004016105d49190610d0d565b6020604051808303815f875af11580156105f0573d5f5f3e3d5ffd5b505050506040513d601f19601f820116820180604052508101906106149190610def565b905092915050565b5f5f5f9054906101000a900473ffffffffffffffffffffffffffffffffffffffff16905090565b61064b610a2a565b73ffffffffffffffffffffffffffffffffffffffff165f5f9054906101000a900473ffffffffffffffffffffffffffffffffffffffff1673ffffffffffffffffffffffffffffffffffffffff16146106d8576040517f08c379a00000000000000000000000000000000000000000000000000000000081526004016106cf90610d80565b60405180910390fd5b8373ffffffffffffffffffffffffffffffffffffffff1663beabacc88484846040518463ffffffff1660e01b815260040161071593929190610e75565b5f604051808303815f87803b15801561072c575f5ffd5b505af115801561073e573d5f5f3e3d5ffd5b5050505050505050565b610750610a2a565b73ffffffffffffffffffffffffffffffffffffffff165f5f9054906101000a900473ffffffffffffffffffffffffffffffffffffffff1673ffffffffffffffffffffffffffffffffffffffff16146107dd576040517f08c379a00000000000000000000000000000000000000000000000000000000081526004016107d490610d80565b60405180910390fd5b5f73ffffffffffffffffffffffffffffffffffffffff168173ffffffffffffffffffffffffffffffffffffffff160361084b576040517f08c379a000000000000000000000000000000000000000000000000000000000815260040161084290610f1a565b60405180910390fd5b8073ffffffffffffffffffffffffffffffffffffffff165f5f9054906101000a900473ffffffffffffffffffffffffffffffffffffffff1673ffffffffffffffffffffffffffffffffffffffff167f8be0079c531659141344cd1fd0a4f28419497f9722a3daafe3b4186f6b6457e060405160405180910390a3805f5f6101000a81548173ffffffffffffffffffffffffffffffffffffffff021916908373ffffffffffffffffffffffffffffffffffffffff16021790555050565b5f610910610a2a565b73ffffffffffffffffffffffffffffffffffffffff165f5f9054906101000a900473ffffffffffffffffffffffffffffffffffffffff1673ffffffffffffffffffffffffffffffffffffffff161461099d576040517f08c379a000000000000000000000000000000000000000000000000000000000815260040161099490610d80565b60405180910390fd5b8673ffffffffffffffffffffffffffffffffffffffff1663cc1b4bf687878787876040518663ffffffff1660e01b81526004016109de959493929190610f38565b6020604051808303815f875af11580156109fa573d5f5f3e3d5ffd5b505050506040513d601f19601f82011682018060405250810190610a1e9190610f9d565b90509695505050505050565b5f33905090565b5f5ffd5b5f73ffffffffffffffffffffffffffffffffffffffff82169050919050565b5f610a5e82610a35565b9050919050565b610a6e81610a54565b8114610a78575f5ffd5b50565b5f81359050610a8981610a65565b92915050565b5f819050919050565b610aa181610a8f565b8114610aab575f5ffd5b50565b5f81359050610abc81610a98565b92915050565b5f5f5f60608486031215610ad957610ad8610a31565b5b5f610ae686828701610a7b565b9350506020610af786828701610aae565b9250506040610b0886828701610aae565b9150509250925092565b5f8115159050919050565b610b2681610b12565b82525050565b5f602082019050610b3f5f830184610b1d565b92915050565b5f610b4f82610a54565b9050919050565b610b5f81610b45565b8114610b69575f5ffd5b50565b5f81359050610b7a81610b56565b92915050565b5f5f5f5f60808587031215610b9857610b97610a31565b5b5f610ba587828801610a7b565b9450506020610bb687828801610b6c565b9350506040610bc787828801610a7b565b9250506060610bd887828801610aae565b91505092959194509250565b5f5f60408385031215610bfa57610bf9610a31565b5b5f610c0785828601610a7b565b9250506020610c1885828601610aae565b9150509250929050565b610c2b81610a54565b82525050565b5f602082019050610c445f830184610c22565b92915050565b5f60208284031215610c5f57610c5e610a31565b5b5f610c6c84828501610a7b565b91505092915050565b5f5f5f5f5f5f60c08789031215610c8f57610c8e610a31565b5b5f610c9c89828a01610a7b565b9650506020610cad89828a01610a7b565b9550506040610cbe89828a01610aae565b9450506060610ccf89828a01610b6c565b9350506080610ce089828a01610aae565b92505060a0610cf189828a01610aae565b9150509295509295509295565b610d0781610a8f565b82525050565b5f602082019050610d205f830184610cfe565b92915050565b5f82825260208201905092915050565b7f4f776e61626c653a2063616c6c6572206973206e6f7420746865206f776e65725f82015250565b5f610d6a602083610d26565b9150610d7582610d36565b602082019050919050565b5f6020820190508181035f830152610d9781610d5e565b9050919050565b5f604082019050610db15f830185610cfe565b610dbe6020830184610cfe565b9392505050565b610dce81610b12565b8114610dd8575f5ffd5b50565b5f81519050610de981610dc5565b92915050565b5f60208284031215610e0457610e03610a31565b5b5f610e1184828501610ddb565b91505092915050565b5f819050919050565b5f610e3d610e38610e3384610a35565b610e1a565b610a35565b9050919050565b5f610e4e82610e23565b9050919050565b5f610e5f82610e44565b9050919050565b610e6f81610e55565b82525050565b5f606082019050610e885f830186610e66565b610e956020830185610c22565b610ea26040830184610cfe565b949350505050565b7f4f776e61626c653a206e6577206f776e657220697320746865207a65726f20615f8201527f6464726573730000000000000000000000000000000000000000000000000000602082015250565b5f610f04602683610d26565b9150610f0f82610eaa565b604082019050919050565b5f6020820190508181035f830152610f3181610ef8565b9050919050565b5f60a082019050610f4b5f830188610c22565b610f586020830187610cfe565b610f656040830186610c22565b610f726060830185610cfe565b610f7f6080830184610cfe565b9695505050505050565b5f81519050610f9781610a98565b92915050565b5f60208284031215610fb257610fb1610a31565b5b5f610fbf84828501610f89565b9150509291505056fea2646970667358221220049d0155ebd1e15545bde3f8bb7c1e5e8b5d710f8f9ca3fc1a03bed2d4be563f64736f6c634300081c0033","linkReferences":{}},"methodIdentifiers":{"approve(address,address,address,uint256)":"59eba454","cancelStream(address,uint256)":"7dc14a8e","createStream(address,address,uint256,address,uint256,uint256)":"fd59e134","owner()":"8da5cb5b","renounceOwnership()":"715018a6","transfer(address,address,address,uint256)":"f18d03cc","transferOwnership(address)":"f2fde38b","withdrawFromStream(address,uint256,uint256)":"2f436bfa"},"id":44}